:10000000CCC20000E7C20000E5C20000E3C200006D
:10001000E1C20000DFC20000DDC20000DBC2000060
:10002000D9C20000D7C200004FC50000D3C20000F3
:10003000D1C20000CFC20000CDC20000CBC2000080
:10004000C9C20000C7C20000C5C20000C3C2000090
:10005000C1C20000BFC20000BDC20000BBC20000A0
:10006000B9C200000C94BB080C949008B3C2000005
:10007000B1C20000AFC20000ADC20000ABC20000C0
:10008000A9C20000A7C20000A5C20000A3C20000D0
:10009000A1C200009FC200009DC200009BC20000E0
:1000A00099C2000097C2000095C200000000000045
:1000B00003836BF2F7703BE1F4F350131F979AC779
:1000C0001C14F135E8E7A126EB64CAD4CF58D98ACD
:1000D000CCDBB2783828E26B3BAB8999D0CF434D6B
:1000E000D34C28BF27BF78AC243C135E6FC75E108B
:1000F0006C4435E298B765F19B340E037050C4D759
:1001000073D3AF258720FF3684A394C4A09F879A1A
:10011000A31CEC6857EFBC7B546CD789BF081D5DEE
:10012000BC8B76AF487826BC4BFB4D4EDE8EBD2097
:10013000DD0DD6D229FE86C12A7DED33C11927E710
:10014000C29A4C1536691C0635EA77F411D664AAB2
:1001500012550F58E6A65F4BE52534B90E41FE6DEA
:100160000DC2959FF931C58CFAB2AE7EB149E3302C
:10017000B2CA88C24639D8D145BAB323AEDE79F7C0
:10018000AD5D120559AE42165A2D29E47E113ABAD8
:100190007D9251488961015B8AE26AA96186A07DEE
:1001A0006205CB8F96F69B9C9575F06EBC1D7B41CE
:1001B000BF9E10B34B6D40A048EE2B52A38AE18640
:1001C000A0098A7454FADA675779B1957345A2CBBE
:1001D00070C6C9398435992A87B6F2D86CD2380CE2
:1001E0006F5153FE9BA203ED9821681FD3DA25516E
:1001F000D0594EA324AA1EB027297542CC4DBF96D4
:10020000CFCED4643B3D847738BEEF851C82FCDBC7
:100210001F019729EBF2C73AE871ACC80315661CB9
:1002200000960DEEF4655DFDF7E6360F6293C6614C
:100230006110AD9395E3FD80966096727D045CA697
:100240007E8737548A74674789F70CB5ADCB1FEBAF
:10025000AE4874195ABB240A59384FF8B25C852C41
:10026000B1DFEEDE452CBECD46AFD53F0D549871C3
:100270000ED7F383FA24A390F9A7C86212C302B67B
:1002800011406944E5B33957E63052A5C20C41FB31
:10029000C18F2A09357C7A1A36FF11E8DD9BDB3CD9
:1002A000DE18B0CE2AEBE0DD29688B2F783BF68292
:1002B0007BB89D708F4BCD638CC8A69167AC6C45A5
:1002C000642F07B790DC57A4935F3C56B7632F08A1
:1002D000B4E044FA401314E943907F1BA8F4B5CF6F
:1002E000AB77DE3D5F848E2E5C07E5DC17FCA892C1
:1002F000147FC360E08C9373E30FF881086B325571
:100300000BE859A7FF1B09B4FC986246D8A47118E2
:10031000DB271AEA2FD44AF92C57210BC733EBDF1E
:10032000C4B0802D3043D03E33C0BBCCA6B54BA269
:10033000A536205051C5704352461BB1B922D16534
:10034000BAA1BA974E52EA844DD1817669ED9228CE
:100350006A6EF9DA9E9DA9C99D1EC23B767A08EFA6
:1003600075F9631D810A330E828958FCC97215B272
:10037000CAF17E403E022E533D8145A1D6E58F75E0
:10038000D566E4872195B4942216DF66062ACC3818
:1003900005A9A7CAF15AF7D9F2D99C2B19BD56FF66
:1003A0001A3E3D0DEECD6D1EED4E06ECC4268DC3FE
:1003B000C7A5E6313356B62230D5DDD0DBB1170400
:1003C000D8327CF62CC12CE52F4247170B7E5449BE
:1003D00008FD3FBBFC0E6FA8FF8D045A14E9CE8EBA
:1003E000176AA57CE399F56FE01A9E9DABE1D3D324
:1003F000A862B8215C91E8325F1283C0B4764914D8
:10040000B7F522E6430672F54085190764B90A5923
:10041000673A61AB93C931B8904A5A4A7B2E909E95
:1004200078ADFB6C8C5EAB7F8FDDC08D1AA830E39E
:10043000192B5B11EDD80B02EE5B60F0053FAA248F
:1004400006BCC1D6F24F91C5F1CCFA37D5F0E969B7
:10045000D673829B2280D2882103B97ACA6773AE91
:10046000C9E4185C3D17484F3E9423BD756F6EF389
:1004700076EC0501821F5512819C3EE06AF8F43447
:10048000697B9FC69D88CFD59E0BA427BA37B779C5
:10049000B9B4DC8B4D478C984EC4E76AA5A02DBE3D
:1004A000A623464C52D0165F51537DAD0501090578
:1004B000A1011500250135004501750195100509BB
:1004C00019012910810205012507463B0175049594
:1004D0000165140939814265009501810126FF00FB
:1004E00046FF000930093109320935750895048144
:1004F000020600FF0920950181020A212695089134
:1005000002C012010002000000400D0F9200000125
:10051000010200010902290001010080FA0904001A
:10052000000203000000092111010001225600070A
:100530000502034000080705810340000804030981
:10054000041C0348004F0052004900200043004FA4
:10055000002E002C004C00540044002E000000240B
:100560000350004F004B004B0045004E002000435D
:10057000004F004E00540052004F004C004C00450C
:10058000005200000001000102000102000102030C
:100590000000000101010202020011241FBECFEF82
:1005A000DAE0DEBFCDBF11E0A0E0B1E0E0E2FBE3C6
:1005B00002C005900D92AC31B107D9F712E0ACE161
:1005C000B1E001C01D92A533B107E1F70E945C12B2
:1005D0000C948E1D15CD882319F028985D980895E8
:1005E000289A5D9A0895209A559A80E0F4CF289B26
:1005F00003C028985D9A0895289A5D9808959C01F3
:100600004091D7015091D8014617570718F4F901C6
:1006100090E043C06115710511F0AB01F8CF8091F6
:10062000E8008E778093E80040E050E0F0CF8091C2
:10063000D001882309F447C0853009F446C0809171
:10064000E80083FD44C08091E80082FD36C08091BF
:10065000E80080FF22C08091F3009091F200782F93
:1006600060E0292F30E0262B372B07C08191809343
:10067000F100415050402F5F3F4F4115510519F097
:100680002034310598F390E02034310509F491E0ED
:100690008091E8008E778093E8004115510539F686
:1006A000992329F60AC08091D001882361F0853012
:1006B00061F08091E80083FD0AC08091E80082FF2C
:1006C000F2CF80E0089582E0089583E0089581E00C
:1006D00008959C014091D7015091D80146175707C2
:1006E00018F4F90190E044C06115710511F0AB01F7
:1006F000F8CF8091E8008E778093E80040E050E0EA
:10070000F0CF8091D001882309F448C0853009F4E6
:1007100047C08091E80083FD45C08091E80082FDDC
:1007200037C08091E80080FF23C08091F300909152
:10073000F200782F60E0292F30E0262B372B08C0FD
:1007400084918093F1003196415050402F5F3F4F8C
:100750004115510519F02034310590F390E0203413
:10076000310509F491E08091E8008E778093E800EC
:100770004115510531F6992321F60AC08091D00127
:10078000882361F0853061F08091E80083FD0AC024
:100790008091E80082FFF2CF80E0089582E0089522
:1007A00083E0089581E00895BF92CF92DF92EF92A7
:1007B000FF920F931F93CF93DF93182F092F7B0185
:1007C0006A01EFD0B82E8823B1F5812F902F9C01BC
:1007D000E901C114D10439F0F60180819181E81A50
:1007E000F90AC80FD91F00E010E022C08091E8008C
:1007F00085FD16C08091E8008B778093E8009BD33D
:10080000C114D10449F0F60180819181800F911FBC
:100810009183808385E010C0C4D0882349F00CC048
:100820008091F10089930894E108F1080F5F1F4F50
:10083000E114F104D9F68B2DDF91CF911F910F9127
:10084000FF90EF90DF90CF90BF900895BF92CF922E
:10085000DF92EF92FF920F931F93CF93DF93182FA6
:10086000092F7B016A019DD0B82E8823B1F5812F15
:10087000902F9C01E901C114D10439F0F601808167
:100880009181E81AF90AC80FD91F00E010E022C0D0
:100890008091E80085FD16C08091E8008E778093F6
:1008A000E80049D3C114D10449F0F6018081918157
:1008B000800F911F9183808385E010C072D08823C0
:1008C00049F00CC089918093F1000894E108F10887
:1008D0000F5F1F4FE114F104D9F68B2DDF91CF91FB
:1008E0001F910F91FF90EF90DF90CF90BF900895F0
:1008F000382F282F2EC0822F8F708093E900231766
:1009000021F4762F942F50E006C07091EC00909166
:10091000ED005091F00091FF1BC08091EB008E7FA5
:100920008093EB008091ED008D7F8093ED008091AE
:10093000EB0081608093EB007093EC009093ED00EE
:100940005093F0008091EE0087FD02C080E0089592
:100950002F5F273080F23F703093E90081E00895E7
:100960008091D10188239CF404C08091D001882318
:10097000B9F08091E80082FFF8CF8091E8008B7792
:100980008093E80008958091D001882349F08091F8
:10099000E80080FFF8CF8091E8008E778093E80030
:1009A00008954091E4005091E50024E68091EC0028
:1009B00080FF24C08091E80080FD1EC08091D0019E
:1009C000882311F482E00895853011F483E00895BE
:1009D0008091EB0085FF02C081E008958091E400E2
:1009E0009091E5008417950709F3222311F484E020
:1009F00008952150AC01DACF80E008958091E8009D
:100A000082FFDCCFF9CFEF92FF920F931F934FD06D
:100A100056D008ED10E0F80180818F7780838081C7
:100A20008068808380818F7D808319BC1092D00183
:100A30001092CC011092CE011092CD0180EEE82EE2
:100A4000F12CF70180818B7F8083F80180818160A8
:100A5000808380E060E042E34BDFE1EEF0E0808104
:100A60008E7F8083E2EEF0E08081816080838081F0
:100A700088608083F70180818E7F8083F801808188
:100A8000806180831F910F91FF90EF900895E8EDB2
:100A9000F0E080818F7E8083E7EDF0E080818160EF
:100AA000808384E082BF81E08093CF01ACCFE8ED0A
:100AB000F0E080818E7F80831092E2000895109292
:100AC000DA001092E10008951F920F920FB60F9274
:100AD00011242F933F934F935F936F937F938F9343
:100AE0009F93AF93BF93EF93FF938091E10082FFB9
:100AF0000AC08091E20082FF06C08091E1008B7FF6
:100B00008093E10017D28091DA0080FF1DC08091B0
:100B1000D80080FF19C08091DA008E7F8093DA00C0
:100B20008091D90080FF0CC080E189BD82E189BD40
:100B300009B400FEFDCF81E08093D0018CD304C0C6
:100B400019BC1092D00188D38091E10080FF18C0B9
:100B50008091E20080FF14C08091E2008E7F80933C
:100B6000E2008091E20080618093E2008091D800F1
:100B700080628093D80019BC85E08093D001DAD1DF
:100B80008091E10084FF2FC08091E20084FF2BC0A0
:100B900080E189BD82E189BD09B400FEFDCF80916D
:100BA000D8008F7D8093D8008091E1008F7E809364
:100BB000E1008091E2008F7E8093E2008091E2006C
:100BC00081608093E2008091CC01882311F084E061
:100BD00007C08091E30087FD02C081E001C083E08F
:100BE0008093D001A7D18091E10083FF22C0809142
:100BF000E20083FF1EC08091E100877F8093E100C7
:100C000082E08093D0011092CC018091E1008E7F30
:100C10008093E1008091E2008E7F8093E2008091DA
:100C2000E20080618093E20080E060E042E360DE09
:100C300081D1FF91EF91BF91AF919F918F917F9162
:100C40006F915F914F913F912F910F900FBE0F9039
:100C50001F9018951F93DF93CF93CDB7DEB7AC9756
:100C60000FB6F894DEBF0FBECDBFE1EDF1E080918D
:100C7000F100819321E0E93DF207C9F7EED28091BE
:100C8000E80083FF3FC18091D1013091D20135301E
:100C900009F48DC0363040F43130E1F1313070F07C
:100CA000333009F02FC136C0383009F4FDC0393077
:100CB00009F40CC1363009F025C19CC0803821F000
:100CC000823809F01FC108C09091CD018091CE01FA
:100CD0008823B1F0926014C08091D5018F70873065
:100CE00008F010C18093E9008091EB0090E025E0CE
:100CF000969587952A95E1F7982F91701092E900C3
:100D00008091E800877F8093E8009093F100109233
:100D1000F100D5C0882319F0823009F0F3C090E0CB
:100D20008F719070009721F0029709F0EBC00CC012
:100D30008091D301813009F0E5C01092CE013330AB
:100D400081F58093CE012DC08091D301882349F590
:100D50002091D5012F70822F8150863008F0D2C0AB
:100D60002093E9008091EB0080FF1BC0333021F419
:100D70008091EB00806213C08091EB0080618093D2
:100D8000EB0081E090E002C0880F991F2A95E2F7FE
:100D90008093EA001092EA008091EB0088608093D3
:100DA000EB001092E9008091E800877F8BC08823D8
:100DB00009F0A8C01091D3011F778091E3008078DB
:100DC000812B8093E3008091E800877F8093E80087
:100DD000C7DD8091E80080FFFCCF8091E300806850
:100DE0008093E300112311F482E001C083E080933B
:100DF000D00188C08058823008F084C08091D3012F
:100E00009091D40123E08C3D920709F033C083E038
:100E10008C838AE28B837FB7F894DE0115966EE0AF
:100E200040E050E011E2E62FF0E01093570084918B
:100E300040FF03C082958F706F5F8F70282F30E066
:100E40008A3018F0C901C79602C0C901C0968D93B7
:100E50009D934F5F5F4F4431510529F77FBF8091CC
:100E6000E800877F8093E800CE0103966AE270E095
:100E7000C6DB14C06091D5017091D601AE014F5F01
:100E80005F4FA0D1BC01009709F43CC08091E800FD
:100E9000877F8093E80089819A811BDC8091E8003C
:100EA0008B778093E8002EC0803861F58091E80050
:100EB000877F8093E8008091CC018093F10080913E
:100EC000E8008E778093E8004BDD1CC08823D1F4C6
:100ED0009091D3019230B0F48091E800877F8093A5
:100EE000E8009093CC013CDD8091CC01882331F463
:100EF0008091E30087FD02C081E001C084E080931F
:100F0000D0011AD28091E80083FF0AC08091E800E6
:100F1000877F8093E8008091EB0080628093EB00F4
:100F2000AC960FB6F894DEBF0FBECDBFCF91DF9168
:100F30001F91089508951F938091D001882371F027
:100F40001091E9008091EC001092E9008091E80096
:100F500083FF01C07FDE1F701093E9001F91089589
:100F600081E039CB40CB08956F927F928F929F9210
:100F7000AF92BF92CF92DF92EF92FF920F931F93A7
:100F8000DF93CF9300D000D0CDB7DEB77B018C01CB
:100F90004A015901CC24DD243E010894611C711CD6
:100FA00020C0F401EC0DFD1D60816E2570E0660F20
:100FB000771F660F771F64557F4FC30144E050E0F1
:100FC0000E947C1DEF2CF02E012F112789819A8120
:100FD000AB81BC81E826F9260A271B270894C11C8F
:100FE000D11CCA14DB04E8F2B701C8010F900F90BE
:100FF0000F900F90CF91DF911F910F91FF90EF9085
:10100000DF90CF90BF90AF909F908F907F906F9028
:101010000895EF92FF920F931F938B017C01045070
:1010200010406FEF7FEF8FEF9FEFA70198019CDFDC
:10103000E00EF11EF70160837183828393831F9119
:101040000F91FF90EF9008959B01AC01F89460E040
:1010500079E08DE390E00E945A1D215030404040DD
:10106000504056954795379527953093CD0020935E
:10107000CC0082E08093C80088E98093C90086E0B4
:101080008093CA0010922F0180912F0180932E012E
:101090001092790180917901809378017894089574
:1010A00090912E019F5F923108F090E080912F0186
:1010B00020E0891321E0822F0895282F90912E019E
:1010C0009F5F923108F090E080912F018917E1F342
:1010D000E92FF0E0E45EFE4F208390932E0188EB31
:1010E0008093C9000895909178018091790120E062
:1010F000981321E0822F08959091780180917901D1
:101100009817D1F3909179019F5F983408F090E09F
:10111000E92FF0E0E05DFE4F808190937901089522
:101120001F920F920FB60F9211248F939F93EF93FC
:10113000FF9390912E0180912F01981721F488E957
:101140008093C9000FC090912F019F5F923108F0EA
:1011500090E0E92FF0E0E45EFE4F80818093CE00C6
:1011600090932F01FF91EF919F918F910F900FBE60
:101170000F901F9018951F920F920FB60F92112487
:101180002F938F939F93EF93FF932091CE00909195
:1011900078019F5F983408F090E08091790198176A
:1011A00039F0E92FF0E0E05DFE4F20839093780165
:1011B000FF91EF919F918F912F910F900FBE0F9004
:1011C0001F901895DA019330B1F0943028F49130E3
:1011D00041F0923079F50AC0913211F1923251F515
:1011E00024C0E2E0F5E022E130E028C0E4E1F5E0EF
:1011F00029E230E023C0813049F0813018F082309C
:10120000C9F40AC0EDE3F5E0849103C0E1E4F5E040
:101210008491282F30E012C0EFE5F5E08491F9CFFA
:10122000E6E2F5E029E030E009C0ECEAF4E026E58A
:1012300030E004C0E0E0F0E020E030E0ED93FC932B
:10124000C901089560917A0170917B0180917C01C0
:1012500090917D0108950895089508956CCE0895A4
:101260000F931F93DF93CF93CDB7DEB72F970FB6B2
:10127000F894DEBF0FBECDBF288739874A875B87CA
:101280006C877D878E879F878091D001843009F09D
:1012900047C082E08093E9008091E80082FF14C09B
:1012A0008091E80085FF0BC08E010F5F1F4FC801C2
:1012B00067E070E040E050E077DA8823C1F7809182
:1012C000E8008B778093E80081E08093E9008091CB
:1012D000E80080FF25C08E01085F1F4FC80168E04D
:1012E00070E040E050E0B2DA8823C1F78091E80076
:1012F0008E778093E80080917A0190917B01A09194
:101300007C01B0917D010196A11DB11D80937A01F0
:1013100090937B01A0937C01B0937D0181E001C09B
:1013200080E02F960FB6F894DEBF0FBECDBFCF91F1
:10133000DF911F910F91089582E060EC42E3D8DACB
:1013400081E061EC42E3D4CA9091830180918401F1
:10135000891719F420E030E010C0892F90E08370E5
:101360009070880F991F9C0143E0220F331F4A950C
:10137000E1F7281B390B27523E4FC90108950F93FF
:101380001F93CF93DF9380918C01882309F043C092
:101390008091830190E083709070880F991FFC0109
:1013A00063E0EE0FFF1F6A95E1F7E81BF90BE752C8
:1013B000FE4F8DEE808385E481838F010E5F1F4F8A
:1013C00082819381A481B581E8018C839D83AE8362
:1013D000BF838091070190910801A0910901B0910C
:1013E0000A0182839383A483B5830196A11DB11D55
:1013F0008093070190930801A0930901B0930A011B
:1014000021DFF8016087718782879387809183014C
:101410008F5F80938301DF91CF911F910F9108958A
:10142000CF93DF93EC010EDF60937E0170937F0119
:10143000809380019093810160918201809183016A
:10144000861701F1862F90E083709070FC01B3E065
:10145000EE0FFF1FBA95E1F7E81BF90BEE0FFF1F28
:10146000E552FE4F288139814A815B8180819181DB
:10147000A281B381281739074A075B0719F46F5F08
:1014800060938201DF91CF910895481711F480E0B5
:101490000895842F16D181E0089510928201109250
:1014A0008301109284011092850181E080938C0168
:1014B00004C4FC0120918401622F70E080918201BC
:1014C000AB01481B51094430510514F080E00895E8
:1014D0004081409544502F5F20938401CB0183705D
:1014E0009070880F991F9C0153E0220F331F5A956B
:1014F000E1F7281B390B27523E4FC901BF0150E0CD
:101500000E94851D81E00895909183018091820160
:10151000981709F440C020918501291721F12F5F08
:1015200020938501215030E023703070220F331F4B
:10153000C90173E0880F991F7A95E1F7821B930B1D
:1015400087529E4FB7D19091850180918301981762
:1015500001F578DE60937E0170937F0180938001B6
:101560009093810116C06EDE20917E0130917F0143
:101570004091800150918101621B730B840B950B8C
:10158000605872408040904030F08091820180939A
:10159000850181E0089580E008956A5F6093880185
:1015A000962F9095909311028093120281E192E020
:1015B00070E02FCDEF92FF920F931F937B018C0170
:1015C00080918801882311F080E014C0E09213021A
:1015D000F092140200931502109316022093170242
:1015E000309318024093190250931A0284E168E084
:1015F000D4DF81E01F910F91FF90EF9008959B0140
:10160000AC0180918801882311F080E00895209337
:10161000130230931402409315025093160281E195
:1016200064E0BBDF81E008959B01AC0180918801FB
:10163000882311F080E00895209313023093140260
:10164000409315025093160280E164E0A6DF81E02A
:1016500008959C0180918801882311F080E008950D
:10166000309314022093130287E062E096DF81E05A
:10167000089560931302709314028093150290935F
:10168000160286E064E089DF81E00895609313022A
:1016900070931402809315029093160285E064E023
:1016A0007CDF81E008958093130283E061E075DFC1
:1016B00081E008958093130282E061E06EDF81E0B3
:1016C00008958093130281E061E067DF81E008956F
:1016D00080918801882311F080E0089580E060E027
:1016E0005CDF81E00895EF92FF920F931F93CF93F9
:1016F000DF93EB01833409F473C0843440F4813404
:1017000031F1823408F043C0803451F40BC0863488
:1017100009F494C0873409F497C0843409F481C073
:1017200080E0A2C0443009F091C00E94F702888195
:101730009981AA81BB810196A11DB11D80930B01E6
:1017400090930C01A0930D01B0930E0187C044301B
:1017500009F07CC080E00E94EB028EE0809388015B
:1017600081EF8093110284E1809312028881998134
:10177000AA81BB818093130290931402A093150257
:10178000B093160285EC90EDA6E7B8E71CC0443094
:1017900009F05CC08EE08093880181EF8093110294
:1017A00084E18093120288819981AA81BB81809310
:1017B000130290931402A0931502B09316028CECBE
:1017C00097EBA4E9B8E78093170290931802A093CF
:1017D0001902B0931A0281E192E06EE070E01FC03E
:1017E0004430A1F58BE08093880184EF809311024F
:1017F00082E18093120288819981AA81BB818093C2
:10180000130290931402A0931502B09316028091D4
:1018100086018093170281E192E06BE070E0F9DBD2
:1018200022C0443099F4E880F9800A811B810ADDE6
:101830009B01AC01C801B701BDDE15C0443031F4D5
:10184000222361F02ADE0AC0443019F0842F39DFE8
:101850000AC0222319F081E080938B01688179818D
:101860008A819B81CCDE81E0DF91CF911F910F9126
:10187000FF90EF900895833018F4813038F414C04D
:10188000843021F0813161F080E0089582E180931D
:101890008801E1E1F2E0DF011D928A95E9F704C0D9
:1018A000443021F0842F0DDF81E00895CB01B8DDB5
:1018B00081E008950F931F93FC01208120952093D0
:1018C000880101E112E030E024503040C801BF013E
:1018D000A9010E94851D60918801C80170E099DB13
:1018E0001F910F9108950F931F93FDDB882319F427
:1018F00010928A0168C010918901FEDBE12FF0E0AF
:10190000ED5DFD4F80831F5F10938901809123025D
:10191000082F0095113059F5882359F41092890148
:1019200080918A01813009F0D3DE81E080938A01C1
:101930004AC0063010F00331D0F010928901809136
:101940008A01823011F0802FBCDE82E080938A0110
:1019500039C0C9DB8823B1F110918901CDDBE12FBA
:10196000F0E0ED5DFD4F80831F5F109389012091B2
:101970008901201770F330E0245030406FEF7FEF83
:101980008FEF9FEF43E252E0EFDAE0918901F0E060
:10199000E15EFD4F208131814281538162177307DF
:1019A0008407950759F01092890180918A0182304D
:1019B00049F0802F7FDE0093880104C010928A01D5
:1019C00082E001C081E01F910F910895809188010C
:1019D000882389F4089564DB882311F481E0089555
:1019E00090918701E92FF0E0EF5EFD4F80819F5FCE
:1019F0009093870162DB909187018091880198170D
:101A000050F3109287011092880180E00895BF92F0
:101A1000CF92DF92EF92FF920F931F93D7DF88232D
:101A200009F098C060DF882311F46EDD94C0813026
:101A300009F490C0B09089018AEFB80E1092890124
:101A4000D09024028FE38D1548F08D2D65E272E071
:101A50004B2D11DF882309F07DC053C0E090250293
:101A6000F0902602009127021091280220910B018C
:101A700030910C0140910D0150910E01CC24E216E1
:101A8000F3060407150719F4CC24C39412C0D80137
:101A9000C701821B930BA40BB50B181619061A0667
:101AA0001B063CF480E4D81621F0CA01B901EEDD32
:101AB00051C08D2D807C8034C1F48D2D65E272E0A3
:101AC0004B2D2C2D10DE882369F4E0918D01F091CF
:101AD0008E013097B1F08D2D65E272E04B2D0995A6
:101AE000882379F0CC20B1F11EC0CC2021F4C801AC
:101AF000B7019ADD2FC080918F0190919001892BC1
:101B000019F48D2DD0DD26C080918B01882319F02A
:101B1000C4DC10928B0183E292E0CBDC8823B9F025
:101B2000C801B70181DD80910B0190910C01A0915A
:101B30000D01B0910E010196A11DB11D80930B0105
:101B400090930C01A0930D01B0930E0103C0C80146
:101B5000B7018FDD81E01F910F91FF90EF90DF9033
:101B6000CF90BF900895089590E0FC01EE0FFF1F05
:101B7000E80FF91FE756FE4F80819181089590E0AC
:101B8000FC01EE0FFF1FE80FF91FE756FE4F8281A1
:101B900090E008951F93182FE7DF892B19F080E05C
:101BA00090E009C0812FEBDF20E0892B09F021E0D4
:101BB00081E02827822F1F91089590E0FC01EE0F0D
:101BC000FF1FE80FF91FE756FE4F718360830895EA
:101BD00090E0FC01EE0FFF1FE80FF91FE756FE4FE4
:101BE00062830895EF92FF920F931F93CF93DF9339
:101BF00080919301882309F43BC000911301109157
:101C00001401C0E0D0E031E0E32EF12C8C2FACDFEA
:101C1000892B59F4C7010C2E02C0880F991F0A9412
:101C2000E2F780959095082319232196CE30D105AF
:101C300069F710931401009313018EE095DF892B4F
:101C400019F488E0809315018FE08EDF892B29F449
:101C500080E8809316018093170180E185DF892B4E
:101C600029F480E880931801809319011092930160
:101C7000DF91CF911F910F91FF90EF900895809188
:101C8000130190911401892BA9F4809115018830DA
:101C900089F480911601803869F4809117018038A9
:101CA00049F480911801803829F490E0809119015D
:101CB000803809F091E0892F08951F9381E0809387
:101CC000930110E0812F60E070E077DF812F60E00A
:101CD0007FDF1F5F1131B1F785DF1F9108956F928C
:101CE0007F928F929F92AF92BF92CF92DF92EF92AC
:101CF000FF920F931F93CF93DF936C015B01742EC0
:101D000080918C01882309F044C0C0E0D0E001E05C
:101D100010E0C8010C2E02C0880F991F0A94E2F748
:101D20008C219D21892B21F08C2F34DF882391F188
:101D30002196CE30D10569F700911301109114015D
:101D4000C0E0D0E041E0842E912C662463947401BD
:101D50000C2E02C0EE0CFF1C0A94E2F7C7018C2186
:101D60009D21892B71F08C2F15DF882351F08C2F4A
:101D7000B50123DF8C2F672D2BDF0E291F296092E1
:101D800093012196CE30D10511F7109314010093E1
:101D9000130181E0DF91CF911F910F91FF90EF90A0
:101DA000DF90CF90BF90AF909F908F907F906F907B
:101DB00008950F931F93CF93DF93082FEB01142FF8
:101DC00080918C01882311F081E00FC08EE0E2DE6B
:101DD000882359F08EE0BE01F0DE8EE0612FF8DE40
:101DE0000093150181E080939301DF91CF911F91C2
:101DF0000F910895DF92EF92FF920F931F93CF936D
:101E0000DF93F82EE62ED42EE90180918C018823F1
:101E100011F081E01DC0FF2011F410E101C01FE0AE
:101E2000812FB8DE8823A1F0812FBE01C6DE812F6D
:101E3000602FCEDEFF2029F0E0921601D09217012C
:101E400004C0E0921801D092190181E080939301BF
:101E5000DF91CF911F910F91FF90EF90DF90089548
:101E6000FF920F931F93CF93DF93BCDE209113015A
:101E700030911401409115015091160160911701A4
:101E8000709118018091190190911A01E9D9F82EE9
:101E9000E5D9FF2011F411E02AC010E0812F64DEA3
:101EA000EC01812F6CDE682F80918C01882321F05A
:101EB00000E0C0E0D0E007C0062F209711F0219786
:101EC00002C061110150812FBE0177DE812F602F8A
:101ED0007FDE1F5F113111F781E080939301E09164
:101EE0009101F0919201309709F0099512E38FDD8D
:101EF000882311F01150D9F78091950190919601A6
:101F0000A0919701B09198010196A11DB11D8093F8
:101F1000950190939601A0939701B09398018F2D0E
:101F2000DF91CF911F910F91FF9008951F9311E0C2
:101F300005C010E080918C01882379F491DF88231B
:101F4000C1F3112351F080918C01882331F481E099
:101F500090E07FDB5CDD8823E9F71F9108955BC289
:101F60000895E1C00895EF920F931F93CF93DF93ED
:101F7000982F762F8A01E9014530510510F405E0CC
:101F800010E080E0692F472F9801EE2438D1CE0170
:101F9000E8DFDF91CF911F910F91EF900895EF92BD
:101FA0000F931F93CF93DF93982F762F8A01E90128
:101FB0004530510510F405E010E081E0692F472F0E
:101FC0009801EE241CD1CE01CCDFDF91CF911F917F
:101FD0000F91EF900895CF93DF939B01EA01653055
:101FE000710510F425E030E0B901A90120E05DD1D0
:101FF000CE01B7DFDF91CF910895CF93DF939B019F
:10200000EA016530710510F425E030E0B901A9015D
:1020100020E021D2CE01A5DFDF91CF9108950C946D
:10202000EB0208950F931F93CF93DF938C01C0E0D1
:10203000D0E00BC081E0F3DF89E190E092DF80E047
:10204000EEDF89E190E08DDFE296C017D10790F3D3
:10205000DF91CF911F910F9108958093860184B7EE
:10206000877F84BF88E10FB6F89480936000109258
:1020700060000FBEE1E6F0E080E88083108260E05F
:1020800072EC81E090E00E9424080E944705789459
:102090006ACD813029F0813030F0823051F406C0B1
:1020A00020E430E008C024E030E005C020E830E063
:1020B00002C020E030E0C9010895DF92EF92FF9264
:1020C0000F931F93CF93DF937C01EB01D42E10E08D
:1020D00000E0113029F0113030F0123051F406C018
:1020E000E8EFF0E108C0ECE3F1E105C0E1EFF0E179
:1020F00002C0E0E0F0E0C701BE014D2D0995882344
:1021000011F081E008C01F5F133009F410E00F5F89
:102110000330F9F680E0DF91CF911F910F91FF908E
:10212000EF90DF9008950F931F93CF93DF938C016F
:10213000C0E0D0E006C080918C01882329F4F6DE4F
:102140002196C017D107B8F3DF91CF911F910F915E
:102150000895DF92EF92FF920F931F93CF93DF9337
:102160008C017B01EA01D22E80918C01882311F031
:1021700009C0DCDEC801BE014D2D9FDF8823C9F3F5
:10218000C701D1DFDF91CF911F910F91FF90EF90A9
:10219000DF90089545E050E023E0DBCF0F93FA0194
:1021A000022F6230710591F06330710518F4672BCE
:1021B00041F00AC06430710559F06630710521F4B0
:1021C0000AC060E840E009C060E806C06FEF04C0E4
:1021D00060E84FEF02C060E040E89F010BDE0F9126
:1021E0000895FC01DB01242F80E0BF01AD01D6CFB3
:1021F000FC01DB01242F81E0BF01AD01CFCFAF9205
:10220000BF92CF92DF92EF92FF920F931F93CF93E3
:10221000DF93A82EB62EF42E6901E80180918C017F
:10222000882311F00BC082DE8A2D6B2D4F2D9E016D
:102230000E2DE0DD8823B9F3C60175DFDF91CF9164
:102240001F910F91FF90EF90DF90CF90BF90AF90D4
:102250000895EF920F931F938901EE24D0DF1F9111
:102260000F91EF900895EF920F931F93EE24C7DF25
:102270001F910F91EF9008958230910581F0833086
:10228000910518F4892B39F008C08430910549F084
:10229000069719F408C080E007C088E005C082E016
:1022A00003C084E001C086E084CDEF92FF920F93DB
:1022B0001F93CF93DF93E82E8B01EA01F22E8091DA
:1022C0008C01882311F009C031DE8E2DBE014F2D07
:1022D00070DD8823C9F3C80126DFDF91CF911F91FC
:1022E0000F91FF90EF90089545E050E023E0DDCF9F
:1022F00023E0DBCFEF92FF920F931F93CF93DF93F7
:102300007C0110E0C0E0D0E01EC080918C018823E9
:10231000E9F4112321F00ADE2196115014C010E0D7
:1023200000E0812FB6DE65E070E043E0D8DC882372
:1023300011F013E008C01F5F133009F410E00F5FC5
:10234000033079F711E0CE15DF05F8F2DF91CF9178
:102350001F910F91FF90EF900895AF92BF92CF928F
:10236000DF92EF92FF920F931F93CF93DF935C0165
:102370006B017A0180918C01882309F041C0C0E093
:10238000D0E002C0D3DD2196C50165E070E043E0F6
:10239000A6DC8823B9F384E090E0C5DE02C0C6DD88
:1023A0002196C60165E070E043E099DC8823B9F32B
:1023B000CE15DF0528F580918C01882309F5C5012C
:1023C00065E070E043E08BDC8E010C5F1F4FCE15A3
:1023D000DF05B0F4ABDD2196C017D107C1F7C60108
:1023E00065E070E043E07BDC8E010C5F1F4FCE1593
:1023F000DF0530F49BDD2196C017D107C1F7DBCF95
:10240000DF91CF911F910F91FF90EF90DF90CF90D0
:10241000BF90AF900895EF92FF920F931F93CF93C9
:10242000DF937C018B01C0E0D0E00BC080918C0178
:10243000882351F4C70165E070E043E050DC76DDAD
:102440002196C017D10790F3DF91CF911F910F9183
:10245000FF90EF900895DF92EF92FF920F931F93FA
:10246000CF93DF938C017B01EA01D22E80918C0106
:10247000882311F009C05ADDC801BE014D2D2FDCA3
:102480008823C9F3C7014FDEDF91CF911F910F91D0
:10249000FF90EF90DF90089545E050E023E0DBCF20
:1024A00023E0D9CF80918C01882311F008953EDD7F
:1024B000E6DB8823E1F70895CF93DF930E94B2070C
:1024C00089E0CBDD8091000190910101ABDD8EEFC1
:1024D00094E19093900180938F0180918C018823E7
:1024E00029F010928C0180E00E94EB020E94A40966
:1024F000EC01009711F4B4DCF0CFBC016E5F7F4FAC
:10250000488140954650E0918F01F091900189817A
:102510000995882311F78981C6D8DFCF882339F040
:1025200080E090E16AE070E04AE550E006C080E0BB
:1025300090E16AE070E04EEB50E05FDD80E090E11A
:102540006AE070E040E050E058CDAF92BF92CF9289
:10255000DF92EF92FF920F931F938C017B016A0130
:10256000590188E090E062E370E055DF09581E4FA2
:1025700088E090E064E070E0A801EFDE88E090E0A1
:10258000B70149DFC601B6DEC501EBDC1F910F9133
:10259000FF90EF90DF90CF90BF90AF90089588E0CC
:1025A00090E064E670E037DF88E090E064E070E09F
:1025B00042E350E0D2DE88E090E062E370E02BDF9F
:1025C00082E090E06EE571E026CF0F931F938C01BF
:1025D00083E090E0C6DCC80160E070E0DBDD1F91C5
:1025E0000F910895DF92EF92FF920F931F93CF9375
:1025F000DF93F42E282F30E0C9018B579A4FFC014E
:10260000949121573A4FF9018491262F30E0F90136
:10261000EB57FA4FD49021573A4FF901E490092F24
:10262000182FC0E0D0E02AC0E11640F4FF2019F0D6
:1026300080E090E0CADF2396115020C01E1558F4A8
:10264000FF2019F084E090E0C0DF23961F5F133075
:10265000A9F401E013C00D1540F4FF2019F082E049
:1026600090E0B3DF23960F5F09C0D01638F4FF2047
:1026700019F086E090E0A9DF239601500D15A1F630
:102680001E1591F6CE01DF91CF911F910F91FF9012
:10269000EF90DF900895EF92FF920F931F93E82E33
:1026A000F62E82E090E064E070E074DD82E090E07D
:1026B00064E070E06FDD84E090E063E070E06ADD8C
:1026C00084E090E064E070E065DD82E090E060E04E
:1026D00070E060DD84E090E063E070E0DDDE84E0E7
:1026E00090E063E070E0D8DEFF2011F404E301C065
:1026F00003E310E084E090E063E070E04BDD1F5FF7
:102700001017C0F310E082E090E063E070E042DD7B
:102710001F5F1F30C1F784E090E063E070E03ADDB6
:1027200084E090E063E070E035DD84E090E06AE012
:1027300070E030DD84E06DE270E048E250E0D8DD2A
:1027400084E090E063E070E025DD84E090E063E009
:1027500070E020DDEE2031F484E090E06DE270E086
:102760009BDE18C084E090E063E070E095DEFF201F
:1027700011F40CE001C00AE010E084E090E063E0B6
:1027800070E008DD1F5F1017C0F384E090E060E0A8
:1027900070E000DD1F910F91FF90EF9008950F936F
:1027A0001F93882319F413E004E002C012E003E051
:1027B00084E090E064E170E04AE050E071DE80E0A7
:1027C00090E060E070E0E6DC84E090E0612F70E093
:1027D00063DE82E090E0602F70E0DCDC80E090E07F
:1027E000612F70E0D7DC82E090E0602F70E0D2DCF7
:1027F00084E090E060E070E04FDE82E090E0602FE7
:1028000070E0C8DC82E090E0602F70E0C3DC82E022
:1028100090E060E070E0BEDC84E090E064E170E0B5
:102820004AE050E03DDE1F910F910895FF920F9313
:102830001F93CF93DF93F82E882309F458C06623A3
:1028400011F404E001C003E084E090E064E170E092
:102850004AE050E025DE10E0CF2DD0E0219706C001
:1028600084E090E063E070E095DC1F5F812F90E0F2
:102870008C179D07ACF384E090E060E070E08ADCA8
:1028800084E090E063E070E007DE82E090E0602F9B
:1028900070E080DC10E006C084E090E063E070E06F
:1028A00079DC1F5F812F90E08C179D07ACF384E0EB
:1028B00090E060E070E06EDC84E090E063E070E067
:1028C000EBDD82E090E0602F70E064DC82E090E07D
:1028D000602F70E05FDC82E090E060E070E05ADC46
:1028E00084E090E064E170E04AE050E0D9DDDF91FF
:1028F000CF911F910F91FF900895CF93DF93EA013D
:102900008823D1F0CB012DDB80E060E070E04AE06D
:1029100050E0EEDC8AE090E06DE770E04AE050E0E5
:10292000BFDD81E792E0E6DC81E0C53FD80740F0FB
:10293000CE01845F914003C0CB01DCDCCE0111DB12
:10294000DF91CF9108950F931F938C0184E065E090
:1029500070E04FE050E0CCDC82E090E06CE370E0AF
:102960004AE050E09DDD84E065E070E04FE050E03B
:10297000BFDC82E090E0B8014AE050E091DD1F91B9
:102980000F910895EF92FF921F93CF93DF93182F2B
:10299000862FEA017901C2DD8AE590E0E2DA1123AF
:1029A00021F184E06AE070E09FDC80E06AE070E0A2
:1029B0009BDC84E090E0BE014AE050E071DD86E0FF
:1029C0006AE070E091DC84E090E0BE0165DD81E0CA
:1029D00090E06AE070E060DD86E06AE070E084DC50
:1029E00084E090E0B70158DD03C082E390E0B9DAFB
:1029F000DF91CF911F91FF90EF9008956F927F929A
:102A00009F92AF92BF92CF92DF92EF92FF920F937D
:102A10001F93DF93CF93CDB7DEB72C970FB6F89403
:102A2000DEBF0FBECDBF182F6B01042F813909F413
:102A30003BC0823940F4813809F1803951F1803846
:102A400009F07AC00DC0833909F44BC0833908F40A
:102A50003AC0843909F454C0853909F06DC05FC0AB
:102A600084E00E94450A882329F0802F0E94610B90
:102A70000C94451D0E94B0070C94431D85E00E94F4
:102A8000450A882311F00C94451DF6018481C7DAAC
:102A9000FAC786E00E94450A882309F0F6C7F601C6
:102AA000848195815EDAEFC78AE00E94450A882317
:102AB00009F0EBC7F60166817781408551858481F5
:102AC00095819BDAE0C789E00E94450A882309F0D6
:102AD000DCC7F601658176814781508584817BDA88
:102AE000D2C78AE00E94450A882309F0CEC7F601C2
:102AF00046815781208531858481658150DAC3C73D
:102B00008AE00E94450A882309F0BFC7F601468182
:102B10005781208531858481658125DAB4C788E0B5
:102B20000E94450A882309F0B0C7F60166817781C3
:102B30008481958114DAA7C7173F88F4153F08F000
:102B400055C0123F19F1133F20F4113F09F093C013
:102B500013C0133F41F1143F09F08DC036C0183F38
:102B600009F466C0183F08F455C0193F09F4E5C0E0
:102B70001A3F09F080C06DC084E0B601402F0E946A
:102B8000450A882309F081C78DDC7DC786E0B60140
:102B9000402F0E94450A882309F077C7F6018481F7
:102BA0009581C1DA70C78BE0B601402F0E94450ABB
:102BB000882309F06AC7F6016681778140855185CF
:102BC00084819581228547DC5EC78AE0B601402F6B
:102BD0000E94450A882309F058C7F601658176816D
:102BE000478150858481218560DB4DC78BE0B6012C
:102BF000402F0E94450A882309F047C7153F09F472
:102C000081E0F60126813781008511856481458147
:102C1000E284D7C088E0B601402F0E94450A88238D
:102C200009F033C7F601668177818481958136C3C7
:102C30008AE0B601402F0E94450A882309F025C783
:102C4000F60166817781408551858481958185DB98
:102C50001AC78BE0B601402F0E94450A882309F06D
:102C600014C7F601668177814085518584819581FD
:102C700022856FDA08C71A3B09F412C21B3B70F5B4
:102C8000123B09F4D4C0133BB0F4113A09F451C219
:102C9000123A38F41F3909F46AC0103A09F04BC0EF
:102CA0004CC0103B09F4A2C0113B08F0B0C0123A6E
:102CB00009F041C04FC0163B09F434C1173B38F44A
:102CC000143B09F4BEC0153B08F0C8C07CC0183BDB
:102CD00009F441C1193B08F085C130C1123C09F427
:102CE0008DC4133C98F41E3B09F499C31F3B38F480
:102CF0001C3B09F4D5C21D3B08F020C3A3C2103C05
:102D000009F40CC4113C08F03EC4CBC3163C09F4D2
:102D1000E9C5173C38F4143C09F461C5153C08F0CA
:102D2000A9C50CC5183C09F459C6183C08F4F1C5EE
:102D3000193C09F476C680E0A9C686E0B601402FAA
:102D40000E94450A882309F0A0C6F6018481958176
:102D5000D1DA99C686E0B601402F0E94450A882341
:102D600009F093C6F60184819581EDDD8CC68CE077
:102D7000B601402F0E94450A882309F086C6F60155
:102D8000F3848481958160E070E04F2D50E020E075
:102D900062DBF601868160E070E04F2D50E020E0BC
:102DA00084DA81E0F6016781408520E030E00F2D74
:102DB00010E0EE2424DA80E0F601618542852F2DB3
:102DC00030E01DDA60C68CE0B601402F0E94450A53
:102DD000882309F05AC6F6016681778140855185BE
:102DE0002285338584819581B0DB4DC68AE0B601AA
:102DF000402F0E94450A882309F047C6F601468104
:102E000057812085318584816581BCDD3CC689E0A0
:102E1000B601402F0E94450A882309F036C6F60104
:102E20006581768147815085848167DD2CC684E089
:102E3000B601402F0E94450A882309F026C6AFDB61
:102E400022C686E0B601402F0E94450A882309F079
:102E50001CC6F601848165811EDC15C684E0B601BE
:102E6000402F0E94450A882309F00FC684E090E0B5
:102E700064E170E04AE050E013DB82E090E063E060
:102E800070E088D980E090E060E070E083D984E071
:102E900090E062E070E000DB82E090E063E070E0F0
:102EA00079D982E090E063E070E074D982E090E04C
:102EB00063E070E06FD982E090E060E070E06AD992
:102EC00084E090E064E170E04AE050E0E9DA84E018
:102ED00090E064E170E04AE050E0E2DA86E090E001
:102EE00063E070E057D986E090E063E070E052D98B
:102EF00086E090E063E070E04DD986E090E063E02A
:102F000070E048D986E090E063E070E043D986E065
:102F100090E063E070E03ED982E090E063E070E032
:102F200039D92AC385E0B601402F0E94450A88237B
:102F300009F0ABC5F601848132DCA5C586E0B60197
:102F4000402F0E94450A882309F09FC5F60184811D
:102F500065816CDC98C585E0B601402F0E94450A6A
:102F6000882309F092C5F601148181E061E093DBCA
:102F7000112399F18CE361E059DC84E090E064E195
:102F800070E04AE050E08CDA86E090E063E070E0C8
:102F900001D986E090E063E070E0FCD886E090E044
:102FA00063E070E0F7D880E090E062E070E0F2D893
:102FB00086E090E063E070E0EDD880E090E062E0D1
:102FC00070E0E8D886E090E063E070E0E3D880E06D
:102FD00090E062E070E0DED802C081E0E0DB81E0FA
:102FE0009DDA51C586E0B601402F0E94450A88232C
:102FF00009F04BC5F6010481158181E061E04BDBEE
:1030000084E090E064E170E04AE050E049DA84E076
:1030100090E060E070E040DA82E090E063E070E031
:10302000B9D882E090E063E070E0B4D882E090E04C
:1030300063E070E0AFD884E090E060E070E02CDA0C
:1030400082E090E063E070E0A5D886E090E063E085
:1030500070E0A0D880E090E062E070E09BD882E071
:1030600090E060E070E096D884E090E064E170E089
:103070004AE050E015DA84E090E064E170E04AE074
:1030800050E00EDA86E090E063E070E083D884E000
:1030900090E062E070E07ED880E090E1B801BBC1D2
:1030A00087E0B601402F0E94450A882309F0EDC44D
:1030B000F6010481E580F68081E060E0ECDA84E0EE
:1030C00090E064E170E04AE050E0EAD984E090E00A
:1030D00060E070E0E1D982E090E063E070E05AD80F
:1030E00082E090E063E070E055D810E006C084E034
:1030F00090E063E070E04ED81F5F1017C0F384E0EB
:1031000090E060E070E0C8D982E090E063E070E0B9
:1031100041D882E090E063E070E03CD884E090E049
:1031200064E170E04AE050E0BBD980E090E1B70193
:1031300072C18BE0B601402F0E94450A882309F036
:10314000A4C4F601B480FCE0FB1510F48CE0B82EAA
:1031500030E020E0BE016F5F7F4FAE014E5F5F4FFA
:1031600013C0F601E30FF11D95813F5FE22FF0E000
:10317000DB01AE0FBF1F892F8F708C93E40FF51FFB
:1031800092959F7090832E5F2B1558F3FF24F39434
:103190009924AA243E010894611C711C42C0F301C9
:1031A000EA0DF11D0081FE01EB0DF11D10810033D0
:1031B00008F00053103308F010530A3008F000E014
:1031C0001A3008F010E08F2D602F40E00BDA6C0110
:1031D0008F2D612F40E006DA8C159D0508F4012F34
:1031E0008F2D602F41E0FED97C01009721F483E010
:1031F00090E00E94B10F992029F080E190E060E01A
:1032000070E04AD984E090E060E070E045D9EC14C9
:10321000FD0418F0A394992403C0BA9499249394BC
:10322000F02EAB1408F4BBCF83E090E00E94B10F06
:1032300080E092E063E070E02FD980E092E063E00C
:1032400070E079C288E0B601402F0E94450A8823C9
:1032500009F01BC4F601068117816481758181E044
:1032600090E04AE050E01CD980E090E065E070E03A
:103270000E94CA1080E090E065E070E00E94CA10F1
:1032800082E090E065E070E00E94CA1080E092E089
:1032900063E070E001D982E090E0B801BCD8F3C3EC
:1032A00087E0B601402F0E94450A882309F0EDC34C
:1032B000F601F4800581E68080E090E063E070E054
:1032C0000E94CA1010E007C082E090E063E070E066
:1032D0000E94CA101F5F1F15B8F380E090E063E002
:1032E00070E00E94CA1084E090E068EC70E0D4D8EE
:1032F000EE2081F010E084E090E063E070E00E9456
:10330000CA101F5F1431B9F780E090E063E070E00D
:103310000E94CA1082E390E00E94931082E063E072
:1033200070E00E94741107C084E090E063E070E0F8
:103330000E94CA1001500023B9F7A5C384E0B6016A
:10334000402F0E94450A882309F09FC382E090E045
:1033500063E070E00E94CA1082E090E063E070E0F9
:103360000E94CA1082E090E063E070E00E94CA1000
:1033700082E090E063E070E00E94CA1082E090E09A
:1033800063E070E00E94CA1082E090E063E070E0C9
:103390000E94CA1084E090E063E070E00E94CA10CE
:1033A00084E090E063E070E00E94CA1086E090E064
:1033B00060E070E00E94CA1084E090E064E170E098
:1033C0004AE050E06DD882E090E063E070E00E9457
:1033D000CA1082E090E063E070E00E94CA1082E0D0
:1033E00090E063E070E00E94CA1082E090E063E049
:1033F00070E00E94CA1082E090E063E070E00E94FA
:10340000CA1082E090E060E070E00E94CA1084E0A0
:1034100090E064E170E04AE050E042D834C384E0D8
:10342000B601402F0E94450A882309F02EC310E000
:1034300084E090E063E070E00E94CA101F5F1D30DE
:10344000B9F784E090E060E070E00E94CA1084E088
:1034500090E068E270E04AE050E022D886E090E038
:1034600060E070E00E94CA1084E090E068E270E0E2
:103470004AE050E015D880E090E060E070E00E9403
:10348000CA1084E090E063E070E006D810E084E0C9
:1034900090E063E070E00E94CA101F5F1D30B9F732
:1034A0006BC085E0B601402F0E94450A882309F0D1
:1034B000ECC2F601148184E090E06CE070E00E94C0
:1034C0004C1284E090E068E070E00E944C1286E0CC
:1034D00090E063E070E00E94CA1086E090E063E054
:1034E00070E00E94CA1086E090E063E070E00E9405
:1034F000CA10112331F086E090E063E070E00E9492
:10350000CA1010E084E090E063E070E00E94CA100E
:103510001F5F1C33B9F784E090E067C084E0B60118
:10352000402F0E94450A882309F0AFC210E080E0D6
:1035300090E063E070E00E94CA101F5F1D30B9F791
:1035400080E090E060E070E00E94CA1084E090E0CB
:103550006AE070E00E944C1284E090E06FE070E05E
:103560000E944C1210E084E090E063E070E00E9462
:10357000CA101F5F1A30B9F784E090E060E070E095
:103580000E94CA1080C285E0B601402F0E94450A01
:10359000882309F07AC2F601148184E090E06FE09C
:1035A00070E00E944C1284E090E065E070E00E94C0
:1035B0004C12112331F086E090E063E070E00E944D
:1035C000CA1086E090E063E070E00E94CA1086E0D6
:1035D00090E063E070E00E94CA1086E090E063E053
:1035E00070E00E94CA1080E090E060E070E00E940D
:1035F000CA1084E090E062E070E073C085E0B6013C
:10360000402F0E94450A882309F03FC2F6018481B9
:103610008F3198F584E090E06FE070E00E944C12EA
:1036200084E090E065E070E00E944C1286E090E05B
:1036300063E070E00E94CA1086E090E063E070E012
:103640000E94CA1086E090E063E070E00E94CA1019
:1036500086E090E063E070E00E94CA1080E090E0B5
:1036600060E070E00E94CA1084E090E068E070E0E2
:103670000E944C1280E090E0ADC084E090E06CE0ED
:1036800070E00E944C1284E090E068E070E00E94DC
:103690004C1286E090E063E070E00E94CA1086E081
:1036A00090E063E070E00E94CA1086E090E063E082
:1036B00070E00E94CA1080E090E063E070E00E9439
:1036C000CA1086E090E063E070E00E94CA1080E0DB
:1036D00090E060E070E00E94CA1084E090E063E057
:1036E00070E00E944C1282E090E063E070E00E9483
:1036F000CA1082E090E063E070E00E94CA1082E0AD
:1037000090E060E070E00E94CA1084E090E063E026
:1037100070E00E944C1282E090E063E070E00E9452
:10372000CA1082E090E062E070E00E94CA1084E07B
:1037300090E06CE070E00E944C12A5C184E0B601FC
:10374000402F0E94450A882309F09FC184E090E041
:103750006CE070E00E944C1284E090E068E070E061
:103760000E944C1286E090E063E070E00E94CA1074
:1037700086E090E063E070E00E94CA1086E090E08E
:1037800063E070E00E94CA1080E090E063E070E0C7
:103790000E94CA1086E090E063E070E00E94CA10C8
:1037A00080E090E063E070E00E94CA1086E090E064
:1037B00063E070E00E94CA1080E090E060E070E09A
:1037C0000E94CA1084E090E062E070E00E944C1217
:1037D00082E090E063E070E00E94CA1084CF84E051
:1037E000B601402F0E94450A882309F04EC184E0AB
:1037F00090E06CE070E00E944C1284E090E068E0A1
:1038000070E00E944C1286E090E063E070E00E945D
:10381000CA1086E090E063E070E00E94CA1086E083
:1038200090E063E070E00E94CA1080E090E063E006
:1038300070E00E94CA1086E090E063E070E00E94B1
:10384000CA1080E090E063E070E00E94CA1086E059
:1038500090E063E070E00E94CA101CE384E090E016
:1038600063E070E00E94CA1011501130B9F784E093
:1038700090E0A4CF84E0B601402F0E94450A88233F
:1038800009F003C181E06FEF4FEF22E330E00E94C7
:10389000291181E06FEF40EA20E030E00EEF11E007
:1038A0000E94331184E090E06AEA70E00E944C12BA
:1038B00084E090E06AEA70E00E944C1284E090E0BC
:1038C0006AEA70E00E944C1281E060E040E822E386
:1038D00030E006E811E00E94331182E090E066E8F3
:1038E00071E0C1C086E0B601402F0E94450A8823DE
:1038F00009F0CBC0F601E480F58081E06FEF40E88D
:1039000020E030E087010E94331182E090E0B701AF
:10391000C5CC86E0B601402F0E94450A882309F0F5
:10392000B4C0F601C480D580EE24FF2452C081E0EB
:1039300060E84FEF20E030E000E210E00E94331139
:1039400084E090E060E170E00E944C1284E090E03E
:1039500060E170E00E944C1281E06FEF40E820E0EF
:1039600030E00E94331184E090E060E170E00E945A
:103970004C1284E090E060E170E00E944C1281E023
:1039800060E840E020E030E00E94331184E090E005
:1039900060E170E00E944C1284E090E060E170E031
:1039A0000E944C1281E060E040E820E030E00E949C
:1039B000331184E090E060E170E00E944C1284E0FA
:1039C00090E060E170E00E944C1280E890E0E80E28
:1039D000F91EEC14FD0408F4AACF55C084E0B6012A
:1039E000402F0E94450A882309F04FC081E06FEF05
:1039F00040E924E630E00AEF10E00E94331184E051
:103A000090E064E670E00E944C1284E090E062E393
:103A100070E00E944C1281E06FEF4FEF22E330E044
:103A200030C084E0B601402F0E94450A882369F522
:103A300081E060E84FEF2EE130E00E94291181E043
:103A40006FEF40E924E031E00E94291181E060E05D
:103A500040E822E330E000E911E00E94331182E007
:103A600090E060E971E00E940B1281E060EC40E0C0
:103A700028E730E00E94291181E06FEF40E028E75D
:103A800030E00E9429110E94BF0981E02C960FB6F8
:103A9000F894DEBF0FBECDBFCF91DF911F910F9184
:103AA000FF90EF90DF90CF90BF90AF909F907F906E
:103AB0006F900895A1E21A2EAA1BBB1BFD010DC039
:103AC000AA1FBB1FEE1FFF1FA217B307E407F507CE
:103AD00020F0A21BB30BE40BF50B661F771F881FAA
:103AE000991F1A9469F760957095809590959B0140
:103AF000AC01BD01CF010895FB01DC0102C00590BE
:103B00000D9241505040D8F70895FB01DC0102C0EE
:103B100001900D9241505040D8F70895F894FFCF8E
:103B200071027800770101010000000100000038F7
:0C3B30001EE797000008808080800000E5
:00000001FF
