:10000000DBC20000F8C20000F6C20000F4C200002B
:10001000F2C20000F0C20000EEC20000ECC200001C
:10002000EAC20000E8C2000051C50000E4C20000BE
:10003000E2C20000E0C20000DEC20000DCC200003C
:10004000DAC20000D8C20000D6C20000D4C200004C
:10005000D2C20000D0C20000CEC20000CCC200005C
:10006000CAC200000C94C5080C949608C4C20000D3
:10007000C2C20000C0C20000BEC20000BCC200007C
:10008000BAC20000B8C20000B6C20000B4C200008C
:10009000B2C20000B0C200000000000003836BF297
:1000A000F7703BE1F4F350131F979AC71C14F13516
:1000B000E8E7A126EB64CAD4CF58D98ACCDBB27862
:1000C0003828E26B3BAB8999D0CF434DD34C28BF46
:1000D00027BF78AC243C135E6FC75E106C4435E2DA
:1000E00098B765F19B340E037050C4D773D3AF2516
:1000F0008720FF3684A394C4A09F879AA31CEC6832
:1001000057EFBC7B546CD789BF081D5DBC8B76AFA5
:10011000487826BC4BFB4D4EDE8EBD20DD0DD6D281
:1001200029FE86C12A7DED33C11927E7C29A4C15F5
:1001300036691C0635EA77F411D664AA12550F58B1
:10014000E6A65F4BE52534B90E41FE6D0DC2959FC5
:10015000F931C58CFAB2AE7EB149E330B2CA88C279
:100160004639D8D145BAB323AEDE79F7AD5D120575
:1001700059AE42165A2D29E47E113ABA7D92514861
:100180008961015B8AE26AA96186A07D6205CB8FE5
:1001900096F69B9C9575F06EBC1D7B41BF9E10B37F
:1001A0004B6D40A048EE2B52A38AE186A0098A74C9
:1001B00054FADA675779B1957345A2CB70C6C9393D
:1001C0008435992A87B6F2D86CD2380C6F5153FE19
:1001D0009BA203ED9821681FD3DA2551D0594EA375
:1001E00024AA1EB027297542CC4DBF96CFCED46429
:1001F0003B3D847738BEEF851C82FCDB1F019729CD
:10020000EBF2C73AE871ACC80315661C00960DEE18
:10021000F4655DFDF7E6360F6293C6616110AD933C
:1002200095E3FD80966096727D045CA67E873754C8
:100230008A74674789F70CB5ADCB1FEBAE487419CC
:100240005ABB240A59384FF8B25C852CB1DFEEDE78
:10025000452CBECD46AFD53F0D5498710ED7F383D4
:10026000FA24A390F9A7C86212C302B611406944E8
:10027000E5B33957E63052A5C20C41FBC18F2A09BC
:10028000357C7A1A36FF11E8DD9BDB3CDE18B0CEF8
:100290002AEBE0DD29688B2F783BF6827BB89D70D6
:1002A0008F4BCD638CC8A69167AC6C45642F07B7A4
:1002B00090DC57A4935F3C56B7632F08B4E044FA30
:1002C000401314E943907F1BA8F4B5CFAB77DE3D14
:1002D0005F848E2E5C07E5DC17FCA892147FC36058
:1002E000E08C9373E30FF881086B32550BE859A744
:1002F000FF1B09B4FC986246D8A47118DB271AEAE0
:100300002FD44AF92C57210BC733EBDFC4B0802D13
:100310003043D03E33C0BBCCA6B54BA2A53620504F
:1003200051C5704352461BB1B922D165BAA1BA97E3
:100330004E52EA844DD1817669ED92286A6EF9DADF
:100340009E9DA9C99D1EC23B767A08EF75F9631D73
:10035000810A330E828958FCC97215B2CAF17E40F7
:100360003E022E533D8145A1D6E58F75D566E487C3
:100370002195B4942216DF66062ACC3805A9A7CAAF
:10038000F15AF7D9F2D99C2B19BD56FF1A3E3D0DF3
:10039000EECD6D1EED4E06ECC4268DC3C7A5E6312D
:1003A0003356B62230D5DDD0DBB11704D8327CF617
:1003B0002CC12CE52F4247170B7E544908FD3FBB4B
:1003C000FC0E6FA8FF8D045A14E9CE8E176AA57C27
:1003D000E399F56FE01A9E9DABE1D3D3A862B821F3
:1003E0005C91E8325F1283C0B4764914B7F522E617
:1003F000430672F54085190764B90A59673A61AB3B
:1004000093C931B8904A5A4A7B2E909E78ADFB6CC6
:100410008C5EAB7F8FDDC08D1AA830E3192B5B118A
:10042000EDD80B02EE5B60F0053FAA2406BCC1D6F6
:10043000F24F91C5F1CCFA37D5F0E969D673829BBA
:100440002280D2882103B97ACA6773AEC9E4185CE6
:100450003D17484F3E9423BD756F6EF376EC050152
:10046000821F5512819C3EE06AF8F434697B9FC676
:100470009D88CFD59E0BA427BA37B779B9B4DC8B4A
:100480004D478C984EC4E76AA5A02DBEA623464CC6
:1004900052D0165F51537DAD05010905A10115002C
:1004A000250135004501750195100509190129102F
:1004B000810205012507463B017504950165140974
:1004C00039814265009501810126FF0046FF000940
:1004D000300931093209357508950481020600FF9B
:1004E0000920950181020A212695089102C0120176
:1004F0000002000000400D0F920000010102000107
:100500000902290001010080FA0904000002030029
:1005100000000921110100012256000705020340D5
:10052000000807058103400008040309041C034870
:10053000004F0052004900200043004F002E002CC5
:10054000004C00540044002E000000240350004FD3
:10055000004B004B0045004E00200043004F004E72
:1005600000540052004F004C004C00450052000067
:1005700000D5738162EED5E1EB87FB3290FD4C66CE
:10058000EF8B83F4D8CD3598F89A0708C5E3DEEFF2
:1005900034208E99125EC41094D3948A0D8A77CD3C
:1005A000128360E601000102000102000102030063
:1005B000000001010102020211241FBECFEFD0E2B0
:1005C000DEBFCDBF11E0A0E0B1E0E0EDFCE300E074
:1005D0000BBF02C007900D92AE31B107D9F712E000
:1005E000AEE1B1E001C01D92A333B107E1F70E9473
:1005F00031130C94661E04CD882311F05E9A089581
:100600005E980895569A80E0F7CF8BB190E48927E1
:100610008BB908959C014091D5015091D6014617A0
:10062000570718F4F90190E03DC06115710511F00C
:10063000AB01F8CF8091E8008E778093E80040E02E
:1006400050E0F0CF8091CE01882309F441C085307D
:1006500009F440C08091E80083FD3EC08091E8002D
:1006600082FD30C08091E80080FF1CC02091F20024
:100670003091F30007C081918093F10041505040C8
:100680002F5F3F4F4115510519F02034310598F384
:1006900090E02034310509F491E08091E8008E77F4
:1006A0008093E8004115510569F6992359F60AC06F
:1006B0008091CE01882361F0853061F08091E8005F
:1006C00083FD0AC08091E80082FFF2CF80E00895A8
:1006D00082E0089583E0089581E008959C014091AF
:1006E000D5015091D6014617570718F4F90190E04B
:1006F0003EC06115710511F0AB01F8CF8091E800A3
:100700008E778093E80040E050E0F0CF8091CE01FA
:10071000882309F442C0853009F441C08091E80083
:1007200083FD3FC08091E80082FD31C08091E800E8
:1007300080FF1DC02091F2003091F30008C0849129
:100740008093F1003196415050402F5F3F4F41154B
:10075000510519F02034310590F390E02034310533
:1007600009F491E08091E8008E778093E8004115CC
:10077000510561F6992351F60AC08091CE01882374
:1007800061F0853061F08091E80083FD0AC08091BE
:10079000E80082FFF2CF80E0089582E0089583E0D0
:1007A000089581E00895BF92CF92DF92EF92FF9279
:1007B0000F931F93CF93DF93182F092F7B016A01AB
:1007C000EFD0B82E8823B1F5812F902F9C01E9013D
:1007D000C114D10439F0F60180819181E81AF90A37
:1007E000C80FD91F00E010E022C08091E80085FD0D
:1007F00016C08091E8008B778093E800A2D3C114E3
:10080000D10449F0F60180819181800F911F91837D
:10081000808385E010C0C4D0882349F00CC080914B
:10082000F10089930894E108F1080F5F1F4FE1146C
:10083000F104D9F68B2DDF91CF911F910F91FF908D
:10084000EF90DF90CF90BF900895BF92CF92DF924C
:10085000EF92FF920F931F93CF93DF93182F092FDF
:100860007B016A019DD0B82E8823B1F5812F902F8E
:100870009C01E901C114D10439F0F6018081918114
:10088000E81AF90AC80FD91F00E010E022C08091D1
:10089000E80085FD16C08091E8008E778093E8001F
:1008A00050D3C114D10449F0F60180819181800FA9
:1008B000911F9183808385E010C072D0882349F016
:1008C0000CC089918093F1000894E108F1080F5F52
:1008D0001F4FE114F104D9F68B2DDF91CF911F91B9
:1008E0000F91FF90EF90DF90CF90BF900895382F39
:1008F000282F2EC0822F8F708093E900231721F4B8
:10090000762F942F50E006C07091EC009091ED008E
:100910005091F00091FF1BC08091EB008E7F80937F
:10092000EB008091ED008D7F8093ED008091EB00D6
:1009300081608093EB007093EC009093ED005093F6
:10094000F0008091EE0087FD02C080E008952F5FE7
:10095000273080F23F703093E90081E00895809164
:10096000CF0188239CF404C08091CE018823B9F084
:100970008091E80082FFF8CF8091E8008B77809328
:10098000E80008958091CE01882349F08091E80025
:1009900080FFF8CF8091E8008E778093E80008957B
:1009A0004091E4005091E50024E68091EC0080FF46
:1009B00024C08091E80080FD1EC08091CE01882374
:1009C00011F482E00895853011F483E00895809158
:1009D000EB0085FF02C081E008958091E4009091D2
:1009E000E5008417950709F3222311F484E00895A4
:1009F0002150AC01DACF80E008958091E80082FFB9
:100A0000DCCFF9CFEF92FF920F931F9352D059D0C2
:100A100008ED10E0F80180818F7780838081806805
:100A2000808380818F7D8083E7EDF0E08081806826
:100A3000808319BC1092CE011092CA011092CC0191
:100A40001092CB0180EEE82EF12CF70180818B7F94
:100A50008083F80180818160808380E060E042E3F0
:100A600046DFE1EEF0E080818E7F8083E2EEF0E011
:100A7000808181608083808188608083F7018081AC
:100A80008E7F8083F8018081806180831F910F9128
:100A9000FF90EF900895E8EDF0E080818F7E8083F5
:100AA000E7EDF0E080818160808381E08093CD017B
:100AB000A9CFE8EDF0E080818C7F80831092E20086
:100AC00008951092DA001092E10008951F920F929B
:100AD0000FB60F920BB60F9211242F933F934F93A3
:100AE0005F936F937F938F939F93AF93BF93EF9396
:100AF000FF938091E10082FF0AC08091E20082FFB3
:100B000006C08091E1008B7F8093E10019D2809133
:100B1000DA0080FF1DC08091D80080FF19C080914D
:100B2000DA008E7F8093DA008091D90080FF0CC0BC
:100B300084E189BD86E189BD09B400FEFDCF81E075
:100B40008093CE0196D304C019BC1092CE0192D3EB
:100B50008091E10080FF18C08091E20080FF14C006
:100B60008091E2008E7F8093E2008091E2008061BC
:100B70008093E2008091D80080628093D80019BCF5
:100B800085E08093CE01DCD18091E10084FF2FC00D
:100B90008091E20084FF2BC084E189BD86E189BD9C
:100BA00009B400FEFDCF8091D8008F7D8093D800DE
:100BB0008091E1008F7E8093E1008091E2008F7E42
:100BC0008093E2008091E20081608093E200809156
:100BD000CA01882311F084E007C08091E30087FDFB
:100BE00002C081E001C083E08093CE01A9D1809151
:100BF000E10083FF22C08091E20083FF1EC080914C
:100C0000E100877F8093E10082E08093CE01109223
:100C1000CA018091E1008E7F8093E1008091E20023
:100C20008E7F8093E2008091E20080618093E200F9
:100C300080E060E042E35BDE83D1FF91EF91BF9102
:100C4000AF919F918F917F916F915F914F913F9164
:100C50002F910F900BBE0F900FBE0F901F90189505
:100C60001F93DF93CF93CDB7DEB7AC970FB6F89451
:100C7000DEBF0FBECDBFEFECF1E08091F1008193BC
:100C800021E0E73DF207C9F7F6D28091E80083FF43
:100C90003FC18091CF013091D001353009F48DC032
:100CA000363040F43130E1F1313070F0333009F05A
:100CB0002FC136C0383009F4FDC0393009F40CC1F9
:100CC000363009F025C19CC0803821F0823809F007
:100CD0001FC108C09091CB018091CC018823B1F055
:100CE000926014C08091D3018F70873008F010C1DA
:100CF0008093E9008091EB0090E025E09695879540
:100D00002A95E1F7982F91701092E9008091E80000
:100D1000877F8093E8009093F1001092F100D5C096
:100D2000882319F0823009F0F3C090E08F71907041
:100D3000009721F0029709F0EBC00CC08091D1011F
:100D4000813009F0E5C01092CC01333081F58093F9
:100D5000CC012DC08091D101882349F52091D30188
:100D60002F70822F8150863008F0D2C02093E90086
:100D70008091EB0080FF1BC0333021F48091EB00A9
:100D8000806213C08091EB0080618093EB0081E072
:100D900090E002C0880F991F2A95E2F78093EA003D
:100DA0001092EA008091EB0088608093EB00109233
:100DB000E9008091E800877F8BC0882309F0A8C0F4
:100DC0001091D1011F778091E3008078812B80936F
:100DD000E3008091E800877F8093E800C0DD809188
:100DE000E80080FFFCCF8091E30080688093E300FF
:100DF000112311F482E001C083E08093CE0188C00A
:100E00008058823008F084C08091D1019091D20145
:100E100023E08C3D920709F033C083E08C838AE2A3
:100E20008B837FB7F894DE0115966EE040E050E0CA
:100E300011E2E62FF0E010935700849140FF03C0C9
:100E400082958F706F5F8F70282F30E08A3018F096
:100E5000C901C79602C0C901C0968D939D934F5F8B
:100E60005F4F4431510529F77FBF8091E800877FAC
:100E70008093E800CE0103966AE270E0CBDB14C0F9
:100E80006091D3017091D401AE014F5F5F4FA8D143
:100E9000BC01009709F43CC08091E800877F8093F3
:100EA000E80089819A811ADC8091E8008B77809331
:100EB000E8002EC0803861F58091E800877F80933C
:100EC000E8008091CA018093F1008091E8008E775C
:100ED0008093E80044DD1CC08823D1F49091D101B7
:100EE0009230B0F48091E800877F8093E80090937F
:100EF000CA0135DD8091CA01882331F48091E30075
:100F000087FD02C081E001C084E08093CE0122D23F
:100F10008091E80083FF0AC08091E800877F80937A
:100F2000E8008091EB0080628093EB00AC960FB6F6
:100F3000F894DEBF0FBECDBFCF91DF911F91089512
:100F400008951F938091CE01882371F01091E900DC
:100F50008091EC001092E9008091E80083FF01C0CD
:100F60007FDE1F701093E9001F91089581E044CB4C
:100F700049CB08956F927F928F929F92AF92BF92CA
:100F8000CF92DF92EF92FF920F931F93DF93CF9355
:100F900000D000D0CDB7DEB77B018C014A015901EA
:100FA000CC24DD243E010894611C711C20C0F40196
:100FB000EC0DFD1D60816E2570E0660F771F660FDA
:100FC000771F68567F4FC30144E050E00E94541ED3
:100FD000EF2CF02E012F112789819A81AB81BC81E2
:100FE000E826F9260A271B270894C11CD11CCA141D
:100FF000DB04E8F2B701C8010F900F900F900F903B
:10100000CF91DF911F910F91FF90EF90DF90CF90E4
:10101000BF90AF909F908F907F906F900895EF92C8
:10102000FF920F931F937C018B01045010406FEFD0
:101030007FEF8FEF9FEFA70198019CDF0E0D1F1D23
:10104000F80160837183828393831F910F91FF90D6
:10105000EF9008959B01AC01F89460E079E08DE396
:1010600090E00E94321E2150304040405040569542
:101070004795379527953093CD002093CC0082E09B
:101080008093C80088E98093C90086E08093CA00F5
:1010900010923101809131018093300110927B01D7
:1010A00080917B0180937A0178940895909130012A
:1010B0009F5F923108F090E08091310120E0891328
:1010C00021E0822F0895282F909130019F5F923167
:1010D00008F090E0809131018917E1F3E92FF0E009
:1010E000E25EFE4F20839093300188EB8093C9002D
:1010F000089590917A0180917B0120E0981321E07E
:10110000822F089590917A0180917B019817D1F3F5
:1011100090917B019F5F983408F090E0E92FF0E018
:10112000EE5CFE4F808190937B0108951F920F9299
:101130000FB60F920BB60F9211248F939F93EF93DC
:10114000FF939091300180913101981721F488E943
:101150008093C9000FC0909131019F5F923108F0D8
:1011600090E0E92FF0E0E25EFE4F80818093CE00B8
:1011700090933101FF91EF919F918F910F900BBE52
:101180000F900FBE0F901F9018951F920F920FB6E1
:101190000F920BB60F9211242F938F939F93EF937F
:1011A000FF932091CE0090917A019F5F983408F0D0
:1011B00090E080917B01981739F0E92FF0E0EE5C28
:1011C000FE4F208390937A01FF91EF919F918F9131
:1011D0002F910F900BBE0F900FBE0F901F90189580
:1011E000DA019330B1F0943028F4913041F092302C
:1011F00079F50AC0913211F1923251F524C0EEEE28
:10120000F4E022E130E028C0E0E0F5E029E230E05F
:1012100023C0813049F0813018F08230C9F40AC00F
:10122000E9E2F5E0849103C0EDE2F5E08491282F36
:1012300030E012C0EBE4F5E08491F9CFE2E1F5E0B3
:1012400029E030E009C0E8E9F4E026E530E004C038
:10125000E0E0F0E020E030E0ED93FC93C901089578
:1012600060917C0170917D0180917E0190917F0160
:10127000089508950895089564CE08950F931F93D7
:10128000DF93CF93CDB7DEB72F970FB6F894DEBFBD
:101290000FBECDBF288739874A875B876C877D87DC
:1012A0008E879F878091CE01843009F047C082E00D
:1012B0008093E9008091E80082FF14C08091E800EB
:1012C00085FF0BC08E010F5F1F4FC80167E070E004
:1012D00040E050E068DA8823C1F78091E8008B771E
:1012E0008093E80081E08093E9008091E80080FF2E
:1012F00025C08E01085F1F4FC80168E070E040E024
:1013000050E0A3DA8823C1F78091E8008E778093BC
:10131000E80080917C0190917D01A0917E01B091C7
:101320007F010196A11DB11D80937C0190937D01E9
:10133000A0937E01B0937F0181E001C080E02F96F1
:101340000FB6F894DEBF0FBECDBFCF91DF911F91D6
:101350000F91089582E060EC42E3C9DA81E061EC2C
:1013600042E3C5CA9091850180918601891719F4DD
:1013700020E030E010C0892F90E083709070880FDB
:10138000991F9C0143E0220F331F4A95E1F7281B68
:10139000390B29523E4FC90108950F931F93CF93E4
:1013A000DF9380918E01882309F043C080918501ED
:1013B00090E083709070880F991FFC0163E0EE0F3E
:1013C000FF1F6A95E1F7E81BF90BE952FE4F8DEE1E
:1013D000808385E481838F010E5F1F4F828193811B
:1013E000A481B581E8018C839D83AE83BF83809106
:1013F000070190910801A0910901B0910A0182832F
:101400009383A483B5830196A11DB11D8093070129
:1014100090930801A0930901B0930A0121DFF8011C
:101420006087718782879387809185018F5F809322
:101430008501DF91CF911F910F910895CF93DF9395
:10144000EC010EDF60938001709381018093820133
:10145000909383016091840180918501861701F149
:10146000862F90E083709070FC01B3E0EE0FFF1FB9
:10147000BA95E1F7E81BF90BEE0FFF1FE752FE4F9D
:10148000288139814A815B8180819181A281B381E8
:10149000281739074A075B0719F46F5F60938401C7
:1014A000DF91CF910895481711F480E00895842FBB
:1014B00013D181E008951092840110928501109259
:1014C0008601109287017EC4FC0120918601622F63
:1014D00070E080918401AB01481B510944305105F3
:1014E00014F080E008954081409544502F5F209390
:1014F0008601CB0183709070880F991F9C0153E087
:10150000220F331F5A95E1F7281B390B29523E4F02
:10151000C901BF0150E00E945D1E81E008959091D5
:10152000850180918401981709F440C020918701BA
:10153000291721F12F5F20938701215030E023707C
:101540003070220F331FC90173E0880F991F7A95FD
:10155000E1F7821B930B89529E4FB7D1909187017F
:1015600080918501981701F57BDE6093800170936F
:101570008101809382019093830116C071DE2091D6
:101580008001309181014091820150918301621B61
:10159000730B840B950B605872408040904030F084
:1015A000809184018093870181E0089580E008950F
:1015B0006A5F60938A01962F909590930F028093B3
:1015C00010028FE092E070E02ACDEF92FF920F932D
:1015D0001F937B018C0180918A01882311F080E0A8
:1015E00014C0E0921102F0921202009313021093C1
:1015F0001402209315023093160240931702509361
:10160000180284E168E0D4DF81E01F910F91FF9020
:10161000EF9008959B01AC0180918A01882311F01D
:1016200080E0089520931102309312024093130238
:101630005093140281E164E0BBDF81E008959B01D7
:10164000AC0180918A01882311F080E008952093F5
:10165000110230931202409313025093140280E15E
:1016600064E0A6DF81E008959C0180918A018823CF
:1016700011F080E00895309312022093110287E068
:1016800062E096DF81E00895609311027093120288
:10169000809313029093140286E064E089DF81E076
:1016A0000895609311027093120280931302909335
:1016B000140285E064E07CDF81E0089580931102EC
:1016C00083E061E075DF81E008958093110282E09C
:1016D00061E06EDF81E008958093110281E061E0B6
:1016E00067DF81E0089580918A01882311F080E00E
:1016F000089580E060E05CDF81E00895EF92FF9262
:101700000F931F93CF93DF93EB01833409F473C0DE
:10171000843440F4813431F1823408F043C08034A1
:1017200051F40BC0863409F494C0873409F497C08F
:10173000843409F481C080E0A2C0443009F091C033
:101740000E94050388819981AA81BB810196A11D10
:10175000B11D80930B0190930C01A0930D01B093E8
:101760000E0187C0443009F07CC080E00E94FC027A
:101770008EE080938A0181EF80930F0284E1809351
:10178000100288819981AA81BB8180931102909374
:101790001202A0931302B093140283EC90EDA6E71B
:1017A000B8E71CC0443009F05CC08EE080938A0129
:1017B00081EF80930F0284E18093100288819981E8
:1017C000AA81BB818093110290931202A09313020D
:1017D000B093140280EF90ECA5E8B8E7809315026F
:1017E00090931602A0931702B09318028FE092E034
:1017F0006EE070E01FC04430A1F58BE080938A0159
:1018000084EF80930F0282E1809310028881998196
:10181000AA81BB818093110290931202A0931302BC
:10182000B093140280918801809315028FE092E0BA
:101830006BE070E0F4DB22C0443099F4E880F9807A
:101840000A811B810DDD9B01AC01C801B701BDDE22
:1018500015C0443031F4222361F02DDE0AC044303B
:1018600019F0842F39DF0AC0222319F081E0809318
:101870008D01688179818A819B81CCDE81E0DF9155
:10188000CF911F910F91FF90EF900895833018F43E
:10189000813038F414C0843021F0813161F080E06F
:1018A000089582E180938A01EFE0F2E0DF011D926A
:1018B0008A95E9F704C0443021F0842F0DDF81E0E0
:1018C0000895CB01BBDD81E008950F931F93FC01C8
:1018D0002081209520938A010FE012E030E024500F
:1018E0003040C801BF01A9010E945D1E60918A01BC
:1018F000C80170E094DB1F910F9108950F931F931F
:10190000F8DB882319F410928C0168C010918B01C8
:10191000F9DBE12FF0E0EF5DFD4F80831F5F109357
:101920008B0180912102082F0095113059F58823F1
:1019300059F410928B0180918C01813009F0D3DE33
:1019400081E080938C014AC0063010F00331D0F062
:1019500010928B0180918C01823011F0802FBCDEBF
:1019600082E080938C0139C0C4DB8823B1F11091EF
:101970008B01C8DBE12FF0E0EF5DFD4F80831F5F3F
:1019800010938B0120918B01201770F330E02450CD
:1019900030406FEF7FEF8FEF9FEF41E252E0EADAE6
:1019A000E0918B01F0E0E35EFD4F208131814281C7
:1019B0005381621773078407950759F010928B01C2
:1019C00080918C01823049F0802F7FDE00938A0164
:1019D00004C010928C0182E001C081E01F910F9140
:1019E000089580918A01882389F408955FDB882314
:1019F00011F481E0089590918901E92FF0E0E15F11
:101A0000FD4F80819F5F909389015DDB90918901FB
:101A100080918A01981750F31092890110928A01DF
:101A200080E00895BF92CF92DF92EF92FF920F93E2
:101A30001F93D7DF882309F098C060DF882311F453
:101A40006EDD94C0813009F490C0B0908B018AEFB4
:101A5000B80E10928B01D09022028FE38D1548F0C2
:101A60008D2D63E272E04B2D11DF882309F07DC0DC
:101A700053C0E0902302F0902402009125021091BF
:101A8000260220910B0130910C0140910D015091E3
:101A90000E01CC24E216F3060407150719F4CC2432
:101AA000C39412C0D801C701821B930BA40BB50BC2
:101AB000181619061A061B063CF480E4D81621F005
:101AC000CA01B901EEDD51C08D2D807C8034C1F496
:101AD0008D2D63E272E04B2D2C2D10DE882369F4EE
:101AE000E0918F01F09190013097B1F08D2D63E27C
:101AF00072E04B2D0995882379F0CC20B1F11EC0FE
:101B0000CC2021F4C801B7019ADD2FC0809191014A
:101B100090919201892B19F48D2DD0DD26C08091F2
:101B20008D01882319F0C7DC10928D0181E292E0CB
:101B3000CBDC8823B9F0C801B70181DD80910B01AE
:101B400090910C01A0910D01B0910E010196A11D83
:101B5000B11D80930B0190930C01A0930D01B093E4
:101B60000E0103C0C801B7018FDD81E01F910F9105
:101B7000FF90EF90DF90CF90BF900895FC01DB01C4
:101B8000118210821D921C92FA011082089508950C
:101B900090E0FC01EF58FA4FE49123E3629FB0011B
:101BA0001124680F791FE62787EC90E0E89F802DCD
:101BB000112408951F93CF93DF93C7E9D1E010E07C
:101BC000812F60919601E4DF89931F5F1333C1F782
:101BD000DF91CF911F910895DF92EF92FF920F93C3
:101BE0001F9393E0899FC0011124F82EE090960185
:101BF0006E2DCEDFD82E0F2D10E08F2D8F5F6E2D26
:101C0000C7DF09561E4FF8019181582F592740E030
:101C100020812D2530E0242B352BC9011F910F91F8
:101C2000FF90EF90DF9008950F931F9393E0899FAB
:101C3000800111240E5F802F60919601A9DFE7E9F2
:101C4000F1E0E00FF11D9081892790E01F910F9145
:101C500008951F93182FC0DF892B19F080E090E0C2
:101C600009C0812FE1DF20E0892B09F021E081E02C
:101C70002827822F1F910895DF92EF92FF920F93F2
:101C80001F93F62EE72E93E0899FC0011124D82ED2
:101C9000082F10E0609196017BDF09561E4FF82651
:101CA000F801F0828D2D8F5F6091960171DFE8263B
:101CB000F801E1821F910F91FF90EF90DF9008955E
:101CC000FF920F931F93F62E93E0899F80011124BA
:101CD0000E5F802F609196015BDFE7E9F1E0E00F96
:101CE000F11DF826F0821F910F91FF900895EF9259
:101CF000FF920F931F93CF93DF93809195018823D9
:101D000009F43BC00091150110911601C0E0D0E02C
:101D100071E0E72EF12C8C2F5FDF892B59F4C7017E
:101D20000C2E02C0880F991F0A94E2F780959095B7
:101D3000082319232196CE30D10569F71093160197
:101D4000009315018EE048DF892B19F488E0809319
:101D500017018FE041DF892B29F480E88093180177
:101D60008093190180E138DF892B29F480E8809382
:101D70001A0180931B0110929501DF91CF911F9161
:101D80000F91FF90EF9008958091150190911601A9
:101D9000892BA9F480911701883089F4809118016A
:101DA000803869F480911901803849F480911A01D2
:101DB000803829F490E080911B01803809F091E08F
:101DC000892F08951F9381E080938E018093950160
:101DD00010E0812F60E070E04FDF812F60E070DF66
:101DE0001F5F1131B1F783DF1F910895FF920F93A9
:101DF0001F93CF93DF937BDF209115013091160164
:101E000040911701509118016091190170911A01C8
:101E100080911B0190911C0131DAF82E2DDAFF2000
:101E200011F411E037C010E0812FD6DEEC01812FD4
:101E3000FBDE682F80918E01882321F000E0C0E056
:101E4000D0E007C0062F209711F0219702C0611142
:101E50000150809196018F5F80939601812FBE0182
:101E60000BDF812F602F2CDF8091960181508093B2
:101E700096018F5F1F5F1131B9F68093960181E063
:101E800080939501E0919301F0919401309709F0CE
:101E9000099512E3C7DD882311F01150D9F78F2D72
:101EA000DF91CF911F910F91FF900895DF92EF92F4
:101EB000FF920F931F93CF93DF93F82EE62ED42E2D
:101EC000E90180918E01882319F090DF81E01DC027
:101ED000FF2011F410E101C01FE0812FBADE88233A
:101EE000A1F0812FBE01C8DE812F602FE9DEFF2027
:101EF00029F0E0921801D092190104C0E0921A0171
:101F0000D0921B0181E080939501DF91CF911F91C9
:101F10000F91FF90EF90DF9008950F931F93CF9351
:101F2000DF93082FEB01142F80918E01882319F085
:101F30005DDF81E00FC08EE08CDE882359F08EE0FB
:101F4000BE019ADE8EE0612FBBDE0093170181E0B7
:101F500080939501DF91CF911F910F9108956F921A
:101F60007F928F929F92AF92BF92CF92DF92EF9229
:101F7000FF920F931F93CF93DF936C015B01742E3D
:101F800080918E01882311F031DF44C0C0E0D0E0A1
:101F900001E010E0C8010C2E02C0880F991F0A94BE
:101FA000E2F78C219D21892B21F08C2F52DE882392
:101FB00091F12196CE30D10569F70091150110916C
:101FC0001601C0E0D0E0E1E08E2E912C66246394EF
:101FD00074010C2E02C0EE0CFF1C0A94E2F7C7013C
:101FE0008C219D21892B71F08C2F33DE882351F0B9
:101FF0008C2FB50141DE8C2F672D62DE0E291F2943
:10200000609295012196CE30D10511F710931601FB
:102010000093150181E0DF91CF911F910F91FF9007
:10202000EF90DF90CF90BF90AF909F908F907F9078
:102030006F9008951F9311E005C010E080918E010C
:10204000882361F4D3DE8823C1F3112339F0809112
:102050008E01882319F481E090E006DB1F9108953A
:102060009AC20895F3C00895EF920F931F93CF93F0
:10207000DF93982F762F8A01E9014530510510F43E
:1020800005E010E080E0692F472F9801EE244AD147
:10209000CE01E8DFDF91CF911F910F91EF9008956E
:1020A000EF920F931F93CF93DF93982F762F8A0190
:1020B000E9014530510510F405E010E081E0692F99
:1020C000472F9801EE242ED1CE01CCDFDF91CF91A6
:1020D0001F910F91EF900895CF93DF939B01EA0139
:1020E0006530710510F425E030E0B901A90120E068
:1020F00087D1CE01B7DFDF91CF910895CF93DF93E2
:102100009B01EA016530710510F425E030E0B9016A
:10211000A90120E060D2CE01A5DFDF91CF91089523
:102120000F931F9300911301109114012EEB3DE0CA
:1021300030931401209313010E94FC0210931401A8
:10214000009313011F910F9108950F931F93CF9345
:10215000DF938C01C0E0D0E00BC081E0E1DF89E1DA
:1021600090E080DF80E0DCDF89E190E07BDFE296D9
:10217000C017D10790F3DF91CF911F910F91089570
:102180008093880184B7877F84BF88E10FB6F89475
:1021900080936000109260000FBEE1E6F0E080E8FE
:1021A0008083108260E072EC81E090E00E942A0857
:1021B0000E944B057894FECC813029F0813030F0BC
:1021C000823051F406C020E430E008C024E030E062
:1021D00005C020E830E002C020E030E0C9010895E9
:1021E000DF92EF92FF920F931F93CF93DF937C01C7
:1021F000EB01D42E10E000E0113029F0113030F066
:10220000123051F406C0EBE8F1E108C0E7EEF1E16D
:1022100005C0E4E8F1E102C0E0E0F0E0C701BE0182
:102220004D2D0995882311F081E008C01F5F133000
:1022300009F410E00F5F0330F9F680E0DF91CF91F1
:102240001F910F91FF90EF90DF9008950F931F93D0
:10225000CF93DF938C01C0E0D0E006C080918E0167
:10226000882329F4E7DE2196C017D107B8F3DF9160
:10227000CF911F910F910895DF92EF92FF920F93EC
:102280001F93CF93DF938C017B01EA01D22E8091C3
:102290008E01882311F009C0CDDEC801BE014D2D8D
:1022A0009FDF8823C9F3C701D1DFDF91CF911F9151
:1022B0000F91FF90EF90DF90089545E050E023E00C
:1022C000DBCF0F93FA01022F6230710591F063307A
:1022D000710518F4672B41F00AC06430710559F09C
:1022E0006630710521F40AC060E840E009C060E88A
:1022F00006C06FEF04C060E84FEF02C060E040E846
:102300009F01D4DD0F910895FC01DB01242F80E0B3
:10231000BF01AD01D6CFFC01DB01242F81E0BF015D
:10232000AD01CFCFCF92DF92EF92FF920F931F9329
:10233000DF93CF9300D000D00F92CDB7DEB7C82E79
:10234000D62EF42E3A8329831C830B83ED82809151
:102350008E018823D9F4E0911301F0911401CE018C
:102360000196BE016D5F7F4FAE014B5F5F4F0995D8
:1023700001C060DE2B813C818C2D6D2D4F2D0D8198
:1023800095DD8823B1F389819A8160DF0F900F90EA
:102390000F900F900F90CF91DF911F910F91FF90B1
:1023A000EF90DF90CF900895EF920F931F938901E4
:1023B000EE24B8DF1F910F91EF900895EF920F93E5
:1023C0001F93EE24AFDF1F910F91EF90089582309D
:1023D000910581F08330910518F4892B39F008C0FC
:1023E0008430910549F0069719F408C080E007C0D1
:1023F00088E005C082E003C084E001C086E08DCDA6
:102400001F93DF93CF9300D000D00F92CDB7DEB7EC
:10241000182F7A8369835C834B832D8380918E018F
:102420008823C9F4E0911301F0911401CE010196C3
:10243000BE016D5F7F4FAE014B5F5F4F099501C0DD
:10244000F9DD6B817C81812F4D8167DD8823C1F3AC
:1024500089819A81FBDE0F900F900F900F900F9063
:10246000CF91DF911F91089545E050E023E0C8CF60
:1024700023E0C6CFEF92FF920F931F93CF93DF938A
:102480007C0110E0C0E0D0E01EC080918E01882366
:10249000E9F4112321F0CEDD2196115014C010E093
:1024A00000E0812F89DE65E070E043E058DD88239D
:1024B00011F013E008C01F5F133009F410E00F5F44
:1024C000033079F711E0CE15DF05F8F2DF91CF91F7
:1024D0001F910F91FF90EF900895AF92BF92CF920E
:1024E000DF92EF92FF920F931F93CF93DF935C01E4
:1024F0006B017A0180918E01882309F041C0C0E010
:10250000D0E002C097DD2196C50165E070E043E0B0
:1025100026DD8823B9F384E090E098DE02C08ADDEE
:102520002196C60165E070E043E019DD8823B9F328
:10253000CE15DF0528F580918E01882309F5C501A8
:1025400065E070E043E00BDD8E010C5F1F4FCE15A0
:10255000DF05B0F46FDD2196C017D107C1F7C601C2
:1025600065E070E043E0FBDC8E010C5F1F4FCE1591
:10257000DF0530F45FDD2196C017D107C1F7DBCF4F
:10258000DF91CF911F910F91FF90EF90DF90CF904F
:10259000BF90AF900895EF92FF920F931F93CF9348
:1025A000DF937C018B01C0E0D0E00BC080918E01F5
:1025B000882351F4C70165E070E043E0D0DC3ADDE8
:1025C0002196C017D10790F3DF91CF911F910F9102
:1025D000FF90EF9008950F931F93DF93CF9300D058
:1025E00000D00F92CDB7DEB78C017A8369835C830C
:1025F0004B832D8380918E018823C9F4E0911301D0
:10260000F0911401CE010196BE016D5F7F4FAE01C6
:102610004B5F5F4F099501C00DDD6B817C81C80167
:102620004D819DDC8823C1F389819A810FDE0F9053
:102630000F900F900F900F90CF91DF911F910F91FE
:10264000089545E050E023E0C6CF23E0C4CF809159
:102650008E01882311F00895EDDC96DB8823E1F7E5
:102660000895CF93DF930E94B80789E089DD8091B8
:1026700000019091010169DD84ED95E19093920153
:102680008093910180918E01882329F010928E0110
:1026900080E00E94FC02AADB0E94B209EC010097D4
:1026A00089F3BC016E5F7F4F488140954650E091B1
:1026B0009101F091920189810995882319F7898107
:1026C0000E945E0BDFCF882339F080E090E16AE062
:1026D00070E04AE550E006C080E090E16AE070E01A
:1026E0004EEB50E00BDD80E090E16AE070E040E00E
:1026F00050E004CDAF92BF92CF92DF92EF92FF9263
:102700000F931F938C017B016A01590188E090E0CF
:1027100062E370E040DF09581E4F88E090E064E01B
:1027200070E0A801DADE88E090E0B70134DFC6018E
:10273000A1DEC50197DC1F910F91FF90EF90DF9014
:10274000CF90BF90AF90089588E090E064E670E08D
:1027500022DF88E090E064E070E042E350E0BDDE1C
:1027600088E090E062E370E016DF82E090E06EE5E2
:1027700071E011CF0F931F938C0183E090E072DC26
:10278000C80160E070E099DD1F910F910895DF921C
:10279000EF92FF920F931F93CF93DF93F42E282F86
:1027A00030E0C9018C559A4FFC01949122553A4F63
:1027B000F9018491262F30E0F901EC55FA4FD490BD
:1027C00022553A4FF901E490092F182FC0E0D0E0CC
:1027D0002AC0E11640F4FF2019F080E090E0CADF43
:1027E0002396115020C01E1558F4FF2019F084E0E4
:1027F00090E0C0DF23961F5F1330A9F401E013C0FF
:102800000D1540F4FF2019F082E090E0B3DF23962D
:102810000F5F09C0D01638F4FF2019F086E090E071
:10282000A9DF239601500D15A1F61E1591F6CE01D4
:10283000DF91CF911F910F91FF90EF90DF9008955E
:10284000EF92FF920F931F93E82EF62E82E090E016
:1028500064E070E032DD82E090E064E070E02DDD65
:1028600084E090E063E070E028DD84E090E064E0E4
:1028700070E023DD82E090E060E070E01EDD84E047
:1028800090E063E070E0DDDE84E090E063E070E023
:10289000D8DEFF2011F404E301C003E310E084E07C
:1028A00090E063E070E009DD1F5F1017C0F3FF20C8
:1028B00019F46DE270E002C068E270E082E090E03E
:1028C000FCDC84E090E063E070E0F7DC84E090E022
:1028D00063E070E0F2DC84E090E06AE070E0EDDC60
:1028E00084E06DE270E048E250E0C2DD84E090E018
:1028F00063E070E0E2DC84E090E063E070E0DDDC67
:10290000EE2031F484E090E06DE270E09ADE18C0D1
:1029100084E090E063E070E094DEFF2011F40CE0CE
:1029200001C00AE010E084E090E063E070E0C5DC04
:102930001F5F1017C0F384E090E060E070E0BDDC42
:102940001F910F91FF90EF9008950F931F9388238D
:1029500019F413E004E002C012E003E084E090E028
:1029600064E170E04AE050E070DE80E090E060E01A
:1029700070E0A3DC84E090E0612F70E062DE82E032
:1029800090E0602F70E099DC80E090E0612F70E0D3
:1029900094DC82E090E0602F70E08FDC84E090E0D7
:1029A00060E070E04EDE82E090E0602F70E085DC59
:1029B00082E090E0602F70E080DC82E090E060E0F8
:1029C00070E07BDC84E090E064E170E04AE050E09D
:1029D0003CDE1F910F910895FF920F931F93CF93A9
:1029E000DF93F82E882309F458C0662311F404E01D
:1029F00001C003E084E090E064E170E04AE050E070
:102A000024DE10E0CF2DD0E0219706C084E090E0D6
:102A100063E070E052DC1F5F812F90E08C179D0710
:102A2000ACF384E090E060E070E047DC84E090E0AC
:102A300063E070E006DE82E090E0602F70E03DDC55
:102A400010E006C084E090E063E070E036DC1F5FD9
:102A5000812F90E08C179D07ACF384E090E060E05C
:102A600070E02BDC84E090E063E070E0EADD82E07F
:102A700090E0602F70E021DC82E090E0602F70E059
:102A80001CDC82E090E060E070E017DC84E090E025
:102A900064E170E04AE050E0D8DDDF91CF911F9112
:102AA0000F91FF900895CF93DF93EA018823D1F02F
:102AB000CB01D8DA80E060E070E04AE050E0D8DC9A
:102AC0008AE090E06DE770E04AE050E0BEDD81E72B
:102AD00092E0D0DC81E0C53FD80740F0CE01845FB2
:102AE000914003C0CB01C6DCCE01BCDADF91CF91AF
:102AF00008950F931F938C0184E065E070E04FE030
:102B000050E0B6DC82E090E06CE370E04AE050E038
:102B10009CDD84E065E070E04FE050E0A9DC82E0FD
:102B200090E0B8014AE050E090DD1F910F910895C8
:102B3000EF92FF921F93CF93DF93182F862FEA0116
:102B40007901C1DD8AE590E08DDA112321F184E07D
:102B50006AE070E089DC80E06AE070E085DC84E0B7
:102B600090E0BE014AE050E070DD86E06AE070E08F
:102B70007BDC84E090E0BE0164DD81E090E06AE00F
:102B800070E05FDD86E06AE070E06EDC84E090E09B
:102B9000B70157DD03C082E390E064DADF91CF91A3
:102BA0001F91FF90EF9008956F927F929F92AF9246
:102BB000BF92CF92DF92EF92FF920F931F93DF931A
:102BC000CF93CDB7DEB72C970FB6F894DEBF0FBE0C
:102BD000CDBF182F6B01042F813909F43BC0823916
:102BE00040F4813809F1803951F1803809F07AC018
:102BF0000DC0833909F44BC0833908F43AC08439D5
:102C000009F454C0853909F06DC05FC084E00E94AA
:102C1000530A882329F0802F0E946C0B0C941D1EF0
:102C20000E94B6070C941B1E85E00E94530A88235D
:102C300011F00C941D1EF601848172DAFCC786E047
:102C40000E94530A882309F0F8C7F6018481958110
:102C500009DAF1C78AE00E94530A882309F0EDC718
:102C6000F60166817781408551858481958146DAB8
:102C7000E2C789E00E94530A882309F0DEC7F60103
:102C80006581768147815085848126DAD4C78AE0C0
:102C90000E94530A882309F0D0C7F6014681578164
:102CA0002085318584816581FBD9C5C78AE00E9472
:102CB000530A882309F0C1C7F60146815781208550
:102CC000318584816581D0D9B6C788E00E94530AD6
:102CD000882309F0B2C7F6016681778184819581E6
:102CE000BFD9A9C7173F88F4153F08F055C0123F58
:102CF00019F1133F20F4113F09F093C013C0133FA3
:102D000041F1143F09F08DC036C0183F09F466C088
:102D1000183F08F455C0193F09F4E5C01A3F09F0FF
:102D200080C06DC084E0B601402F0E94530A882302
:102D300009F083C78CDC7FC786E0B601402F0E9474
:102D4000530A882309F079C7F601848195817EDAD8
:102D500072C78BE0B601402F0E94530A882309F006
:102D60006CC7F601668177814085518584819581A4
:102D7000228531DC60C78AE0B601402F0E94530AE9
:102D8000882309F05AC7F60165817681478150850D
:102D90008481218535DB4FC78BE0B601402F0E942F
:102DA000530A882309F049C7153F09F481E0F60169
:102DB000268137810085118564814581E284D7C0F1
:102DC00088E0B601402F0E94530A882309F035C7D6
:102DD000F601668177818481958138C38AE0B601E6
:102DE000402F0E94530A882309F027C7F601668105
:102DF000778140855185848195816FDB1CC78BE08D
:102E0000B601402F0E94530A882309F016C7F60125
:102E100066817781408551858481958122852CDA70
:102E20000AC71A3B09F412C21B3B70F5123B09F4A6
:102E3000D4C0133BB0F4113A09F453C2123A38F437
:102E40001F3909F46AC0103A09F04BC04CC0103B5E
:102E500009F4A2C0113B08F0B0C0123A09F041C019
:102E60004FC0163B09F434C1173B38F4143B09F446
:102E7000BEC0153B08F0C8C07CC0183B09F441C176
:102E8000193B08F085C130C1123C09F48FC4133CD2
:102E900098F41E3B09F49BC31F3B38F41C3B09F418
:102EA000D7C21D3B08F022C3A5C2103C09F40EC4D2
:102EB000113C08F040C4CDC3163C09F4EBC5173CE7
:102EC00038F4143C09F463C5153C08F0ABC50EC5D5
:102ED000183C09F45BC6183C08F4F3C5193C09F426
:102EE00078C680E0ABC686E0B601402F0E94530A48
:102EF000882309F0A2C6F60184819581BBDA9BC6BE
:102F000086E0B601402F0E94530A882309F095C637
:102F1000F60184819581EDDD8EC68CE0B601402FEF
:102F20000E94530A882309F088C6F601F38484813D
:102F3000958160E070E04F2D50E020E04CDBF60121
:102F4000868160E070E04F2D50E020E059DA81E0AA
:102F5000F6016781408520E030E00F2D10E0EE247F
:102F6000E1D980E0F601618542852F2D30E0DAD984
:102F700062C68CE0B601402F0E94530A882309F0F4
:102F80005CC6F6016681778140855185228533854F
:102F900084819581AFDB4FC68AE0B601402F0E9445
:102FA000530A882309F049C6F601468157812085D6
:102FB000318584816581BCDD3EC689E0B601402F44
:102FC0000E94530A882309F038C6F601658176818C
:102FD00047815085848167DD2EC684E0B601402F8D
:102FE0000E94530A882309F028C6AEDB24C686E077
:102FF000B601402F0E94530A882309F01EC6F6012D
:10300000848165811DDC17C684E0B601402F0E94D3
:10301000530A882309F011C684E090E064E170E06F
:103020004AE050E012DB82E090E063E070E045D9D6
:1030300080E090E060E070E040D984E090E062E001
:1030400070E0FFDA82E090E063E070E036D982E081
:1030500090E063E070E031D982E090E063E070E0FE
:103060002CD982E090E060E070E027D984E090E025
:1030700064E170E04AE050E0E8DA84E090E064E186
:1030800070E04AE050E0E1DA86E090E063E070E072
:1030900014D986E090E063E070E00FD986E090E01C
:1030A00063E070E00AD986E090E063E070E005D963
:1030B00086E090E063E070E000D986E090E063E0B5
:1030C00070E0FBD882E090E063E070E0F6D82CC3BB
:1030D00085E0B601402F0E94530A882309F0ADC550
:1030E000F601848132DCA7C586E0B601402F0E943C
:1030F000530A882309F0A1C5F601848165816CDC3F
:103100009AC585E0B601402F0E94530A882309F032
:1031100094C5F601148181E061E092DB112399F1FD
:103120008CE361E059DC84E090E064E170E04AE027
:1031300050E08BDA86E090E063E070E0BED886E095
:1031400090E063E070E0B9D886E090E063E070E082
:10315000B4D880E090E062E070E0AFD886E090E024
:1031600063E070E0AAD880E090E062E070E0A5D86B
:1031700086E090E063E070E0A0D880E090E062E05C
:1031800070E09BD802C081E0E0DB81E09CDA53C5AF
:1031900086E0B601402F0E94530A882309F04DC5EE
:1031A000F6010481158181E061E04ADB84E090E072
:1031B00064E170E04AE050E048DA84E090E060E0EA
:1031C00070E03FDA82E090E063E070E076D882E081
:1031D00090E063E070E071D882E090E063E070E03E
:1031E0006CD884E090E060E070E02BDA82E090E060
:1031F00063E070E062D886E090E063E070E05DD864
:1032000080E090E062E070E058D882E090E060E01A
:1032100070E053D884E090E064E170E04AE050E070
:1032200014DA84E090E064E170E04AE050E00DDA06
:1032300086E090E063E070E040D884E090E062E0F7
:1032400070E03BD880E090E1B801BDC187E0B601F5
:10325000402F0E94530A882309F0EFC4F60104812D
:10326000E580F68081E060E0EBDA84E090E064E104
:1032700070E04AE050E0E9D984E090E060E070E07E
:10328000E0D982E090E063E070E017D882E090E05F
:1032900063E070E012D810E006C084E090E063E0E4
:1032A00070E00BD81F5F1017C0F384E090E060E07F
:1032B00070E0C7D982E090E063E070E00E945D11A9
:1032C00082E090E063E070E00E945D1184E090E0B5
:1032D00064E170E04AE050E0B8D980E090E1B701E5
:1032E00072C18BE0B601402F0E94530A882309F077
:1032F000A4C4F601B480FCE0FB1510F48CE0B82EF9
:1033000030E020E0BE016F5F7F4FAE014E5F5F4F48
:1033100013C0F601E30FF11D95813F5FE22FF0E04E
:10332000DB01AE0FBF1F892F8F708C93E40FF51F49
:1033300092959F7090832E5F2B1558F39924AA24A1
:10334000FF24F3943E010894611C711C42C0F301F8
:10335000EA0DF11D0081FE01EB0DF11D108100331E
:1033600008F00053103308F010530A3008F000E062
:103370001A3008F010E08F2D602F40E008DA6C0161
:103380008F2D612F40E003DA8C159D0508F4012F85
:103390008F2D602F41E0FBD97C01009721F483E061
:1033A00090E00E943210992029F080E190E060E0E6
:1033B00070E047D984E090E060E070E042D9EC141E
:1033C000FD0418F0A394992403C0BA94992493940B
:1033D000F02EAB1408F4BBCF83E090E00E943210D3
:1033E00080E092E063E070E02CD980E092E063E05E
:1033F00070E079C288E0B601402F0E94530A88230A
:1034000009F01BC4F601068117816481758181E092
:1034100090E04AE050E019D980E090E065E070E08B
:103420000E945D1180E090E065E070E00E945D1117
:1034300082E090E065E070E00E945D1180E092E043
:1034400063E070E0FED882E090E0B801A4D8F3C356
:1034500087E0B601402F0E94530A882309F0EDC38C
:10346000F601F4800581E68080E090E063E070E0A2
:103470000E945D1110E007C082E090E063E070E020
:103480000E945D111F5F1F15B8F380E090E063E0BC
:1034900070E00E945D1184E090E068EC70E0D1D8AB
:1034A000EE2081F010E084E090E063E070E00E94A4
:1034B0005D111F5F1431B9F780E090E063E070E0C8
:1034C0000E945D1182E390E00E94261182E063E099
:1034D00070E00E94341207C084E090E063E070E086
:1034E0000E945D1101500023B9F7A5C384E0B60125
:1034F000402F0E94530A882309F09FC382E090E086
:1035000063E070E00E945D1182E090E063E070E0B3
:103510000E945D1182E090E063E070E00E945D1126
:1035200082E090E063E070E00E945D1182E090E054
:1035300063E070E00E945D1182E090E063E070E083
:103540000E945D1184E090E063E070E00E945D11F4
:1035500084E090E063E070E00E945D1186E090E01E
:1035600060E070E00E945D1184E090E064E170E052
:103570004AE050E06AD882E090E063E070E00E94A8
:103580005D1182E090E063E070E00E945D1182E0F6
:1035900090E063E070E00E945D1182E090E063E003
:1035A00070E00E945D1182E090E063E070E00E94B4
:1035B0005D1182E090E060E070E00E945D1184E0C7
:1035C00090E064E170E04AE050E03FD834C384E02A
:1035D000B601402F0E94530A882309F02EC310E041
:1035E00084E090E063E070E00E945D111F5F1D3099
:1035F000B9F784E090E060E070E00E945D1184E043
:1036000090E068E270E04AE050E01FD886E090E089
:1036100060E070E00E945D1184E090E068E270E09C
:103620004AE050E012D880E090E060E070E00E9454
:103630005D1184E090E063E070E003D810E084E086
:1036400090E063E070E00E945D111F5F1D30B9F7EC
:103650006BC085E0B601402F0E94530A882309F011
:10366000ECC2F601148184E090E06CE070E00E940E
:10367000211384E090E068E070E00E94211386E06E
:1036800090E063E070E00E945D1186E090E063E00E
:1036900070E00E945D1186E090E063E070E00E94BF
:1036A0005D11112331F086E090E063E070E00E944C
:1036B0005D1110E084E090E063E070E00E945D1135
:1036C0001F5F1C33B9F784E090E067C084E0B60167
:1036D000402F0E94530A882309F0AFC210E080E017
:1036E00090E063E070E00E945D111F5F1D30B9F74C
:1036F00080E090E060E070E00E945D1184E090E086
:103700006AE070E00E94211384E090E06FE070E0D6
:103710000E94211310E084E090E063E070E00E94DA
:103720005D111F5F1A30B9F784E090E060E070E04F
:103730000E945D1180C285E0B601402F0E94530AAD
:10374000882309F07AC2F601148184E090E06FE0EA
:1037500070E00E94211384E090E065E070E00E9438
:103760002113112331F086E090E063E070E00E94C5
:103770005D1186E090E063E070E00E945D1186E0FC
:1037800090E063E070E00E945D1186E090E063E00D
:1037900070E00E945D1180E090E060E070E00E94C7
:1037A0005D1184E090E062E070E073C085E0B601F6
:1037B000402F0E94530A882309F03FC2F6018481FA
:1037C0008F3198F584E090E06FE070E00E94211363
:1037D00084E090E065E070E00E94211386E090E0D4
:1037E00063E070E00E945D1186E090E063E070E0CD
:1037F0000E945D1186E090E063E070E00E945D1140
:1038000086E090E063E070E00E945D1180E090E06F
:1038100060E070E00E945D1184E090E068E070E09C
:103820000E94211380E090E0ADC084E090E06CE065
:1038300070E00E94211384E090E068E070E00E9454
:10384000211386E090E063E070E00E945D1186E065
:1038500090E063E070E00E945D1186E090E063E03C
:1038600070E00E945D1180E090E063E070E00E94F3
:103870005D1186E090E063E070E00E945D1180E001
:1038800090E060E070E00E945D1184E090E063E011
:1038900070E00E94211382E090E063E070E00E94FB
:1038A0005D1182E090E063E070E00E945D1182E0D3
:1038B00090E060E070E00E945D1184E090E063E0E1
:1038C00070E00E94211382E090E063E070E00E94CB
:1038D0005D1182E090E062E070E00E945D1184E0A2
:1038E00090E06CE070E00E942113A5C184E0B60175
:1038F000402F0E94530A882309F09FC184E090E082
:103900006CE070E00E94211384E090E068E070E0D9
:103910000E94211386E090E063E070E00E945D1158
:1039200086E090E063E070E00E945D1186E090E048
:1039300063E070E00E945D1180E090E063E070E081
:103940000E945D1186E090E063E070E00E945D11EE
:1039500080E090E063E070E00E945D1186E090E01E
:1039600063E070E00E945D1180E090E060E070E054
:103970000E945D1184E090E062E070E00E942113FB
:1039800082E090E063E070E00E945D1184CF84E00B
:10399000B601402F0E94530A882309F04EC184E0EB
:1039A00090E06CE070E00E94211384E090E068E019
:1039B00070E00E94211386E090E063E070E00E94D6
:1039C0005D1186E090E063E070E00E945D1186E0AA
:1039D00090E063E070E00E945D1180E090E063E0C1
:1039E00070E00E945D1186E090E063E070E00E946C
:1039F0005D1180E090E063E070E00E945D1186E080
:103A000090E063E070E00E945D111CE384E090E0D0
:103A100063E070E00E945D1111501130B9F784E04D
:103A200090E0A4CF84E0B601402F0E94530A88237F
:103A300009F003C181E06FEF4FEF22E330E00E9415
:103A4000D41181E06FEF40EA20E030E00EEF11E0AA
:103A50000E94DE1184E090E06AEA70E00E94211387
:103A600084E090E06AEA70E00E94211384E090E034
:103A70006AEA70E00E94211381E060E040E822E3FE
:103A800030E006E811E00E94DE1182E090E066E896
:103A900071E0C1C086E0B601402F0E94530A88231E
:103AA00009F0CBC0F601E480F58081E06FEF40E8DB
:103AB00020E030E087010E94DE1182E090E0B70153
:103AC000C5CC86E0B601402F0E94530A882309F036
:103AD000B4C0F601C480D580EE24FF2452C081E03A
:103AE00060E84FEF20E030E000E210E00E94DE11DD
:103AF00084E090E060E170E00E94211384E090E0B7
:103B000060E170E00E94211381E06FEF40E820E067
:103B100030E00E94DE1184E090E060E170E00E94FD
:103B2000211384E090E060E170E00E94211381E0C5
:103B300060E840E020E030E00E94DE1184E090E0A8
:103B400060E170E00E94211384E090E060E170E0A9
:103B50000E94211381E060E040E820E030E00E9414
:103B6000DE1184E090E060E170E00E94211384E0C7
:103B700090E060E170E00E94211380E890E0E80EA0
:103B8000F91EEC14FD0408F4AACF55C084E0B60178
:103B9000402F0E94530A882309F04FC081E06FEF45
:103BA00040E924E630E00AEF10E00E94DE1184E0F4
:103BB00090E064E670E00E94211384E090E062E30C
:103BC00070E00E94211381E06FEF4FEF22E330E0BD
:103BD00030C084E0B601402F0E94530A882369F563
:103BE00081E060E84FEF2EE130E00E94D41181E0E7
:103BF0006FEF40E924E031E00E94D41181E060E001
:103C000040E822E330E000E911E00E94DE1182E0AA
:103C100090E060E971E00E94CB1281E060EC40E04E
:103C200028E730E00E94D41181E06FEF40E028E700
:103C300030E00E94D4110E94CD0981E02C960FB68D
:103C4000F894DEBF0FBECDBFCF91DF911F910F91D2
:103C5000FF90EF90DF90CF90BF90AF909F907F90BC
:103C60006F900895A1E21A2EAA1BBB1BFD010DC087
:103C7000AA1FBB1FEE1FFF1FA217B307E407F5071C
:103C800020F0A21BB30BE40BF50B661F771F881FF8
:103C9000991F1A9469F760957095809590959B018E
:103CA000AC01BD01CF010895FB01DC0102C005900C
:103CB0000D9241505040D8F70895FB01DC0102C03D
:103CC00001900D9241505040D8F70895F894FFCFDD
:103CD0007102780077010101000000010000003846
:0E3CE0001EE797C70D0000088080808000005E
:00000001FF
