:10000000FBC0000016C1000014C1000012C10000B6
:1000100010C100000EC100000CC100000AC10000A8
:1000200008C1000006C1000004C1000053C3000065
:1000300000C10000FEC00000FCC00000FAC00000CB
:10004000F8C00000F6C00000F4C00000F2C00000DC
:10005000F0C00000EEC00000ECC000009AC6000036
:100060006DC60000E6C00000E4C00000E2C0000071
:10007000E0C00000DEC00000DCC00000DAC000000C
:10008000D8C00000D6C00000D4C00000D2C000001C
:10009000D0C00000CEC00000000000006FC75E109E
:1000A000DE8EBD20B149E330BC1D7B41D3DA255142
:1000B0006293C6610D549871783BF68217FCA89242
:1000C000A6B54BA2C97215B2C4268DC3ABE1D3D37A
:1000D0001AA830E3756F6EF305010905A10115003B
:1000E00025013500450175019510050919012910F3
:1000F000810205012507463B017504950165140938
:1001000039814265009501810126FF0046FF000903
:10011000300931093209357508950481020600FF5E
:100120000920950181020A212695089102C0120139
:100130000002000000400D0F9200000101020001CA
:100140000902290001010080FA09040000020300ED
:100150000000092111010001225600070502034099
:10016000000807058103400008040309041C034834
:10017000004F0052004900200043004F002E002C89
:10018000004C00540044002E000000240350004F97
:10019000004B004B0045004E00200043004F004E36
:1001A00000540052004F004C004C0045005200002B
:1001B00000D5738162EED5E1EB87FB3290FD4C6692
:1001C000EF8B83F4D8CD3598F89A0708C5E3DEEFB6
:1001D00034208E99125EC41094D3948A0D8A77CD00
:1001E000128360E601000102000102000102030027
:1001F000000001010102020211241FBECFEFD2E074
:10020000DEBFCDBF11E0A0E0B1E0EEECFEE202C047
:1002100005900D92A631B107D9F712E0A6E1B1E041
:1002200001C01D92AB32B107E1F70E9407110C9497
:100230006517E6CE8AB180638AB98BB180638BB9CA
:100240000895882319F08BB18F7C02C08BB1806335
:100250008BB908959C014091CD015091CE01461774
:10026000570718F4F90190E03DC06115710511F0D0
:10027000AB01F8CF8091E8008E778093E80040E0F2
:1002800050E0F0CF8091C601882309F441C0853049
:1002900009F440C08091E80083FD3EC08091E800F1
:1002A00082FD30C08091E80080FF1CC08091F20088
:1002B000282F30E007C081918093F10041505040D9
:1002C0002F5F3F4F4115510519F02034310598F348
:1002D00090E02034310509F491E08091E8008E77B8
:1002E0008093E8004115510569F6992359F60AC033
:1002F0008091C601882361F0853061F08091E8002B
:1003000083FD0AC08091E80082FFF2CF80E008956B
:1003100082E0089583E0089581E008959C01409172
:10032000CD015091CE014617570718F4F90190E01E
:100330003EC06115710511F0AB01F8CF8091E80066
:100340008E778093E80040E050E0F0CF8091C601C6
:10035000882309F442C0853009F441C08091E80047
:1003600083FD3FC08091E80082FD31C08091E800AC
:1003700080FF1DC08091F200282F30E008C08491DA
:100380008093F1003196415050402F5F3F4F41150F
:10039000510519F02034310590F390E020343105F7
:1003A00009F491E08091E8008E778093E800411590
:1003B000510561F6992351F60AC08091C601882340
:1003C00061F0853061F08091E80083FD0AC0809182
:1003D000E80082FFF2CF80E0089582E0089583E094
:1003E000089581E00895BF92CF92DF92EF92FF923D
:1003F0000F931F93CF93DF93182F092F7B016A016F
:10040000EFD0B82E8823B1F5812F902F9C01E90100
:10041000C114D10439F0F60180819181E81AF90AFA
:10042000C80FD91F00E010E022C08091E80085FDD0
:1004300016C08091E8008B778093E80060D3C114E8
:10044000D10449F0F60180819181800F911F918341
:10045000808385E010C0C4D0882349F00CC080910F
:10046000F10089930894E108F1080F5F1F4FE11430
:10047000F104D9F68B2DDF91CF911F910F91FF9051
:10048000EF90DF90CF90BF900895BF92CF92DF9210
:10049000EF92FF920F931F93CF93DF93182F092FA3
:1004A0007B016A019DD0B82E8823B1F5812F902F52
:1004B0009C01E901C114D10439F0F60180819181D8
:1004C000E81AF90AC80FD91F00E010E022C0809195
:1004D000E80085FD16C08091E8008E778093E800E3
:1004E0000ED3C114D10449F0F60180819181800FAF
:1004F000911F9183808385E010C072D0882349F0DA
:100500000CC089918093F1000894E108F1080F5F15
:100510001F4FE114F104D9F68B2DDF91CF911F917C
:100520000F91FF90EF90DF90CF90BF900895382FFC
:10053000282F2EC0822F8F708093E900231721F47B
:10054000762F942F50E006C07091EC009091ED0052
:100550005091F00091FF1BC08091EB008E7F809343
:10056000EB008091ED008D7F8093ED008091EB009A
:1005700081608093EB007093EC009093ED005093BA
:10058000F0008091EE0087FD02C080E008952F5FAB
:10059000253080F23F703093E90081E0089580912A
:1005A000C70188239CF404C08091C6018823B9F058
:1005B0008091E80082FFF8CF8091E8008B778093EC
:1005C000E80008958091C601882349F08091E800F1
:1005D00080FFF8CF8091E8008E778093E80008953F
:1005E0004091E4005091E50024E68091EC0080FF0A
:1005F00024C08091E80080FD1EC08091C601882340
:1006000011F482E00895853011F483E0089580911B
:10061000EB0085FF02C081E008958091E400909195
:10062000E5008417950709F3222311F484E0089567
:100630002150AC01DACF80E008958091E80082FF7C
:10064000DCCFF9CF41D043D08091D8008F77809311
:10065000D8008091D80080688093D8008091D8001D
:100660008F7D8093D80084E089BD86E089BD09B480
:1006700000FEFDCF1092C6011092C2011092C4017B
:100680001092C30180E060E042E351DF8091E1001D
:100690008E7F8093E1008091E20081608093E20090
:1006A0008091E20088608093E2008091E0008E7F7C
:1006B0008093E0000895E3E6F0E080818E7F808300
:1006C00081E08093C501BECF1092E20008951092A0
:1006D000E10008951F920F920FB60F9211242F93ED
:1006E0003F934F935F936F937F938F939F93AF93BA
:1006F000BF93EF93FF938091E10082FF0AC0809146
:10070000E20082FF06C08091E1008B7F8093E100D0
:10071000F5D18091E10080FF17C08091E20080FF59
:1007200013C08091E2008E7F8093E2008091E2000E
:1007300080618093E2008091D80080628093D8002D
:1007400019BC1092C60196D38091E10084FF2FC09E
:100750008091E20084FF2BC084E089BD86E089BDE2
:1007600009B400FEFDCF8091D8008F7D8093D80022
:100770008091E1008F7E8093E1008091E2008F7E86
:100780008093E2008091E20081608093E20080919A
:10079000C201882311F084E007C08091E30087FD47
:1007A00002C081E001C083E08093C60162D38091E2
:1007B000E10083FF22C08091E20083FF1EC0809190
:1007C000E100877F8093E10082E08093C601109270
:1007D000C2018091E1008E7F8093E1008091E20070
:1007E0008E7F8093E2008091E20080618093E2003E
:1007F00080E060E042E39BDE81D1FF91EF91BF9109
:10080000AF919F918F917F916F915F914F913F91A8
:100810002F910F900FBE0F901F9018951F93DF938D
:10082000CF93CDB7DEB7AC970FB6F894DEBF0FBE4F
:10083000CDBFE7ECF1E08091F100819321E0EF3C46
:10084000F207C9F718D38091E80083FF3FC1809178
:10085000C7013091C801353009F48DC0363040F4FD
:100860003130E1F1313070F0333009F02FC136C052
:10087000383009F4FDC0393009F40CC1363009F0C4
:1008800025C19CC0803821F0823809F01FC108C002
:100890009091C3018091C4018823B1F0926014C08B
:1008A0008091CB018F70853008F010C18093E900F2
:1008B0008091EB0090E025E0969587952A95E1F7E9
:1008C000982F91701092E9008091E800877F8093C3
:1008D000E8009093F1001092F100D5C0882319F040
:1008E000823009F0F3C090E08F719070009721F092
:1008F000029709F0EBC00CC08091C901813009F06A
:10090000E5C01092C401333081F58093C4012DC03D
:100910008091C901882349F52091CB012F70822F46
:100920008150843008F0D2C02093E9008091EB0020
:1009300080FF1BC0333021F48091EB00806213C034
:100940008091EB0080618093EB0081E090E002C039
:10095000880F991F2A95E2F78093EA001092EA0027
:100960008091EB0088608093EB001092E900809109
:10097000E800877F8BC0882309F0A8C01091C901C7
:100980001F778091E3008078812B8093E300809132
:10099000E800877F8093E80002DE8091E80080FF16
:1009A000FCCF8091E30080688093E300112311F471
:1009B00082E001C083E08093C60188C08058823005
:1009C00008F084C08091C9019091CA0123E08C3D58
:1009D000920709F033C083E08C838AE28B837FB770
:1009E000F894DE0115966EE040E050E011E2E62F4B
:1009F000F0E010935700849140FF03C082958F7000
:100A00006F5F8F70282F30E08A3018F0C901C796C9
:100A100002C0C901C0968D939D934F5F5F4F4431D3
:100A2000510529F77FBF8091E800877F8093E80018
:100A3000CE0103966AE270E00DDC14C06091CB0138
:100A40007091CC01AE014F5F5F4FCAD1BC010097DE
:100A500009F43CC08091E800877F8093E800898199
:100A60009A815CDC8091E8008B778093E8002EC04F
:100A7000803861F58091E800877F8093E80080915D
:100A8000C2018093F1008091E8008E778093E800A6
:100A900086DD1CC08823D1F49091C9019230B0F456
:100AA0008091E800877F8093E8009093C20177DD12
:100AB0008091C201882331F48091E30087FD02C058
:100AC00081E001C084E08093C60144D28091E800B7
:100AD00083FF0AC08091E800877F8093E8008091BF
:100AE000EB0080628093EB00AC960FB6F894DEBF0B
:100AF0000FBECDBFCF91DF911F91089508951F9331
:100B00008091C601882371F01091E9008091EC007A
:100B10001092E9008091E80083FF01C07FDE1F7022
:100B20001093E9001F91089581E08BCB83CB08954A
:100B30000F931F93DF93CF9300D000D0CDB7DEB7D4
:100B40008C01862FF8016081682770E06F707070EB
:100B5000660F771F660F771F68567F4FCE0101968D
:100B600044E050E00E945317F80180819181A281F6
:100B7000B38114E0B695A795979587951A95D1F707
:100B800029813A814B815C8182279327A427B5274D
:100B900080839183A283B3830F900F900F900F9067
:100BA000CF91DF911F910F9108958F929F92AF92F5
:100BB000BF92CF92DF92EF92FF921F93DF93CF937A
:100BC00000D000D0CDB7DEB769837A838B839C8356
:100BD0005A016901EE24FF244E010894811C911CE6
:100BE0000FC0F501EE0DFF1D1081C401612FA0DFC4
:100BF00012951F70C401612F9BDF0894E11CF11C4A
:100C0000EC14FD0470F369817A818B819C810F90D3
:100C10000F900F900F90CF91DF911F91FF90EF9069
:100C2000DF90CF90BF90AF909F908F900895EF92FC
:100C3000FF920F931F937C018B01045010406FEFC4
:100C40007FEF8FEF9FEFA7019801AFDF0E0D1F1D04
:100C5000F80160837183828393831F910F91FF90CA
:100C6000EF9008959B01AC01F89460E079E08DE38A
:100C700090E00E943117215030404040504056953E
:100C80004795379527953093CD002093CC0082E08F
:100C90008093C80088E98093C90086E08093CA00E9
:100CA00010922901809129018093280110927301EB
:100CB0008091730180937201789408959091280136
:100CC0009F5F923108F090E08091290120E0891324
:100CD00021E0822F0895282F909128019F5F923163
:100CE00008F090E0809129018917E1F3E92FF0E005
:100CF000EA5EFE4F20839093280188EB8093C90021
:100D00000895909172018091730120E0981321E081
:100D1000822F089590917201809173019817D1F3F9
:100D2000909173019F5F983408F090E0E92FF0E014
:100D3000E65DFE4F80819093730108951F920F929C
:100D40000FB60F9211248F939F93EF93FF9390917F
:100D5000280180912901981721F488E98093C9001E
:100D60000FC0909129019F5F923108F090E0E92F28
:100D7000F0E0EA5EFE4F80818093CE0090932901DF
:100D8000FF91EF919F918F910F900FBE0F901F9049
:100D900018951F920F920FB60F9211242F938F93D5
:100DA0009F93EF93FF932091CE00909172019F5FEC
:100DB000983408F090E080917301981739F0E92F8A
:100DC000F0E0E65DFE4F208390937201FF91EF917A
:100DD0009F918F912F910F900FBE0F901F9018959C
:100DE000DA019330B1F0943028F4913041F0923030
:100DF00079F50AC0913211F1923251F524C0EEE238
:100E0000F1E022E130E028C0E0E4F1E029E230E066
:100E100023C0813049F0813018F08230C9F40AC013
:100E2000E9E6F1E0849103C0EDE6F1E08491282F3A
:100E300030E012C0EBE8F1E08491F9CFE2E5F1E0B7
:100E400029E030E009C0E8EDF0E026E530E004C03C
:100E5000E0E0F0E020E030E0ED93FC93C90108957C
:100E60006091740170917501809176019091770184
:100E7000089508950895089542CE08950F931F93FD
:100E8000DF93CF93CDB7DEB72F970FB6F894DEBFC1
:100E90000FBECDBF288739874A875B876C877D87E0
:100EA0008E879F878091C601843009F047C082E019
:100EB0008093E9008091E80082FF14C08091E800EF
:100EC00085FF0BC08E010F5F1F4FC80167E070E008
:100ED00040E050E088DA8823C1F78091E8008B7702
:100EE0008093E80081E08093E9008091E80080FF32
:100EF00025C08E01085F1F4FC80168E070E040E028
:100F000050E0C3DA8823C1F78091E8008E778093A0
:100F1000E8008091740190917501A0917601B091E3
:100F200077010196A11DB11D809374019093750105
:100F3000A0937601B093770181E001C080E02F9605
:100F40000FB6F894DEBF0FBECDBFCF91DF911F91DA
:100F50000F91089582E060EC42E3E9DA81E061EC10
:100F600042E3E5CA90917D0180917E01891719F4D1
:100F700020E030E00BC0892F90E0837090706EE02D
:100F800070E00E941F179C0121533E4FC901089534
:100F90000F931F93CF93DF9380918601882309F0ED
:100FA0003EC080917D0190E0837090706EE070E0B3
:100FB0000E941F17FC01E153FE4F8DEE808385E4F4
:100FC00081838F010E5F1F4F82819381A481B58140
:100FD000E8018C839D83AE83BF8380910001909153
:100FE0000101A0910201B091030182839383A48344
:100FF000B5830196A11DB11D80930001909301015D
:10100000A0930201B09303012BDFF8016087718781
:101010008287938780917D018F5F80937D01DF912F
:10102000CF911F910F9108951F93CF93DF93EC0100
:1010300017DF609378017093790180937A01909320
:101040007B0110917C0180917D018117E9F0812F56
:1010500090E08370907067E070E00E941F17FC01C1
:10106000EE0FFF1FEF52FE4F288139814A815B81CD
:1010700080819181A281B381281739074A075B07D4
:1010800019F41F5F10937C01DF91CF911F91089598
:10109000481711F480E00895842F14D181E0089559
:1010A0000F931F938C0110927C0110927D0110927E
:1010B0007E0110927F018CD4F80160817181828160
:1010C00093819ED01F910F910895FC0120917E0184
:1010D000622F70E080917C01AB01481B51094430C4
:1010E000510514F080E008954081409544502F5FF1
:1010F00020937E01CB01837090706EE070E00E94BF
:101100001F179C0121533E4FC901BF0150E00E94AF
:101110005C1781E0089590917D0180917C01981782
:1011200009F43AC080917F018917F1F08F5F8093B5
:101130007F01815090E0837090706EE070E00E94BB
:101140001F1781539E4FA4D190917F0180917D0103
:10115000981701F585DE609378017093790180938B
:101160007A0190937B0116C07BDE2091780130914B
:10117000790140917A0150917B01621B730B840BC2
:10118000950B605872408040904030F080917C0117
:1011900080937F0181E0089580E008956A5F609305
:1011A0008201962F9095909307028093080287E022
:1011B00092E070E03CCDEF92FF920F931F937B0182
:1011C0008C0180918201882311F080E014C0E092AC
:1011D0000902F0920A0200930B0210930C02209372
:1011E0000D0230930E0240930F025093100284E1DF
:1011F00068E0D4DF81E01F910F91FF90EF90089598
:101200009B01AC0180918201882311F080E0089558
:101210002093090230930A0240930B0250930C0270
:1012200081E164E0BBDF81E008959B01AC01809126
:101230008201882311F080E0089520930902309301
:101240000A0240930B0250930C0280E164E0A6DF97
:1012500081E008959C0180918201882311F080E053
:10126000089530930A022093090287E062E096DF36
:1012700081E008956093090270930A0280930B0243
:1012800090930C0286E064E089DF81E0089560932A
:10129000090270930A0280930B0290930C0285E07E
:1012A00064E07CDF81E008958093090283E061E0DF
:1012B00075DF81E008958093090282E061E06EDFCE
:1012C00081E008958093090281E061E067DF81E0B9
:1012D000089580918201882311F080E0089580E0D4
:1012E00060E05CDF81E00895EF92FF920F931F931F
:1012F000FB01833409F470C0843440F4813431F14B
:10130000823408F040C0803439F408C0843409F4D1
:1013100084C0863409F48EC080E096C0443009F061
:101320008BC080819181A281B3810196A11DB11DE5
:101330008093040190930501A0930601B0930701E7
:1013400060817181828193815BDF7DC0443009F0CF
:1013500073C08EE08093820181EF8093070284E165
:101360008093080280819181A281B38180930902D8
:1013700090930A02A0930B02B0930C028BEB90EDBA
:10138000A6E7B8E71CC0443009F056C08EE0809351
:10139000820181EF8093070284E1809308028081BB
:1013A0009181A281B3818093090290930A02A09354
:1013B0000B02B0930C0288E594E4A7E7B8E78093AA
:1013C0000D0290930E02A0930F02B093100287E0DB
:1013D00092E06EE070E01FC0443071F58BE08093C6
:1013E000820184EF8093070282E18093080280816A
:1013F0009181A281B3818093090290930A02A09304
:101400000B02B0930C028091800180930D0287E063
:1014100092E06BE070E00BDC16C0443069F4E080D1
:10142000F180028113811CDD9B01AC01C801B70171
:10143000C2DE09C0443019F0842F44DF04C02223E7
:1014400011F0CB012DDE81E01F910F91FF90EF9005
:101450000895833018F4813038F414C0843021F0BA
:10146000813161F080E0089582E180938201E7E0BC
:10147000F2E0DF011D928A95E9F704C0443021F0C3
:10148000842F20DF81E00895CB01CEDD81E0089537
:101490000F931F93FC01208120952093820107E088
:1014A00012E030E024503040C801BF01A9010E9481
:1014B0005C1760918201C80170E0B9DB1F910F9148
:1014C00008950F931F931DDC882319F41092840153
:1014D00068C0109183011EDCE12FF0E0E75EFD4F54
:1014E00080831F5F1093830180911902082F00955C
:1014F000113059F5882359F41092830180918401A9
:10150000813009F0E6DE81E0809384014AC0063034
:1015100010F00331D0F01092830180918401823069
:1015200011F0802FCFDE82E08093840139C0E9DBA7
:101530008823B1F110918301EDDBE12FF0E0E75E4C
:10154000FD4F80831F5F109383012091830120173B
:1015500070F330E0245030406FEF7FEF8FEF9FEF5C
:1015600049E152E022DBE0918301F0E0EB5EFD4FC8
:101570002081318142815381621773078407950767
:1015800059F01092830180918401823049F0802FBC
:1015900092DE0093820104C01092840182E001C0B7
:1015A00081E01F910F91089580918201882389F431
:1015B000089584DB882311F481E0089590918101DE
:1015C000E92FF0E0E95FFD4F80819F5F90938101FB
:1015D00082DB9091810180918201981750F31092E3
:1015E00081011092820180E00895BF92CF92DF9234
:1015F000EF92FF920F931F93D7DF882309F091C0DA
:1016000060DF882311F487DD8DC0813009F489C043
:10161000B09083018AEFB80E10928301D0901A0225
:101620008FE38D1548F08D2D6BE172E04B2D11DFAE
:10163000882309F076C053C0E0901B02F0901C0292
:1016400000911D0210911E022091040130910501AC
:101650004091060150910701CC24E216F3060407DD
:10166000150719F4CC24C39412C0D801C701821BFA
:10167000930BA40BB50B181619061A061B063CF49F
:1016800080E4D81621F0CA01B90101DE4AC08D2DCF
:10169000807C8034C1F48D2D6BE172E04B2D2C2DBC
:1016A00023DE882369F4E0918701F0918801309767
:1016B000B1F08D2D6BE172E04B2D0995882379F007
:1016C000CC2079F117C0CC2021F4C801B701ADDDE1
:1016D00028C08091890190918A01892B19F48D2D60
:1016E000E3DD1FC089E192E0F0DC8823B9F0C80196
:1016F000B7019BDD8091040190910501A091060145
:10170000B09107010196A11DB11D80930401909332
:101710000501A0930601B093070103C0C801B701FA
:10172000A9DD81E01F910F91FF90EF90DF90CF90A6
:10173000BF900895EF92FF920F931F93209108019D
:101740003091090140910A0150910B01DA01C90160
:101750006DE0880F991FAA1FBB1F6A95D1F78227DA
:101760009327A427B5277C018D0121E116950795C4
:10177000F794E7942A95D1F7E826F9260A271B273C
:10178000A801970185E0220F331F441F551F8A953A
:10179000D1F72E253F25402751272093080130936C
:1017A000090140930A0150930B01B901CA011F912D
:1017B0000F91FF90EF900895FC01DB0111821082E0
:1017C0001D921C92FA01108208950895282F30E08E
:1017D000F901EF54FE4FE491F0E0862F90E063E3CF
:1017E00070E00E941F17280F391FCF01822793270F
:1017F00067EC70E00C941F171F93CF93DF93CFE833
:10180000D1E010E0812F60918E01E0DF89931F5FAE
:101810001333C1F7DF91CF911F910895DF92EF92BB
:10182000FF920F931F9390E063E070E00E941F17F8
:10183000F82EE0908E016E2DC9DFD82E0F2D10E00E
:101840008F2D8F5F6E2DC2DF01571E4FF8019181E2
:10185000582F592740E020812D2530E0242B352BAF
:10186000C9011F910F91FF90EF90DF9008951F9392
:1018700090E063E070E00E941F17182F1E5F812F19
:1018800060918E01A3DFEFE8F1E0E10FF11D90819F
:10189000892790E01F9108951F93182FBFDF892B90
:1018A00019F080E090E009C0812FE1DF20E0892B72
:1018B00009F021E081E02827822F1F910895DF920F
:1018C000EF92FF920F931F93E62ED72E90E063E0E6
:1018D00070E00E941F17F82E082F10E060918E0113
:1018E00075DF01571E4FE826F801E0828F2D8F5FCC
:1018F00060918E016BDFD826F801D1821F910F9184
:10190000FF90EF90DF9008950F931F93162F90E0B4
:1019100063E070E00E941F17082F0E5F802F609118
:101920008E0154DFEFE8F1E0E00FF11D182710837E
:101930001F910F910895EF92FF920F931F93CF93F2
:10194000DF9380918D01882309F43BC000910E0143
:1019500010910F01C0E0D0E071E0E72EF12C8C2F48
:101960005DDF892B59F4C7010C2E02C0880F991F27
:101970000A94E2F780959095082319232196CE309A
:10198000D10569F710930F0100930E018EE046DF39
:10199000892B19F488E0809310018FE03FDF892BB9
:1019A00029F480E8809311018093120180E136DFF1
:1019B000892B29F480E880931301809314011092FD
:1019C0008D01DF91CF911F910F91FF90EF900895BE
:1019D0001F9381E08093860180938D0110E0812F19
:1019E00060E070E06CDF812F60E08EDF1F5F1131FF
:1019F000B1F7A1DF1F910895FF920F931F93CF932B
:101A0000DF9399DF20910E0130910F014091100179
:101A10005091110160911201709113018091140194
:101A2000909115012BDAF82E27DAFF2011F411E03E
:101A300037C010E0812FF2DEEC01812F18DF682F14
:101A400080918601882321F000E0C0E0D0E007C04B
:101A5000062F209711F0219702C06111015080914B
:101A60008E018F5F80938E01812FBE0128DF812F31
:101A7000602F4ADF80918E01815080938E018F5FAD
:101A80001F5F1131B9F680938E0181E080938D0143
:101A9000E0918B01F0918C01309709F0099512E3E8
:101AA000A4DD882311F01150D9F78F2DDF91CF914C
:101AB0001F910F91FF900895DF92EF92FF920F9385
:101AC0001F93CF93DF93F82EE62ED42EE901809159
:101AD0008601882319F090DF81E01DC0FF2011F4FA
:101AE00010E101C01FE0812FD7DE8823A1F0812FF4
:101AF000BE01E5DE812F602F07DFFF2029F0E09295
:101B00001101D092120104C0E0921301D09214018D
:101B100081E080938D01DF91CF911F910F91FF9014
:101B2000EF90DF9008950F931F93CF93DF93082FCB
:101B3000EB01142F80918601882319F05DDF81E08D
:101B40000FC08EE0A9DE882359F08EE0BE01B7DE1B
:101B50008EE0612FD9DE0093100181E080938D012A
:101B6000DF91CF911F910F9108956F927F928F9285
:101B70009F92AF92BF92CF92DF92EF92FF920F931C
:101B80001F93CF93DF936C015B01742E80918601CC
:101B9000882311F031DF44C0C0E0D0E001E010E064
:101BA000C8010C2E02C0880F991F0A94E2F78C21FD
:101BB0009D21892B21F08C2F6FDE882391F12196B6
:101BC000CE30D10569F700910E0110910F01C0E0F0
:101BD000D0E0E1E08E2E912C6624639474010C2EEB
:101BE00002C0EE0CFF1C0A94E2F7C7018C219D2174
:101BF000892B71F08C2F50DE882351F08C2FB5018A
:101C00005EDE8C2F672D80DE0E291F2960928D01EC
:101C10002196CE30D10511F710930F0100930E01DC
:101C200081E0DF91CF911F910F91FF90EF90DF90B6
:101C3000CF90BF90AF909F908F907F906F900895BE
:101C40001F9311E005C010E080918601882361F4A4
:101C5000D3DE8823C1F3112339F0809186018823D4
:101C600019F481E090E0F6DA1F91089574C20895A6
:101C7000A2C00895EF920F931F93CF93DF93982FF5
:101C8000762F8A01E9014530510510F405E010E096
:101C900080E0692F472F9801EE2433D1CE01E8DF91
:101CA000DF91CF911F910F91EF900895EF920F93D5
:101CB0001F93CF93DF93982F762F8A01E901453048
:101CC000510510F405E010E081E0692F472F9801DD
:101CD000EE2417D1CE01CCDFDF91CF911F910F9170
:101CE000EF900895CF93DF939B01EA016530710572
:101CF00010F425E030E0B901A90120E05DD1CE016A
:101D0000B7DFDF91CF910895CF93DF939B01EA0175
:101D10006530710510F425E030E0B901A90120E03B
:101D20003AD2CE01A5DFDF91CF9108950F931F9393
:101D300000910C0110910D012CED3BE030930D0151
:101D400020930C010E94210110930D0100930C01BE
:101D50001F910F9108958093800184B7877F84BF7E
:101D600088E10FB6F89480936000109260000FBE77
:101D7000E1E6F0E080E88083108260E072EC81E0D0
:101D800090E00E9432060E945B03789435CD81304A
:101D900029F0813030F0823051F406C020E430E088
:101DA00008C024E030E005C020E830E002C020E0B8
:101DB00030E0C90108950F931F93CF93DF938C01F7
:101DC000C0E0D0E006C080918601882329F438DF86
:101DD0002196C017D107B8F3DF91CF911F910F91D2
:101DE0000895DF92EF92FF920F931F93CF93DF93AB
:101DF0007C01EB01D42E9EDC162F13701330D9F327
:101E000000E0113029F0113030F0123051F406C0EA
:101E1000EAE7FFE008C0E3ECFFE005C0E3E7FFE02E
:101E200002C0E0E0F0E0C701BE014D2D0995882316
:101E300011F081E008C01F5F133009F410E00F5F5C
:101E40000330F9F680E0DF91CF911F910F91FF9061
:101E5000EF90DF900895DF92EF92FF920F931F9320
:101E6000CF93DF938C017B01EA01D22E8091860112
:101E7000882311F009C0E4DEC801BE014D2DB1DF99
:101E80008823C9F3C70197DFDF91CF911F910F918D
:101E9000FF90EF90DF90089545E050E023E0DBCF26
:101EA0000F93FA01022F6230710591F063307105D2
:101EB00018F4672B41F00AC06430710559F06630A0
:101EC000710521F40AC060E840E009C060E806C07E
:101ED0006FEF04C060E84FEF02C060E040E89F0190
:101EE000EBDD0F910895FC01DB01242F80E0BF01A1
:101EF000AD01D6CFFC01DB01242F81E0BF01AD0194
:101F0000CFCFCF92DF92EF92FF920F931F93DF9389
:101F1000CF9300D000D00F92CDB7DEB7C82ED62E0B
:101F2000F42E3A8329831C830B83ED8280918601F2
:101F30008823D9F4E0910C01F0910D01CE010196B6
:101F4000BE016D5F7F4FAE014B5F5F4F099501C0D2
:101F500077DE2B813C818C2D6D2D4F2D0D81ACDDDD
:101F60008823B1F389819A8126DF0F900F900F901B
:101F70000F900F90CF91DF911F910F91FF90EF90F5
:101F8000DF90CF9008958230910581F083309105E4
:101F900018F4892B39F008C08430910549F0069770
:101FA00019F408C080E007C088E005C082E003C0E3
:101FB00084E001C086E0B7CD1F93DF93CF9300D0BC
:101FC00000D00F92CDB7DEB7182F7A8369835C8378
:101FD0004B832D83809186018823C9F4E0910C0105
:101FE000F0910D01CE010196BE016D5F7F4FAE01F4
:101FF0004B5F5F4F099501C023DE6B817C81812F90
:102000004D8191DD8823C1F389819A81D4DE0F90BF
:102010000F900F900F900F90CF91DF911F91089527
:1020200045E050E023E0C8CF23E0C6CFEF92FF9217
:102030000F931F93CF93DF937C0110E0C0E0D0E0BB
:1020400022C080918601882309F5112321F0F8DD53
:102050002196115018C06EDB162F13701330D9F370
:1020600000E0812F94DE65E070E043E07EDD8823B0
:1020700011F013E008C01F5F133009F410E00F5F88
:10208000033079F711E0CE15DF05D8F2DF91CF915B
:102090001F910F91FF90EF900895AF92BF92CF9252
:1020A000DF92EF92FF920F931F93CF93DF935C0128
:1020B0006B017A0180918601882309F041C0C0E05C
:1020C000D0E002C0BDDD2196C50165E070E043E0CF
:1020D0004CDD8823B9F384E090E06DDE02C0B0DD12
:1020E0002196C60165E070E043E03FDD8823B9F347
:1020F000CE15DF0528F580918601882309F5C501F5
:1021000065E070E043E031DD8E010C5F1F4FCE15BE
:10211000DF05B0F495DD2196C017D107C1F7C601E0
:1021200065E070E043E021DD8E010C5F1F4FCE15AE
:10213000DF0530F485DD2196C017D107C1F7DBCF6D
:10214000DF91CF911F910F91FF90EF90DF90CF9093
:10215000BF90AF900895EF92FF920F931F93CF938C
:10216000DF937C018B01C0E0D0E00BC08091860141
:10217000882351F4C70165E070E043E0F6DC60DDE0
:102180002196C017D10790F3DF91CF911F910F9146
:10219000FF90EF9008950F931F93DF93CF9300D09C
:1021A00000D00F92CDB7DEB78C017A8369835C8350
:1021B0004B832D83809186018823C9F4E0910C0123
:1021C000F0910D01CE010196BE016D5F7F4FAE0112
:1021D0004B5F5F4F099501C033DD6B817C81C80186
:1021E0004D81C3DC8823C1F389819A81E4DD0F909E
:1021F0000F900F900F900F90CF91DF911F910F9143
:10220000089545E050E023E0C6CF23E0C4CFCF934C
:10221000DF930E94960588E09EDD8CE193E1909328
:102220008A018093890180918601882329F0109288
:10223000860180E00E942101DFDB0E94B207EC01F1
:10224000009789F3BC016E5F7F4F488140954650EF
:10225000E0918901F0918A0189810995882319F714
:10226000898122D8E0CF882339F080E090E16AE0CC
:1022700070E04AE550E006C080E090E16AE070E07E
:102280004EEB50E041DD80E090E16AE070E040E03C
:1022900050E03ACD0F931F938C0183E090E0E8DC8F
:1022A000C80160E070E0F8DD1F910F910895EF9292
:1022B000FF920F931F93E82EF62E82E090E064E0E9
:1022C00070E0EADD82E090E064E070E0E5DD84E06B
:1022D00090E063E070E0E0DD84E090E064E070E0D6
:1022E000DBDD82E090E060E070E0D6DD84E090E04D
:1022F00063E070E086DF84E090E063E070E081DF1F
:10230000FF2011F402E301C001E310E084E090E05B
:1023100063E070E0C1DD1F5F1017C0F3FF2019F408
:102320006DE270E002C068E270E082E090E0B4DD4F
:1023300084E090E063E070E0AFDD84E090E063E093
:1023400070E0AADD84E090E063E070E0A5DD84E069
:1023500090E063E070E0A0DDEE2031F484E090E0F6
:102360006DE270E04EDF18C084E090E063E070E062
:1023700048DFFF2011F40CE001C00AE010E084E027
:1023800090E063E070E088DD1F5F1017C0F384E029
:1023900090E060E070E080DD1F910F91FF90EF9082
:1023A00008950F931F93882319F413E004E002C0EB
:1023B00012E003E084E090E064E170E04AE050E085
:1023C00024DF80E090E060E070E066DD84E090E093
:1023D000612F70E016DF82E090E0602F70E05CDD3E
:1023E00080E090E0612F70E057DD82E090E0602FA8
:1023F00070E052DD84E090E060E070E002DF82E0B7
:1024000090E0602F70E048DD82E090E0602F70E0A7
:1024100043DD82E090E060E070E03EDD84E090E04B
:1024200064E170E04AE050E0F0DE1F910F91089502
:10243000FF920F931F93CF93DF93F82E882309F415
:1024400058C0662311F404E001C003E084E090E08A
:1024500064E170E04AE050E0D8DE10E0CF2DD0E03B
:10246000219706C084E090E063E070E015DD1F5F17
:10247000812F90E08C179D07ACF384E090E060E042
:1024800070E00ADD84E090E063E070E0BADE82E0B4
:1024900090E0602F70E000DD10E006C084E090E086
:1024A00063E070E0F9DC1F5F812F90E08C179D07DF
:1024B000ACF384E090E060E070E0EEDC84E090E07B
:1024C00063E070E09EDE82E090E0602F70E0E4DC8C
:1024D00082E090E0602F70E0DFDC82E090E060E07E
:1024E00070E0DADC84E090E064E170E04AE050E023
:1024F0008CDEDF91CF911F910F91FF900895EF92A5
:10250000FF921F93CF93DF93182F862FEA01790153
:10251000AADE8AE590E0ACDB112321F184E06AE0D9
:1025200070E07EDD80E06AE070E07ADD84E090E0DB
:10253000BE014AE050E069DE86E06AE070E070DDEE
:1025400084E090E0BE015DDE81E090E06AE070E052
:1025500058DE86E06AE070E063DD84E090E0B70179
:1025600050DE03C082E390E083DBDF91CF911F91C7
:10257000FF90EF900895AF92BF92CF92DF92EF92CB
:10258000FF920F931F938C017B016A01590188E030
:1025900090E062E370E0DFDD09581E4F88E090E0D4
:1025A00064E070E0A80179DD88E090E0B701D3DD58
:1025B000C6013CDDC5015CDB1F910F91FF90EF90E0
:1025C000DF90CF90BF90AF90089588E090E064E6F0
:1025D00070E0C1DD88E090E064E070E042E350E04C
:1025E0005CDD88E090E060E971E0B5CDCF93DF93EA
:1025F000EA018823D1F0CB013BDB80E060E070E0B2
:102600004AE050E011DD8AE090E06DE770E04AE0DA
:1026100050E0FBDD81E792E009DD81E0C53FD807AE
:1026200040F0CE01845F914003C0CB01FFDCCE01BE
:102630001FDBDF91CF9108959F92AF92BF92CF920F
:10264000DF92EF92FF920F931F93DF93CF93CDB75B
:10265000DEB72C970FB6F894DEBF0FBECDBF6B016F
:10266000142F8139C9F1823940F48138F9F0803969
:1026700041F1803809F089C00DC0833909F44FC099
:10268000833908F43EC0843909F45FC0853909F004
:102690007CC06AC084E00E944808882321F0812F12
:1026A0000E946209B9C30E949405B4C385E00E94E8
:1026B0004808882309F0B0C3D60114968C9136DB04
:1026C000A9C386E00E944808882309F0A5C3F60143
:1026D00084819581CDDA9EC38AE00E9448088823D0
:1026E00009F09AC3D60116966D917C9117971896AA
:1026F0004D915C91199714968D919C91159704DBDF
:1027000089C389E00E944808882309F085C3F6013F
:1027100065817681478150858481E4DA7BC38AE0D4
:102720000E944808882309F077C3D60116964D9178
:102730005C91179718962D913C91199714968C914E
:10274000149715966C91B2DA65C38AE00E94480826
:10275000882309F061C3F6014681578120853185C0
:102760008481658187DA56C388E00E9448088823FF
:1027700009F052C3D60116966D917C911797149665
:102780008D919C91159772DA45C3843B09F4BBC0C7
:10279000853BA0F4803B09F486C0813B40F4803A3D
:1027A00039F1813A09F435C28F3901F52EC0823BE7
:1027B00009F49FC0833B08F05BC086C0883B09F4E6
:1027C00032C1893B38F4863B09F413C1873B08F0DA
:1027D0001DC1A6C08A3B09F4CCC18A3B08F46BC179
:1027E0008B3B09F4A2C28C3B09F4CEC280E015C336
:1027F00086E0B601412F0E944808882309F00CC3E7
:10280000F6018481958112DC05C38CE0B601412F6D
:102810000E944808882309F0FFC2D6011B96FC904D
:102820001B9714968D919C91159760E070E04F2D49
:1028300050E020E0B0DCF601868160E070E04F2DD2
:1028400050E020E0B9DB81E0D60117966C91179734
:1028500018964C9120E030E00F2D10E0EE2451DB73
:1028600080E0F601618542852F2D30E04ADBD2C23F
:102870008CE0B601412F0E944808882309F0CCC2A1
:10288000D60116966D917C91179718964D915C9193
:1028900019971A962D913C911B9714968D919C91A6
:1028A000159769DEB7C28AE0B601412F0E94480839
:1028B000882309F0B1C2F601468157812085318510
:1028C000848165811CDEA6C289E0B601412F0E9489
:1028D0004808882309F0A0C2D60115966D917C9115
:1028E000169717964D915C91189714968C917EDEF1
:1028F00091C284E0B601412F0E944808882309F064
:102900008BC263DE87C286E0B601412F0E94480871
:10291000882309F081C2F60184816581C8DC7AC20E
:1029200084E0B601412F0E944808882309F074C250
:1029300084E090E064E170E04AE050E066DC82E030
:1029400090E063E070E0A8DA80E090E060E070E0A2
:10295000A3DA84E090E062E070E053DC82E090E093
:1029600063E070E099DA82E090E063E070E094DA8E
:1029700082E090E063E070E08FDA82E090E060E077
:1029800070E08ADA84E090E064E170E04AE050E0D0
:102990003CDC84E090E064E170E04AE050E035DC4B
:1029A00086E090E063E070E077DA86E090E063E054
:1029B00070E072DA86E090E063E070E06DDA86E065
:1029C00090E063E070E068DA86E090E063E070E059
:1029D00063DA86E090E063E070E05EDA82E090E047
:1029E00063E070E059DA84E090E060E070E054DA8F
:1029F00011C285E0B601412F0E944808882309F0E2
:102A00000BC2D60114968C91CCDC04C286E0B601D0
:102A1000412F0E944808882309F0FEC1F6018481F5
:102A2000658106DDF7C185E0B601412F0E944808A7
:102A3000882309F0F1C1D60114961C9181E061E070
:102A400036DC112399F18CE361E0F2DC84E090E064
:102A500064E170E04AE050E0D8DB86E090E063E0BB
:102A600070E01ADA86E090E063E070E015DA86E064
:102A700090E063E070E010DA80E090E062E070E007
:102A80000BDA86E090E063E070E006DA80E090E048
:102A900062E070E001DA86E090E063E070E0FCD98B
:102AA00080E090E062E070E0F7D902C081E079DC7C
:102AB00081E0D9DBAFC186E0B601412F0E94480812
:102AC000882309F0A9C1F6010481158181E061E044
:102AD000EEDB84E090E064E170E04AE050E095DBFA
:102AE00084E090E060E070E08CDB82E090E063E006
:102AF00070E0D2D982E090E063E070E0CDD982E06E
:102B000090E063E070E0C8D984E090E060E070E0BD
:102B100078DB82E090E063E070E0BED986E090E090
:102B200063E070E0B9D980E090E062E070E0B4D991
:102B300082E090E060E070E0AFD984E090E064E192
:102B400070E04AE050E061DB84E090E064E170E036
:102B50004AE050E05ADB86E090E063E070E09CD908
:102B600084E090E062E070E097D980E090E1B80105
:102B70004CC087E0B601412F0E944808882309F025
:102B80004BC1D60114960C9114971596ED90FC90BC
:102B9000169781E060E08BDB84E090E064E170E018
:102BA0004AE050E032DB84E090E060E070E029DB56
:102BB00082E090E063E070E06FD982E090E063E053
:102BC00070E06AD910E006C084E090E063E070E055
:102BD00063D91F5F1017C0F384E090E060E070E0FD
:102BE00010DB82E090E063E070E056D982E090E094
:102BF00063E070E051D984E090E064E170E04AE085
:102C000050E003DB80E090E1B7014AE050E0FDDAFC
:102C100001C18BE0B601412F0E944808882309F0CA
:102C2000FBC0F6019480FCE0F91510F48CE0982EBE
:102C300030E020E0AE014F5F5F4FBE016E5F7F4F1F
:102C400013C0F601E30FF11D95813F5FE22FF0E025
:102C5000DA01AE0FBF1F892F8F708C93E60FF71F1D
:102C600092959F7090832E5F291558F37A01AA24BC
:102C7000E1E049C0D701BC90B9E0BB1508F4BB2422
:102C80002E2F30E0C9018C519E4FFC01049122513E
:102C90003E4FF90114912B2D30E0C9018C519E4F0C
:102CA000FC01C49022513E4FF901D4901EC0D116B0
:102CB00028F480E090E0EEDA115017C01D1540F4C2
:102CC00084E090E0E7DA1F5F133079F401E00DC093
:102CD0000C1528F482E090E0DDDA0F5F06C0C01624
:102CE00020F486E090E0D6DA01500C1501F71D15AE
:102CF000F1F684E090E060E070E083DAA394089459
:102D0000E11CF11CEB2DA91408F4B4CF83E090E092
:102D10000E94380E80E092E063E070E072DA80E0BA
:102D200092E063E070E06DDA75C088E0B601412F93
:102D30000E944808882309F06FC0D60116960D91AD
:102D40001C91179714966D917C91159781E090E0F6
:102D50004AE050E05ADA80E090E065E070E09CD80C
:102D600080E090E065E070E097D882E090E065E078
:102D700070E092D880E092E063E070E042DA82E0B6
:102D800090E0B801E8D946C087E0B601412F0E9423
:102D90004808882309F040C0F601F4800581E680E8
:102DA00080E090E063E070E077D810E006C082E059
:102DB00090E063E070E070D81F5F1F15C0F380E003
:102DC00090E063E070E068D884E090E068EC70E048
:102DD00018DAEE2071F010E084E090E063E070E03B
:102DE0005BD81F5F1431C1F780E090E063E070E0D2
:102DF00053D882E390E00E94DB0E82E063E070E053
:102E00000FD906C084E090E063E070E045D801503F
:102E10000023C1F70E94C80781E02C960FB6F894F2
:102E2000DEBF0FBECDBFCF91DF911F910F91FF90FD
:102E3000EF90DF90CF90BF90AF909F90089555276F
:102E4000002480FF02C0060E571F660F771F611512
:102E5000710521F096958795009799F7952F802D0C
:102E60000895A1E21A2EAA1BBB1BFD010DC0AA1FCB
:102E7000BB1FEE1FFF1FA217B307E407F50720F0E3
:102E8000A21BB30BE40BF50B661F771F881F991F5E
:102E90001A9469F760957095809590959B01AC01A7
:102EA000BD01CF010895FB01DC0102C005900D9228
:102EB00041505040D8F70895FB01DC0102C0019059
:0E2EC0000D9241505040D8F70895F894FFCF7E
:102ECE000100000001000000381EE797E50B00002E
:062EDE00088080808000E6
:00000001FF
