:10000000B8C20000D3C20000D1C20000CFC20000BD
:10001000CDC20000CBC20000C9C20000C7C20000B0
:10002000C5C20000C3C20000C1C2000000C500007C
:10003000BDC20000BBC20000B9C20000B7C20000D0
:10004000B5C20000B3C20000B1C20000AFC20000E0
:10005000ADC200000C94FE0DA9C200000C946C0E01
:100060000C94410EA3C20000A1C200009FC2000078
:100070009DC200009BC2000099C2000097C2000010
:1000800095C2000093C2000091C200008FC2000020
:100090008DC200008BC200000000000003836BF2E1
:1000A000F7703BE1F4F350131F979AC71C14F13516
:1000B000E8E7A126EB64CAD4CF58D98ACCDBB27862
:1000C0003828E26B3BAB8999D0CF434DD34C28BF46
:1000D00027BF78AC243C135E6FC75E106C4435E2DA
:1000E00098B765F19B340E037050C4D773D3AF2516
:1000F0008720FF3684A394C4A09F879AA31CEC6832
:1001000057EFBC7B546CD789BF081D5DBC8B76AFA5
:10011000487826BC4BFB4D4EDE8EBD20DD0DD6D281
:1001200029FE86C12A7DED33C11927E7C29A4C15F5
:1001300036691C0635EA77F411D664AA12550F58B1
:10014000E6A65F4BE52534B90E41FE6D0DC2959FC5
:10015000F931C58CFAB2AE7EB149E330B2CA88C279
:100160004639D8D145BAB323AEDE79F7AD5D120575
:1001700059AE42165A2D29E47E113ABA7D92514861
:100180008961015B8AE26AA96186A07D6205CB8FE5
:1001900096F69B9C9575F06EBC1D7B41BF9E10B37F
:1001A0004B6D40A048EE2B52A38AE186A0098A74C9
:1001B00054FADA675779B1957345A2CB70C6C9393D
:1001C0008435992A87B6F2D86CD2380C6F5153FE19
:1001D0009BA203ED9821681FD3DA2551D0594EA375
:1001E00024AA1EB027297542CC4DBF96CFCED46429
:1001F0003B3D847738BEEF851C82FCDB1F019729CD
:10020000EBF2C73AE871ACC80315661C00960DEE18
:10021000F4655DFDF7E6360F6293C6616110AD933C
:1002200095E3FD80966096727D045CA67E873754C8
:100230008A74674789F70CB5ADCB1FEBAE487419CC
:100240005ABB240A59384FF8B25C852CB1DFEEDE78
:10025000452CBECD46AFD53F0D5498710ED7F383D4
:10026000FA24A390F9A7C86212C302B611406944E8
:10027000E5B33957E63052A5C20C41FBC18F2A09BC
:10028000357C7A1A36FF11E8DD9BDB3CDE18B0CEF8
:100290002AEBE0DD29688B2F783BF6827BB89D70D6
:1002A0008F4BCD638CC8A69167AC6C45642F07B7A4
:1002B00090DC57A4935F3C56B7632F08B4E044FA30
:1002C000401314E943907F1BA8F4B5CFAB77DE3D14
:1002D0005F848E2E5C07E5DC17FCA892147FC36058
:1002E000E08C9373E30FF881086B32550BE859A744
:1002F000FF1B09B4FC986246D8A47118DB271AEAE0
:100300002FD44AF92C57210BC733EBDFC4B0802D13
:100310003043D03E33C0BBCCA6B54BA2A53620504F
:1003200051C5704352461BB1B922D165BAA1BA97E3
:100330004E52EA844DD1817669ED92286A6EF9DADF
:100340009E9DA9C99D1EC23B767A08EF75F9631D73
:10035000810A330E828958FCC97215B2CAF17E40F7
:100360003E022E533D8145A1D6E58F75D566E487C3
:100370002195B4942216DF66062ACC3805A9A7CAAF
:10038000F15AF7D9F2D99C2B19BD56FF1A3E3D0DF3
:10039000EECD6D1EED4E06ECC4268DC3C7A5E6312D
:1003A0003356B62230D5DDD0DBB11704D8327CF617
:1003B0002CC12CE52F4247170B7E544908FD3FBB4B
:1003C000FC0E6FA8FF8D045A14E9CE8E176AA57C27
:1003D000E399F56FE01A9E9DABE1D3D3A862B821F3
:1003E0005C91E8325F1283C0B4764914B7F522E617
:1003F000430672F54085190764B90A59673A61AB3B
:1004000093C931B8904A5A4A7B2E909E78ADFB6CC6
:100410008C5EAB7F8FDDC08D1AA830E3192B5B118A
:10042000EDD80B02EE5B60F0053FAA2406BCC1D6F6
:10043000F24F91C5F1CCFA37D5F0E969D673829BBA
:100440002280D2882103B97ACA6773AEC9E4185CE6
:100450003D17484F3E9423BD756F6EF376EC050152
:10046000821F5512819C3EE06AF8F434697B9FC676
:100470009D88CFD59E0BA427BA37B779B9B4DC8B4A
:100480004D478C984EC4E76AA5A02DBEA623464CC6
:1004900052D0165F51537DAD05010905A10115002C
:1004A000250135004501750195100509190129102F
:1004B000810205012507463B017504950165140974
:1004C00039814265009501810126FF0046FF000940
:1004D000300931093209357508950481020600FF9B
:1004E0000920950181020A212695089102C0120176
:1004F0000002000000400D0F920000010102000107
:100500000902290001010080FA0904000002030029
:1005100000000921110100012256000705020340D5
:10052000000807058103400008040309041C034870
:10053000004F0052004900200043004F002E002CC5
:10054000004C00540044002E000000240350004FD3
:10055000004B004B0045004E00200043004F004E72
:1005600000540052004F004C004C00450052000067
:10057000000011241FBECFEFD2E0DEBFCDBF11E0DF
:10058000A0E0B1E0E2EFF3E202C005900D92A433E7
:10059000B107D9F712E0A4E3B1E001C01D92A9367A
:1005A000B107E1F70E945B110C94F71129CD9C0172
:1005B0004091BE015091BF014617570718F4F90149
:1005C00090E03DC06115710511F0AB01F8CF80914D
:1005D000E8008E778093E80040E050E0F0CF809113
:1005E000B701882309F441C0853009F440C08091E7
:1005F000E80083FD3EC08091E80082FD30C080911C
:10060000E80080FF1CC08091F200282F30E007C076
:1006100081918093F100415050402F5F3F4F411531
:10062000510519F02034310598F390E0203431055C
:1006300009F491E08091E8008E778093E8004115FD
:10064000510569F6992359F60AC08091B7018823AC
:1006500061F0853061F08091E80083FD0AC08091EF
:10066000E80082FFF2CF80E0089582E0089583E001
:10067000089581E008959C014091BE015091BF0111
:100680004617570718F4F90190E03EC0611571054F
:1006900011F0AB01F8CF8091E8008E778093E800ED
:1006A00040E050E0F0CF8091B701882309F442C0C8
:1006B000853009F441C08091E80083FD3FC08091FE
:1006C000E80082FD31C08091E80080FF1DC080916C
:1006D000F200282F30E008C084918093F100319619
:1006E000415050402F5F3F4F4115510519F02034C4
:1006F000310590F390E02034310509F491E08091C8
:10070000E8008E778093E8004115510561F6992342
:1007100051F60AC08091B701882361F0853061F0FD
:100720008091E80083FD0AC08091E80082FFF2CF4B
:1007300080E0089582E0089583E0089581E00895BF
:10074000BF92CF92DF92EF92FF920F931F93CF93BE
:10075000DF93182F092F7B016A01EFD0B82E882371
:10076000B1F5812F902F9C01E901C114D10439F01A
:10077000F60180819181E81AF90AC80FD91F00E0BB
:1007800010E022C08091E80085FD16C08091E8004D
:100790008B778093E80064D3C114D10449F0F6014B
:1007A00080819181800F911F9183808385E010C0AB
:1007B000C4D0882349F00CC08091F100899308943B
:1007C000E108F1080F5F1F4FE114F104D9F68B2DFA
:1007D000DF91CF911F910F91FF90EF90DF90CF901D
:1007E000BF900895BF92CF92DF92EF92FF920F9346
:1007F0001F93CF93DF93182F092F7B016A019DD0A0
:10080000B82E8823B1F5812F902F9C01E901C114E6
:10081000D10439F0F60180819181E81AF90AC80FF4
:10082000D91F00E010E022C08091E80085FD16C0CD
:100830008091E8008E778093E80012D3C114D10430
:1008400049F0F60180819181800F911F918380830F
:1008500085E010C072D0882349F00CC08991809344
:10086000F1000894E108F1080F5F1F4FE114F10453
:10087000D9F68B2DDF91CF911F910F91FF90EF90C3
:10088000DF90CF90BF900895382F282F2EC0822F51
:100890008F708093E900231721F4762F942F50E076
:1008A00006C07091EC009091ED005091F00091FF26
:1008B0001BC08091EB008E7F8093EB008091ED0058
:1008C0008D7F8093ED008091EB0081608093EB0041
:1008D0007093EC009093ED005093F0008091EE0047
:1008E00087FD02C080E008952F5F253080F23F70C1
:1008F0003093E90081E008958091B80188239CF449
:1009000004C08091B7018823B9F08091E80082FF8C
:10091000F8CF8091E8008B778093E800089580916C
:10092000B701882349F08091E80080FFF8CF8091DB
:10093000E8008E778093E80008954091E40050919C
:10094000E50024E68091EC0080FF24C08091E8005F
:1009500080FD1EC08091B701882311F482E00895C4
:10096000853011F483E008958091EB0085FF02C08B
:1009700081E008958091E4009091E5008417950747
:1009800009F3222311F484E008952150AC01DACF59
:1009900080E008958091E80082FFDCCFF9CF41D05C
:1009A00043D08091D8008F778093D8008091D80071
:1009B00080688093D8008091D8008F7D8093D80084
:1009C00084E089BD86E089BD09B400FEFDCF1092A8
:1009D000B7011092B3011092B5011092B40180E0FA
:1009E00060E042E351DF8091E1008E7F8093E1007F
:1009F0008091E20081608093E2008091E200886053
:100A00008093E2008091E0008E7F8093E000089563
:100A1000E3E6F0E080818E7F808381E08093B60101
:100A2000BECF1092E20008951092E10008951F9247
:100A30000F920FB60F9211242F933F934F935F9312
:100A40006F937F938F939F93AF93BF93EF93FF9396
:100A50008091E10082FF0AC08091E20082FF06C01F
:100A60008091E1008B7F8093E100F9D18091E100DA
:100A700080FF18C08091E20080FF14C08091E200E6
:100A80008E7F8093E2008091E20080618093E2009B
:100A90008091D80080628093D80019BC1092B70171
:100AA0000E946C0F8091E10084FF30C08091E200D1
:100AB00084FF2CC084E089BD86E089BD09B400FEB6
:100AC000FDCF8091D8008F7D8093D8008091E10088
:100AD0008F7E8093E1008091E2008F7E8093E20020
:100AE0008091E20081608093E2008091B3018823CD
:100AF00011F084E007C08091E30087FD02C081E02F
:100B000001C083E08093B7010E946F0F8091E100E4
:100B100083FF22C08091E20083FF1EC08091E1002C
:100B2000877F8093E10082E08093B7011092B30148
:100B30008091E1008E7F8093E1008091E2008E7FC2
:100B40008093E2008091E20080618093E20080E087
:100B500060E042E399DE83D1FF91EF91BF91AF91C5
:100B60009F918F917F916F915F914F913F912F91C5
:100B70000F900FBE0F901F9018951F93DF93CF9388
:100B8000CDB7DEB7AC970FB6F894DEBF0FBECDBFC2
:100B9000E8EBF1E08091F100819321E0E03CF20785
:100BA000C9F70E940A0F8091E80083FF40C180913D
:100BB000B8013091B901353009F48DC0363040F4B8
:100BC0003130E1F1313070F0333009F030C136C0EE
:100BD000383009F4FDC0393009F40CC1363009F061
:100BE00026C19CC0803821F0823809F020C108C09D
:100BF0009091B4018091B5018823B1F0926014C046
:100C00008091BC018F70853008F011C18093E9009C
:100C10008091EB0090E025E0969587952A95E1F785
:100C2000982F91701092E9008091E800877F80935F
:100C3000E8009093F1001092F100D5C0882319F0DC
:100C4000823009F0F4C090E08F719070009721F02D
:100C5000029709F0ECC00CC08091BA01813009F014
:100C6000E6C01092B501333081F58093B5012DC0F7
:100C70008091BA01882349F52091BC012F70822F01
:100C80008150843008F0D3C02093E9008091EB00BC
:100C900080FF1BC0333021F48091EB00806213C0D1
:100CA0008091EB0080618093EB0081E090E002C0D6
:100CB000880F991F2A95E2F78093EA001092EA00C4
:100CC0008091EB0088608093EB001092E9008091A6
:100CD000E800877F8BC0882309F0A9C01091BA0172
:100CE0001F778091E3008078812B8093E3008091CF
:100CF000E800877F8093E800FFDD8091E80080FFB7
:100D0000FCCF8091E30080688093E300112311F40D
:100D100082E001C083E08093B70189C080588230AF
:100D200008F085C08091BA019091BB0123E08C3D11
:100D3000920709F033C083E08C838AE28B837FB70C
:100D4000F894DE0115966EE040E050E011E2E62FE7
:100D5000F0E010935700849140FF03C082958F709C
:100D60006F5F8F70282F30E08A3018F0C901C79666
:100D700002C0C901C0968D939D934F5F5F4F443170
:100D8000510529F77FBF8091E800877F8093E800B5
:100D9000CE0103966AE270E00ADC14C06091BC01E7
:100DA0007091BD01AE014F5F5F4FF4D7BC0100975A
:100DB00009F43DC08091E800877F8093E800898135
:100DC0009A8159DC8091E8008B778093E8002FC0EE
:100DD000803869F58091E800877F8093E8008091F2
:100DE000B3018093F1008091E8008E778093E80052
:100DF00083DD1DC08823D9F49091BA019230B8F4F4
:100E00008091E800877F8093E8009093B30174DDC0
:100E10008091B301882331F48091E30087FD02C003
:100E200081E001C084E08093B7010E94620F80914D
:100E3000E80083FF0AC08091E800877F8093E80084
:100E40008091EB0080628093EB00AC960FB6F89433
:100E5000DEBF0FBECDBFCF91DF911F9108950895E2
:100E60001F938091B701882371F01091E900809160
:100E7000EC001092E9008091E80083FF01C07DDE64
:100E80001F701093E9001F9108950F931F93DF9334
:100E9000CF93CDB7DEB763970FB6F894DEBF0FBE22
:100EA000CDBF8E010F5F1F4F83E1F80111928A952C
:100EB000E9F70E947B0FC80163E10E94FA0F0E94CC
:100EC0007C0F63960FB6F894DEBF0FBECDBFCF91F7
:100ED000DF911F910F91089564E00C94FA0FAF9287
:100EE000BF92CF92DF92FF920F931F93DF93CF9326
:100EF00000D000D0CDB7DEB78C016B01F42E5E01BF
:100F00000894A11CB11C28C0F8016081F6018191F0
:100F10006F01682770E0660F771F660F771F6856AE
:100F20007F4FC50144E050E00E94E111F80180814B
:100F30009181A281B381892F9A2FAB2FBB27298161
:100F40003A814B815C8182279327A427B527808330
:100F50009183A283B383FA94FF20B1F60F900F9090
:100F60000F900F90CF91DF911F910F91FF90DF9025
:100F7000CF90BF90AF900895DF92EF92FF920F93C2
:100F80001F938C017B01D42ECB01642F0E94FA0F9A
:100F9000C801B7014D2DA3DF1F910F91FF90EF9076
:100FA000DF9008950F931F93DF93CF9300D000D06D
:100FB000CDB7DEB78C01862FF8016081682770E01D
:100FC000660F771F660F771F68567F4FCE01019619
:100FD00044E050E00E94E111F80180819181A281FA
:100FE000B381892F9A2FAB2FBB2729813A814B815F
:100FF0005C8182279327A427B52780839183A283CE
:10100000B3830F900F900F900F90CF91DF911F91AE
:101010000F9108950F931F93DF93CF9300D0CDB717
:10102000DEB78C018FEF9FEFAFEFBFEFF80180834A
:101030009183A283B3836A5F609569834A83CE01FB
:10104000019662E0D7D7C8016981ACDFC8016A8127
:10105000A9DF0F900F90CF91DF911F910F9108950D
:10106000CF92DF92EF92FF920F931F93DF93CF9374
:1010700000D000D0CDB7DEB78C016B013CD77E012C
:101080000894E11CF11CC70168E044E1C3DFC7011B
:10109000B80144E071DFC701B60144E06DDFC7016C
:1010A0001BDF2AD70F900F900F900F90CF91DF91F9
:1010B0001F910F91FF90EF90DF90CF900895EF92E6
:1010C000FF920F931F93DF93CF9300D000D00F9226
:1010D000CDB7DEB77C016D830ED78E010F5F1F4F3A
:1010E000C80165E042E196DFC801B70144E044DF92
:1010F000C801BE016B5F7F4F41E03EDFC801ECDEFF
:10110000FBD60F900F900F900F900F90CF91DF9123
:101110001F910F91FF90EF900895EF92FF920F9320
:101120001F93DF93CF9300D000D0CDB7DEB77C0103
:10113000E2D68E010F5F1F4FC80164E041E16ADF14
:10114000C801B70144E018DFC801C6DED5D60F904C
:101150000F900F900F90CF91DF911F910F91FF9003
:10116000EF900895BF92CF92DF92EF92FF920F938C
:101170001F93DF93CF93CDB7DEB72C970FB6F894BC
:10118000DEBF0FBECDBFB82E6B0129873A874B87D4
:101190005C87B1D6D6010D900020E9F77D01089457
:1011A000E108F108EC18FD088E010F5F1F4F12C017
:1011B000C8016AE343E22EDFC801B6014AE3DCDE80
:1011C000C8018ADE8AE390E0C80ED91EA6ECBFEF04
:1011D000EA0EFB1EBBE3EB16F10450F78E010B5F2A
:1011E0001F4F6E2D6C5FC8014B2D14DFC801BE016F
:1011F000675F7F4F44E0C0DEC801B6014E2DBCDE04
:10120000C8016ADE79D62C960FB6F894DEBF0FBE01
:10121000CDBFCF91DF911F910F91FF90EF90DF90A5
:10122000CF90BF900895AF92BF92DF92EF92FF925E
:101230000F931F93DF93CF9300D000D0CDB7DEB7CD
:101240007C0159D6D7010D900020E9F78D0101509E
:1012500010400E191F095E010894A11CB11C17C093
:101260000B33110518F06AE3D62E01C0D02EC5014C
:101270006D2D43E2CFDEC501B7014D2D7DDEC501E9
:101280002BDE8D2D90E0E80EF91E081B190B0115C1
:10129000110531F731D60F900F900F900F90CF912D
:1012A000DF911F910F91FF90EF90DF90BF90AF9073
:1012B0000895CF92DF92FF920F931F93DF93CF9306
:1012C00000D000D000D0CDB7DEB7F82E6A018A5F1B
:1012D000809589836A838FEF9FEFAFEFBFEF8B839A
:1012E0009C83AD83BE8307D6CE01019662E082D691
:1012F0008E010D5F1F4FC801698154DEC8016A81EC
:1013000051DEC6016F2D76D6C801B6014F2DE7DD3F
:10131000C80164E06FD6F0D526960FB6F894DEBF0C
:101320000FBECDBFCF91DF911F910F91FF90DF9046
:10133000CF9008951F93DF93CF9300D000D00F92EA
:10134000CDB7DEB7482F809135018823A9F580EC11
:1013500091E061E04DD6882319F4109234017AC0EF
:101360006091C001662351F480913401813021F0F5
:1013700080E040E050E09DDF81E01BC080913501BE
:101380008F5F80933501162F1095812F86508E30F8
:1013900010F440E014C01092350180913401823085
:1013A00039F0198381E061E0AE014F5F5F4F81DF6B
:1013B00082E0809334014EC01091C00110952091BD
:1013C0003501822F90E0612F621B80549E4F10D612
:1013D00040913501480F409335014117D8F18FEF07
:1013E0009FEFAFEFBFEF8A839B83AC83BD834450F5
:1013F000CE01029660EC71E072DDE0913501F0E023
:10140000E454FE4F2A813B814C815D818081918132
:10141000A281B381281739074A075B0771F0109240
:101420003501809134018230A9F0198381E062E0B6
:10143000AE014F5F5F4F3DDF0DC01092340110923F
:1014400035018091C001809586508093C00120ECC9
:1014500031E002C020E030E0C9010F900F900F9002
:101460000F900F90CF91DF911F910895FC01809113
:101470003F01282F30E080913D01A901481B51090F
:10148000483051051CF0E0E0F0E011C0C901877060
:1014900090706DE070E06AD7208131814281538184
:1014A000FC01ED52FE4F2193319341935193CF01B3
:1014B0000895DF92EF92FF920F931F93FC01D0905B
:1014C0003E01E080F180028113812091360130914C
:1014D000370140913801509139012E193F09400BD5
:1014E000510B80913D019D2D981B892F90E0A0E02C
:1014F000B0E082179307A407B50748F18E2D90E05E
:10150000877090706DE070E031D7FC01ED52FE4FB6
:1015100081E0808718C0822F90E0877090706DE026
:1015200070E024D7FC01ED52FE4F8085882379F0CE
:1015300080913C01821721F42F5F20933C012150C0
:101540002F5F20933D0120913D012D1521F71F9123
:101550000F91FF90EF90DF90089590913E01809160
:101560003F01981719F420E030E00AC0892F90E07D
:10157000877090706DE070E0F9D69C0129523E4F63
:10158000C90108950F931F93CF93DF939C0190910E
:101590003E0180913F01981739F410923B0110925F
:1015A0003A01CFEFDFEF53C0892F90E08770907042
:1015B0006DE070E0DBD68C010D521E4F80913A0138
:1015C00090913B01892B39F4F801848195819093A6
:1015D0003B0180933A0180913A0190913B0182173F
:1015E000930738F0821B930B90933B0180933A0151
:1015F00004C010923B0110923A01C0913A01D0917F
:101600003B01209721F5F801108680913E018F5F04
:1016100080933E0186E391E0B801E8D4E3D4F80179
:101620006483758386839783809136019091370117
:10163000A0913801B09139010196A11DB11D80938F
:10164000360190933701A0933801B0933901CE0150
:10165000DF91CF911F910F9108958F929F92AF923A
:10166000BF92CF92DF92EF92FF920F931F93DF937F
:10167000CF9300D000D0CDB7DEB790913D018091DF
:101680003E01981711F420E05AC0ACD46B017C01E4
:1016900030913E0140E043C0822F90E0877090700F
:1016A0006DE070E063D68C010D521E4FF80180850D
:1016B000882389F484819581A681B78146015701E9
:1016C000881A990AAA0ABB0AD501C4018051974217
:1016D000A040B04038F44F5F2F5F20933C01403171
:1016E000F1F422C0321B8091360190913701A09114
:1016F0003801B0913901831B9109A109B10989838E
:101700009A83AB83BC83CE010196B8016FD46AD4AF
:10171000F801648375838683978321E006C0209156
:101720003C01231709F0B8CF20E090913C01809153
:101730003E01981721F480913D0180933C01822F56
:101740000F900F900F900F90CF91DF911F910F91FD
:10175000FF90EF90DF90CF90BF90AF909F908F90D1
:1017600008958091360180933D0180933E018093DE
:101770003F0180933C0138C490913E0180913F012C
:10178000981729F431D410923B0110923A018091BC
:101790003F018F5F80933F010895CF92DF92EF92D8
:1017A000FF920F931F93DF93CF9300D000D00F923F
:1017B000CDB7DEB78C01FC016181603478F40ED4C2
:1017C000882319F0833009F09EC0F8018081898355
:1017D00081E061E0AE014F5F5F4F24C0FC012281D8
:1017E0003381448155812A833B834C835D83C901C6
:1017F000DA019C01AD016034B9F410923B02109201
:1018000050022F5F3F4F4F4F5F4F20934001309367
:101810004101409342015093430184E061E1AE01F4
:101820004E5F5F4F46DD6FC0809140019091410156
:10183000A0914201B091430169017A01C81AD90A05
:10184000EA0AFB0AD701C601F7FE03C0DD24D394E0
:1018500014C0C114D104E104F10411F4DD240DC05D
:101860000197A105B10511F080E04EC084E065E06C
:1018700040E451E01EDD42E0D42EC8016D2D3DD381
:10188000282F8A81EE24E394DE1409F43CC090E012
:101890008170907065E170E069D53BE3E32E32E042
:1018A000F32EE80EF91E223041F4D701F80185E14C
:1018B00001900D928150E1F726C0233049F4F801E0
:1018C0008081898381E061E0AE014F5F5F4FF1DC91
:1018D000DD20B1F4F7011082809140019091410127
:1018E000A0914201B09143010196A11DB11D8093C9
:1018F000400190934101A0934201B093430103C082
:101900008FEFF701808381E00F900F900F900F9081
:101910000F90CF91DF911F910F91FF90EF90DF908B
:10192000CF900895CF93DF938091400190E0817034
:10193000907065E170E01AD5EC01C55CDD4F8881DF
:101940008F3F39F08823D9F0CE0160E0D6D28230C3
:10195000B1F018828091400190914101A091420123
:10196000B09143010196A11DB11D80934001909358
:101970004101A0934201B093430181E001C080E0A6
:10198000DF91CF910895D6DC009719F006DF882308
:1019900021F4C8DF882309F460CE81E00895EF9236
:1019A000FF921F93CF93DF93EC017B01142FAB01C8
:1019B0004E5F5F4F84E060E17CDC123011F011304B
:1019C00021F4188320E030E011C080914401882385
:1019D00019F0C7DE10924401C701029647DD9C0151
:1019E000009711F482E001C081E08883C901DF9192
:1019F000CF911F91FF90EF900895FF920F931F9347
:101A0000DF93CF9300D000D0CDB7DEB78C01F62E98
:101A1000FC0181818434A1F1853438F48234C9F029
:101A2000833428F5813449F40AC0873409F44FC05F
:101A30008834B1F1863409F43CC080E05DC0F8011F
:101A40008081843009F053C08CE19CEFA3EBB8E7B0
:101A500009C0F8018081843009F049C081ED90E22D
:101A6000A4EBB8E789839A83AB83BC8312C0F801E7
:101A70008081843009F03BC0C801029661E017C044
:101A8000F8018081843099F5ABD269837A838B83A6
:101A90009C83C8010296BE016F5F7F4FE1DA2BC0C5
:101AA000F8018081843019F5C801029668E007DBEF
:101AB00022C0F80180818430D1F4C80102962DDB68
:101AC000F2E0FF16B1F0FF20B1F44BDE14C0F801D4
:101AD0008081843061F4C80102961FDBF2E0FF16BA
:101AE00041F0FF2041F481E08093440105C083E090
:101AF00003C082E001C081E00F900F900F900F9023
:101B0000CF91DF911F910F91FF900895FC0181818A
:101B1000833018F4813038F407C0843021F08131EB
:101B200029F080E00895B1D981E008958081843062
:101B300011F083E00895CF010296BBDC81E00895A7
:101B4000CF92DF92EF92FF920F931F93DF93CF9389
:101B5000CDB7DEB728970FB6F894DEBF0FBECDBF66
:101B60007C016B01C8D18E010F5F1F4FC8016CE073
:101B700045E450DAC801B70144E0FED9C801B60116
:101B800044E0FAD92DD26D837E838F839887C80174
:101B9000BE016B5F7F4F44E0EFD9C8019DD9ACD146
:101BA00028960FB6F894DEBF0FBECDBFCF91DF9160
:101BB0001F910F91FF90EF90DF90CF900895F894D0
:101BC00078946091650270916602809167029091AD
:101BD00068020895F89485B5816085BD16BCEEE66F
:101BE000F0E080818160808310926502109266022D
:101BF0001092670210926802789408951F920F92D3
:101C00000FB60F9211248F939F93AF93BF93809140
:101C1000650290916602A0916702B09168020296F7
:101C2000A11DB11D8093650290936602A093670287
:101C3000B0936802BF91AF919F918F910F900FBEAB
:101C40000F901F901895F89480E190E09093CD004C
:101C50008093CC0082E08093C80088E98093C9001B
:101C600086E08093CA0010925901809159018093B7
:101C700058011092A7018091A7018093A601789442
:101C800008951F920F920FB60F9211248F939F9376
:101C9000EF93FF939091580180915901981721F487
:101CA00088E98093C9000FC0909159019F5F9331DB
:101CB00008F090E0E92FF0E0EB5BFE4F808180932D
:101CC000CE0090935901FF91EF919F918F910F90CA
:101CD0000FBE0F901F9018951F920F920FB60F9284
:101CE00011242F938F939F93EF93FF932091CE0016
:101CF0009091A6019F5F9C3408F090E08091A7012D
:101D0000981739F0E92FF0E0E65AFE4F20839093C0
:101D1000A601FF91EF919F918F912F910F900FBE90
:101D20000F901F901895DC0128EB15C09091580179
:101D30009F5F933108F090E0809159018917E1F39A
:101D4000E92FF0E08D91EB5BFE4F8083909358017B
:101D50002093C9006150662349F70895DC0120E013
:101D600015C09091A6018091A701981789F09091D4
:101D7000A7019F5F9C3408F090E0E92FF0E0E65A5D
:101D8000FE4F80818D939093A7012F5F261748F314
:101D9000822F0895DA019330B1F0943028F4913015
:101DA00041F0923079F50AC0913211F1923251F539
:101DB00024C0EEEEF4E022E130E028C0E0E0F5E0FF
:101DC00029E230E023C0813049F0813018F08230C0
:101DD000C9F40AC0E9E2F5E0849103C0EDE2F5E060
:101DE0008491282F30E012C0EBE4F5E08491F9CF24
:101DF000E2E1F5E029E030E009C0E8E9F4E026E5B9
:101E000030E004C0E0E0F0E020E030E0ED93FC934F
:101E1000C90108950895DF93CF93CDB7DEB7279713
:101E20000FB6F894DEBF0FBECDBF1AD88091B701B0
:101E30008430F1F482E08093E9008091E80082FD33
:101E400017C08091E80085FF0AC0CE01019667E0C7
:101E500070E040E050E00E94A003882349F48091A4
:101E6000E8008B778093E8000E94300781E001C092
:101E700080E027960FB6F894DEBF0FBECDBFCF919E
:101E8000DF9108959C018091B7018430C9F481E00D
:101E90008093E9008091E80080FF12C0C90168E0EA
:101EA00070E040E050E00E94F203882349F4809102
:101EB000E8008E778093E8000E94300781E0089563
:101EC00080E0089582E060EC42E30E94440481E0F7
:101ED00061EC42E30C94440480E091E0A4C98BE0FF
:101EE00091E0A1C947E050E075D29C0180E0232B2E
:101EF00009F481E0089508950895FF920F931F93C8
:101F0000DF93CF9300D000D0CDB7DEB78C01F62E93
:101F100074DD882309F058C0F8019181903559F09B
:101F20009039B9F1993409F04FC0F80180818430BB
:101F300009F049C019C0F8018081843009F043C01C
:101F400019821A821B821C828091B701843018F496
:101F5000823050F404C0843061F0853091F41982ED
:101F60001A821B821C820DC081E090E0A0E0B0E0EC
:101F700004C083E090E0A0E0B0E089839A83AB8363
:101F8000BC83C8010296BE016F5F7F4F69D881E0B4
:101F90001BC0F80180818D30B1F486819781892B37
:101FA00091F0CE010196B8014F2DF9DC009749F070
:101FB000DC01F801369689E001900D928150E1F73D
:101FC000DBDB898101C083E00F900F900F900F90B1
:101FD000CF91DF911F910F91FF90089597CD0895B4
:101FE000EECD0895ECCD089507C00895A9CD0895CC
:101FF000B5CE089598CE0895E2DD6093AC0170935C
:10200000AD018093AE019093AF011092B101109297
:10201000B00181E08093320108950F931F93DF9305
:10202000CF93CDB7DEB728970FB6F894DEBF0FBEBB
:10203000CDBF8C01DE011196EAE1F1E087E001906D
:102040000D928150E1F71886CE0101961BDF88239F
:10205000C1F1F80180819181A281B3818093A801AF
:102060009093A901A093AA01B093AB0181E0809362
:1020700032018091B201882339F12081318142817E
:1020800053818091AC019091AD01A091AE01B091CE
:10209000AF01281B390B4A0B5B0B84E261E271E054
:1020A00061D81092B201F80180819181A281B3813F
:1020B0008093AC019093AD01A093AE01B093AF01BA
:1020C00003C081E08093B20128960FB6F894DEBF7A
:1020D0000FBECDBFCF91DF911F910F9108950F9348
:1020E0001F938091B0019091B1014CDA8C01BC0139
:1020F00080E090E02DE730E040E050E049D12091D1
:10210000AC013091AD014091AE015091AF01260F6D
:10211000371F481F591F2093AC013093AD014093E6
:10212000AE015093AF011093B1010093B0011F9124
:102130000F91089512DA009719F423E131E003C0FA
:102140009C012E5F3F4FC90108958F929F92AF92DD
:10215000BF92CF92DF92EF92FF920F931F93DF9384
:10216000CF9300D000D0CDB7DEB729DD6093AC01AE
:102170007093AD018093AE019093AF016452744FA0
:10218000804090406093A8017093A9018093AA01B8
:102190009093AB018DE7882E912CA12CB12C6E0170
:1021A0000894C11CD11C0BDD69837A838B839C83CB
:1021B0002091AC013091AD014091AE015091AF0141
:1021C00085017401E21AF30A040B150BA8019701AB
:1021D000260F371F481F591F57FF08C01CDE80E01D
:1021E000D2DBEDDC69837A838B839C83809132011F
:1021F000882309F454C029813A814B815C81E090A5
:10220000AC01F090AD010091AE011091AF01DA0187
:10221000C9018E199F09A00BB10BB7FD20C08ADF41
:10222000182F092F8AE191E0612F702F5BDE882340
:1022300079F4AAE1B1E0812F902F9C01F90187E0A8
:1022400001900D928150E1F710923201C601E5DE56
:1022500080913201882309F4A6CF41DFA4CF8CE21C
:102260009FECAFEFBFEFE80EF91E0A1F1B1FE21A2B
:10227000F30A040B150B17FD96CF2452344F404040
:1022800050408091A8019091A901A091AA01B0911C
:10229000AB01281B390B4A0B5B0B57FD84CFC601E2
:1022A000BCDE81CF882319F08BB18F7C02C08BB14B
:1022B00080638BB90895EF92FF920F931F93CF9392
:1022C000DF9384B7877F84BF88E10FB6F89480934B
:1022D0006000109260000FBE80E880936100109251
:1022E00061008AB180638AB98BB180638BB972DC7B
:1022F000AADC0E9408057894C0E0D0E081E0D2DF3B
:102300005EDC7B018C0104C080E03DDB0E94300775
:1023100056DC6E197F09800B910B685A714680401C
:10232000904090F380E0BEDF4ADC7B018C0104C06A
:1023300080E029DB0E94300742DC6E197F09800BA8
:10234000910B685A71468040904090F32196CA30B4
:10235000D105A1F680E0A6DFF8DE80E090E0DF9115
:10236000CF911F910F91FF90EF9008955527002472
:1023700080FF02C0060E571F660F771F611571059B
:1023800021F096958795009799F7952F802D0895C0
:10239000FF27EE27BB27AA2760FF04C0A20FB31FA9
:1023A000E41FF51F220F331F441F551F9695879575
:1023B0007795679589F70097760771F7CF01BD018B
:1023C0000895FB01DC0102C005900D924150504080
:1023D000D8F70895FB01DC0104C08D9101908019AC
:1023E00021F441505040C8F7881B990B0895F89488
:0223F000FFCF1D
:1023F200446973636F6E6E65637400436F6E6E65DE
:102402006374000000088080808000000880808063
:10241200805363686564756C652044656C61796599
:042422006400010051
:00000001FF
