:10000000C2C20000DDC20000DBC20000D9C2000095
:10001000D7C20000D5C20000D3C20000D1C2000088
:10002000CFC20000CDC2000031C50000C9C200002F
:10003000C7C20000C5C20000C3C20000C1C20000A8
:10004000BFC20000BDC20000BBC20000B9C20000B8
:10005000B7C20000B5C20000B3C200000C94770E16
:10006000AFC200000C94E50E0C94BA0EA9C20000B9
:10007000A7C20000A5C20000A3C20000A1C20000E8
:100080009FC200009DC200009BC2000099C20000F8
:1000900097C2000095C2000093C2000091C2000008
:1000A0008FC200008DC200008BC200000000000063
:1000B00003836BF2F7703BE1F4F350131F979AC779
:1000C0001C14F135E8E7A126EB64CAD4CF58D98ACD
:1000D000CCDBB2783828E26B3BAB8999D0CF434D6B
:1000E000D34C28BF27BF78AC243C135E6FC75E108B
:1000F0006C4435E298B765F19B340E037050C4D759
:1001000073D3AF258720FF3684A394C4A09F879A1A
:10011000A31CEC6857EFBC7B546CD789BF081D5DEE
:10012000BC8B76AF487826BC4BFB4D4EDE8EBD2097
:10013000DD0DD6D229FE86C12A7DED33C11927E710
:10014000C29A4C1536691C0635EA77F411D664AAB2
:1001500012550F58E6A65F4BE52534B90E41FE6DEA
:100160000DC2959FF931C58CFAB2AE7EB149E3302C
:10017000B2CA88C24639D8D145BAB323AEDE79F7C0
:10018000AD5D120559AE42165A2D29E47E113ABAD8
:100190007D9251488961015B8AE26AA96186A07DEE
:1001A0006205CB8F96F69B9C9575F06EBC1D7B41CE
:1001B000BF9E10B34B6D40A048EE2B52A38AE18640
:1001C000A0098A7454FADA675779B1957345A2CBBE
:1001D00070C6C9398435992A87B6F2D86CD2380CE2
:1001E0006F5153FE9BA203ED9821681FD3DA25516E
:1001F000D0594EA324AA1EB027297542CC4DBF96D4
:10020000CFCED4643B3D847738BEEF851C82FCDBC7
:100210001F019729EBF2C73AE871ACC80315661CB9
:1002200000960DEEF4655DFDF7E6360F6293C6614C
:100230006110AD9395E3FD80966096727D045CA697
:100240007E8737548A74674789F70CB5ADCB1FEBAF
:10025000AE4874195ABB240A59384FF8B25C852C41
:10026000B1DFEEDE452CBECD46AFD53F0D549871C3
:100270000ED7F383FA24A390F9A7C86212C302B67B
:1002800011406944E5B33957E63052A5C20C41FB31
:10029000C18F2A09357C7A1A36FF11E8DD9BDB3CD9
:1002A000DE18B0CE2AEBE0DD29688B2F783BF68292
:1002B0007BB89D708F4BCD638CC8A69167AC6C45A5
:1002C000642F07B790DC57A4935F3C56B7632F08A1
:1002D000B4E044FA401314E943907F1BA8F4B5CF6F
:1002E000AB77DE3D5F848E2E5C07E5DC17FCA892C1
:1002F000147FC360E08C9373E30FF881086B325571
:100300000BE859A7FF1B09B4FC986246D8A47118E2
:10031000DB271AEA2FD44AF92C57210BC733EBDF1E
:10032000C4B0802D3043D03E33C0BBCCA6B54BA269
:10033000A536205051C5704352461BB1B922D16534
:10034000BAA1BA974E52EA844DD1817669ED9228CE
:100350006A6EF9DA9E9DA9C99D1EC23B767A08EFA6
:1003600075F9631D810A330E828958FCC97215B272
:10037000CAF17E403E022E533D8145A1D6E58F75E0
:10038000D566E4872195B4942216DF66062ACC3818
:1003900005A9A7CAF15AF7D9F2D99C2B19BD56FF66
:1003A0001A3E3D0DEECD6D1EED4E06ECC4268DC3FE
:1003B000C7A5E6313356B62230D5DDD0DBB1170400
:1003C000D8327CF62CC12CE52F4247170B7E5449BE
:1003D00008FD3FBBFC0E6FA8FF8D045A14E9CE8EBA
:1003E000176AA57CE399F56FE01A9E9DABE1D3D324
:1003F000A862B8215C91E8325F1283C0B4764914D8
:10040000B7F522E6430672F54085190764B90A5923
:10041000673A61AB93C931B8904A5A4A7B2E909E95
:1004200078ADFB6C8C5EAB7F8FDDC08D1AA830E39E
:10043000192B5B11EDD80B02EE5B60F0053FAA248F
:1004400006BCC1D6F24F91C5F1CCFA37D5F0E969B7
:10045000D673829B2280D2882103B97ACA6773AE91
:10046000C9E4185C3D17484F3E9423BD756F6EF389
:1004700076EC0501821F5512819C3EE06AF8F43447
:10048000697B9FC69D88CFD59E0BA427BA37B779C5
:10049000B9B4DC8B4D478C984EC4E76AA5A02DBE3D
:1004A000A623464C52D0165F51537DAD0501090578
:1004B000A1011500250135004501750195100509BB
:1004C00019012910810205012507463B0175049594
:1004D0000165140939814265009501810126FF00FB
:1004E00046FF000930093109320935750895048144
:1004F000020600FF0920950181020A212695089134
:1005000002C012010002000000400D0F9200000125
:10051000010200010902290001010080FA0904001A
:10052000000203000000092111010001225600070A
:100530000502034000080705810340000804030981
:10054000041C0348004F0052004900200043004FA4
:10055000002E002C004C00540044002E000000240B
:100560000350004F004B004B0045004E002000435D
:10057000004F004E00540052004F004C004C00450C
:1005800000520000000011241FBECFEFDAE0DEBFF2
:10059000CDBF11E0A0E0B1E0EEEBF4E202C00590C7
:1005A0000D92A633B107D9F719E0A6E3B1E001C077
:1005B0001D92AC3CB107E1F70E94D0110C945D1282
:1005C0001FCD9C014091D3035091D4034617570788
:1005D00018F4F90190E043C06115710511F0AB0109
:1005E000F8CF8091E8008E778093E80040E050E0FB
:1005F000F0CF8091CC03882309F447C0853009F4FB
:1006000046C08091E80083FD44C08091E80082FDEF
:1006100036C08091E80080FF22C08091F300909165
:10062000F200782F60E0292F30E0262B372B07C00F
:1006300081918093F100415050402F5F3F4F411511
:10064000510519F02034310598F390E0203431053C
:1006500009F491E08091E8008E778093E8004115DD
:10066000510539F6992329F60AC08091CC038823D5
:1006700061F0853061F08091E80083FD0AC08091CF
:10068000E80082FFF2CF80E0089582E0089583E0E1
:10069000089581E008959C014091D3035091D403C3
:1006A0004617570718F4F90190E044C06115710529
:1006B00011F0AB01F8CF8091E8008E778093E800CD
:1006C00040E050E0F0CF8091CC03882309F448C08B
:1006D000853009F447C08091E80083FD45C08091D2
:1006E000E80082FD37C08091E80080FF23C0809140
:1006F000F3009091F200782F60E0292F30E0262B54
:10070000372B08C084918093F100319641505040BE
:100710002F5F3F4F4115510519F02034310590F3FB
:1007200090E02034310509F491E08091E8008E7763
:100730008093E8004115510531F6992321F60AC04E
:100740008091CC03882361F0853061F08091E800CE
:1007500083FD0AC08091E80082FFF2CF80E0089517
:1007600082E0089583E0089581E00895BF92CF92DA
:10077000DF92EF92FF920F931F93CF93DF93182F87
:10078000092F7B016A01EFD0B82E8823B1F5812FA4
:10079000902F9C01E901C114D10439F0F601808148
:1007A0009181E81AF90AC80FD91F00E010E022C0B1
:1007B0008091E80085FD16C08091E8008B778093DA
:1007C000E800A0D3C114D10449F0F60180819181E1
:1007D000800F911F9183808385E010C0C4D088234F
:1007E00049F00CC08091F10089930894E108F10868
:1007F0000F5F1F4FE114F104D9F68B2DDF91CF91DC
:100800001F910F91FF90EF90DF90CF90BF900895D0
:10081000BF92CF92DF92EF92FF920F931F93CF93ED
:10082000DF93182F092F7B016A019DD0B82E8823F2
:10083000B1F5812F902F9C01E901C114D10439F049
:10084000F60180819181E81AF90AC80FD91F00E0EA
:1008500010E022C08091E80085FD16C08091E8007C
:100860008E778093E8004ED3C114D10449F0F6018D
:1008700080819181800F911F9183808385E010C0DA
:1008800072D0882349F00CC089918093F1000894BC
:10089000E108F1080F5F1F4FE114F104D9F68B2D29
:1008A000DF91CF911F910F91FF90EF90DF90CF904C
:1008B000BF900895382F282F2EC0822F8F708093DD
:1008C000E900231721F4762F942F50E006C0709191
:1008D000EC009091ED005091F00091FF1BC08091D1
:1008E000EB008E7F8093EB008091ED008D7F8093F5
:1008F000ED008091EB0081608093EB007093EC0041
:100900009093ED005093F0008091EE0087FD02C0BF
:1009100080E008952F5F273080F23F703093E90028
:1009200081E008958091CD0388239CF404C08091D8
:10093000CC038823B9F08091E80082FFF8CF809142
:10094000E8008B778093E80008958091CC0388239A
:1009500049F08091E80080FFF8CF8091E8008E7721
:100960008093E80008954091E4005091E50024E66A
:100970008091EC0080FF24C08091E80080FD1EC0C3
:100980008091CC03882311F482E00895853011F41E
:1009900083E008958091EB0085FF02C081E0089517
:1009A0008091E4009091E5008417950709F32223D4
:1009B00011F484E008952150AC01DACF80E008956D
:1009C0008091E80082FFDCCFF9CFEF92FF920F9386
:1009D0001F934FD056D008ED10E0F80180818F773B
:1009E000808380818068808380818F7D808319BC33
:1009F0001092CC031092C8031092CA031092C9033C
:100A000080EEE82EF12CF70180818B7F8083F80146
:100A100080818160808380E060E042E34BDFE1EE33
:100A2000F0E080818E7F8083E2EEF0E08081816063
:100A30008083808188608083F70180818E7F8083BE
:100A4000F8018081806180831F910F91FF90EF906A
:100A50000895E8EDF0E080818F7E8083E7EDF0E09F
:100A600080818160808384E082BF81E08093CB03BA
:100A7000ACCFE8EDF0E080818E7F80831092E200C1
:100A800008951092DA001092E10008951F920F92DB
:100A90000FB60F9211242F933F934F935F936F9351
:100AA0007F938F939F93AF93BF93EF93FF93809127
:100AB000E10082FF0AC08091E20082FF06C08091BF
:100AC000E1008B7F8093E1001CD28091DA0080FFEF
:100AD0001FC08091D80080FF1BC08091DA008E7FFC
:100AE0008093DA008091D90080FF0DC080E189BD3C
:100AF00082E189BD09B400FEFDCF81E08093CC0383
:100B00000E94E30F05C019BC1092CC030E94E00FB5
:100B10008091E10080FF18C08091E20080FF14C046
:100B20008091E2008E7F8093E2008091E2008061FC
:100B30008093E2008091D80080628093D80019BC35
:100B400085E08093CC03DDD18091E10084FF2FC04C
:100B50008091E20084FF2BC080E189BD82E189BDE4
:100B600009B400FEFDCF8091D8008F7D8093D8001E
:100B70008091E1008F7E8093E1008091E2008F7E82
:100B80008093E2008091E20081608093E200809196
:100B9000C803882311F084E007C08091E30087FD3B
:100BA00002C081E001C083E08093CC03AAD1809190
:100BB000E10083FF22C08091E20083FF1EC080918C
:100BC000E100877F8093E10082E08093CC03109264
:100BD000C8038091E1008E7F8093E1008091E20064
:100BE0008E7F8093E2008091E20080618093E2003A
:100BF00080E060E042E35EDE84D1FF91EF91BF913F
:100C0000AF919F918F917F916F915F914F913F91A4
:100C10002F910F900FBE0F901F9018951F93DF9389
:100C2000CF93CDB7DEB7AC970FB6F894DEBF0FBE4B
:100C3000CDBFEDECF3E08091F100819323E0E53D41
:100C4000F207C9F70E947D0F8091E80083FF41C140
:100C50008091CD033091CE03353009F48DC036300C
:100C600040F43130E1F1313070F0333009F031C10E
:100C700036C0383009F4FEC0393009F40DC13630C1
:100C800009F027C19CC0803821F0823809F021C1C9
:100C900008C09091C9038091CA038823B1F0926083
:100CA00014C08091D1038F70873008F012C18093F7
:100CB000E9008091EB0090E025E0969587952A95D4
:100CC000E1F7982F91701092E9008091E800877FFA
:100CD0008093E8009093F1001092F100D6C0882331
:100CE00019F0823009F0F5C090E08F719070009794
:100CF00021F0029709F0EDC00CC08091CF03813044
:100D000009F0E7C01092CA03333081F58093CA031B
:100D10002DC08091CF03882349F52091D1032F70F6
:100D2000822F8150863008F0D4C02093E900809152
:100D3000EB0080FF1BC0333021F48091EB00806218
:100D400013C08091EB0080618093EB0081E090E024
:100D500002C0880F991F2A95E2F78093EA0010924B
:100D6000EA008091EB0088608093EB001092E9002C
:100D70008091E800877F8CC0882309F0AAC0109179
:100D8000CF031F778091E3008078812B8093E3006D
:100D90008091E800877F8093E800C4DD8091E800BF
:100DA00080FFFCCF8091E30080688093E3001123F3
:100DB00011F482E001C083E08093CC038AC08058A4
:100DC000823008F086C08091CF039091D00323E059
:100DD0008C3D920709F033C083E08C838AE28B83D9
:100DE0007FB7F894DE0115966EE040E050E011E226
:100DF000E62FF0E010935700849140FF03C08295E6
:100E00008F706F5F8F70282F30E08A3018F0C90123
:100E1000C79602C0C901C0968D939D934F5F5F4FE7
:100E20004431510529F77FBF8091E800877F809387
:100E3000E800CE0103966AE270E0C3DB15C0609162
:100E4000D1037091D203AE014F5F5F4F0E943D0FFF
:100E5000BC01009709F43DC08091E800877F809332
:100E6000E80089819A8117DC8091E8008B77809374
:100E7000E8002FC0803869F58091E800877F809373
:100E8000E8008091C8038093F1008091E8008E779C
:100E90008093E80047DD1DC08823D9F49091CF03EB
:100EA0009230B8F48091E800877F8093E8009093B7
:100EB000C80338DD8091C803882331F48091E300B2
:100EC00087FD02C081E001C084E08093CC030E94D2
:100ED000D60F8091E80083FF0AC08091E800877FE9
:100EE0008093E8008091EB0080628093EB00AC96E9
:100EF0000FB6F894DEBF0FBECDBFCF91DF911F912B
:100F0000089508951F938091CC03882371F0109168
:100F1000E9008091EC001092E9008091E80083FFE5
:100F200001C07CDE1F701093E9001F9108950F939C
:100F30001F93DF93CF93CDB7DEB763970FB6F894C7
:100F4000DEBF0FBECDBF8E010F5F1F4F83E1F801E3
:100F500011928A95E9F70E94EF0FC80163E10E94A0
:100F60006E100E94F00F63960FB6F894DEBF0FBEAE
:100F7000CDBFCF91DF911F910F91089564E00C9444
:100F80006E10AF92BF92CF92DF92FF920F931F939A
:100F9000DF93CF9300D000D0CDB7DEB78C016B01CB
:100FA000F42E5E010894A11CB11C28C0F8016081D8
:100FB000F60181916F01682770E0660F771F660F59
:100FC000771F64557F4FC50144E050E00E944712EF
:100FD000F80180819181A281B381892F9A2FAB2F53
:100FE000BB2729813A814B815C8182279327A427E3
:100FF000B52780839183A283B383FA94FF20B1F64F
:101000000F900F900F900F90CF91DF911F910F9144
:10101000FF90DF90CF90BF90AF900895DF92EF9256
:10102000FF920F931F938C017B01D42ECB01642F71
:101030000E946E10C801B7014D2DA3DF1F910F91C3
:10104000FF90EF90DF9008950F931F93DF93CF935E
:1010500000D000D0CDB7DEB78C01862FF8016081BB
:10106000682770E0660F771F660F771F64557F4F04
:10107000CE01019644E050E00E944712F8018081C1
:101080009181A281B381892F9A2FAB2FBB27298110
:101090003A814B815C8182279327A427B5278083DF
:1010A0009183A283B3830F900F900F900F90CF91F5
:1010B000DF911F910F9108950F931F93DF93CF93AB
:1010C00000D0CDB7DEB78C018FEF9FEFAFEFBFEF52
:1010D000F80180839183A283B3836A5F60956983FB
:1010E0004A83CE01019662E0F9D7C8016981ACDF7D
:1010F000C8016A81A9DF0F900F90CF91DF911F91F6
:101100000F910895CF92DF92EF92FF920F931F936A
:10111000DF93CF9300D000D0CDB7DEB78C016B0149
:101120005ED77E010894E11CF11CC70168E044E130
:10113000C3DFC701B80144E071DFC701B60144E075
:101140006DDFC7011BDF4CD70F900F900F900F90F2
:10115000CF91DF911F910F91FF90EF90DF90CF9093
:101160000895EF92FF920F931F93DF93CF9300D0D8
:1011700000D00F92CDB7DEB77C016D8330D78E01E2
:101180000F5F1F4FC80165E042E196DFC801B7015C
:1011900044E044DFC801BE016B5F7F4F41E03EDFAA
:1011A000C801ECDE1DD70F900F900F900F900F909D
:1011B000CF91DF911F910F91FF90EF900895EF92E3
:1011C000FF920F931F93DF93CF9300D000D0CDB742
:1011D000DEB77C0104D78E010F5F1F4FC80164E0AA
:1011E00041E16ADFC801B70144E018DFC801C6DE8B
:1011F000F7D60F900F900F900F90CF91DF911F9126
:101200000F91FF90EF900895BF92CF92DF92EF92EF
:10121000FF920F931F93DF93CF93CDB7DEB72C9739
:101220000FB6F894DEBF0FBECDBFB82E6B01298775
:101230003A874B875C87D3D6D6010D900020E9F71B
:101240007D010894E108F108EC18FD088E010F5F9C
:101250001F4F12C0C8016DE043E22EDFC801B60186
:101260004DE0DCDEC8018ADE8DE090E0C80ED91EBC
:10127000A3EFBFEFEA0EFB1EBEE0EB16F10450F742
:101280008E010B5F1F4F6E2D6C5FC8014B2D14DF5D
:10129000C801BE01675F7F4F44E0C0DEC801B601F0
:1012A0004E2DBCDEC8016ADE9BD62C960FB6F89494
:1012B000DEBF0FBECDBFCF91DF911F910F91FF9089
:1012C000EF90DF90CF90BF900895AF92BF92DF92E2
:1012D000EF92FF920F931F93DF93CF9300D000D034
:1012E000CDB7DEB77C017BD6D7010D900020E9F7A2
:1012F0008D01015010400E191F095E010894A11CB8
:10130000B11C17C00E30110518F06DE0D62E01C0CB
:10131000D02EC5016D2D43E2CFDEC501B7014D2DA5
:101320007DDEC5012BDE8D2D90E0E80EF91E081B39
:10133000190B0115110531F753D60F900F900F902F
:101340000F90CF91DF911F910F91FF90EF90DF9061
:10135000BF90AF900895CF92DF92FF920F931F93AB
:10136000DF93CF9300D000D000D0CDB7DEB7F82EFA
:101370006A018A5F809589836A838FEF9FEFAFEF61
:10138000BFEF8B839C83AD83BE8329D6CE010196AC
:1013900062E0A4D68E010D5F1F4FC801698154DE43
:1013A000C8016A8151DEC6016F2D98D6C801B60109
:1013B0004F2DE7DDC80164E091D612D626960FB610
:1013C000F894DEBF0FBECDBFCF91DF911F910F917B
:1013D000FF90DF90CF9008951F93DF93CF9300D0BD
:1013E00000D00F92CDB7DEB7482F80913701882308
:1013F000A9F585ED93E061E06FD6882319F410928A
:1014000036017AC06091D503662351F4809136018C
:10141000813021F080E040E050E09DDF81E01BC0A2
:10142000809137018F5F80933701162F1095812FA0
:1014300086508E3010F440E014C010923701809135
:101440003601823039F0198381E061E0AE014F5FEF
:101450005F4F81DF82E0809336014EC01091D5034B
:10146000109520913701822F90E0612F621B8B52E3
:101470009C4F32D640913701480F409337014117B6
:10148000D8F18FEF9FEFAFEFBFEF8A839B83AC83E1
:10149000BD834450CE01029665ED73E072DDE091AC
:1014A0003701F0E0EF52FC4F2A813B814C815D8196
:1014B00080819181A281B381281739074A075B0790
:1014C00071F010923701809136018230A9F01983B2
:1014D00081E062E0AE014F5F5F4F3DDF0DC01092D3
:1014E0003601109237018091D50380958650809304
:1014F000D50325ED33E002C020E030E0C9010F90B4
:101500000F900F900F900F90CF91DF911F91089542
:10151000DC0180914101282F30E080913F01A90139
:10152000481B5109403451051CF0E0E0F0E016C0C2
:101530002F7330708DE090E0289FF001299FF00D0F
:10154000389FF00D11248D919D910D90BC91A02D8F
:10155000E851FC4F81939193A193B193CF010895EA
:10156000EF92FF920F931F93FC0160914001E08086
:10157000F18002811381209138013091390140912D
:101580003A0150913B012E193F09400B510B8091BC
:101590003F01962F981B892F90E0A0E0B0E08217C2
:1015A0009307A407B50798F18E2D90E08F73907084
:1015B0002DE030E0829FF001839FF00D929FF00DAF
:1015C0001124E851FC4F81E080874DE050E01BC0C2
:1015D000822F90E08F739070849FF001859FF00DB3
:1015E000949FF00D1124E851FC4F8085882379F0F9
:1015F00080913E01821721F42F5F20933E012150FC
:101600002F5F20933F0120913F01261709F71F917B
:101610000F91FF90EF9008959091400180914101CA
:10162000981719F440E050E00FC0892F90E08F73B5
:1016300090702DE030E0829FA001839F500D929F1B
:10164000500D112444515C4FCA0108950F931F930C
:10165000CF93DF93AC0190914001809141019817A5
:1016600039F410923D0110923C010FEF1FEF56C06C
:10167000892F90E08F7390702DE030E0829FE00121
:10168000839FD00D929FD00D1124C851DC4F8091C3
:101690003C0190913D01892B31F48C819D81909387
:1016A0003D0180933C0180913C0190913D01841764
:1016B000950738F0841B950B90933D0180933C0176
:1016C00004C010923D0110923C0100913C01109128
:1016D0003D010115110511F51886809140018F5FBC
:1016E0008093400188E391E0BE01F4D4EFD46C8391
:1016F0007D838E839F838091380190913901A091E1
:101700003A01B0913B010196A11DB11D80933801B2
:1017100090933901A0933A01B0933B01C801DF9146
:10172000CF911F910F9108958F929F92AF92BF9288
:10173000CF92DF92EF92FF920F931F93DF93CF939D
:1017400000D000D0CDB7DEB790913F01809140012D
:10175000981711F420E05FC0B9D46B017C0130917F
:10176000400140E06DE070E046C0822F90E08F7352
:101770009070869F8001879F100D969F100D1124F9
:1017800008511C4FF8018085882389F48481958154
:10179000A681B78146015701881A990AAA0ABB0A8D
:1017A000D501C40180519742A040B04038F44F5F4A
:1017B0002F5F20933E014031F1F422C0321B809113
:1017C000380190913901A0913A01B0913B01831BFE
:1017D0009109A109B10989839A83AB83BC83CE01A6
:1017E0000196B80177D472D4F80164837583868337
:1017F000978321E006C020913E01231709F0B5CF61
:1018000020E090913E0180914001981721F4809151
:101810003F0180933E01822F0F900F900F900F9009
:10182000CF91DF911F910F91FF90EF90DF90CF90BC
:10183000BF90AF909F908F900895809138018093D2
:101840003F01809340018093410180933E0140C459
:101850009091400180914101981729F439D4109258
:101860003D0110923C01809141018F5F80934101C5
:101870000895DF92EF92FF920F931F93DF93CF9320
:1018800000D000D00F92CDB7DEB77C01FC012181E2
:10189000203478F417D4882319F0833009F0A8C0D5
:1018A000F7018081898381E061E0AE014F5F5F4F86
:1018B00027C0FC0182819381A481B5818A839B83A7
:1018C000AC83BD832034F1F4E8E2F7E01082759632
:1018D00089E0E83CF807D1F78A819B81AC81BD8122
:1018E0000196A11DB11D8093420190934301A093E5
:1018F0004401B093450184E061E1AE014E5F5F4F6A
:101900002ADD76C02A813B814C815D818091420134
:1019100090914301A0914401B0914501281B390BDE
:101920004A0B5B0B57FF03C0DD24D3941AC021156B
:1019300031054105510511F4DD2413C02032310574
:101940004105510510F080E054C0213031054105BA
:10195000510529F484E065E042E451E0FCDC82E0DA
:10196000D82EC7016D2D3DD3482F8A8191E0D9161D
:1019700009F43EC090E08F71907025E130E0829FC5
:101980008001839F100D929F100D1124085D184F48
:10199000423041F4D801F70185E101900D92815068
:1019A000E1F726C0433049F4F7018081898381E063
:1019B00061E0AE014F5F5F4FCEDCDD20B1F4F80196
:1019C00010828091420190914301A0914401B09115
:1019D00045010196A11DB11D8093420190934301E1
:1019E000A0934401B093450103C08FEFF8018083B9
:1019F00081E00F900F900F900F900F90CF91DF919B
:101A00001F910F91FF90EF90DF900895CF93DF9398
:101A10008091420190E08F71907025E130E0829FCB
:101A2000E001839FD00D929FD00D1124C85DD84F47
:101A300088818F3F39F08823D9F0CE0160E0D1D280
:101A40008230B1F018828091420190914301A091BF
:101A50004401B09145010196A11DB11D8093420141
:101A600090934301A0934401B093450181E001C0EC
:101A700080E0DF91CF910895AFDC009719F0F9DE97
:101A8000882321F4C3DF882309F44ECE81E0089532
:101A9000EF92FF921F93CF93DF93EC017B01142F02
:101AA000AB014E5F5F4F84E060E155DC123011F016
:101AB000113021F4188320E030E011C080914601FC
:101AC000882319F0BADE10924601C701029620DD84
:101AD0009C01009711F482E001C081E08883C90174
:101AE000DF91CF911F91FF90EF900895FF920F9398
:101AF0001F93DF93CF9300D000D0CDB7DEB78C011A
:101B0000F62EFC0181818434A1F1853438F48234CD
:101B1000C9F0833428F5813449F40AC0873409F4C4
:101B20004FC08834B1F1863409F43CC080E05DC018
:101B3000F8018081843009F053C08BE19CEFA3EB66
:101B4000B8E709C0F8018081843009F049C08FE10D
:101B50009CEFA3EBB8E789839A83AB83BC8312C065
:101B6000F8018081843009F03BC0C801029664E02E
:101B700017C0F8018081843099F5A6D269837A83F1
:101B80008B839C83C8010296BE016F5F7F4FBADAD8
:101B90002BC0F8018081843019F5C801029660E4F9
:101BA000E0DA22C0F80180818430D1F4C8010296C5
:101BB00006DBF2E0FF16B1F0FF20B1F43EDE14C008
:101BC000F8018081843061F4C8010296F8DAF2E00D
:101BD000FF1641F0FF2041F481E08093460105C0EB
:101BE00083E003C082E001C081E00F900F900F906E
:101BF0000F90CF91DF911F910F91FF900895FC01FD
:101C00008181833018F4813038F407C0843021F0AA
:101C1000813129F080E008958AD981E0089580819A
:101C2000843011F083E00895CF01029699DC81E0C1
:101C30000895CF92DF92EF92FF920F931F93DF935D
:101C4000CF93CDB7DEB728970FB6F894DEBF0FBE9F
:101C5000CDBF7C016B01C3D18E010F5F1F4FC80147
:101C60006CE045E429DAC801B70144E0D7D9C801DE
:101C7000B60144E0D3D928D26D837E838F839887C1
:101C8000C801BE016B5F7F4F44E0C8D9C80176D957
:101C9000A7D128960FB6F894DEBF0FBECDBFCF9167
:101CA000DF911F910F91FF90EF90DF90CF900895FB
:101CB000F89478946091C8097091C9098091CA0913
:101CC0009091CB090895F89485B5816085BD16BCC7
:101CD000EEE6F0E08081816080831092C809109266
:101CE000C9091092CA091092CB09789408951F92DD
:101CF0000F920FB60F9211248F939F93AF93BF93C0
:101D00008091C8099091C909A091CA09B091CB09E5
:101D10000296A11DB11D8093C8099093C909A09393
:101D2000CA09B093CB09BF91AF919F918F910F904A
:101D30000FBE0F901F901895F89480E190E090935B
:101D4000CD008093CC0082E08093C80088E9809326
:101D5000C90086E08093CA0010925B0180915B010C
:101D600080935A011092BD038091BD038093BC0300
:101D7000789408951F920F920FB60F9211248F93AB
:101D80009F93EF93FF9390915A0180915B01981775
:101D900021F488E98093C9000FC090915B019F5F97
:101DA000933108F090E0E92FF0E0E95BFE4F80818D
:101DB0008093CE0090935B01FF91EF919F918F9163
:101DC0000F900FBE0F901F9018951F920F920FB695
:101DD0000F9211242F938F939F93EF93FF93209152
:101DE000CE009091BC039F5F8091BD03981739F09E
:101DF000E92FF0E0E45AFE4F20839093BC03FF915B
:101E0000EF919F918F912F910F900FBE0F901F9088
:101E10001895DC0128EB15C090915A019F5F933112
:101E200008F090E080915B018917E1F3E92FF0E081
:101E30008D91E95BFE4F808390935A012093C900F6
:101E40006150662349F70895DC0120E012C09091AB
:101E5000BC038091BD03981771F08091BD038F5F23
:101E6000E82FF0E0E45AFE4F90819D938093BD03EC
:101E70002F5F261760F3822F0895DA019330B1F0B7
:101E8000943028F4913041F0923079F50AC09132C3
:101E900011F1923251F524C0E2E0F5E022E130E0A8
:101EA00028C0E4E1F5E029E230E023C0813049F0C8
:101EB000813018F08230C9F40AC0EDE3F5E0849176
:101EC00003C0E1E4F5E08491282F30E012C0EFE593
:101ED000F5E08491F9CFE6E2F5E029E030E009C0D1
:101EE000ECEAF4E026E530E004C0E0E0F0E020E0D9
:101EF00030E0ED93FC93C90108950895DF93CF93EB
:101F0000CDB7DEB727970FB6F894DEBF0FBECDBFB3
:101F10000E9482078091CC038430F1F482E08093A8
:101F2000E9008091E80082FD17C08091E80085FFFC
:101F30000AC0CE01019667E070E040E050E00E94E8
:101F4000B603882349F48091E8008B778093E800FA
:101F50000E94820781E001C080E027960FB6F894C6
:101F6000DEBF0FBECDBFCF91DF9108959C01809160
:101F7000CC038430C9F481E08093E9008091E800CB
:101F800080FF12C0C90168E070E040E050E00E94AC
:101F90000804882349F48091E8008E778093E80054
:101FA0000E94820781E0089580E0089582E060EC5D
:101FB00042E30E945A0481E061EC42E30C945A042B
:101FC00080E091E082C98BE091E07FC947E050E07A
:101FD00067D29C0180E0232B09F481E008950895E5
:101FE0000895FF920F931F93DF93CF9300D000D0FB
:101FF000CDB7DEB78C01F62E79DD882309F058C005
:10200000F8019181903559F09039B9F1993409F07E
:102010004FC0F8018081843009F049C019C0F8012F
:102020008081843009F043C019821A821B821C828D
:102030008091CC03843018F4823050F404C0843092
:1020400061F0853091F419821A821B821C820DC0C6
:1020500081E090E0A0E0B0E004C083E090E0A0E088
:10206000B0E089839A83AB83BC83C8010296BE012A
:102070006F5F7F4F47D881E01BC0F80180818D30B2
:10208000B1F486819781892B91F0CE010196B80138
:102090004F2DFEDC009749F0DC01F801369689E00F
:1020A00001900D928150E1F7D3DB898101C083E07B
:1020B0000F900F900F900F90CF91DF911F910F9184
:1020C000FF9008959CCD0895F3CD0895F1CD089526
:1020D00007C00895AECD0895B7CE08959ACE08955D
:1020E000E7DD6093C2037093C3038093C4039093AE
:1020F000C5031092C7031092C60381E08093340198
:1021000008950F931F93DF93CF93CDB7DEB7289732
:102110000FB6F894DEBF0FBECDBF8C01DE01119665
:10212000EAE1F1E087E001900D928150E1F7188635
:10213000CE0101961BDF882381F0F8018081918117
:10214000A281B3818093BE039093BF03A093C00389
:10215000B093C10381E08093340128960FB6F894C0
:10216000DEBF0FBECDBFCF91DF911F910F910895BC
:102170000F931F938091C6039091C70367DA8C0178
:10218000BC0180E090E02DE730E040E050E060D11D
:102190002091C2033091C3034091C4035091C50301
:1021A000260F371F481F591F2093C2033093C303C4
:1021B0004093C4035093C5031093C7030093C60311
:1021C0001F910F91089528DA009719F423E131E067
:1021D00003C09C012E5F3F4FC90108956F927F920B
:1021E0008F929F92AF92BF92CF92DF92EF92FF9227
:1021F0000F931F93DF93CF9300D000D0CDB7DEB7FE
:1022000057DD6093C2037093C3038093C40390931C
:10221000C5036452744F804090406093BE03709336
:10222000BF038093C0039093C1038DE7682E712C88
:10223000812C912C5E010894A11CB11C39DD6983AD
:102240007A838B839C832091C2033091C303409196
:10225000C4035091C50384017301E21AF30A040B0D
:10226000150BA8019701260F371F481F591F57FF4D
:1022700008C044DE80E000DC1BDD69837A838B8349
:102280009C8329813A814B815C81E090C203F0906C
:10229000C3030091C4031091C503DA01C9018E196B
:1022A0009F09A00BB10BB7FD4EC08DDFD82EC92EF4
:1022B0008AE191E06D2D7C2D89DE882309F041C0F3
:1022C000E090BE03F090BF030091C0031091C103E2
:1022D0008CED93E0A0E0B0E0E80EF91E0A1F1B1F92
:1022E00029813A814B815C81DA01C9018E199F09EC
:1022F000A00BB10BB7FF16C0D801C701821B930B0F
:10230000A40BB50B9C01AD0184E261E271E00E9477
:102310000409E092C203F092C3030093C403109334
:10232000C5038CCFAAE1B1E08D2D9C2D9C01F90154
:1023300087E001900D928150E1F710923401C501C0
:10234000E0DE16DF7BCF80913401882301F18CE23F
:102350009FECAFEFBFEFE80EF91E0A1F1B1FE21A3A
:10236000F30A040B150B17FD69CF2452344F40407C
:1023700050408091BE039091BF03A091C003B091E3
:10238000C103281B390B4A0B5B0B57FD57CFC50107
:10239000B8DE54CF882311F05E9A08955E980895B0
:1023A000EF92FF920F931F93CF93DF9384B7877FB2
:1023B00084BF88E10FB6F8948093600010926000AB
:1023C0000FBE80E88093610010926100569A80E011
:1023D000E1DF79DCB1DC0E9429057894C0E0D0E02F
:1023E00081E0D8DF65DC7B018C0104C080E044DB48
:1023F0000E9482075DDC6E197F09800B910B685A81
:1024000071468040904090F380E0C4DF51DC7B0156
:102410008C0104C080E030DB0E94820749DC6E1929
:102420007F09800B910B685A71468040904090F371
:102430002196CA30D105A1F680E0ACDFCFDE80E086
:1024400090E0DF91CF911F910F91FF90EF90089551
:10245000629FD001739FF001829FE00DF11D649F88
:10246000E00DF11D929FF00D839FF00D749FF00D14
:10247000659FF00D9927729FB00DE11DF91F639FB5
:10248000B00DE11DF91FBD01CF0111240895FB011D
:10249000DC0102C005900D9241505040D8F70895DC
:1024A000FB01DC0104C08D910190801921F44150A1
:0E24B0005040C8F7881B990B0895F894FFCF91
:1024BE00446973636F6E6E65637400436F6E6E6511
:1024CE006374000000088080808000000880808097
:1024DE00805363686564756C65205468726F74749C
:0624EE006C6564000100B2
:00000001FF
