:10000000B8C20000D3C20000D1C20000CFC20000BD
:10001000CDC20000CBC20000C9C20000C7C20000B0
:10002000C5C20000C3C20000C1C2000000C500007C
:10003000BDC20000BBC20000B9C20000B7C20000D0
:10004000B5C20000B3C20000B1C20000AFC20000E0
:10005000ADC20000ABC20000A9C200000C94680D44
:100060000C943D0DA3C20000A1C200009FC200007D
:100070009DC200009BC2000099C2000097C2000010
:1000800095C2000093C2000091C200008FC2000020
:100090008DC200008BC200000000000003836BF2E1
:1000A000F7703BE1F4F350131F979AC71C14F13516
:1000B000E8E7A126EB64CAD4CF58D98ACCDBB27862
:1000C0003828E26B3BAB8999D0CF434DD34C28BF46
:1000D00027BF78AC243C135E6FC75E106C4435E2DA
:1000E00098B765F19B340E037050C4D773D3AF2516
:1000F0008720FF3684A394C4A09F879AA31CEC6832
:1001000057EFBC7B546CD789BF081D5DBC8B76AFA5
:10011000487826BC4BFB4D4EDE8EBD20DD0DD6D281
:1001200029FE86C12A7DED33C11927E7C29A4C15F5
:1001300036691C0635EA77F411D664AA12550F58B1
:10014000E6A65F4BE52534B90E41FE6D0DC2959FC5
:10015000F931C58CFAB2AE7EB149E330B2CA88C279
:100160004639D8D145BAB323AEDE79F7AD5D120575
:1001700059AE42165A2D29E47E113ABA7D92514861
:100180008961015B8AE26AA96186A07D6205CB8FE5
:1001900096F69B9C9575F06EBC1D7B41BF9E10B37F
:1001A0004B6D40A048EE2B52A38AE186A0098A74C9
:1001B00054FADA675779B1957345A2CB70C6C9393D
:1001C0008435992A87B6F2D86CD2380C6F5153FE19
:1001D0009BA203ED9821681FD3DA2551D0594EA375
:1001E00024AA1EB027297542CC4DBF96CFCED46429
:1001F0003B3D847738BEEF851C82FCDB1F019729CD
:10020000EBF2C73AE871ACC80315661C00960DEE18
:10021000F4655DFDF7E6360F6293C6616110AD933C
:1002200095E3FD80966096727D045CA67E873754C8
:100230008A74674789F70CB5ADCB1FEBAE487419CC
:100240005ABB240A59384FF8B25C852CB1DFEEDE78
:10025000452CBECD46AFD53F0D5498710ED7F383D4
:10026000FA24A390F9A7C86212C302B611406944E8
:10027000E5B33957E63052A5C20C41FBC18F2A09BC
:10028000357C7A1A36FF11E8DD9BDB3CDE18B0CEF8
:100290002AEBE0DD29688B2F783BF6827BB89D70D6
:1002A0008F4BCD638CC8A69167AC6C45642F07B7A4
:1002B00090DC57A4935F3C56B7632F08B4E044FA30
:1002C000401314E943907F1BA8F4B5CFAB77DE3D14
:1002D0005F848E2E5C07E5DC17FCA892147FC36058
:1002E000E08C9373E30FF881086B32550BE859A744
:1002F000FF1B09B4FC986246D8A47118DB271AEAE0
:100300002FD44AF92C57210BC733EBDFC4B0802D13
:100310003043D03E33C0BBCCA6B54BA2A53620504F
:1003200051C5704352461BB1B922D165BAA1BA97E3
:100330004E52EA844DD1817669ED92286A6EF9DADF
:100340009E9DA9C99D1EC23B767A08EF75F9631D73
:10035000810A330E828958FCC97215B2CAF17E40F7
:100360003E022E533D8145A1D6E58F75D566E487C3
:100370002195B4942216DF66062ACC3805A9A7CAAF
:10038000F15AF7D9F2D99C2B19BD56FF1A3E3D0DF3
:10039000EECD6D1EED4E06ECC4268DC3C7A5E6312D
:1003A0003356B62230D5DDD0DBB11704D8327CF617
:1003B0002CC12CE52F4247170B7E544908FD3FBB4B
:1003C000FC0E6FA8FF8D045A14E9CE8E176AA57C27
:1003D000E399F56FE01A9E9DABE1D3D3A862B821F3
:1003E0005C91E8325F1283C0B4764914B7F522E617
:1003F000430672F54085190764B90A59673A61AB3B
:1004000093C931B8904A5A4A7B2E909E78ADFB6CC6
:100410008C5EAB7F8FDDC08D1AA830E3192B5B118A
:10042000EDD80B02EE5B60F0053FAA2406BCC1D6F6
:10043000F24F91C5F1CCFA37D5F0E969D673829BBA
:100440002280D2882103B97ACA6773AEC9E4185CE6
:100450003D17484F3E9423BD756F6EF376EC050152
:10046000821F5512819C3EE06AF8F434697B9FC676
:100470009D88CFD59E0BA427BA37B779B9B4DC8B4A
:100480004D478C984EC4E76AA5A02DBEA623464CC6
:1004900052D0165F51537DAD05010905A10115002C
:1004A000250135004501750195100509190129102F
:1004B000810205012507463B017504950165140974
:1004C00039814265009501810126FF0046FF000940
:1004D000300931093209357508950481020600FF9B
:1004E0000920950181020A212695089102C0120176
:1004F0000002000000400D0F920000010102000107
:100500000902290001010080FA0904000002030029
:1005100000000921110100012256000705020340D5
:10052000000807058103400008040309041C034870
:10053000004F0052004900200043004F002E002CC5
:10054000004C00540044002E000000240350004FD3
:10055000004B004B0045004E00200043004F004E72
:1005600000540052004F004C004C00450052000067
:10057000000011241FBECFEFD2E0DEBFCDBF11E0DF
:10058000A0E0B1E0EEE9FEE102C005900D92A830D6
:10059000B107D9F712E0A8E0B1E001C01D92A9347B
:1005A000B107E1F70E94030F0C944D0F29CD9C0178
:1005B00040918501509186014617570718F4F901BB
:1005C00090E03DC06115710511F0AB01F8CF80914D
:1005D000E8008E778093E80040E050E0F0CF809113
:1005E0007E01882309F441C0853009F440C0809120
:1005F000E80083FD3EC08091E80082FD30C080911C
:10060000E80080FF1CC08091F200282F30E007C076
:1006100081918093F100415050402F5F3F4F411531
:10062000510519F02034310598F390E0203431055C
:1006300009F491E08091E8008E778093E8004115FD
:10064000510569F6992359F60AC080917E018823E5
:1006500061F0853061F08091E80083FD0AC08091EF
:10066000E80082FFF2CF80E0089582E0089583E001
:10067000089581E008959C01409185015091860183
:100680004617570718F4F90190E03EC0611571054F
:1006900011F0AB01F8CF8091E8008E778093E800ED
:1006A00040E050E0F0CF80917E01882309F442C001
:1006B000853009F441C08091E80083FD3FC08091FE
:1006C000E80082FD31C08091E80080FF1DC080916C
:1006D000F200282F30E008C084918093F100319619
:1006E000415050402F5F3F4F4115510519F02034C4
:1006F000310590F390E02034310509F491E08091C8
:10070000E8008E778093E8004115510561F6992342
:1007100051F60AC080917E01882361F0853061F036
:100720008091E80083FD0AC08091E80082FFF2CF4B
:1007300080E0089582E0089583E0089581E00895BF
:10074000BF92CF92DF92EF92FF920F931F93CF93BE
:10075000DF93182F092F7B016A01EFD0B82E882371
:10076000B1F5812F902F9C01E901C114D10439F01A
:10077000F60180819181E81AF90AC80FD91F00E0BB
:1007800010E022C08091E80085FD16C08091E8004D
:100790008B778093E80063D3C114D10449F0F6014C
:1007A00080819181800F911F9183808385E010C0AB
:1007B000C4D0882349F00CC08091F100899308943B
:1007C000E108F1080F5F1F4FE114F104D9F68B2DFA
:1007D000DF91CF911F910F91FF90EF90DF90CF901D
:1007E000BF900895BF92CF92DF92EF92FF920F9346
:1007F0001F93CF93DF93182F092F7B016A019DD0A0
:10080000B82E8823B1F5812F902F9C01E901C114E6
:10081000D10439F0F60180819181E81AF90AC80FF4
:10082000D91F00E010E022C08091E80085FD16C0CD
:100830008091E8008E778093E80011D3C114D10431
:1008400049F0F60180819181800F911F918380830F
:1008500085E010C072D0882349F00CC08991809344
:10086000F1000894E108F1080F5F1F4FE114F10453
:10087000D9F68B2DDF91CF911F910F91FF90EF90C3
:10088000DF90CF90BF900895382F282F2EC0822F51
:100890008F708093E900231721F4762F942F50E076
:1008A00006C07091EC009091ED005091F00091FF26
:1008B0001BC08091EB008E7F8093EB008091ED0058
:1008C0008D7F8093ED008091EB0081608093EB0041
:1008D0007093EC009093ED005093F0008091EE0047
:1008E00087FD02C080E008952F5F253080F23F70C1
:1008F0003093E90081E0089580917F0188239CF482
:1009000004C080917E018823B9F08091E80082FFC5
:10091000F8CF8091E8008B778093E800089580916C
:100920007E01882349F08091E80080FFF8CF809114
:10093000E8008E778093E80008954091E40050919C
:10094000E50024E68091EC0080FF24C08091E8005F
:1009500080FD1EC080917E01882311F482E00895FD
:10096000853011F483E008958091EB0085FF02C08B
:1009700081E008958091E4009091E5008417950747
:1009800009F3222311F484E008952150AC01DACF59
:1009900080E008958091E80082FFDCCFF9CF41D05C
:1009A00043D08091D8008F778093D8008091D80071
:1009B00080688093D8008091D8008F7D8093D80084
:1009C00084E089BD86E089BD09B400FEFDCF1092A8
:1009D0007E0110927A0110927C0110927B0180E0DE
:1009E00060E042E351DF8091E1008E7F8093E1007F
:1009F0008091E20081608093E2008091E200886053
:100A00008093E2008091E0008E7F8093E000089563
:100A1000E3E6F0E080818E7F808381E080937D013A
:100A2000BECF1092E20008951092E10008951F9247
:100A30000F920FB60F9211242F933F934F935F9312
:100A40006F937F938F939F93AF93BF93EF93FF9396
:100A50008091E10082FF0AC08091E20082FF06C01F
:100A60008091E1008B7F8093E100F8D18091E100DB
:100A700080FF18C08091E20080FF14C08091E200E6
:100A80008E7F8093E2008091E20080618093E2009B
:100A90008091D80080628093D80019BC10927E01AA
:100AA0000E94100E8091E10084FF30C08091E2002E
:100AB00084FF2CC084E089BD86E089BD09B400FEB6
:100AC000FDCF8091D8008F7D8093D8008091E10088
:100AD0008F7E8093E1008091E2008F7E8093E20020
:100AE0008091E20081608093E20080917A01882306
:100AF00011F084E007C08091E30087FD02C081E02F
:100B000001C083E080937E010E940F0E8091E1007E
:100B100083FF22C08091E20083FF1EC08091E1002C
:100B2000877F8093E10082E080937E0110927A01BA
:100B30008091E1008E7F8093E1008091E2008E7FC2
:100B40008093E2008091E20080618093E20080E087
:100B500060E042E399DE82D1FF91EF91BF91AF91C6
:100B60009F918F917F916F915F914F913F912F91C5
:100B70000F900FBE0F901F9018951F93DF93CF9388
:100B8000CDB7DEB7AC970FB6F894DEBF0FBECDBFC2
:100B9000EFE7F1E08091F100819321E0E738F2077F
:100BA000C9F70E94110E8091E80083FF3FC1809138
:100BB0007F0130918001353009F48DC0363040F42A
:100BC0003130E1F1313070F0333009F02FC136C0EF
:100BD000383009F4FDC0393009F40CC1363009F061
:100BE00025C19CC0803821F0823809F01FC108C09F
:100BF00090917B0180917C018823B1F0926014C0B8
:100C0000809183018F70853008F010C18093E900D6
:100C10008091EB0090E025E0969587952A95E1F785
:100C2000982F91701092E9008091E800877F80935F
:100C3000E8009093F1001092F100D5C0882319F0DC
:100C4000823009F0F3C090E08F719070009721F02E
:100C5000029709F0EBC00CC080918101813009F04E
:100C6000E5C010927C01333081F580937C012DC06A
:100C700080918101882349F5209183012F70822F73
:100C80008150843008F0D2C02093E9008091EB00BD
:100C900080FF1BC0333021F48091EB00806213C0D1
:100CA0008091EB0080618093EB0081E090E002C0D6
:100CB000880F991F2A95E2F78093EA001092EA00C4
:100CC0008091EB0088608093EB001092E9008091A6
:100CD000E800877F8BC0882309F0A8C010918101AC
:100CE0001F778091E3008078812B8093E3008091CF
:100CF000E800877F8093E800FFDD8091E80080FFB7
:100D0000FCCF8091E30080688093E300112311F40D
:100D100082E001C083E080937E0188C080588230E9
:100D200008F084C0809181019091820123E08C3D84
:100D3000920709F033C083E08C838AE28B837FB70C
:100D4000F894DE0115966EE040E050E011E2E62FE7
:100D5000F0E010935700849140FF03C082958F709C
:100D60006F5F8F70282F30E08A3018F0C901C79666
:100D700002C0C901C0968D939D934F5F5F4F443170
:100D8000510529F77FBF8091E800877F8093E800B5
:100D9000CE0103966AE270E00ADC14C06091830120
:100DA00070918401AE014F5F5F4FF0D6BC01009798
:100DB00009F43CC08091E800877F8093E800898136
:100DC0009A8159DC8091E8008B778093E8002EC0EF
:100DD000803861F58091E800877F8093E8008091FA
:100DE0007A018093F1008091E8008E778093E8008B
:100DF00083DD1CC08823D1F4909181019230B0F43E
:100E00008091E800877F8093E80090937A0174DDF9
:100E100080917A01882331F48091E30087FD02C03C
:100E200081E001C084E080937E0164D78091E80076
:100E300083FF0AC08091E800877F8093E80080915B
:100E4000EB0080628093EB00AC960FB6F894DEBFA7
:100E50000FBECDBFCF91DF911F91089508951F93CD
:100E600080917E01882371F01091E9008091EC005F
:100E70001092E9008091E80083FF01C07EDE1F70C0
:100E80001093E9001F9108950F931F93DF93CF9361
:100E9000CDB7DEB762970FB6F894DEBF0FBECDBFF9
:100EA0008E010F5F1F4F82E1F80111928A95E9F7D9
:100EB0002BD7C80162E182D728D762960FB6F89483
:100EC000DEBF0FBECDBFCF91DF911F910F9108956F
:100ED00064E074C7AF92BF92CF92DF92FF920F93FC
:100EE0001F93DF93CF9300D000D0CDB7DEB78C0136
:100EF0006B01F42E5E010894A11CB11C27C0F801FF
:100F00006081F60181916F01682770E0660F771F9D
:100F1000660F771F68567F4FC50144E050E0B4D795
:100F2000F80180819181A281B381892F9A2FAB2F03
:100F3000BB2729813A814B815C8182279327A42793
:100F4000B52780839183A283B383FA94FF20B9F6F7
:100F50000F900F900F900F90CF91DF911F910F91F5
:100F6000FF90DF90CF90BF90AF900895DF92EF9207
:100F7000FF920F931F938C017B01D42ECB01642F22
:100F80001DD7C801B7014D2DA5DF1F910F91FF900F
:100F9000EF90DF9008950F931F93DF93CF9300D0CE
:100FA00000D0CDB7DEB78C01862FF80160816827AD
:100FB00070E0660F771F660F771F68567F4FCE0170
:100FC000019644E050E060D7F80180819181A281D0
:100FD000B381892F9A2FAB2FBB2729813A814B816F
:100FE0005C8182279327A427B52780839183A283DE
:100FF000B3830F900F900F900F90CF91DF911F91BF
:101000000F9108950F931F93DF93CF9300D0CDB727
:10101000DEB78C018FEF9FEFAFEFBFEFF80180835A
:101020009183A283B3836A5F609569834A83CE010B
:10103000019662E0C3D6C8016981ADDFC8016A814B
:10104000AADF0F900F90CF91DF911F910F9108951C
:10105000CF92DF92EF92FF920F931F93DF93CF9384
:1010600000D000D0CDB7DEB78C016B014DD67E012C
:101070000894E11CF11CC70168E044E1C3DFC7012B
:10108000B80144E073DFC701B60144E06FDFC70178
:101090001FDF3BD60F900F900F900F90CF91DF91F5
:1010A0001F910F91FF90EF90DF90CF900895EF92F6
:1010B000FF920F931F93DF93CF9300D000D00F9236
:1010C000CDB7DEB77C016D831FD68E010F5F1F4F3A
:1010D000C80165E042E196DFC801B70144E046DFA0
:1010E000C801BE016B5F7F4F41E040DFC801F0DE09
:1010F0000CD60F900F900F900F900F90CF91DF9123
:101100001F910F91FF90EF900895EF92FF920F9330
:101110001F93DF93CF9300D000D0CDB7DEB77C0113
:10112000F3D58E010F5F1F4FC80164E041E16ADF14
:10113000C801B70144E01ADFC801CADEE6D50F9046
:101140000F900F900F90CF91DF911F910F91FF9013
:10115000EF900895CF92DF92FF920F931F93DF934A
:10116000CF9300D000D000D0CDB7DEB7F82E6A0103
:101170008A5F809589836A838FEF9FEFAFEFBFEF20
:101180008B839C83AD83BE83BFD5CE01019662E085
:1011900015D68E010D5F1F4FC8016981FCDEC801A5
:1011A0006A81F9DEC6016F2D09D6C801B6014F2D3F
:1011B00091DEC80164E002D6A8D526960FB6F89451
:1011C000DEBF0FBECDBFCF91DF911F910F91FF907A
:1011D000DF90CF9008951F93DF93CF9300D000D07E
:1011E0000F92CDB7DEB7482F809109018823A9F56A
:1011F00087E891E061E0E0D5882319F410920801B6
:101200007AC060918701662351F480910801813092
:1012100021F080E040E050E09DDF81E01BC0809144
:1012200009018F5F80930901162F1095812F865039
:101230008D3010F440E014C0109209018091080133
:10124000823039F0198381E061E0AE014F5F5F4F7A
:1012500081DF82E0809308014EC0109187011095D4
:1012600020910901822F90E0612F621B89579E4FC8
:10127000A3D540910901480F409309014117D8F1C6
:101280008FEF9FEFAFEFBFEF8A839B83AC83BD836C
:101290004450CE01029667E871E01CDEE09109013E
:1012A000F0E0ED57FE4F2A813B814C815D818081CA
:1012B0009181A281B381281739074A075B0771F032
:1012C00010920901809108018230A9F0198381E010
:1012D00062E0AE014F5F5F4F3DDF0DC0109208012D
:1012E0001092090180918701809586508093870133
:1012F00027E831E002C020E030E0C9010F900F90F4
:101300000F900F900F90CF91DF911F910895FC01E6
:1013100080911201282F30E080911001A901481B13
:101320005109483051051CF0E0E0F0E011C0C9015E
:10133000877090706CE070E095D52081318142819A
:101340005381FC01E756FE4F219331934193519312
:10135000CF010895DF92EF92FF920F931F93FC014C
:10136000D0901101E080F1800281138120910A0167
:1013700030910B0140910C0150910D012E193F0944
:10138000400B510B809110019D2D981B892F90E0EF
:10139000A0E0B0E082179307A407B50748F18E2DAF
:1013A00090E0877090706CE070E05CD5FC01E756CF
:1013B000FE4F81E0808718C0822F90E08770907088
:1013C0006CE070E04FD5FC01E756FE4F8085882326
:1013D00079F080910F01821721F42F5F20930F0184
:1013E00021502F5F20931001209110012D1521F71E
:1013F0001F910F91FF90EF90DF9008959091110150
:1014000080911201981719F420E030E00AC0892F6A
:1014100090E0877090706CE070E024D59C012356BA
:101420003E4FC90108951F93CF93DF93282F9091CA
:10143000110180911201981721F410920E011FEFF3
:1014400041C0892F90E0877090706CE070E00AD501
:10145000EC01C756DE4F80910E01882319F48B856D
:1014600080930E0180910E01821720F0821B8093E1
:101470000E0102C010920E0110910E01112311F500
:101480001886809111018F5F809311018AE091E0AD
:10149000BE0190D48DD46C837D838E839F83809195
:1014A0000A0190910B01A0910C01B0910D010196E0
:1014B000A11DB11D80930A0190930B01A0930C0113
:1014C000B0930D01812FDF91CF911F9108958F92DD
:1014D0009F92AF92BF92CF92DF92EF92FF920F93C3
:1014E0001F93DF93CF9300D000D0CDB7DEB790919C
:1014F000100180911101981711F420E059C058D4BF
:101500006B017C013091110140E042C0822F90E0DC
:10151000877090706CE070E0A5D48C0107561E4F68
:10152000F8018085882381F484819581A681B78123
:1015300046015701881A990AAA0ABB0AD501C401B3
:101540000A97A105B10538F44F5F2F5F20930F0173
:101550004031F1F422C0321B80910A0190910B01BD
:10156000A0910C01B0910D01831B9109A109B10952
:1015700089839A83AB83BC83CE010196B8011AD4C8
:1015800017D4F801648375838683978321E006C0AE
:1015900020910F01231709F0B9CF20E090910F019E
:1015A00080911101981721F48091100180930F010F
:1015B000822F0F900F900F900F90CF91DF911F917E
:1015C0000F91FF90EF90DF90CF90BF90AF909F90E2
:1015D0008F90089580910A018093100180931101EA
:1015E0008093120180930F0191C39091110180911A
:1015F0001201981719F48AD310920E0180911201EA
:101600008F5F809312010895CF92DF92EF92FF9245
:101610000F931F93DF93CF9300D000D00F92CDB7DD
:10162000DEB78C01FC016181603478F4BDD388237E
:1016300019F0833009F0A7C0F8018081898381E027
:1016400061E0AE014F5F5F4F28C0FC012281338112
:10165000448155812A833B834C835D83C901DA0130
:101660009C01AD016034D9F41092F90110920D0281
:1016700010922102109235022F5F3F4F4F4F5F4F64
:1016800020931301309314014093150150931601D8
:1016900084E061E1AE014E5F5F4F5CDD74C080911C
:1016A000130190911401A0911501B09116016901E7
:1016B0007A01C81AD90AEA0AFB0AD701C601F7FE5D
:1016C00003C0DD24D39419C0C114D104E104F10492
:1016D00011F4DD2412C084309105A105B10510F08C
:1016E00080E052C00197A105B10529F484E065E0CE
:1016F00043E151E02FDD42E0D42EC8016D2D07D328
:10170000282F8A81EE24E394DE1409F43CC090E093
:101710008370907064E170E0A5D339EFE32E31E07F
:10172000F32EE80EF91E223041F4D701F80184E1CE
:1017300001900D928150E1F726C0233049F4F80161
:101740008081898381E061E0AE014F5F5F4F02DD00
:10175000DD20B1F4F7011082809113019091140102
:10176000A0911501B09116010196A11DB11D8093A4
:10177000130190931401A0931501B093160103C0B7
:101780008FEFF701808381E00F900F900F900F9003
:101790000F90CF91DF911F910F91FF90EF90DF900D
:1017A000CF900895CF93DF938091130190E08370E1
:1017B000907064E170E056D3EC01C750DE4F888131
:1017C0008F3F39F08823D9F0CE0160E0A0D282307B
:1017D000B1F018828091130190911401A09115012C
:1017E000B09116010196A11DB11D80931301909334
:1017F0001401A0931501B093160181E001C080E0AF
:10180000DF91CF910895E7DC009719F0FDDE882382
:1018100021F4C8DF882309F45ACE81E00895EF92BD
:10182000FF921F93CF93DF93EC017B01142FAB0149
:101830004E5F5F4F84E060E18DDC123011F01130BB
:1018400021F4188320E030E011C080911701882333
:1018500019F0C0DE10921701C701029658DD9C01F5
:10186000009711F482E001C081E08883C901DF9113
:10187000CF911F91FF90EF900895FF920F931F93C8
:10188000DF93CF9300D000D0CDB7DEB78C01F62E1A
:10189000FC0181818434A1F1853438F48234C9F0AB
:1018A000833428F5813449F40AC0873409F44FC0E1
:1018B0008834B1F1863409F43CC080E05DC0F801A1
:1018C0008081843009F053C085E79AEAA3EBB8E73A
:1018D00009C0F8018081843009F049C088E793EDA0
:1018E000A3EBB8E789839A83AB83BC8312C0F8016A
:1018F0008081843009F03BC0C801029661E017C0C6
:10190000F8018081843099F551D269837A838B8381
:101910009C83C8010296BE016F5F7F4F99DB2BC08D
:10192000F8018081843019F5C801029668E0BFDBB8
:1019300022C0F80180818430D1F4C8010296E5DB31
:10194000F2E0FF16B1F0FF20B1F444DE14C0F8015C
:101950008081843061F4C8010296D7DBF2E0FF1683
:1019600041F0FF2041F481E08093170105C083E03E
:1019700003C082E001C081E00F900F900F900F90A4
:10198000CF91DF911F910F91FF900895FC0181810C
:10199000833018F4813038F407C0843021F081316D
:1019A00029F080E0089570DA81E008958081843024
:1019B00011F083E00895CF010296CCDC81E0089518
:1019C000CF92DF92EF92FF920F931F93DF93CF930B
:1019D000CDB7DEB728970FB6F894DEBF0FBECDBFE8
:1019E0007C016B0191D18E010F5F1F4FC8016CE02C
:1019F00045E408DBC801B70144E0B8DAC801B60124
:101A000044E0B4DAD3D16D837E838F839887C80195
:101A1000BE016B5F7F4F44E0A9DAC80159DA75D186
:101A200028960FB6F894DEBF0FBECDBFCF91DF91E1
:101A30001F910F91FF90EF90DF90CF900895F89451
:101A400080E190E09093CD008093CC0082E0809381
:101A5000C80088E98093C90086E08093CA0010928C
:101A60002B0180912B0180932A01109275018091A6
:101A7000750180937401789408951F920F920FB6A8
:101A80000F9211248F939F93EF93FF9390912A01CC
:101A900080912B01981721F488E98093C9000FC029
:101AA00090912B019F5F923108F090E0E92FF0E0D8
:101AB000E85EFE4F80818093CE0090932B01FF91D2
:101AC000EF919F918F910F900FBE0F901F901895DF
:101AD0001F920F920FB60F9211242F938F939F9303
:101AE000EF93FF932091CE00909174019F5F983403
:101AF00008F090E080917501981739F0E92FF0E037
:101B0000E45DFE4F208390937401FF91EF919F91CC
:101B10008F912F910F900FBE0F901F901895DC01A1
:101B200028EB15C090912A019F5F923108F090E058
:101B300080912B018917E1F3E92FF0E08D91E85EA8
:101B4000FE4F808390932A012093C9006150662341
:101B500049F70895DC0120E015C09091740180914F
:101B60007501981789F0909175019F5F983408F07E
:101B700090E0E92FF0E0E45DFE4F80818D9390933B
:101B800075012F5F261748F3822F0895DA019330ED
:101B9000B1F0943028F4913041F0923079F50AC0D8
:101BA000913211F1923251F524C0EEEEF4E022E1CF
:101BB00030E028C0E0E0F5E029E230E023C08130E9
:101BC00049F0813018F08230C9F40AC0E9E2F5E04A
:101BD000849103C0EDE2F5E08491282F30E012C03B
:101BE000EBE4F5E08491F9CFE2E1F5E029E030E0C3
:101BF00009C0E8E9F4E026E530E004C0E0E0F0E008
:101C000020E030E0ED93FC93C901089560917601E6
:101C100070917701809178019091790108950895EC
:101C200008950895EF92FF920F931F93DF93CF9340
:101C3000CDB7DEB727970FB6F894DEBF0FBECDBF86
:101C40007C0180917E01843009F046C082E080935F
:101C5000E9008091E80082FF15C08091E80085FFCF
:101C60000CC08E010F5F1F4FC80167E070E040E0BD
:101C700050E00E94A0038823B9F78091E8008B7799
:101C80008093E80081E08093E9008091E80080FF84
:101C900023C0C70168E070E040E050E00E94F2031A
:101CA0008823B9F78091E8008E778093E8008091CF
:101CB000760190917701A0917801B0917901019618
:101CC000A11DB11D8093760190937701A0937801B7
:101CD000B093790181E001C080E027960FB6F894B7
:101CE000DEBF0FBECDBFCF91DF911F910F91FF904F
:101CF000EF90089582E060EC42E30E94440481E0AA
:101D000061EC42E30C944404089508950895FF9211
:101D10000F931F93DF93CF9300D000D0CDB7DEB7E2
:101D20008C01F62EAADD8823A9F5F801918199345A
:101D300019F09F3979F514C0F8018081843049F594
:101D400081E090E0A0E0B0E089839A83AB83BC831C
:101D5000C8010296BE016F5F7F4F7AD981E01AC039
:101D6000F80180818C30A9F48585882391F0CE011B
:101D70000196B8014F2D53DD009749F0DC01F801C1
:101D8000369688E001900D928150E1F72EDC898132
:101D900001C083E00F900F900F900F90CF91DF91D3
:101DA0001F910F91FF900895F1CD08952FCF0895C1
:101DB0002DCF089505CE0895CDCE0895B0CE0895C7
:101DC000882319F08BB18F7C02C08BB180638BB9F3
:101DD00008951F9380E017DD11DB009711F480E078
:101DE00091E020DF182F3BD81123A1F381E01BDB0A
:101DF0001F9108951F93182F02C0EBDF115011237C
:101E0000E1F71F910895CF93DF9384B7877F84BF55
:101E100088E10FB6F89480936000109260000FBEC6
:101E200080E880936100109261008AB180638AB972
:101E30008BB180638BB903DE0E9408057894C0E003
:101E4000D0E081E0BDDF89E1D5DF80E0B9DF89E165
:101E5000D1DFE29682E0CA38D80799F780E0B0DF98
:101E6000B8DFFECF5527002480FF02C0060E571FA3
:101E7000660F771F6115710521F09695879500977C
:101E800099F7952F802D0895FB01DC0102C0059084
:0E1E90000D9241505040D8F70895F894FFCFBE
:081E9E00000008808080800034
:00000001FF
