:10000000C9C20000E4C20000E2C20000E0C2000079
:10001000DEC20000DCC20000DAC20000D8C200006C
:10002000D6C20000D4C2000038C50000D0C2000013
:10003000CEC20000CCC20000CAC20000C8C200008C
:10004000C6C20000C4C20000C2C20000C0C200009C
:10005000BEC20000BCC20000BAC200000C947D0EFB
:10006000B6C200000C94EB0E0C94C00EB0C200009F
:10007000AEC20000ACC20000AAC20000A8C20000CC
:10008000A6C20000A4C20000A2C20000A0C20000DC
:100090009EC200009CC200009AC2000098C20000EC
:1000A00096C2000094C2000092C20000000000004E
:1000B00003836BF2F7703BE1F4F350131F979AC779
:1000C0001C14F135E8E7A126EB64CAD4CF58D98ACD
:1000D000CCDBB2783828E26B3BAB8999D0CF434D6B
:1000E000D34C28BF27BF78AC243C135E6FC75E108B
:1000F0006C4435E298B765F19B340E037050C4D759
:1001000073D3AF258720FF3684A394C4A09F879A1A
:10011000A31CEC6857EFBC7B546CD789BF081D5DEE
:10012000BC8B76AF487826BC4BFB4D4EDE8EBD2097
:10013000DD0DD6D229FE86C12A7DED33C11927E710
:10014000C29A4C1536691C0635EA77F411D664AAB2
:1001500012550F58E6A65F4BE52534B90E41FE6DEA
:100160000DC2959FF931C58CFAB2AE7EB149E3302C
:10017000B2CA88C24639D8D145BAB323AEDE79F7C0
:10018000AD5D120559AE42165A2D29E47E113ABAD8
:100190007D9251488961015B8AE26AA96186A07DEE
:1001A0006205CB8F96F69B9C9575F06EBC1D7B41CE
:1001B000BF9E10B34B6D40A048EE2B52A38AE18640
:1001C000A0098A7454FADA675779B1957345A2CBBE
:1001D00070C6C9398435992A87B6F2D86CD2380CE2
:1001E0006F5153FE9BA203ED9821681FD3DA25516E
:1001F000D0594EA324AA1EB027297542CC4DBF96D4
:10020000CFCED4643B3D847738BEEF851C82FCDBC7
:100210001F019729EBF2C73AE871ACC80315661CB9
:1002200000960DEEF4655DFDF7E6360F6293C6614C
:100230006110AD9395E3FD80966096727D045CA697
:100240007E8737548A74674789F70CB5ADCB1FEBAF
:10025000AE4874195ABB240A59384FF8B25C852C41
:10026000B1DFEEDE452CBECD46AFD53F0D549871C3
:100270000ED7F383FA24A390F9A7C86212C302B67B
:1002800011406944E5B33957E63052A5C20C41FB31
:10029000C18F2A09357C7A1A36FF11E8DD9BDB3CD9
:1002A000DE18B0CE2AEBE0DD29688B2F783BF68292
:1002B0007BB89D708F4BCD638CC8A69167AC6C45A5
:1002C000642F07B790DC57A4935F3C56B7632F08A1
:1002D000B4E044FA401314E943907F1BA8F4B5CF6F
:1002E000AB77DE3D5F848E2E5C07E5DC17FCA892C1
:1002F000147FC360E08C9373E30FF881086B325571
:100300000BE859A7FF1B09B4FC986246D8A47118E2
:10031000DB271AEA2FD44AF92C57210BC733EBDF1E
:10032000C4B0802D3043D03E33C0BBCCA6B54BA269
:10033000A536205051C5704352461BB1B922D16534
:10034000BAA1BA974E52EA844DD1817669ED9228CE
:100350006A6EF9DA9E9DA9C99D1EC23B767A08EFA6
:1003600075F9631D810A330E828958FCC97215B272
:10037000CAF17E403E022E533D8145A1D6E58F75E0
:10038000D566E4872195B4942216DF66062ACC3818
:1003900005A9A7CAF15AF7D9F2D99C2B19BD56FF66
:1003A0001A3E3D0DEECD6D1EED4E06ECC4268DC3FE
:1003B000C7A5E6313356B62230D5DDD0DBB1170400
:1003C000D8327CF62CC12CE52F4247170B7E5449BE
:1003D00008FD3FBBFC0E6FA8FF8D045A14E9CE8EBA
:1003E000176AA57CE399F56FE01A9E9DABE1D3D324
:1003F000A862B8215C91E8325F1283C0B4764914D8
:10040000B7F522E6430672F54085190764B90A5923
:10041000673A61AB93C931B8904A5A4A7B2E909E95
:1004200078ADFB6C8C5EAB7F8FDDC08D1AA830E39E
:10043000192B5B11EDD80B02EE5B60F0053FAA248F
:1004400006BCC1D6F24F91C5F1CCFA37D5F0E969B7
:10045000D673829B2280D2882103B97ACA6773AE91
:10046000C9E4185C3D17484F3E9423BD756F6EF389
:1004700076EC0501821F5512819C3EE06AF8F43447
:10048000697B9FC69D88CFD59E0BA427BA37B779C5
:10049000B9B4DC8B4D478C984EC4E76AA5A02DBE3D
:1004A000A623464C52D0165F51537DAD0501090578
:1004B000A10115002501350045017501950E0509BD
:1004C0001901290E81029502810105012507463B8C
:1004D000017504950165140939814265007503951C
:1004E0000181010509090F15002501350045017538
:1004F0000195018102050126FF0046FF0009300930
:100500003109320935750895048102750895018114
:10051000010A4F4875089508B1020A4F489102C078
:1005200012010002000000400D0F0202140101023E
:1005300000010902290001010080FA0904000002FB
:1005400003000000092111010001227400070502C7
:100550000340000507058103400005040309041C4E
:100560000348004F0052004900200043004F002E76
:10057000002C004C00540044002E000000140348DE
:10058000004F005200490050004100440020004F3D
:100590000000000011241FBECFEFDAE0DEBFCDBFA8
:1005A00011E0A0E0B1E0EAEFF4E202C005900D92A4
:1005B000AC32B107D9F719E0ACE2B1E001C01D924D
:1005C000AA3CB107E1F70E94E3110C947B1218CD0D
:1005D0009C014091CA035091CB034617570718F46A
:1005E000F90190E043C06115710511F0AB01F8CF3E
:1005F0008091E8008E778093E80040E050E0F0CFF3
:100600008091C303882309F447C0853009F446C0AC
:100610008091E80083FD44C08091E80082FD36C0EF
:100620008091E80080FF22C08091F3009091F20059
:10063000782F60E0292F30E0262B372B07C08191DF
:100640008093F100415050402F5F3F4F41155105BD
:1006500019F02034310598F390E02034310509F485
:1006600091E08091E8008E778093E8004115510574
:1006700039F6992329F60AC08091C303882361F0D3
:10068000853061F08091E80083FD0AC08091E80028
:1006900082FFF2CF80E0089582E0089583E008951C
:1006A00081E008959C014091CA035091CB03461705
:1006B000570718F4F90190E044C06115710511F075
:1006C000AB01F8CF8091E8008E778093E80040E09E
:1006D00050E0F0CF8091C303882309F448C08530EF
:1006E00009F447C08091E80083FD45C08091E8008F
:1006F00082FD37C08091E80080FF23C08091F30025
:100700009091F200782F60E0292F30E0262B372BD4
:1007100008C084918093F1003196415050402F5F82
:100720003F4F4115510519F02034310590F390E009
:100730002034310509F491E08091E8008E778093B0
:10074000E8004115510531F6992321F60AC0809140
:10075000C303882361F0853061F08091E80083FD58
:100760000AC08091E80082FFF2CF80E0089582E025
:10077000089583E0089581E00895BF92CF92DF92BB
:10078000EF92FF920F931F93CF93DF93182F092FB0
:100790007B016A01EFD0B82E8823B1F5812F902F0D
:1007A0009C01E901C114D10439F0F60180819181E5
:1007B000E81AF90AC80FD91F00E010E022C08091A2
:1007C000E80085FD16C08091E8008B778093E800F3
:1007D000A0D3C114D10449F0F60180819181800F2A
:1007E000911F9183808385E010C0C4D0882349F095
:1007F0000CC08091F10089930894E108F1080F5F23
:100800001F4FE114F104D9F68B2DDF91CF911F9189
:100810000F91FF90EF90DF90CF90BF900895BF921F
:10082000CF92DF92EF92FF920F931F93CF93DF93BC
:10083000182F092F7B016A019DD0B82E8823B1F5AE
:10084000812F902F9C01E901C114D10439F0F601E8
:1008500080819181E81AF90AC80FD91F00E010E0E1
:1008600022C08091E80085FD16C08091E8008E7757
:100870008093E8004ED3C114D10449F0F601808181
:100880009181800F911F9183808385E010C072D089
:10089000882349F00CC089918093F1000894E10805
:1008A000F1080F5F1F4FE114F104D9F68B2DDF9192
:1008B000CF911F910F91FF90EF90DF90CF90BF905D
:1008C0000895382F282F2EC0822F8F708093E90033
:1008D000231721F4762F942F50E006C07091EC007E
:1008E0009091ED005091F00091FF1BC08091EB00C2
:1008F0008E7F8093EB008091ED008D7F8093ED00E3
:100900008091EB0081608093EB007093EC009093FA
:10091000ED005093F0008091EE0087FD02C080E072
:1009200008952F5F273080F23F703093E90081E017
:1009300008958091C40388239CF404C08091C3036C
:100940008823B9F08091E80082FFF8CF8091E80019
:100950008B778093E80008958091C303882349F042
:100960008091E80080FFF8CF8091E8008E77809337
:10097000E80008954091E4005091E50024E680915C
:10098000EC0080FF24C08091E80080FD1EC08091B3
:10099000C303882311F482E00895853011F483E0C5
:1009A00008958091EB0085FF02C081E00895809159
:1009B000E4009091E5008417950709F3222311F4D0
:1009C00084E008952150AC01DACF80E00895809151
:1009D000E80082FFDCCFF9CFEF92FF920F931F93D5
:1009E0004FD056D008ED10E0F80180818F778083DA
:1009F00080818068808380818F7D808319BC109284
:100A0000C3031092BF031092C1031092C00380EE83
:100A1000E82EF12CF70180818B7F8083F8018081A3
:100A20008160808380E060E042E34BDFE1EEF0E054
:100A300080818E7F8083E2EEF0E080818160808320
:100A4000808188608083F70180818E7F8083F801B8
:100A50008081806180831F910F91FF90EF900895B6
:100A6000E8EDF0E080818F7E8083E7EDF0E080812B
:100A70008160808384E082BF81E08093C203ACCF39
:100A8000E8EDF0E080818E7F80831092E20008958F
:100A90001092DA001092E10008951F920F920FB6A3
:100AA0000F9211242F933F934F935F936F937F93F4
:100AB0008F939F93AF93BF93EF93FF938091E10048
:100AC00082FF0AC08091E20082FF06C08091E100AF
:100AD0008B7F8093E1001CD28091DA0080FF1FC0E1
:100AE0008091D80080FF1BC08091DA008E7F8093B8
:100AF000DA008091D90080FF0DC080E189BD82E1DC
:100B000089BD09B400FEFDCF81E08093C3030E943C
:100B1000E90F05C019BC1092C3030E94E60F809133
:100B2000E10080FF18C08091E20080FF14C0809136
:100B3000E2008E7F8093E2008091E20080618093EA
:100B4000E2008091D80080628093D80019BC85E0D3
:100B50008093C303DDD18091E10084FF2FC0809199
:100B6000E20084FF2BC080E189BD82E189BD09B428
:100B700000FEFDCF8091D8008F7D8093D8008091BA
:100B8000E1008F7E8093E1008091E2008F7E809370
:100B9000E2008091E20081608093E2008091BF03D7
:100BA000882311F084E007C08091E30087FD02C034
:100BB00081E001C083E08093C303AAD18091E1006A
:100BC00083FF22C08091E20083FF1EC08091E1007C
:100BD000877F8093E10082E08093C3031092BF037C
:100BE0008091E1008E7F8093E1008091E2008E7F12
:100BF0008093E2008091E20080618093E20080E0D7
:100C000060E042E35EDE84D1FF91EF91BF91AF914E
:100C10009F918F917F916F915F914F913F912F9114
:100C20000F900FBE0F901F9018951F93DF93CF93D7
:100C3000CDB7DEB7AC970FB6F894DEBF0FBECDBF11
:100C4000E4ECF3E08091F100819323E0EC3CF207C7
:100C5000C9F70E94830F8091E80083FF41C1809112
:100C6000C4033091C503353009F48DC0363040F4EB
:100C70003130E1F1313070F0333009F031C136C03C
:100C8000383009F4FEC0393009F40DC1363009F0AE
:100C900027C19CC0803821F0823809F021C108C0EA
:100CA0009091C0038091C1038823B1F0926014C079
:100CB0008091C8038F70873008F012C18093E900DB
:100CC0008091EB0090E025E0969587952A95E1F7D5
:100CD000982F91701092E9008091E800877F8093AF
:100CE000E8009093F1001092F100D6C0882319F02B
:100CF000823009F0F5C090E08F719070009721F07C
:100D0000029709F0EDC00CC08091C603813009F054
:100D1000E7C01092C103333081F58093C1032DC029
:100D20008091C603882349F52091C8032F70822F34
:100D30008150863008F0D4C02093E9008091EB0008
:100D400080FF1BC0333021F48091EB00806213C020
:100D50008091EB0080618093EB0081E090E002C025
:100D6000880F991F2A95E2F78093EA001092EA0013
:100D70008091EB0088608093EB001092E9008091F5
:100D8000E800877F8CC0882309F0AAC01091C603B1
:100D90001F778091E3008078812B8093E30080911E
:100DA000E800877F8093E800C4DD8091E80080FF41
:100DB000FCCF8091E30080688093E300112311F45D
:100DC00082E001C083E08093C3038AC080588230F0
:100DD00008F086C08091C6039091C70323E08C3D44
:100DE000920709F033C083E08C838AE28B837FB75C
:100DF000F894DE0115966EE040E050E011E2E62F37
:100E0000F0E010935700849140FF03C082958F70EB
:100E10006F5F8F70282F30E08A3018F0C901C796B5
:100E200002C0C901C0968D939D934F5F5F4F4431BF
:100E3000510529F77FBF8091E800877F8093E80004
:100E4000CE0103966AE270E0C3DB15C06091C8036F
:100E50007091C903AE014F5F5F4F0E94430FBC0109
:100E6000009709F43DC08091E800877F8093E800F7
:100E700089819A8117DC8091E8008B778093E80064
:100E80002FC0803869F58091E800877F8093E80063
:100E90008091BF038093F1008091E8008E7780936A
:100EA000E80047DD1DC08823D9F49091C603923035
:100EB000B8F48091E800877F8093E8009093BF03A7
:100EC00038DD8091BF03882331F48091E30087FDF2
:100ED00002C081E001C084E08093C3030E94DC0F64
:100EE0008091E80083FF0AC08091E800877F8093AB
:100EF000E8008091EB0080628093EB00AC960FB627
:100F0000F894DEBF0FBECDBFCF91DF911F91089542
:100F100008951F938091C303882371F01091E90015
:100F20008091EC001092E9008091E80083FF01C0FD
:100F30007CDE1F701093E9001F91089547E050E098
:100F40000E946E129C0180E0232B09F481E0089539
:100F50000F931F93DF93CF93CDB7DEB763970FB691
:100F6000F894DEBF0FBECDBF8E010F5F1F4F83E130
:100F7000F80111928A95E9F70E94EC0FC80163E12C
:100F80000E946F100E94ED0F63960FB6F894DEBFBB
:100F90000FBECDBFCF91DF911F910F91089564E0F7
:100FA0000C946F10AF92BF92CF92DF92FF920F938B
:100FB0001F93DF93CF9300D000D0CDB7DEB78C0165
:100FC0006B01F42E5E010894A11CB11C28C0F8012D
:100FD0006081F60181916F01682770E0660F771FCD
:100FE000660F771F64557F4FC50144E050E00E94B3
:100FF0006512F80180819181A281B381892F9A2F96
:10100000AB2FBB2729813A814B815C8182279327B3
:10101000A427B52780839183A283B383FA94FF200A
:10102000B1F60F900F900F900F90CF91DF911F911D
:101030000F91FF90DF90CF90BF90AF900895DF9217
:10104000EF92FF920F931F938C017B01D42ECB0163
:10105000642F0E946F10C801B7014D2DA3DF1F91AF
:101060000F91FF90EF90DF9008950F931F93DF9300
:10107000CF9300D000D0CDB7DEB78C01862FF8011A
:101080006081682770E0660F771F660F771F6455D1
:101090007F4FCE01019644E050E00E946512F801B6
:1010A00080819181A281B381892F9A2FAB2FBB2799
:1010B00029813A814B815C8182279327A427B52718
:1010C00080839183A283B3830F900F900F900F9032
:1010D000CF91DF911F910F9108950F931F93DF938D
:1010E000CF9300D0CDB7DEB78C018FEF9FEFAFEF7E
:1010F000BFEFF80180839183A283B3836A5F609519
:1011000069834A83CE01019662E0E9D7C80169810B
:10111000ACDFC8016A81A9DF0F900F90CF91DF91FA
:101120001F910F910895CF92DF92EF92FF920F934C
:101130001F93DF93CF9300D000D0CDB7DEB78C01E3
:101140006B014AD77E010894E11CF11CC70168E0DD
:1011500044E1C3DFC701B80144E071DFC701B60154
:1011600044E06DDFC7011BDF38D70F900F900F9061
:101170000F90CF91DF911F910F91FF90EF90DF9033
:10118000CF900895EF92FF920F931F93DF93CF9329
:1011900000D000D00F92CDB7DEB77C016D831CD795
:1011A0008E010F5F1F4FC80165E042E196DFC80165
:1011B000B70144E044DFC801BE016B5F7F4F41E0EF
:1011C0003EDFC801ECDE09D70F900F900F900F9013
:1011D0000F90CF91DF911F910F91FF90EF900895A5
:1011E000EF92FF920F931F93DF93CF9300D000D025
:1011F000CDB7DEB77C01F0D68E010F5F1F4FC8015F
:1012000064E041E16ADFC801B70144E018DFC801CA
:10121000C6DEE3D60F900F900F900F90CF91DF9125
:101220001F910F91FF90EF900895BF92CF92DF92A0
:10123000EF92FF920F931F93DF93CF93CDB7DEB75B
:101240002C970FB6F894DEBF0FBECDBFB82E6B0142
:1012500029873A874B875C87BFD6D6010D9000203F
:10126000E9F77D010894E108F108EC18FD088E010A
:101270000F5F1F4F12C0C8016AE343E22EDFC801AF
:10128000B6014AE3DCDEC8018ADE8AE390E0C80EDC
:10129000D91EA6ECBFEFEA0EFB1EBBE3EB16F10472
:1012A00050F78E010B5F1F4F6E2D6C5FC8014B2DE9
:1012B00014DFC801BE01675F7F4F44E0C0DEC80194
:1012C000B6014E2DBCDEC8016ADE87D62C960FB65D
:1012D000F894DEBF0FBECDBFCF91DF911F910F916C
:1012E000FF90EF90DF90CF90BF900895AF92BF92A4
:1012F000DF92EF92FF920F931F93DF93CF9300D073
:1013000000D0CDB7DEB77C0167D6D7010D900020A5
:10131000E9F78D01015010400E191F095E01089474
:10132000A11CB11C17C00B33110518F06AE3D62EAF
:1013300001C0D02EC5016D2D43E2CFDEC501B7013E
:101340004D2D7DDEC5012BDE8D2D90E0E80EF91EC2
:10135000081B190B0115110531F73FD60F900F909F
:101360000F900F90CF91DF911F910F91FF90EF9011
:10137000DF90BF90AF900895CF92DF92FF920F93CE
:101380001F93DF93CF9300D000D000D0CDB7DEB74E
:10139000F82E6A018A5F809589836A838FEF9FEFB9
:1013A000AFEFBFEF8B839C83AD83BE8315D6CE0199
:1013B000019662E094D68E010D5F1F4FC8016981CE
:1013C00054DEC8016A8151DEC6016F2D88D6C8017E
:1013D000B6014F2DE7DDC80164E081D6FED5269623
:1013E0000FB6F894DEBF0FBECDBFCF91DF911F9136
:1013F0000F91FF90DF90CF9008951F93DF93CF93CD
:1014000000D000D00F92CDB7DEB7482F80912D01CC
:101410008823A9F58CEC93E061E05FD6882319F46A
:1014200010922C017AC06091CC03662351F4809114
:101430002C01813021F080E040E050E09DDF81E030
:101440001BC080912D018F5F80932D01162F109569
:10145000812F86508E3010F440E014C010922D0180
:1014600080912C01823039F0198381E061E0AE0176
:101470004F5F5F4F81DF82E080932C014EC010915F
:10148000CC03109520912D01822F90E0612F621BDB
:1014900084539C4F22D640912D01480F40932D013B
:1014A0004117D8F18FEF9FEFAFEFBFEF8A839B8398
:1014B000AC83BD834450CE0102966CEC73E072DDC8
:1014C000E0912D01F0E0E853FC4F2A813B814C81F3
:1014D0005D8180819181A281B381281739074A07F4
:1014E0005B0771F010922D0180912C018230A9F0E0
:1014F000198381E062E0AE014F5F5F4F3DDF0DC0B9
:1015000010922C0110922D018091CC038095865071
:101510008093CC032CEC33E002C020E030E0C90122
:101520000F900F900F900F900F90CF91DF911F9120
:101530000895DC0180913701282F30E0809135013A
:10154000A901481B5109403451051CF0E0E0F0E0CE
:1015500016C02F7330708DE090E0289FF001299F16
:10156000F00D389FF00D11248D919D910D90BC913F
:10157000A02DE152FC4F81939193A193B193CF01A0
:101580000895EF92FF920F931F93FC016091360133
:10159000E080F1800281138120912E0130912F0192
:1015A00040913001509131012E193F09400B510BF0
:1015B00080913501962F981B892F90E0A0E0B0E034
:1015C00082179307A407B50798F18E2D90E08F73CB
:1015D00090702DE030E0829FF001839FF00D929F8C
:1015E000F00D1124E152FC4F81E080874DE050E086
:1015F0001BC0822F90E08F739070849FF001859FB5
:10160000F00D949FF00D1124E152FC4F808588234A
:1016100079F080913401821721F42F5F20933401F7
:1016200021502F5F2093350120913501261709F7AE
:101630001F910F91FF90EF90089590913601809146
:101640003701981719F440E050E00FC0892F90E05F
:101650008F7390702DE030E0829FA001839F500D2A
:10166000929F500D11244D515C4FCA0108950F9364
:101670001F93CF93DF93AC01909136018091370196
:10168000981739F410923301109232010FEF1FEFC7
:1016900056C0892F90E08F7390702DE030E0829FCC
:1016A000E001839FD00D929FD00D1124C152DC4FD9
:1016B0008091320190913301892B31F48C819D818D
:1016C00090933301809332018091320190913301E4
:1016D0008417950738F0841B950B90933301809302
:1016E000320104C010923301109232010091320194
:1016F000109133010115110511F5188680913601FD
:101700008F5F809336018EE291E0BE01E4D4DFD496
:101710006C837D838E839F8380912E0190912F0116
:10172000A0913001B09131010196A11DB11D8093AE
:101730002E0190932F01A0933001B0933101C80185
:10174000DF91CF911F910F9108958F929F92AF9249
:10175000BF92CF92DF92EF92FF920F931F93DF938E
:10176000CF9300D000D0CDB7DEB7909135018091F6
:101770003601981711F420E05FC0A9D46B017C01F9
:101780003091360140E06DE070E046C0822F90E07D
:101790008F739070869F8001879F100D969F100D0C
:1017A000112401521C4FF8018085882389F484811B
:1017B0009581A681B78146015701881A990AAA0A1C
:1017C000BB0AD501C40180519742A040B04038F413
:1017D0004F5F2F5F209334014031F1F422C0321B60
:1017E00080912E0190912F01A0913001B091310193
:1017F000831B9109A109B10989839A83AB83BC83B7
:10180000CE010196B80167D462D4F8016483758370
:101810008683978321E006C020913401231709F0C5
:10182000B5CF20E09091340180913601981721F4D2
:101830008091350180933401822F0F900F900F908B
:101840000F90CF91DF911F910F91FF90EF90DF905C
:10185000CF90BF90AF909F908F90089580912E0170
:101860008093350180933601809337018093340152
:1018700030C49091360180913701981729F429D40A
:101880001092330110923201809137018F5F809363
:1018900037010895DF92EF92FF920F931F93DF932A
:1018A000CF9300D000D00F92CDB7DEB77C01FC0102
:1018B0002181203478F407D4882319F0833009F08B
:1018C000A8C0F7018081898381E061E0AE014F5FAC
:1018D0005F4F27C0FC0182819381A481B5818A83F7
:1018E0009B83AC83BD832034F1F4EFE1F7E01082F9
:1018F000759689E0EF3BF807D1F78A819B81AC812F
:10190000BD810196A11DB11D8093380190933901CD
:10191000A0933A01B0933B0184E061E1AE014E5FD8
:101920005F4F2ADD76C02A813B814C815D818091A9
:10193000380190913901A0913A01B0913B01281BE7
:10194000390B4A0B5B0B57FF03C0DD24D3941AC03D
:10195000211531054105510511F4DD2413C0203254
:1019600031054105510510F080E054C021303105AA
:101970004105510529F484E065E048E351E0FCDCD1
:1019800082E0D82EC7016D2D29D3482F8A8191E09E
:10199000D91609F43EC090E08F71907025E130E0D7
:1019A000829F8001839F100D929F100D1124015E74
:1019B000184F423041F4D801F70185E101900D92B2
:1019C0008150E1F726C0433049F4F70180818983D3
:1019D00081E061E0AE014F5F5F4FCEDCDD20B1F40E
:1019E000F80110828091380190913901A0913A015B
:1019F000B0913B010196A11DB11D809338019093D8
:101A00003901A0933A01B0933B0103C08FEFF80175
:101A1000808381E00F900F900F900F900F90CF91E7
:101A2000DF911F910F91FF90EF90DF900895CF937A
:101A3000DF938091380190E08F71907025E130E064
:101A4000829FE001839FD00D929FD00D1124C15E33
:101A5000D84F88818F3F39F08823D9F0CE0160E0DC
:101A6000BDD28230B1F01882809138019091390155
:101A7000A0913A01B0913B010196A11DB11D809347
:101A8000380190933901A0933A01B0933B0181E072
:101A900001C080E0DF91CF910895AFDC009719F08D
:101AA000F9DE882321F4C3DF882309F44ECE81E0D8
:101AB0000895EF92FF921F93CF93DF93EC017B0188
:101AC000142FAB014E5F5F4F84E060E155DC1230B4
:101AD00011F0113021F4188320E030E011C0809122
:101AE0003C01882319F0BADE10923C01C70102962E
:101AF00020DD9C01009711F482E001C081E0888321
:101B0000C901DF91CF911F91FF90EF900895FF924F
:101B10000F931F93DF93CF9300D000D0CDB7DEB7E4
:101B20008C01F62EFC018181843449F1853438F42E
:101B3000823471F08334D0F4813441F409C08734A5
:101B400009F444C0883459F1863491F180E053C0DF
:101B5000F8018081843009F049C084ED99E4A4EB58
:101B6000B8E789839A83AB83BC8312C0F801808174
:101B7000843009F03BC0C801029662E017C0F8014A
:101B80008081843099F5A1D269837A838B839C8389
:101B9000C8010296BE016F5F7F4FC5DA2BC0F80106
:101BA0008081843019F5C801029660E4EBDA22C026
:101BB000F80180818430D1F4C801029611DBF2E093
:101BC000FF16B1F0FF20B1F449DE14C0F8018081A6
:101BD000843061F4C801029603DBF2E0FF1641F0A5
:101BE000FF2041F481E080933C0105C083E003C005
:101BF00082E001C081E00F900F900F900F90CF9185
:101C0000DF911F910F91FF900895FC018181833036
:101C100018F4813038F407C0843021F0813129F084
:101C200080E0089595D981E008958081843011F095
:101C300083E00895CF010296A4DC81E00895CF925D
:101C4000DF92EF92FF920F931F93DF93CF93CDB765
:101C5000DEB728970FB6F894DEBF0FBECDBF7C016C
:101C60006B01BAD18E010F5F1F4FC8016CE045E4D4
:101C700034DAC801B70144E0E2D9C801B60144E052
:101C8000DED923D26D837E838F839887C801BE01FE
:101C90006B5F7F4F44E0D3D9C80181D99ED128968C
:101CA0000FB6F894DEBF0FBECDBFCF91DF911F916D
:101CB0000F91FF90EF90DF90CF900895F894789473
:101CC0006091BF097091C0098091C1099091C209CA
:101CD0000895F89485B5816085BD16BCEEE6F0E008
:101CE0008081816080831092BF091092C009109298
:101CF000C1091092C209789408951F920F920FB6ED
:101D00000F9211248F939F93AF93BF938091BF093C
:101D10009091C009A091C109B091C2090296A11D7C
:101D2000B11D8093BF099093C009A093C109B093DE
:101D3000C209BF91AF919F918F910F900FBE0F90ED
:101D40001F901895F89480E190E09093CD008093D7
:101D5000CC0082E08093C80088E98093C90086E0C7
:101D60008093CA00109251018091510180935001DB
:101D70001092B3038091B3038093B20378940895D3
:101D80001F920F920FB60F9211248F939F93EF9390
:101D9000FF939091500180915101981721F488E9A7
:101DA0008093C9000FC0909151019F5F933108F05B
:101DB00090E0E92FF0E0E35CFE4F80818093CE005D
:101DC00090935101FF91EF919F918F910F900FBED2
:101DD0000F901F9018951F920F920FB60F9211241B
:101DE0002F938F939F93EF93FF932091CE00909129
:101DF000B2039F5F8091B303981739F0E92FF0E0A9
:101E0000EE5AFE4F20839093B203FF91EF919F9182
:101E10008F912F910F900FBE0F901F901895DC019E
:101E200028EB15C0909150019F5F933108F090E02E
:101E3000809151018917E1F3E92FF0E08D91E35C86
:101E4000FE4F8083909350012093C9006150662318
:101E500049F70895DC0120E012C09091B20380910F
:101E6000B303981771F08091B3038F5FE82FF0E010
:101E7000EE5AFE4F90819D938093B3032F5F2617F8
:101E800060F3822F0895DA019330B1F0943028F492
:101E9000913041F0923079F50AC0913211F19232CD
:101EA00051F524C0E0E2F5E022E130E028C0E2E3B1
:101EB000F5E029E230E023C0813049F0813018F0AC
:101EC0008230C9F40AC0EBE5F5E0849103C0EFE588
:101ED000F5E08491282F30E012C0EDE7F5E0849121
:101EE000F9CFE4E4F5E029E030E009C0ECEAF4E001
:101EF00024E730E004C0E0E0F0E020E030E0ED93E3
:101F0000FC93C90108950895DF93CF93CDB7DEB751
:101F100027970FB6F894DEBF0FBECDBF0E9489078A
:101F20008091C3038430F1F482E08093E9008091D2
:101F3000E80082FD17C08091E80085FF0AC0CE014D
:101F4000019667E070E040E050E00E94BD03882306
:101F500049F48091E8008B778093E8000E9489071C
:101F600081E001C080E027960FB6F894DEBF0FBE77
:101F7000CDBFCF91DF9108959C018091C303843040
:101F8000C9F481E08093E9008091E80080FF12C0ED
:101F9000C90168E070E040E050E00E940F0488232F
:101FA00049F48091E8008E778093E8000E948907C9
:101FB00081E0089580E0089582E060EC42E30E94B1
:101FC000610481E061EC42E30C94610487E091E0FC
:101FD0008DC982E191E08AC908950895FF920F9317
:101FE0001F93DF93CF9300D000D0CDB7DEB78C0125
:101FF000F62E8DDD882309F05CC0F80191819035C3
:1020000079F09039D9F1993409F053C0F801808101
:10201000843009F04DC080E190E1A0E0B0E022C042
:10202000F8018081843009F043C019821A821B8232
:102030001C828091C303843018F4823050F404C0B1
:10204000843061F0853091F419821A821B821C82DF
:102050000DC081E090E0A0E0B0E004C083E090E03B
:10206000A0E0B0E089839A83AB83BC83C801029669
:10207000BE016F5F7F4F57D881E01BC0F8018081A0
:102080008D30B1F486819781892B91F0CE01019634
:10209000B8014F2D0EDD009749F0DC01F8013696AE
:1020A00089E001900D928150E1F7E3DB898101C065
:1020B00083E00F900F900F900F90CF91DF911F91C1
:1020C0000F91FF900895A1CD0895F8CD0895F6CD14
:1020D000089507C00895B3CD0895BCCE08959FCE4E
:1020E0000895ECDD6093B8037093B9038093BA034D
:1020F0009093BB031092BD031092BC0381E08093C8
:102100002B0108950F931F93DF93CF93CDB7DEB7C5
:1021100028970FB6F894DEBF0FBECDBF8C01DE014D
:102120001196E3ECF9E087E001900D928150E1F720
:102130001886F80180819181A281B3818093B403D4
:102140009093B503A093B603B093B703CE01019665
:1021500013DF882361F181E080932B018091BE031E
:10216000882341F1F801208131814281538180919E
:10217000B8039091B903A091BA03B091BB03281B97
:10218000390B4A0B5B0B84E26AE171E04ED8109286
:10219000BE03F80180819181A281B3818093B8034D
:1021A0009093B903A093BA03B093BB0303C081E03B
:1021B0008093BE0328960FB6F894DEBF0FBECDBF46
:1021C000CF91DF911F910F9108950F931F938091ED
:1021D000BC039091BD034BDA8C01BC0180E090E020
:1021E0002DE730E040E050E051D12091B80330912C
:1021F000B9034091BA035091BB03260F371F481F04
:10220000591F2093B8033093B9034093BA035093F6
:10221000BB031093BD030093BC031F910F9108955E
:102220000CDA009719F420E031E003C09C012E5F26
:102230003F4FC90108952F923F924F925F926F9244
:102240007F928F929F92AF92BF92CF92DF92EF9246
:10225000FF920F931F93DF93CF9300D000D0CDB7A1
:10226000DEB72CDD6093B8037093B9038093BA0393
:102270009093BB036452744F804090406093B403CA
:102280007093B5038093B6039093B7037E010894CF
:10229000E11CF11C94ED692E90E3792E812C912C98
:1022A0008CEDA82E8BE0B82E8FEFC82E8FEFD82E96
:1022B00005DD9B01AC0169837A838B839C838091CC
:1022C0002B01882321F420DE80E0E7DB6FC08091C2
:1022D000B8039091B903A091BA03B091BB0319015F
:1022E0002A01281A390A4A0A5B0AC201B10157FCBD
:1022F00021C096DF182F092F83EC99E0612F702FF2
:102300000E949E07882379F4A3ECB9E0812F902FD7
:102310009C01F90187E001900D928150E1F7109244
:102320002B01C701EFDE80912B01882309F4C0CF78
:102330004CDFBECF63587F4F8F4F9F4F97FFB8CF73
:10234000E3DD80E0AADBBADC9B01AC0169837A8320
:102350008B839C838091B8039091B903A091BA03B9
:10236000B091BB0313012401281A390A4A0A5B0AF7
:10237000D201C101820F931FA41FB51FB7FF98CFD1
:102380008091B4039091B503A091B603B091B703C7
:1023900015012601281A390A4A0A5B0AD201C1012D
:1023A000820F931FA41FB51FB7FD82CFC701AADEFE
:1023B0007FCF882321F028985D98479A0895289A1E
:1023C0005D9A47980895EF92FF920F931F93CF93D2
:1023D000DF93A3ECB9E0E0E0F1E087E001900D923B
:1023E0008150E1F784B7877F84BF88E10FB6F89406
:1023F00080936000109260000FBE80E880936100BF
:1024000010926100209A559A3F9A80E0D2DF61DCF9
:1024100099DC0E9430057894C0E0D0E081E0C9DF0B
:102420004DDC7B018C0104C080E037DB0E94890712
:1024300045DC6E197F09800B910B685A714680400C
:10244000904090F380E0B5DF39DC7B018C0104C063
:1024500080E023DB0E94890731DC6E197F09800B45
:10246000910B685A71468040904090F32196CA3093
:10247000D105A1F680E09DDFDEDE80E090E0DF9117
:10248000CF911F910F91FF90EF900895629FD0011F
:10249000739FF001829FE00DF11D649FE00DF11D1F
:1024A000929FF00D839FF00D749FF00D659FF00DCE
:1024B0009927729FB00DE11DF91F639FB00DE11DBB
:1024C000F91FBD01CF0111240895FB01DC0102C0F9
:1024D00005900D9241505040D8F70895FB01DC0162
:1024E00004C08D910190801921F441505040C8F7EB
:0A24F000881B990B0895F894FFCFA4
:1024FA0000000880808080446973636F6E6E656334
:10250A007400436F6E6E6563740053636865647527
:0C251A006C652044656C6179656400010B
:00000001FF
