:10000000BFC20000DCC20000DAC20000D8C200009B
:10001000D6C20000D4C20000D2C20000D0C200008C
:10002000CEC20000CCC2000027C50000C8C200003C
:10003000C6C20000C4C20000C2C20000C0C20000AC
:10004000BEC20000BCC20000BAC20000B8C20000BC
:10005000B6C20000B4C20000B2C200000C94720E1E
:10006000AEC200000C94E40E0C94B50EA8C20000C1
:10007000A6C20000A4C20000A2C20000A0C20000EC
:100080009EC200009CC200009AC2000098C20000FC
:1000900096C2000094C200000000000003836BF2CF
:1000A000F7703BE1F4F350131F979AC71C14F13516
:1000B000E8E7A126EB64CAD4CF58D98ACCDBB27862
:1000C0003828E26B3BAB8999D0CF434DD34C28BF46
:1000D00027BF78AC243C135E6FC75E106C4435E2DA
:1000E00098B765F19B340E037050C4D773D3AF2516
:1000F0008720FF3684A394C4A09F879AA31CEC6832
:1001000057EFBC7B546CD789BF081D5DBC8B76AFA5
:10011000487826BC4BFB4D4EDE8EBD20DD0DD6D281
:1001200029FE86C12A7DED33C11927E7C29A4C15F5
:1001300036691C0635EA77F411D664AA12550F58B1
:10014000E6A65F4BE52534B90E41FE6D0DC2959FC5
:10015000F931C58CFAB2AE7EB149E330B2CA88C279
:100160004639D8D145BAB323AEDE79F7AD5D120575
:1001700059AE42165A2D29E47E113ABA7D92514861
:100180008961015B8AE26AA96186A07D6205CB8FE5
:1001900096F69B9C9575F06EBC1D7B41BF9E10B37F
:1001A0004B6D40A048EE2B52A38AE186A0098A74C9
:1001B00054FADA675779B1957345A2CB70C6C9393D
:1001C0008435992A87B6F2D86CD2380C6F5153FE19
:1001D0009BA203ED9821681FD3DA2551D0594EA375
:1001E00024AA1EB027297542CC4DBF96CFCED46429
:1001F0003B3D847738BEEF851C82FCDB1F019729CD
:10020000EBF2C73AE871ACC80315661C00960DEE18
:10021000F4655DFDF7E6360F6293C6616110AD933C
:1002200095E3FD80966096727D045CA67E873754C8
:100230008A74674789F70CB5ADCB1FEBAE487419CC
:100240005ABB240A59384FF8B25C852CB1DFEEDE78
:10025000452CBECD46AFD53F0D5498710ED7F383D4
:10026000FA24A390F9A7C86212C302B611406944E8
:10027000E5B33957E63052A5C20C41FBC18F2A09BC
:10028000357C7A1A36FF11E8DD9BDB3CDE18B0CEF8
:100290002AEBE0DD29688B2F783BF6827BB89D70D6
:1002A0008F4BCD638CC8A69167AC6C45642F07B7A4
:1002B00090DC57A4935F3C56B7632F08B4E044FA30
:1002C000401314E943907F1BA8F4B5CFAB77DE3D14
:1002D0005F848E2E5C07E5DC17FCA892147FC36058
:1002E000E08C9373E30FF881086B32550BE859A744
:1002F000FF1B09B4FC986246D8A47118DB271AEAE0
:100300002FD44AF92C57210BC733EBDFC4B0802D13
:100310003043D03E33C0BBCCA6B54BA2A53620504F
:1003200051C5704352461BB1B922D165BAA1BA97E3
:100330004E52EA844DD1817669ED92286A6EF9DADF
:100340009E9DA9C99D1EC23B767A08EF75F9631D73
:10035000810A330E828958FCC97215B2CAF17E40F7
:100360003E022E533D8145A1D6E58F75D566E487C3
:100370002195B4942216DF66062ACC3805A9A7CAAF
:10038000F15AF7D9F2D99C2B19BD56FF1A3E3D0DF3
:10039000EECD6D1EED4E06ECC4268DC3C7A5E6312D
:1003A0003356B62230D5DDD0DBB11704D8327CF617
:1003B0002CC12CE52F4247170B7E544908FD3FBB4B
:1003C000FC0E6FA8FF8D045A14E9CE8E176AA57C27
:1003D000E399F56FE01A9E9DABE1D3D3A862B821F3
:1003E0005C91E8325F1283C0B4764914B7F522E617
:1003F000430672F54085190764B90A59673A61AB3B
:1004000093C931B8904A5A4A7B2E909E78ADFB6CC6
:100410008C5EAB7F8FDDC08D1AA830E3192B5B118A
:10042000EDD80B02EE5B60F0053FAA2406BCC1D6F6
:10043000F24F91C5F1CCFA37D5F0E969D673829BBA
:100440002280D2882103B97ACA6773AEC9E4185CE6
:100450003D17484F3E9423BD756F6EF376EC050152
:10046000821F5512819C3EE06AF8F434697B9FC676
:100470009D88CFD59E0BA427BA37B779B9B4DC8B4A
:100480004D478C984EC4E76AA5A02DBEA623464CC6
:1004900052D0165F51537DAD05010905A10115002C
:1004A0002501350045017501950E05091901290E33
:1004B00081029502810105012507463B01750495DE
:1004C00001651409398142650075039501810105B3
:1004D00009090F15002501350045017501950181B8
:1004E00002050126FF0046FF0009300931093209E3
:1004F000357508950481027508950181010A4F48F8
:1005000075089508B1020A4F489102C01201000215
:10051000000000400D0F0202140101020001090257
:10052000290001010080FA09040000020300000014
:100530000921110100012274000705020340000592
:1005400007058103400005040309041C0348004F0C
:100550000052004900200043004F002E002C004CA8
:1005600000540044002E000000140348004F0052C5
:1005700000490050004100440020004F00000000EE
:1005800011241FBECFEFD0E2DEBFCDBF11E0A0E04F
:10059000B1E0EEEDF4E200E00BBF02C007900D9277
:1005A000A433B107D9F719E0A4E3B1E001C01D926B
:1005B000AB3CB107E1F70E94E0110C946D1220CD25
:1005C0009C014091D2035091D3034617570718F46A
:1005D000F90190E03DC06115710511F0AB01F8CF54
:1005E0008091E8008E778093E80040E050E0F0CF03
:1005F0008091CB03882309F441C0853009F440C0C1
:100600008091E80083FD3EC08091E80082FD30C00B
:100610008091E80080FF1CC02091F2003091F3002F
:1006200007C081918093F100415050402F5F3F4FB0
:100630004115510519F02034310598F390E020342C
:10064000310509F491E08091E8008E778093E8000D
:100650004115510569F6992359F60AC08091CB03DB
:10066000882361F0853061F08091E80083FD0AC045
:100670008091E80082FFF2CF80E0089582E0089543
:1006800083E0089581E008959C014091D203509148
:10069000D3034617570718F4F90190E03EC06115DF
:1006A000710511F0AB01F8CF8091E8008E7780934F
:1006B000E80040E050E0F0CF8091CB03882309F4BC
:1006C00042C0853009F441C08091E80083FD3FC0FD
:1006D0008091E80082FD31C08091E80080FF1DC05C
:1006E0002091F2003091F30008C084918093F100D2
:1006F0003196415050402F5F3F4F4115510519F041
:100700002034310590F390E02034310509F491E074
:100710008091E8008E778093E8004115510561F6DD
:10072000992351F60AC08091CB03882361F085306C
:1007300061F08091E80083FD0AC08091E80082FFAB
:10074000F2CF80E0089582E0089583E0089581E08B
:100750000895BF92CF92DF92EF92FF920F931F9373
:10076000CF93DF93182F092F7B016A01EFD0B82EAA
:100770008823B1F5812F902F9C01E901C114D10488
:1007800039F0F60180819181E81AF90AC80FD91F62
:1007900000E010E022C08091E80085FD16C0809145
:1007A000E8008B778093E800A7D3C114D10449F007
:1007B000F60180819181800F911F9183808385E074
:1007C00010C0C4D0882349F00CC08091F1008993F7
:1007D0000894E108F1080F5F1F4FE114F104D9F606
:1007E0008B2DDF91CF911F910F91FF90EF90DF90B4
:1007F000CF90BF900895BF92CF92DF92EF92FF9279
:100800000F931F93CF93DF93182F092F7B016A015A
:100810009DD0B82E8823B1F5812F902F9C01E9013E
:10082000C114D10439F0F60180819181E81AF90AE6
:10083000C80FD91F00E010E022C08091E80085FDBC
:1008400016C08091E8008E778093E80055D3C114DC
:10085000D10449F0F60180819181800F911F91832D
:10086000808385E010C072D0882349F00CC0899144
:100870008093F1000894E108F1080F5F1F4FE11425
:10088000F104D9F68B2DDF91CF911F910F91FF903D
:10089000EF90DF90CF90BF900895382F282F2EC073
:1008A000822F8F708093E900231721F4762F942FE5
:1008B00050E006C07091EC009091ED005091F00076
:1008C00091FF1BC08091EB008E7F8093EB008091A5
:1008D000ED008D7F8093ED008091EB00816080932F
:1008E000EB007093EC009093ED005093F00080913A
:1008F000EE0087FD02C080E008952F5F273080F270
:100900003F703093E90081E008958091CC03882303
:100910009CF404C08091CB038823B9F08091E80057
:1009200082FFF8CF8091E8008B778093E8000895EC
:100930008091CB03882349F08091E80080FFF8CFB5
:100940008091E8008E778093E80008954091E4005C
:100950005091E50024E68091EC0080FF24C0809156
:10096000E80080FD1EC08091CB03882311F482E053
:100970000895853011F483E008958091EB0085FFA0
:1009800002C081E008958091E4009091E500841711
:10099000950709F3222311F484E008952150AC0156
:1009A000DACF80E008958091E80082FFDCCFF9CFB4
:1009B000EF92FF920F931F9352D059D008ED10E0A1
:1009C000F80180818F778083808180688083808137
:1009D0008F7D8083E7EDF0E080818068808319BCA3
:1009E0001092CB031092C7031092C9031092C80350
:1009F00080EEE82EF12CF70180818B7F8083F80157
:100A000080818160808380E060E042E346DFE1EE48
:100A1000F0E080818E7F8083E2EEF0E08081816073
:100A20008083808188608083F70180818E7F8083CE
:100A3000F8018081806180831F910F91FF90EF907A
:100A40000895E8EDF0E080818F7E8083E7EDF0E0AF
:100A500080818160808381E08093CA03A9CFE8ED23
:100A6000F0E080818C7F80831092E20008951092E4
:100A7000DA001092E10008951F920F920FB60F92C4
:100A80000BB60F9211242F933F934F935F936F9365
:100A90007F938F939F93AF93BF93EF93FF93809137
:100AA000E10082FF0AC08091E20082FF06C08091CF
:100AB000E1008B7F8093E1001ED28091DA0080FFFD
:100AC0001FC08091D80080FF1BC08091DA008E7F0C
:100AD0008093DA008091D90080FF0DC084E189BD48
:100AE00086E189BD09B400FEFDCF81E08093CB0390
:100AF0000E94E60F05C019BC1092CB030E94E30FC1
:100B00008091E10080FF18C08091E20080FF14C056
:100B10008091E2008E7F8093E2008091E20080610C
:100B20008093E2008091D80080628093D80019BC45
:100B300085E08093CB03DFD18091E10084FF2FC05B
:100B40008091E20084FF2BC084E189BD86E189BDEC
:100B500009B400FEFDCF8091D8008F7D8093D8002E
:100B60008091E1008F7E8093E1008091E2008F7E92
:100B70008093E2008091E20081608093E2008091A6
:100B8000C703882311F084E007C08091E30087FD4C
:100B900002C081E001C083E08093CB03ACD180919F
:100BA000E10083FF22C08091E20083FF1EC080919C
:100BB000E100877F8093E10082E08093CB03109275
:100BC000C7038091E1008E7F8093E1008091E20075
:100BD0008E7F8093E2008091E20080618093E2004A
:100BE00080E060E042E359DE86D1FF91EF91BF9152
:100BF000AF919F918F917F916F915F914F913F91B5
:100C00002F910F900BBE0F900FBE0F901F90189555
:100C10001F93DF93CF93CDB7DEB7AC970FB6F894A1
:100C2000DEBF0FBECDBFECECF3E08091F10081930D
:100C300023E0E43DF207C9F70E94800F8091E800AD
:100C400083FF41C18091CC033091CD03353009F44D
:100C50008DC0363040F43130E1F1313070F0333056
:100C600009F031C136C0383009F4FEC0393009F41A
:100C70000DC1363009F027C19CC0803821F0823880
:100C800009F021C108C09091C8038091C90388234D
:100C9000B1F0926014C08091D0038F70873008F05B
:100CA00012C18093E9008091EB0090E025E09695D9
:100CB00087952A95E1F7982F91701092E90080911D
:100CC000E800877F8093E8009093F1001092F10094
:100CD000D6C0882319F0823009F0F5C090E08F71FA
:100CE0009070009721F0029709F0EDC00CC0809140
:100CF000CE03813009F0E7C01092C903333081F58B
:100D00008093C9032DC08091CE03882349F520919B
:100D1000D0032F70822F8150863008F0D4C02093EA
:100D2000E9008091EB0080FF1BC0333021F48091FB
:100D3000EB00806213C08091EB0080618093EB0038
:100D400081E090E002C0880F991F2A95E2F7809316
:100D5000EA001092EA008091EB0088608093EB003B
:100D60001092E9008091E800877F8CC0882309F009
:100D7000AAC01091CE031F778091E3008078812B69
:100D80008093E3008091E800877F8093E800BDDDD9
:100D90008091E80080FFFCCF8091E3008068809321
:100DA000E300112311F482E001C083E08093CB03C0
:100DB0008AC08058823008F086C08091CE0390911E
:100DC000CF0323E08C3D920709F033C083E08C838E
:100DD0008AE28B837FB7F894DE0115966EE040E0DF
:100DE00050E011E2E62FF0E010935700849140FFAD
:100DF00003C082958F706F5F8F70282F30E08A302C
:100E000018F0C901C79602C0C901C0968D939D9381
:100E10004F5F5F4F4431510529F77FBF8091E80054
:100E2000877F8093E800CE0103966AE270E0C8DB1A
:100E300015C06091D0037091D103AE014F5F5F4F39
:100E40000E94400FBC01009709F43DC08091E8006A
:100E5000877F8093E80089819A8116DC8091E80081
:100E60008B778093E8002FC0803869F58091E80087
:100E7000877F8093E8008091C7038093F100809181
:100E8000E8008E778093E80040DD1DC08823D9F408
:100E90009091CE039230B8F48091E800877F8093E0
:100EA000E8009093C70331DD8091C703882331F4B4
:100EB0008091E30087FD02C081E001C084E080935F
:100EC000CB030E94D90F8091E80083FF0AC0809174
:100ED000E800877F8093E8008091EB008062809338
:100EE000EB00AC960FB6F894DEBF0FBECDBFCF912E
:100EF000DF911F91089508951F938091CB0388235C
:100F000071F01091E9008091EC001092E90080915D
:100F1000E80083FF01C07CDE1F701093E9001F9181
:100F200008950F931F93DF93CF93CDB7DEB76397E9
:100F30000FB6F894DEBF0FBECDBF8E010F5F1F4FFF
:100F400083E1F80111928A95E9F70E94F20FC80136
:100F500063E10E9471100E94F30F63960FB6F8943C
:100F6000DEBF0FBECDBFCF91DF911F910F910895CE
:100F700064E00C947110AF92BF92CF92DF92FF9217
:100F80000F931F93DF93CF9300D000D0CDB7DEB780
:100F90008C016B01F42E5E010894A11CB11C28C0C9
:100FA000F8016081F60181916F01682770E0660F9A
:100FB000771F660F771F68567F4FC50144E050E0EA
:100FC0000E945712F80180819181A281B381892FFB
:100FD0009A2FAB2FBB2729813A814B815C818227D5
:100FE0009327A427B52780839183A283B383FA94A0
:100FF000FF20B1F60F900F900F900F90CF91DF91DF
:101000001F910F91FF90DF90CF90BF90AF90089508
:10101000DF92EF92FF920F931F938C017B01D42EEE
:10102000CB01642F0E947110C801B7014D2DA3DFC1
:101030001F910F91FF90EF90DF9008950F931F93F2
:10104000DF93CF9300D000D0CDB7DEB78C01862FD1
:10105000F8016081682770E0660F771F660F771FC1
:1010600068567F4FCE01019644E050E00E9457122F
:10107000F80180819181A281B381892F9A2FAB2FB2
:10108000BB2729813A814B815C8182279327A42742
:10109000B52780839183A283B3830F900F900F9025
:1010A0000F90CF91DF911F910F9108950F931F9390
:1010B000DF93CF9300D0CDB7DEB78C018FEF9FEFDA
:1010C000AFEFBFEFF80180839183A283B3836A5FA0
:1010D000609569834A83CE01019662E00E94711097
:1010E000C8016981ABDFC8016A81A8DF0F900F904A
:1010F000CF91DF911F910F910895CF92DF92EF92E0
:10110000FF920F931F93DF93CF9300D000D0CDB702
:10111000DEB78C016B0166D77E010894E11CF11CDF
:10112000C70168E044E1C2DFC701B80144E070DFF5
:10113000C701B60144E06CDFC7011ADF54D70F9036
:101140000F900F900F90CF91DF911F910F91FF9013
:10115000EF90DF90CF900895EF92FF920F931F933F
:10116000DF93CF9300D000D00F92CDB7DEB77C01D4
:101170006D8338D78E010F5F1F4FC80165E042E1D4
:1011800095DFC801B70144E043DFC801BE016B5FD2
:101190007F4F41E03DDFC801EBDE25D70F900F9078
:1011A0000F900F900F90CF91DF911F910F91FF90B3
:1011B000EF900895EF92FF920F931F93DF93CF93D9
:1011C00000D000D0CDB7DEB77C010CD78E010F5F09
:1011D0001F4FC80164E041E169DFC801B70144E085
:1011E00017DFC801C5DEFFD60F900F900F900F904C
:1011F000CF91DF911F910F91FF90EF900895BF92D3
:10120000CF92DF92EF92FF920F931F93DF93CF93D2
:10121000CDB7DEB72C970FB6F894DEBF0FBECDBFAB
:10122000B82E6B0129873A874B875C87DBD6D601BE
:101230000D900020E9F77D010894E108F108EC1811
:10124000FD088E010F5F1F4F12C0C8016AE343E221
:101250002DDFC801B6014AE3DBDEC80189DE8AE37F
:1012600090E0C80ED91EA6ECBFEFEA0EFB1EBBE352
:10127000EB16F10450F78E010B5F1F4F6E2D6C5F64
:10128000C8014B2D13DFC801BE01675F7F4F44E0EB
:10129000BFDEC801B6014E2DBBDEC80169DEA3D694
:1012A0002C960FB6F894DEBF0FBECDBFCF91DF9165
:1012B0001F910F91FF90EF90DF90CF90BF90089516
:1012C000AF92BF92DF92EF92FF920F931F93DF9343
:1012D000CF9300D000D0CDB7DEB77C0183D6D70145
:1012E0000D900020E9F78D01015010400E191F09E3
:1012F0005E010894A11CB11C17C00B33110518F036
:101300006AE3D62E01C0D02EC5016D2D43E2CEDE9C
:10131000C501B7014D2D7CDEC5012ADE8D2D90E083
:10132000E80EF91E081B190B0115110531F75BD6E4
:101330000F900F900F900F90CF91DF911F910F9111
:10134000FF90EF90DF90BF90AF900895CF92DF9223
:10135000FF920F931F93DF93CF9300D000D000D064
:10136000CDB7DEB7F82E6A018A5F809589836A83DC
:101370008FEF9FEFAFEFBFEF8B839C83AD83BE8377
:1013800031D6CE01019662E0ACD68E010D5F1F4FC3
:10139000C801698153DEC8016A8150DEC6016F2D24
:1013A000A0D6C801B6014F2DE6DDC80164E099D68C
:1013B0001AD626960FB6F894DEBF0FBECDBFCF91DA
:1013C000DF911F910F91FF90DF90CF9008951F93B1
:1013D000DF93CF9300D000D00F92CDB7DEB7482F68
:1013E000809135018823A9F584ED93E061E077D6FB
:1013F000882319F4109234017AC06091D4036623D3
:1014000051F480913401813021F080E040E050E0DF
:101410009DDF81E01BC0809135018F5F8093350196
:10142000162F1095812F86508E3010F440E014C096
:101430001092350180913401823039F0198381E0B6
:1014400061E0AE014F5F5F4F81DF82E08093340146
:101450004EC01091D403109520913501822F90E059
:10146000612F621B8C529C4F3AD640913501480F38
:10147000409335014117D8F18FEF9FEFAFEFBFEFEA
:101480008A839B83AC83BD834450CE01029664ED76
:1014900073E071DDE0913501F0E0E053FC4F2A810B
:1014A0003B814C815D8180819181A281B38128172C
:1014B00039074A075B0771F01092350180913401BA
:1014C0008230A9F0198381E062E0AE014F5F5F4F87
:1014D0003DDF0DC010923401109235018091D4038C
:1014E000809586508093D40324ED33E002C020E041
:1014F00030E0C9010F900F900F900F900F90CF9197
:10150000DF911F910895DC0180913F01282F30E089
:1015100080913D01A901481B5109403451051CF03F
:10152000E0E0F0E016C02F7330708DE090E0289F6F
:10153000F001299FF00D389FF00D11248D919D91A0
:101540000D90BC91A02DE951FC4F81939193A193F3
:10155000B193CF010895EF92FF920F931F93FC0177
:1015600060913E01E080F18002811381209136017B
:101570003091370140913801509139012E193F09BE
:10158000400B510B80913D01962F981B892F90E0C5
:10159000A0E0B0E082179307A407B50798F18E2D5D
:1015A00090E08F7390702DE030E0829FF001839F78
:1015B000F00D929FF00D1124E951FC4F81E08087DE
:1015C0004DE050E01BC0822F90E08F739070849F9D
:1015D000F001859FF00D949FF00D1124E951FC4F0F
:1015E0008085882379F080913C01821721F42F5F58
:1015F00020933C0121502F5F20933D0120913D011C
:10160000261709F71F910F91FF90EF900895909181
:101610003E0180913F01981719F440E050E00FC05F
:10162000892F90E08F7390702DE030E0829FA001B1
:10163000839F500D929F500D112445515C4FCA015C
:1016400008950F931F93CF93DF93AC0190913E01C8
:1016500080913F01981739F410923B0110923A01A2
:101660000FEF1FEF56C0892F90E08F7390702DE021
:1016700030E0829FE001839FD00D929FD00D112416
:10168000C951DC4F80913A0190913B01892B31F493
:101690008C819D8190933B0180933A0180913A0126
:1016A00090913B018417950738F0841B950B90931C
:1016B0003B0180933A0104C010923B0110923A0121
:1016C00000913A0110913B010115110511F51886A1
:1016D00080913E018F5F80933E0186E391E0BE01E1
:1016E000FCD4F7D46C837D838E839F8380913601F5
:1016F00090913701A0913801B09139010196A11D57
:10170000B11D8093360190933701A0933801B093B7
:101710003901C801DF91CF911F910F9108958F92E8
:101720009F92AF92BF92CF92DF92EF92FF920F9370
:101730001F93DF93CF9300D000D0CDB7DEB7909149
:101740003D0180913E01981711F420E05FC0C1D4A3
:101750006B017C0130913E0140E06DE070E046C0DD
:10176000822F90E08F739070869F8001879F100D6D
:10177000969F100D112409511C4FF8018085882374
:1017800089F484819581A681B78146015701881A21
:10179000990AAA0ABB0AD501C40180519742A04008
:1017A000B04038F44F5F2F5F20933C014031F1F49B
:1017B00022C0321B8091360190913701A0913801EF
:1017C000B0913901831B9109A109B10989839A83D9
:1017D000AB83BC83CE010196B8017FD47AD4F801E3
:1017E000648375838683978321E006C020913C0142
:1017F000231709F0B5CF20E090913C0180913E0184
:10180000981721F480913D0180933C01822F0F9025
:101810000F900F900F90CF91DF911F910F91FF903C
:10182000EF90DF90CF90BF90AF909F908F900895F2
:101830008091360180933D0180933E0180933F016A
:1018400080933C0148C490913E0180913F019817DC
:1018500029F441D410923B0110923A0180913F014A
:101860008F5F80933F010895DF92EF92FF920F9375
:101870001F93DF93CF9300D000D00F92CDB7DEB788
:101880007C01FC012181203478F41FD4882319F0D5
:10189000833009F0A8C0F7018081898381E061E08D
:1018A000AE014F5F5F4F27C0FC0182819381A4810D
:1018B000B5818A839B83AC83BD832034F1F4E7E256
:1018C000F7E01082759689E0E73CF807D1F78A8146
:1018D0009B81AC81BD810196A11DB11D809340010A
:1018E00090934101A0934201B093430184E061E1F0
:1018F000AE014E5F5F4F2ADD76C02A813B814C816D
:101900005D818091400190914101A0914201B0918F
:101910004301281B390B4A0B5B0B57FF03C0DD2427
:10192000D3941AC0211531054105510511F4DD2468
:1019300013C0203231054105510510F080E054C03C
:10194000213031054105510529F484E065E040E48A
:1019500051E0FCDC82E0D82EC7016D2D45D3482F25
:101960008A8191E0D91609F43EC090E08F719070A1
:1019700025E130E0829F8001839F100D929F100D22
:101980001124095D184F423041F4D801F70185E177
:1019900001900D928150E1F726C0433049F4F701E0
:1019A0008081898381E061E0AE014F5F5F4FCEDCD3
:1019B000DD20B1F4F8011082809140019091410145
:1019C000A0914201B09143010196A11DB11D8093E8
:1019D000400190934101A0934201B093430103C0A1
:1019E0008FEFF801808381E00F900F900F900F90A0
:1019F0000F90CF91DF911F910F91FF90EF90DF90AB
:101A00000895CF93DF938091400190E08F719070A3
:101A100025E130E0829FE001839FD00D929FD00DA1
:101A20001124C95DD84F88818F3F39F08823D9F0C0
:101A3000CE0160E0D9D28230B1F0188280914001AD
:101A400090914101A0914201B09143010196A11DE5
:101A5000B11D8093400190934101A0934201B09346
:101A6000430181E001C080E0DF91CF910895AFDCB8
:101A7000009719F0F9DE882321F4C3DF882309F4E5
:101A80004ECE81E00895EF92FF921F93CF93DF93A4
:101A9000EC017B01142FAB014E5F5F4F84E060E1EE
:101AA00055DC123011F0113021F4188320E030E0C1
:101AB00011C080914401882319F0BADE10924401CC
:101AC000C701029620DD9C01009711F482E001C05D
:101AD00081E08883C901DF91CF911F91FF90EF9042
:101AE0000895FF920F931F93DF93CF9300D000D000
:101AF000CDB7DEB78C01F62EFC0181818434A1F1D3
:101B0000853438F48234C9F0833428F5813449F4BB
:101B10000AC0873409F44FC08834B1F1863409F41F
:101B20003CC080E05DC0F8018081843009F053C082
:101B30008FE19CEFA3EBB8E709C0F8018081843006
:101B400009F049C08CEC99E2A4EBB8E789839A8349
:101B5000AB83BC8312C0F8018081843009F03BC0A4
:101B6000C801029665E017C0F8018081843099F5BC
:101B7000AED269837A838B839C83C8010296BE01AF
:101B80006F5F7F4FBADA2BC0F8018081843019F57E
:101B9000C801029660E4E0DA22C0F8018081843056
:101BA000D1F4C801029606DBF2E0FF16B1F0FF2087
:101BB000B1F43EDE14C0F8018081843061F4C801C4
:101BC0000296F8DAF2E0FF1641F0FF2041F481E0DE
:101BD0008093440105C083E003C082E001C081E03E
:101BE0000F900F900F900F90CF91DF911F910F9159
:101BF000FF900895FC018181833018F4813038F41E
:101C000007C0843021F0813129F080E0089589D91E
:101C100081E008958081843011F083E00895CF0140
:101C2000029699DC81E00895CF92DF92EF92FF92C5
:101C30000F931F93DF93CF93CDB7DEB728970FB6DF
:101C4000F894DEBF0FBECDBF7C016B01CBD18E01FE
:101C50000F5F1F4FC8016CE045E428DAC801B701E7
:101C600044E0D6D9C801B60144E0D2D930D26D8360
:101C70007E838F839887C801BE016B5F7F4F44E0EE
:101C8000C7D9C80175D9AFD128960FB6F894DEBF71
:101C90000FBECDBFCF91DF911F910F91FF90EF90BD
:101CA000DF90CF900895F89478946091C70970916F
:101CB000C8098091C9099091CA090895F89485B519
:101CC000816085BD16BCEEE6F0E080818160808396
:101CD0001092C7091092C8091092C9091092CA0936
:101CE000789408951F920F920FB60F9211248F933C
:101CF0009F93AF93BF938091C7099091C809A0911A
:101D0000C909B091CA090296A11DB11D8093C709E6
:101D10009093C809A093C909B093CA09BF91AF9124
:101D20009F918F910F900FBE0F901F901895F89470
:101D300080E190E09093CD008093CC0082E080938E
:101D4000C80088E98093C90086E08093CA00109299
:101D5000590180915901809358011092BB038091E1
:101D6000BB038093BA03789408951F920F920FB625
:101D70000F920BB60F9211248F939F93EF93FF93C3
:101D80009091580180915901981721F488E9809326
:101D9000C9000FC0909159019F5F933108F090E006
:101DA000E92FF0E0EB5BFE4F80818093CE009093B3
:101DB0005901FF91EF919F918F910F900BBE0F9062
:101DC0000FBE0F901F9018951F920F920FB60F9293
:101DD0000BB60F9211242F938F939F93EF93FF9342
:101DE0002091CE009091BA039F5F8091BB0398171A
:101DF00039F0E92FF0E0E65AFE4F20839093BA03C2
:101E0000FF91EF919F918F912F910F900BBE0F90AB
:101E10000FBE0F901F901895DC0128EB15C0909114
:101E200058019F5F933108F090E080915901891724
:101E3000E1F3E92FF0E08D91EB5BFE4F808390930F
:101E400058012093C9006150662349F70895DC01C9
:101E500020E012C09091BA038091BB03981771F0F3
:101E60008091BB038F5FE82FF0E0E65AFE4F908130
:101E70009D938093BB032F5F261760F3822F0895F5
:101E8000DA019330B1F0943028F4913041F092307F
:101E900079F50AC0913211F1923251F524C0ECE08B
:101EA000F5E022E130E028C0EEE1F5E029E230E0A3
:101EB00023C0813049F0813018F08230C9F40AC063
:101EC000E7E4F5E0849103C0EBE4F5E08491282F8A
:101ED00030E012C0E9E6F5E08491F9CFE0E3F5E007
:101EE00029E030E009C0E8E9F4E024E730E004C08C
:101EF000E0E0F0E020E030E0ED93FC93C9010895CC
:101F00000895DF93CF93CDB7DEB727970FB6F89438
:101F1000DEBF0FBECDBF0E947C078091CB03843013
:101F2000F1F482E08093E9008091E80082FD17C01F
:101F30008091E80085FF0AC0CE01019667E070E05D
:101F400040E050E00E94A903882349F48091E80012
:101F50008B778093E8000E947C0781E001C080E0DD
:101F600027960FB6F894DEBF0FBECDBFCF91DF919D
:101F700008959C018091CB038430C9F481E0809363
:101F8000E9008091E80080FF12C0C90168E070E0BC
:101F900040E050E00E94FB03882349F48091E80070
:101FA0008E778093E8000E947C0781E0089580E0AE
:101FB000089582E060EC42E30E944D0481E061EC10
:101FC00042E30C944D0480E091E07AC98BE091E00B
:101FD00077C947E050E074D29C0180E0232B09F4DC
:101FE00081E0089508950895FF920F931F93DF9362
:101FF000CF9300D000D0CDB7DEB78C01F62E71DDC7
:10200000882309F058C0F8019181903559F0903932
:10201000B9F1993409F04FC0F8018081843009F09A
:1020200049C019C0F8018081843009F043C0198289
:102030001A821B821C828091CB03843018F4823078
:1020400050F404C0843061F0853091F419821A8212
:102050001B821C820DC081E090E0A0E0B0E004C0D3
:1020600083E090E0A0E0B0E089839A83AB83BC83F7
:10207000C8010296BE016F5F7F4F3FD881E01BC051
:10208000F80180818D30B1F486819781892B91F0A0
:10209000CE010196B8014F2DF6DC009749F0DC0126
:1020A000F801369689E001900D928150E1F7CBDB83
:1020B000898101C083E00F900F900F900F90CF9116
:1020C000DF911F910F91FF90089594CD0895EBCD6E
:1020D0000895E9CD089507C00895A6CD0895B7CE17
:1020E00008959ACE0895DFDD6093C0037093C10315
:1020F0008093C2039093C3031092C5031092C4034C
:1021000081E08093320108950F931F93DF93CF9363
:10211000CDB7DEB728970FB6F894DEBF0FBECDBFA0
:102120008C01DE011196EAE1F1E087E001900D9269
:102130008150E1F71886F80180819181A281B381F5
:102140008093BC039093BD03A093BE03B093BF03E1
:10215000CE0101960EDF882361F181E08093320188
:102160008091C603882341F1F801208131814281A9
:1021700053818091C0039091C103A091C203B0919B
:10218000C303281B390B4A0B5B0B84E261E271E04D
:1021900036D81092C603F80180819181A281B38163
:1021A0008093C0039093C103A093C203B093C30371
:1021B00003C081E08093C60328960FB6F894DEBF73
:1021C0000FBECDBFCF91DF911F910F9108950F9357
:1021D0001F938091C4039091C50333DA8C01BC0135
:1021E00080E090E02DE730E040E050E041D12091E8
:1021F000C0033091C1034091C2035091C303260F25
:10220000371F481F591F2093C0033093C1034093C9
:10221000C2035093C3031093C5030093C4031F91DB
:102220000F910895F4D9009719F423E131E003C028
:102230009C012E5F3F4FC90108952F923F924F920C
:102240005F926F927F928F929F92AF92BF92CF9246
:10225000DF92EF92FF920F931F93DF93CF9300D003
:1022600000D0CDB7DEB71FDD6093C0037093C1030C
:102270008093C2039093C3036452744F8040904094
:102280006093BC037093BD038093BE039093BF0320
:102290007E010894E11CF11C94ED692E90E3792EE7
:1022A000812C912C8CEDA82E8BE0B82E8FEFC82EB0
:1022B0008FEFD82EF8DC9B01AC0169837A838B8386
:1022C0009C8380913201882321F41BDE80E0CFDBE8
:1022D0006EC08091C0039091C103A091C203B091E0
:1022E000C30319012A01281A390A4A0A5B0AC201E2
:1022F000B10157FC20C096DF182F092F8AE191E029
:10230000612F702F66DE882379F4AAE1B1E0812F76
:10231000902F9C01F90187E001900D928150E1F727
:1023200010923201C701F0DE80913201882309F456
:10233000C1CF4DDFBFCF63587F4F8F4F9F4F97FF68
:10234000B9CFDFDD80E093DBAEDC9B01AC016983BC
:102350007A838B839C838091C0039091C103A09169
:10236000C203B091C30313012401281A390A4A0A8F
:102370005B0AD201C101820F931FA41FB51FB7FFD3
:1023800099CF8091BC039091BD03A091BE03B09101
:10239000BF0315012601281A390A4A0A5B0AD2012D
:1023A000C101820F931FA41FB51FB7FD83CFC701C3
:1023B000ABDE80CF882311F05E9A08955E98089571
:1023C000EF92FF920F931F93CF93DF9384B7877F92
:1023D00084BF88E10FB6F89480936000109260008B
:1023E0000FBE80E88093610010926100569A80E0F1
:1023F000E1DF64DC9CDC0E9421057894C0E0D0E041
:1024000081E0D8DF50DC7B018C0104C080E02FDB51
:102410000E947C0748DC6E197F09800B910B685A7B
:1024200071468040904090F380E0C4DF3CDC7B014B
:102430008C0104C080E01BDB0E947C0734DC6E1939
:102440007F09800B910B685A71468040904090F351
:102450002196CA30D105A1F680E0ACDFEEDE80E047
:1024600090E0DF91CF911F910F91FF90EF90089531
:10247000629FD001739FF001829FE00DF11D649F68
:10248000E00DF11D929FF00D839FF00D749FF00DF4
:10249000659FF00D9927729FB00DE11DF91F639F95
:1024A000B00DE11DF91FBD01CF0111240895FB01FD
:1024B000DC0102C005900D9241505040D8F70895BC
:1024C000FB01DC0104C08D910190801921F4415081
:0E24D0005040C8F7881B990B0895F894FFCF71
:1024DE00446973636F6E6E65637400436F6E6E65F1
:1024EE006374000000088080808000000880808077
:1024FE00805363686564756C652044656C617965AD
:04250E006400010064
:00000001FF
