:10000000E5C2000000C30000FEC20000FCC2000008
:10001000FAC20000F8C20000F6C20000F4C20000FC
:10002000F2C20000F0C2000060C50000ECC2000097
:10003000EAC20000E8C20000E6C20000E4C200001C
:10004000E2C20000E0C20000DEC20000DCC200002C
:10005000DAC20000D8C20000D6C20000D4C200003C
:10006000D2C200000C94CC080C94A108CCC20000B1
:10007000CAC20000C8C20000C6C20000C4C200005C
:10008000C2C20000C0C20000BEC20000BCC200006C
:10009000BAC20000B8C20000B6C20000B4C200007C
:1000A000B2C20000B0C20000AEC2000000000000FA
:1000B00003836BF2F7703BE1F4F350131F979AC779
:1000C0001C14F135E8E7A126EB64CAD4CF58D98ACD
:1000D000CCDBB2783828E26B3BAB8999D0CF434D6B
:1000E000D34C28BF27BF78AC243C135E6FC75E108B
:1000F0006C4435E298B765F19B340E037050C4D759
:1001000073D3AF258720FF3684A394C4A09F879A1A
:10011000A31CEC6857EFBC7B546CD789BF081D5DEE
:10012000BC8B76AF487826BC4BFB4D4EDE8EBD2097
:10013000DD0DD6D229FE86C12A7DED33C11927E710
:10014000C29A4C1536691C0635EA77F411D664AAB2
:1001500012550F58E6A65F4BE52534B90E41FE6DEA
:100160000DC2959FF931C58CFAB2AE7EB149E3302C
:10017000B2CA88C24639D8D145BAB323AEDE79F7C0
:10018000AD5D120559AE42165A2D29E47E113ABAD8
:100190007D9251488961015B8AE26AA96186A07DEE
:1001A0006205CB8F96F69B9C9575F06EBC1D7B41CE
:1001B000BF9E10B34B6D40A048EE2B52A38AE18640
:1001C000A0098A7454FADA675779B1957345A2CBBE
:1001D00070C6C9398435992A87B6F2D86CD2380CE2
:1001E0006F5153FE9BA203ED9821681FD3DA25516E
:1001F000D0594EA324AA1EB027297542CC4DBF96D4
:10020000CFCED4643B3D847738BEEF851C82FCDBC7
:100210001F019729EBF2C73AE871ACC80315661CB9
:1002200000960DEEF4655DFDF7E6360F6293C6614C
:100230006110AD9395E3FD80966096727D045CA697
:100240007E8737548A74674789F70CB5ADCB1FEBAF
:10025000AE4874195ABB240A59384FF8B25C852C41
:10026000B1DFEEDE452CBECD46AFD53F0D549871C3
:100270000ED7F383FA24A390F9A7C86212C302B67B
:1002800011406944E5B33957E63052A5C20C41FB31
:10029000C18F2A09357C7A1A36FF11E8DD9BDB3CD9
:1002A000DE18B0CE2AEBE0DD29688B2F783BF68292
:1002B0007BB89D708F4BCD638CC8A69167AC6C45A5
:1002C000642F07B790DC57A4935F3C56B7632F08A1
:1002D000B4E044FA401314E943907F1BA8F4B5CF6F
:1002E000AB77DE3D5F848E2E5C07E5DC17FCA892C1
:1002F000147FC360E08C9373E30FF881086B325571
:100300000BE859A7FF1B09B4FC986246D8A47118E2
:10031000DB271AEA2FD44AF92C57210BC733EBDF1E
:10032000C4B0802D3043D03E33C0BBCCA6B54BA269
:10033000A536205051C5704352461BB1B922D16534
:10034000BAA1BA974E52EA844DD1817669ED9228CE
:100350006A6EF9DA9E9DA9C99D1EC23B767A08EFA6
:1003600075F9631D810A330E828958FCC97215B272
:10037000CAF17E403E022E533D8145A1D6E58F75E0
:10038000D566E4872195B4942216DF66062ACC3818
:1003900005A9A7CAF15AF7D9F2D99C2B19BD56FF66
:1003A0001A3E3D0DEECD6D1EED4E06ECC4268DC3FE
:1003B000C7A5E6313356B62230D5DDD0DBB1170400
:1003C000D8327CF62CC12CE52F4247170B7E5449BE
:1003D00008FD3FBBFC0E6FA8FF8D045A14E9CE8EBA
:1003E000176AA57CE399F56FE01A9E9DABE1D3D324
:1003F000A862B8215C91E8325F1283C0B4764914D8
:10040000B7F522E6430672F54085190764B90A5923
:10041000673A61AB93C931B8904A5A4A7B2E909E95
:1004200078ADFB6C8C5EAB7F8FDDC08D1AA830E39E
:10043000192B5B11EDD80B02EE5B60F0053FAA248F
:1004400006BCC1D6F24F91C5F1CCFA37D5F0E969B7
:10045000D673829B2280D2882103B97ACA6773AE91
:10046000C9E4185C3D17484F3E9423BD756F6EF389
:1004700076EC0501821F5512819C3EE06AF8F43447
:10048000697B9FC69D88CFD59E0BA427BA37B779C5
:10049000B9B4DC8B4D478C984EC4E76AA5A02DBE3D
:1004A000A623464C52D0165F51537DAD0501090578
:1004B000A1011500250135004501750195100509BB
:1004C00019012910810205012507463B0175049594
:1004D0000165140939814265009501810126FF00FB
:1004E00046FF000930093109320935750895048144
:1004F000020600FF0920950181020A212695089134
:1005000002C012010002000000400D0F9200000125
:10051000010200010902290001010080FA0904001A
:10052000000203000000092111010001225600070A
:100530000502034000080705810340000804030981
:10054000041C0348004F0052004900200043004FA4
:10055000002E002C004C00540044002E000000240B
:100560000350004F004B004B0045004E002000435D
:10057000004F004E00540052004F004C004C00450C
:100580000052000000D5738162EED5E1EB87FB32AB
:1005900090FD4C66EF8B83F4D8CD3598F89A070818
:1005A000C5E3DEEF34208E99125EC41094D3948A92
:1005B0000D8A77CD128360E601000102000102007E
:1005C00001020300000001010102020211241FBE0A
:1005D000CFEFDAE0DEBFCDBF11E0A0E0B1E0E2E7AF
:1005E000FDE302C005900D92A435B107D9F712E0E2
:1005F000A4E5B1E001C01D92AA36B107E1F70E945F
:1006000053130C94B71EFCCC882319F028985D98DE
:100610000895289A5D9A0895209A559A80E0F4CF1B
:100620009C0140910C0250910D024617570718F497
:10063000F90190E043C06115710511F0AB01F8CFED
:100640008091E8008E778093E80040E050E0F0CFA2
:1006500080910502882309F447C0853009F446C01B
:100660008091E80083FD44C08091E80082FD36C09F
:100670008091E80080FF22C08091F3009091F20009
:10068000782F60E0292F30E0262B372B07C081918F
:100690008093F100415050402F5F3F4F411551056D
:1006A00019F02034310598F390E02034310509F435
:1006B00091E08091E8008E778093E8004115510524
:1006C00039F6992329F60AC080910502882361F042
:1006D000853061F08091E80083FD0AC08091E800D8
:1006E00082FFF2CF80E0089582E0089583E00895CC
:1006F00081E008959C0140910C0250910D02461733
:10070000570718F4F90190E044C06115710511F024
:10071000AB01F8CF8091E8008E778093E80040E04D
:1007200050E0F0CF80910502882309F448C085305D
:1007300009F447C08091E80083FD45C08091E8003E
:1007400082FD37C08091E80080FF23C08091F300D4
:100750009091F200782F60E0292F30E0262B372B84
:1007600008C084918093F1003196415050402F5F32
:100770003F4F4115510519F02034310590F390E0B9
:100780002034310509F491E08091E8008E77809360
:10079000E8004115510531F6992321F60AC08091F0
:1007A0000502882361F0853061F08091E80083FDC7
:1007B0000AC08091E80082FFF2CF80E0089582E0D5
:1007C000089583E0089581E00895BF92CF92DF926B
:1007D000EF92FF920F931F93CF93DF93182F092F60
:1007E0007B016A01EFD0B82E8823B1F5812F902FBD
:1007F0009C01E901C114D10439F0F6018081918195
:10080000E81AF90AC80FD91F00E010E022C0809151
:10081000E80085FD16C08091E8008B778093E800A2
:100820009BD3C114D10449F0F60180819181800FDE
:10083000911F9183808385E010C0C4D0882349F044
:100840000CC08091F10089930894E108F1080F5FD2
:100850001F4FE114F104D9F68B2DDF91CF911F9139
:100860000F91FF90EF90DF90CF90BF900895BF92CF
:10087000CF92DF92EF92FF920F931F93CF93DF936C
:10088000182F092F7B016A019DD0B82E8823B1F55E
:10089000812F902F9C01E901C114D10439F0F60198
:1008A00080819181E81AF90AC80FD91F00E010E091
:1008B00022C08091E80085FD16C08091E8008E7707
:1008C0008093E80049D3C114D10449F0F601808136
:1008D0009181800F911F9183808385E010C072D039
:1008E000882349F00CC089918093F1000894E108B5
:1008F000F1080F5F1F4FE114F104D9F68B2DDF9142
:10090000CF911F910F91FF90EF90DF90CF90BF900C
:100910000895382F282F2EC0822F8F708093E900E2
:10092000231721F4762F942F50E006C07091EC002D
:100930009091ED005091F00091FF1BC08091EB0071
:100940008E7F8093EB008091ED008D7F8093ED0092
:100950008091EB0081608093EB007093EC009093AA
:10096000ED005093F0008091EE0087FD02C080E022
:1009700008952F5F273080F23F703093E90081E0C7
:1009800008958091060288239CF404C0809105029A
:100990008823B9F08091E80082FFF8CF8091E800C9
:1009A0008B778093E800089580910502882349F0B1
:1009B0008091E80080FFF8CF8091E8008E778093E7
:1009C000E80008954091E4005091E50024E680910C
:1009D000EC0080FF24C08091E80080FD1EC0809163
:1009E0000502882311F482E00895853011F483E034
:1009F00008958091EB0085FF02C081E00895809109
:100A0000E4009091E5008417950709F3222311F47F
:100A100084E008952150AC01DACF80E00895809100
:100A2000E80082FFDCCFF9CFEF92FF920F931F9384
:100A30004FD056D008ED10E0F80180818F77808389
:100A400080818068808380818F7D808319BC109233
:100A5000050210920102109203021092020280EE2F
:100A6000E82EF12CF70180818B7F8083F801808153
:100A70008160808380E060E042E34BDFE1EEF0E004
:100A800080818E7F8083E2EEF0E0808181608083D0
:100A9000808188608083F70180818E7F8083F80168
:100AA0008081806180831F910F91FF90EF90089566
:100AB000E8EDF0E080818F7E8083E7EDF0E08081DB
:100AC0008160808384E082BF81E080930402ACCFA8
:100AD000E8EDF0E080818E7F80831092E20008953F
:100AE0001092DA001092E10008951F920F920FB653
:100AF0000F9211242F933F934F935F936F937F93A4
:100B00008F939F93AF93BF93EF93FF938091E100F7
:100B100082FF0AC08091E20082FF06C08091E1005E
:100B20008B7F8093E10017D28091DA0080FF1DC097
:100B30008091D80080FF19C08091DA008E7F809369
:100B4000DA008091D90080FF0CC080E189BD82E18C
:100B500089BD09B400FEFDCF81E0809305028CD3EE
:100B600004C019BC1092050288D38091E10080FF77
:100B700018C08091E20080FF14C08091E2008E7F57
:100B80008093E2008091E20080618093E200809196
:100B9000D80080628093D80019BC85E0809305025C
:100BA000DAD18091E10084FF2FC08091E20084FFC0
:100BB0002BC080E189BD82E189BD09B400FEFDCF73
:100BC0008091D8008F7D8093D8008091E1008F7E46
:100BD0008093E1008091E2008F7E8093E20080911B
:100BE000E20081608093E20080910102882311F08D
:100BF00084E007C08091E30087FD02C081E001C06E
:100C000083E080930502A7D18091E10083FF22C099
:100C10008091E20083FF1EC08091E100877F809376
:100C2000E10082E080930502109201028091E100D0
:100C30008E7F8093E1008091E2008E7F8093E200BE
:100C40008091E20080618093E20080E060E042E316
:100C500060DE81D1FF91EF91BF91AF919F918F9114
:100C60007F916F915F914F913F912F910F900FBEA8
:100C70000F901F9018951F93DF93CF93CDB7DEB7DA
:100C8000AC970FB6F894DEBF0FBECDBFE6E0F2E042
:100C90008091F100819322E0EE30F207C9F7EED2A5
:100CA0008091E80083FF3FC18091060230910702E6
:100CB000353009F48DC0363040F43130E1F1313057
:100CC00070F0333009F02FC136C0383009F4FDC060
:100CD000393009F40CC1363009F025C19CC0803888
:100CE00021F0823809F01FC108C090910202809162
:100CF00003028823B1F0926014C080910A028F70C1
:100D0000873008F010C18093E9008091EB0090E0FB
:100D100025E0969587952A95E1F7982F9170109286
:100D2000E9008091E800877F8093E8009093F100CC
:100D30001092F100D5C0882319F0823009F0F3C079
:100D400090E08F719070009721F0029709F0EBC04E
:100D50000CC080910802813009F0E5C010920302B6
:100D6000333081F5809303022DC0809108028823DF
:100D700049F520910A022F70822F8150863008F0A9
:100D8000D2C02093E9008091EB0080FF1BC033307C
:100D900021F48091EB00806213C08091EB008061B0
:100DA0008093EB0081E090E002C0880F991F2A95A4
:100DB000E2F78093EA001092EA008091EB008860ED
:100DC0008093EB001092E9008091E800877F8BC050
:100DD000882309F0A8C0109108021F778091E300D2
:100DE0008078812B8093E3008091E800877F809357
:100DF000E800C7DD8091E80080FFFCCF8091E30030
:100E000080688093E300112311F482E001C083E045
:100E10008093050288C08058823008F084C0809199
:100E200008029091090223E08C3D920709F033C03B
:100E300083E08C838AE28B837FB7F894DE0115967A
:100E40006EE040E050E011E2E62FF0E01093570032
:100E5000849140FF03C082958F706F5F8F70282F41
:100E600030E08A3018F0C901C79602C0C901C096A7
:100E70008D939D934F5F5F4F4431510529F77FBF9D
:100E80008091E800877F8093E800CE0103966AE2B4
:100E900070E0C6DB14C060910A0270910B02AE01D3
:100EA0004F5F5F4FA0D1BC01009709F43CC0809117
:100EB000E800877F8093E80089819A811BDC80911C
:100EC000E8008B778093E8002EC0803861F5809130
:100ED000E800877F8093E800809101028093F10011
:100EE0008091E8008E778093E8004BDD1CC088235A
:100EF000D1F4909108029230B0F48091E800877F9D
:100F00008093E800909301023CDD809101028823E8
:100F100031F48091E30087FD02C081E001C084E0EC
:100F2000809305021AD28091E80083FF0AC0809165
:100F3000E800877F8093E8008091EB0080628093D7
:100F4000EB00AC960FB6F894DEBF0FBECDBFCF91CD
:100F5000DF911F91089508951F93809105028823C2
:100F600071F01091E9008091EC001092E9008091FD
:100F7000E80083FF01C07FDE1F701093E9001F911E
:100F8000089581E041CB48CB08956F927F928F9274
:100F90009F92AF92BF92CF92DF92EF92FF920F9308
:100FA0001F93DF93CF9300D000D0CDB7DEB77B0186
:100FB0008C014A015901CC24DD243E010894611CB6
:100FC000711C20C0F401EC0DFD1D60816E2570E0E8
:100FD000660F771F660F771F64557F4FC30144E08C
:100FE00050E00E94A51EEF2CF02E012F11278981C1
:100FF0009A81AB81BC81E826F9260A271B27089431
:10100000C11CD11CCA14DB04E8F2B701C8010F905F
:101010000F900F900F90CF91DF911F910F91FF9044
:10102000EF90DF90CF90BF90AF909F908F907F9088
:101030006F900895EF92FF920F931F937C018B01A5
:10104000045010406FEF7FEF8FEF9FEFA7019801E3
:101050009CDF0E0D1F1DF8016083718382839383D3
:101060001F910F91FF90EF9008959B01AC01F894B0
:1010700060E079E08DE390E00E94831E21503040D3
:101080004040504056954795379527953093CD0071
:101090002093CC0082E08093C80088E98093C90047
:1010A00086E08093CA001092670180916701809367
:1010B00066011092B1018091B1018093B0017894E2
:1010C0000895909166019F5F923108F090E08091C1
:1010D000670120E0891321E0822F0895282F909145
:1010E00066019F5F923108F090E080916701891757
:1010F000E1F3E92FF0E0EC5AFE4F20839093660174
:1011000088EB8093C90008959091B0018091B1015E
:1011100020E0981321E0822F08959091B0018091F2
:10112000B1019817D1F39091B1019F5F983408F005
:1011300090E0E92FF0E0E859FE4F80819093B101F3
:1011400008951F920F920FB60F9211248F939F93C1
:10115000EF93FF939091660180916701981721F4B6
:1011600088E98093C9000FC0909167019F5F923119
:1011700008F090E0E92FF0E0EC5AFE4F8081809378
:10118000CE0090936701FF91EF919F918F910F9007
:101190000FBE0F901F9018951F920F920FB60F92CF
:1011A00011242F938F939F93EF93FF932091CE0061
:1011B0009091B0019F5F983408F090E08091B10168
:1011C000981739F0E92FF0E0E859FE4F208390930B
:1011D000B001FF91EF919F918F912F910F900FBED2
:1011E0000F901F901895DA019330B1F0943028F4E5
:1011F000913041F0923079F50AC0913211F192327A
:1012000051F524C0E2E0F5E022E130E028C0E4E15D
:10121000F5E029E230E023C0813049F0813018F058
:101220008230C9F40AC0EDE3F5E0849103C0E1E443
:10123000F5E08491282F30E012C0EFE5F5E08491CD
:10124000F9CFE6E2F5E029E030E009C0ECEAF4E0AD
:1012500026E530E004C0E0E0F0E020E030E0ED938F
:10126000FC93C90108956091B2017091B30180911E
:10127000B4019091B50108950895089508956CCE34
:1012800008950F931F93DF93CF93CDB7DEB72F97BA
:101290000FB6F894DEBF0FBECDBF288739874A87C7
:1012A0005B876C877D878E879F878091050284305E
:1012B00009F047C082E08093E9008091E80082FF56
:1012C00014C08091E80085FF0BC08E010F5F1F4F97
:1012D000C80167E070E040E050E077DA8823C1F7AA
:1012E0008091E8008B778093E80081E08093E900AB
:1012F0008091E80080FF25C08E01085F1F4FC80164
:1013000068E070E040E050E0B2DA8823C1F78091F5
:10131000E8008E778093E8008091B2019091B3014C
:10132000A091B401B091B5010196A11DB11D8093AA
:10133000B2019093B301A093B401B093B50181E0E1
:1013400001C080E02F960FB6F894DEBF0FBECDBF70
:10135000CF91DF911F910F91089582E060EC42E3FD
:10136000D8DA81E061EC42E3D4CA9091BB0180916C
:10137000BC01891719F420E030E010C0892F90E0FB
:1013800083709070880F991F9C0143E0220F331FD8
:101390004A95E1F7281B390B225F3D4FC90108959B
:1013A0000F931F93CF93DF938091C401882309F09B
:1013B00043C08091BB0190E083709070880F991FAB
:1013C000FC0163E0EE0FFF1F6A95E1F7E81BF90BE4
:1013D000E25FFD4F8DEE808385E481838F010E5F98
:1013E0001F4F82819381A481B581E8018C839D8305
:1013F000AE83BF8380913D0190913E01A0913F015A
:10140000B091400182839383A483B5830196A11D8B
:10141000B11D80933D0190933E01A0933F01B09395
:10142000400121DFF801608771878287938780916F
:10143000BB018F5F8093BB01DF91CF911F910F9113
:101440000895CF93DF93EC010EDF6093B6017093A4
:10145000B7018093B8019093B9016091BA0180916E
:10146000BB01861701F1862F90E083709070FC011C
:10147000B3E0EE0FFF1FBA95E1F7E81BF90BEE0F93
:10148000FF1FE05FFD4F288139814A815B818081A8
:101490009181A281B381281739074A075B0719F4A4
:1014A0006F5F6093BA01DF91CF910895481711F4EF
:1014B00080E00895842F1FD181E008950F931F933A
:1014C0008C011092BA011092BB011092BC011092D3
:1014D000BD01AFD4F8016081718182819381A9D06F
:1014E0001F910F910895FC012091BC01622F70E0C3
:1014F0008091BA01AB01481B51094430510514F0E9
:1015000080E008954081409544502F5F2093BC01B6
:10151000CB0183709070880F991F9C0153E0220FBC
:10152000331F5A95E1F7281B390B225F3D4FC90144
:10153000BF0150E00E94AE1E81E008959091BB0172
:101540008091BA01981709F440C02091BD01291774
:1015500021F12F5F2093BD01215030E023703070C6
:10156000220F331FC90173E0880F991F7A95E1F7A5
:10157000821B930B825F9D4FA4D19091BD018091FE
:10158000BB01981701F56FDE6093B6017093B70148
:101590008093B8019093B90116C065DE2091B60121
:1015A0003091B7014091B8015091B901621B730BA2
:1015B000840B950B605872408040904030F08091D1
:1015C000BA018093BD0181E0089580E008956A5FCB
:1015D0006093C001962F90959093460280934702A6
:1015E00086E492E070E026CDEF92FF920F931F9376
:1015F0007B018C018091C001882311F080E014C030
:10160000E0924802F092490200934A0210934B0282
:1016100020934C0230934D0240934E0250934F0260
:1016200084E168E0D4DF81E01F910F91FF90EF909B
:1016300008959B01AC018091C001882311F080E0E6
:101640000895209348023093490240934A025093F0
:101650004B0281E164E0BBDF81E008959B01AC01B6
:101660008091C001882311F080E008952093480202
:101670003093490240934A0250934B0280E164E068
:10168000A6DF81E008959C018091C001882311F0BC
:1016900080E00895309349022093480287E062E099
:1016A00096DF81E008956093480270934902809329
:1016B0004A0290934B0286E064E089DF81E008955E
:1016C000609348027093490280934A0290934B02C0
:1016D00085E064E07CDF81E008958093480283E048
:1016E00061E075DF81E008958093480282E061E067
:1016F0006EDF81E008958093480281E061E067DF5A
:1017000081E008958091C001882311F080E0089560
:1017100080E060E05CDF81E00895EF92FF920F933C
:101720001F93FB01833409F470C0843440F4813486
:1017300031F1823408F040C0803439F408C0843478
:1017400009F484C0863409F48EC080E096C0443029
:1017500009F08BC080819181A281B3810196A11D86
:10176000B11D8093410190934201A0934301B09336
:10177000440160817181828193815BDF7DC044304F
:1017800009F073C08EE08093C00181EF8093460220
:1017900084E18093470280819181A281B38180930B
:1017A000480290934902A0934A02B0934B028BE007
:1017B00091E8A6E7B8E71CC0443009F056C08EE0B7
:1017C0008093C00181EF8093460284E180934702B9
:1017D00080819181A281B3818093480290934902D4
:1017E000A0934A02B0934B0288EE98ECA6E7B8E7C4
:1017F00080934C0290934D02A0934E02B0934F02FF
:1018000086E492E06EE070E01FC0443071F58BE03A
:101810008093C00184EF8093460282E18093470267
:1018200080819181A281B381809348029093490283
:10183000A0934A02B0934B028091BE0180934C0268
:1018400086E492E06BE070E0F5DB16C0443069F4AA
:10185000E080F1800281138106DD9B01AC01C801AB
:10186000B701C2DE09C0443019F0842F44DF04C040
:10187000222311F0CB0122DE81E01F910F91FF9016
:10188000EF900895833018F4813038F414C0843018
:1018900021F0813161F080E0089582E18093C00100
:1018A000E6E4F2E0DF011D928A95E9F704C04430D6
:1018B00021F0842F20DF81E00895CB01C2DD81E09B
:1018C00008950F931F93FC01208120952093C00160
:1018D00006E412E030E024503040C801BF01A90105
:1018E0000E94AE1E6091C001C80170E0A3DB1F9191
:1018F0000F9108950F931F9307DC882319F410921A
:10190000C20168C01091C10108DCE12FF0E0E85A83
:10191000FD4F80831F5F1093C10180915802082FF3
:101920000095113059F5882359F41092C101809126
:10193000C201813009F0E6DE81E08093C2014AC035
:10194000063010F00331D0F01092C1018091C20135
:10195000823011F0802FCFDE82E08093C20139C047
:10196000D3DB8823B1F11091C101D7DBE12FF0E087
:10197000E85AFD4F80831F5F1093C1012091C10180
:10198000201770F330E0245030406FEF7FEF8FEF7F
:101990009FEF48E552E0F9DAE091C101F0E0EC5A3E
:1019A000FD4F208131814281538162177307840783
:1019B000950759F01092C1018091C201823049F01F
:1019C000802F92DE0093C00104C01092C20182E019
:1019D00001C081E01F910F9108958091C00188237B
:1019E00089F408956EDB882311F481E008959091C5
:1019F000BF01E92FF0E0EA5BFD4F80819F5F90938C
:101A0000BF016CDB9091BF018091C001981750F32A
:101A10001092BF011092C00180E00895BF92CF9252
:101A2000DF92EF92FF920F931F93D7DF882309F085
:101A300091C060DF882311F481DD8DC0813009F40D
:101A400089C0B090C1018AEFB80E1092C101D09048
:101A500059028FE38D1548F08D2D6AE572E04B2D0C
:101A600011DF882309F076C053C0E0905A02F0904D
:101A70005B0200915C0210915D0220914101309166
:101A800042014091430150914401CC24E216F306F7
:101A90000407150719F4CC24C39412C0D801C70158
:101AA000821B930BA40BB50B181619061A061B06FE
:101AB0003CF480E4D81621F0CA01B90101DE4AC025
:101AC0008D2D807C8034C1F48D2D6AE572E04B2D24
:101AD0002C2D23DE882369F4E091C501F091C60125
:101AE0003097B1F08D2D6AE572E04B2D0995882372
:101AF00079F0CC2079F117C0CC2021F4C801B701CE
:101B0000ADDD28C08091C7019091C801892B19F4DF
:101B10008D2DE3DD1FC088E592E0E5DC8823B9F078
:101B2000C801B7019BDD8091410190914201A091D4
:101B30004301B09144010196A11DB11D8093410163
:101B400090934201A0934301B093440103C0C801A4
:101B5000B701A9DD81E01F910F91FF90EF90DF9019
:101B6000CF90BF900895EF92FF920F931F93209113
:101B70004501309146014091470150914801DA01F9
:101B8000C9016DE0880F991FAA1FBB1F6A95D1F785
:101B900082279327A427B5277C018D0121E1169583
:101BA0000795F794E7942A95D1F7E826F9260A27AE
:101BB0001B27A801970185E0220F331F441F551FE3
:101BC0008A95D1F72E253F2540275127209345019F
:101BD000309346014093470150934801B901CA012F
:101BE0001F910F91FF90EF900895FC01DB0111828E
:101BF00010821D921C92FA0110820895089590E0BF
:101C0000FC01EB57FA4FE49123E3629FB0011124EA
:101C1000680F791FE62787EC90E0E89F802D11245C
:101C200008951F93CF93DF93CDECD1E010E0812F87
:101C30006091CC01E4DF89931F5F1333C1F7DF911B
:101C4000CF911F910895DF92EF92FF920F931F9310
:101C500093E0899FC0011124F82EE090CC016E2DF5
:101C6000CEDFD82E0F2D10E08F2D8F5F6E2DC7DFAA
:101C700003531E4FF8019181582F592740E02081CE
:101C80002D2530E0242B352BC9011F910F91FF909A
:101C9000EF90DF9008950F931F9393E0899F800149
:101CA00011240E5F802F6091CC01A9DFEDECF1E0F3
:101CB000E00FF11D9081892790E01F910F91089509
:101CC0001F93182FC0DF892B19F080E090E009C026
:101CD000812FE1DF20E0892B09F021E081E0282736
:101CE000822F1F910895DF92EF92FF920F931F931F
:101CF000F62EE72E93E0899FC0011124D82E082FDD
:101D000010E06091CC017BDF03531E4FF826F801F1
:101D1000F0828D2D8F5F6091CC0171DFE826F80194
:101D2000E1821F910F91FF90EF90DF900895FF9255
:101D30000F931F93F62E93E0899F800111240E5F6D
:101D4000802F6091CC015BDFEDECF1E0E00FF11D45
:101D5000F826F0821F910F91FF900895EF92FF9265
:101D60000F931F93CF93DF938091CB01882309F4C6
:101D70003BC000914B0110914C01C0E0D0E071E0FC
:101D8000E72EF12C8C2F5FDF892B59F4C7010C2E25
:101D900002C0880F991F0A94E2F780959095082356
:101DA00019232196CE30D10569F710934C01009389
:101DB0004B018EE048DF892B19F488E080934D01B8
:101DC0008FE041DF892B29F480E880934E018093D6
:101DD0004F0180E138DF892B29F480E8809350019E
:101DE000809351011092CB01DF91CF911F910F9100
:101DF000FF90EF90089580914B0190914C01892BB9
:101E0000A9F480914D01883089F480914E01803889
:101E100069F480914F01803849F4809150018038F5
:101E200029F490E080915101803809F091E0892FE8
:101E300008951F9381E08093C4018093CB0110E04B
:101E4000812F60E070E04FDF812F60E070DF1F5F67
:101E50001131B1F783DF1F910895FF920F931F9304
:101E6000CF93DF937BDF20914B0130914C01409168
:101E70004D0150914E0160914F0170915001809140
:101E8000510190915201FDD9F82EF9D9FF2011F49A
:101E900011E037C010E0812FD6DEEC01812FFBDE90
:101EA000682F8091C401882321F000E0C0E0D0E0D9
:101EB00007C0062F209711F0219702C06111015031
:101EC0008091CC018F5F8093CC01812FBE010BDF0D
:101ED000812F602F2CDF8091CC0181508093CC0129
:101EE0008F5F1F5F1131B9F68093CC0181E0809341
:101EF000CB01E091C901F091CA01309709F0099531
:101F000012E38CDD882311F01150D9F78F2DDF916A
:101F1000CF911F910F91FF900895DF92EF92FF9262
:101F20000F931F93CF93DF93F82EE62ED42EE90163
:101F30008091C401882319F090DF81E01DC0FF204B
:101F400011F410E101C01FE0812FBADE8823A1F057
:101F5000812FBE01C8DE812F602FE9DEFF2029F02E
:101F6000E0924E01D0924F0104C0E0925001D09215
:101F7000510181E08093CB01DF91CF911F910F91AF
:101F8000FF90EF90DF9008950F931F93CF93DF930F
:101F9000082FEB01142F8091C401882319F05DDF15
:101FA00081E00FC08EE08CDE882359F08EE0BE0108
:101FB0009ADE8EE0612FBBDE00934D0181E08093BD
:101FC000CB01DF91CF911F910F9108956F927F9276
:101FD0008F929F92AF92BF92CF92DF92EF92FF9239
:101FE0000F931F93CF93DF936C015B01742E80914D
:101FF000C401882311F031DF44C0C0E0D0E001E02B
:1020000010E0C8010C2E02C0880F991F0A94E2F755
:102010008C219D21892B21F08C2F52DE882391F178
:102020002196CE30D10569F700914B0110914C01FA
:10203000C0E0D0E0E1E08E2E912C66246394740120
:102040000C2E02C0EE0CFF1C0A94E2F7C7018C2193
:102050009D21892B71F08C2F33DE882351F08C2F3A
:10206000B50141DE8C2F672D62DE0E291F2960929B
:10207000CB012196CE30D10511F710934C0100937E
:102080004B0181E0DF91CF911F910F91FF90EF9075
:10209000DF90CF90BF90AF909F908F907F906F9088
:1020A00008951F9311E005C010E08091C4018823BA
:1020B00061F4D3DE8823C1F3112339F08091C40188
:1020C000882319F481E090E0DEDA1F91089585C23B
:1020D0000895A4C00895EF920F931F93CF93DF93B9
:1020E000982F762F8A01E9014830510510F408E055
:1020F00010E080E0692F472F9801EE2435D1CE0102
:10210000E8DFDF91CF911F910F91EF900895EF924B
:102110000F931F93CF93DF93982F762F8A01E901B6
:102120004830510510F408E010E081E0692F472F96
:102130009801EE2419D1CE01CCDFDF91CF911F9110
:102140000F91EF900895CF93DF939B01EA016530E3
:10215000710510F425E030E0B901A90120E072D149
:10216000CE01B7DFDF91CF910895CF93DF939B012D
:10217000EA016530710510F425E030E0B901A901EC
:1021800020E04BD2CE01A5DFDF91CF9108956BC83F
:1021900008950F931F930091490110914A0125EF73
:1021A0003DE030934A01209349010E9404031093BB
:1021B0004A01009349011F910F9108958093BE0138
:1021C00084B7877F84BF88E10FB6F894809360005E
:1021D000109260000FBEE1E6F0E080E8808310829C
:1021E00060E072EC81E090E00E9435080E945805A2
:1021F000789417CD813029F0813030F0823051F45D
:1022000006C020E430E008C024E030E005C020E84B
:1022100030E002C020E030E0C90108950F931F9321
:10222000CF93DF938C018091C401882341F4C0E0F7
:10223000D0E002C036DF2196C017D107D8F3DF9176
:10224000CF911F910F910895DF92EF92FF920F931C
:102250001F93CF93DF937C01EB01D42E84DC162FE8
:1022600013701330D9F300E0113029F0113030F041
:10227000123051F406C0EDEAF1E108C0E9E0F2E104
:1022800005C0E6EAF1E102C0E0E0F0E0C701BE010E
:102290004D2D0995882311F081E008C01F5F133090
:1022A00009F410E00F5F0330F9F680E0DF91CF9181
:1022B0001F910F91FF90EF90DF900895DF92EF92C2
:1022C000FF920F931F93CF93DF938C017B01EA0161
:1022D000D22E8091C401882311F009C0E2DEC8012A
:1022E000BE014D2DB1DF8823C9F3C70197DFDF9110
:1022F000CF911F910F91FF90EF90DF90089545E0EF
:1023000050E023E0DBCF0F93FA01022F623071051A
:1023100091F06330710518F4672B41F00AC0643006
:10232000710559F06630710521F40AC060E840E09B
:1023300009C060E806C06FEF04C060E84FEF02C05C
:1023400060E040E89F01E9DD0F910895FC01DB01A9
:10235000242F80E0BF01AD01D6CFFC01DB01242F8B
:1023600081E0BF01AD01CFCFCF92DF92EF92FF921C
:102370000F931F93DF93CF9300D000D00F92CDB770
:10238000DEB7C82ED62EF42E3A8329831C830B8306
:10239000ED828091C4018823D9F4E0914901F09144
:1023A0004A01CE010196BE016D5F7F4FAE014B5FCA
:1023B0005F4F099501C075DE2B813C818C2D6D2D01
:1023C0004F2D0D81AADD8823B1F389819A8126DF03
:1023D0000F900F900F900F900F90CF91DF911F9162
:1023E0000F91FF90EF90DF90CF900895EF920F93B1
:1023F0001F938901EE24B8DF1F910F91EF9008958C
:10240000EF920F931F93EE24AFDF1F910F91EF9088
:1024100008958230910581F08330910518F4892B5D
:1024200039F008C08430910549F0069719F408C0C6
:1024300080E007C088E005C082E003C084E001C0FE
:1024400086E0A2CD1F93DF93CF9300D000D00F92F0
:10245000CDB7DEB7182F7A8369835C834B832D83D6
:102460008091C4018823C9F4E0914901F0914A01A7
:10247000CE010196BE016D5F7F4FAE014B5F5F4F96
:10248000099501C00EDE6B817C81812F4D817CDD41
:102490008823C1F389819A81C1DE0F900F900F903C
:1024A0000F900F90CF91DF911F91089545E050E07C
:1024B00023E0C8CF23E0C6CFEF92FF920F931F9384
:1024C000CF93DF937C018091C401882329F510E02C
:1024D000C0E0D0E01EC0112321F0E3DD21961150B1
:1024E00018C041DB162F13701330D9F300E0812F91
:1024F00081DE65E070E043E069DD882311F013E0E0
:1025000008C01F5F133009F410E00F5F033079F744
:1025100011E0CE15DF05F8F2DF91CF911F910F91F9
:10252000FF90EF900895AF92BF92CF92DF92EF921B
:10253000FF920F931F93CF93DF935C016B017A019E
:102540008091C401882309F03DC0C0E0D0E002C002
:10255000A8DD2196C50165E070E043E037DD882302
:10256000B9F384E090E05ADE02C09BDD2196C601FB
:1025700065E070E043E02ADD8823B9F3CE15DF057E
:1025800008F5C50165E070E043E020DD8E010C5FD9
:102590001F4FCE15DF05B0F484DD2196C017D1079B
:1025A000C1F7C60165E070E043E010DD8E010C5F0D
:1025B0001F4FCE15DF0530F474DD2196C017D1070B
:1025C000C1F7DFCFDF91CF911F910F91FF90EF9077
:1025D000DF90CF90BF90AF900895EF92FF920F934E
:1025E0001F93CF93DF937C018B018091C4018823DB
:1025F00069F4C0E0D0E007C0C70165E070E043E0E7
:10260000E5DC4FDD2196C017D107B0F3DF91CF9104
:102610001F910F91FF90EF9008950F931F93DF93F9
:10262000CF9300D000D00F92CDB7DEB78C017A8364
:1026300069835C834B832D838091C4018823C9F413
:10264000E0914901F0914A01CE010196BE016D5F12
:102650007F4FAE014B5F5F4F099501C022DD6B815B
:102660007C81C8014D81B2DC8823C1F389819A81C4
:10267000D5DD0F900F900F900F900F90CF91DF91BD
:102680001F910F91089545E050E023E0C6CF23E06D
:10269000C4CF8091C401882311F0089502DDABDB23
:1026A0008823E1F70895CF93DF930E94C30789E061
:1026B00085DD8DE596E19093C8018093C7018091F7
:1026C000C401882329F01092C40180E00E94040311
:1026D000C4DB0E94B509EC01009789F3BC016E5F71
:1026E0007F4F488140954650E091C701F091C80165
:1026F00089810995882319F789810E946D0BDFCFA5
:10270000882339F080E090E16AE070E04AE550E02B
:1027100006C080E090E16AE070E04EEB50E025DD1D
:1027200080E090E16AE070E040E050E01ECDAF92C2
:10273000BF92CF92DF92EF92FF920F931F938C0183
:102740007B016A01590188E090E062E370E045DFB7
:1027500009581E4F88E090E064E070E0A801E3DED5
:1027600088E090E0B70139DFC601A6DEC501B1DC23
:102770001F910F91FF90EF90DF90CF90BF90AF909F
:10278000089588E090E064E670E027DF88E090E05C
:1027900064E070E042E350E0C6DE88E090E060E98B
:1027A00071E01BCF0F931F938C0183E090E091DCCD
:1027B000C80160E070E0A3DD1F910F910895DF92E2
:1027C000EF92FF920F931F93CF93DF93F42E282F56
:1027D00030E0C90188549A4FFC0194912E533A4F2E
:1027E000F9018491262F30E0F901E854FA4FD49092
:1027F0002E533A4FF901E490092F182FC0E0D0E092
:102800002AC0E11640F4FF2019F080E090E0CADF12
:102810002396115020C01E1558F4FF2019F084E0B3
:1028200090E0C0DF23961F5F1330A9F401E013C0CE
:102830000D1540F4FF2019F082E090E0B3DF2396FD
:102840000F5F09C0D01638F4FF2019F086E090E041
:10285000A9DF239601500D15A1F61E1591F6CE01A4
:10286000DF91CF911F910F91FF90EF90DF9008952E
:10287000EF92FF920F931F93E82EF62E82E090E0E6
:1028800064E070E03CDD82E090E064E070E037DD21
:1028900084E090E063E070E032DD84E090E064E0AA
:1028A00070E02DDD82E090E060E070E028DD84E003
:1028B00090E063E070E0E7DE84E090E063E070E0E9
:1028C000E2DEFF2011F402E301C001E310E084E046
:1028D00090E063E070E013DD1F5F1017C0F3FF208E
:1028E00019F46DE270E002C068E270E082E090E00E
:1028F00006DD84E090E063E070E001DD84E090E0DC
:1029000063E070E0FCDC84E090E063E070E0F7DC22
:1029100084E090E063E070E0F2DCEE2031F484E0EB
:1029200090E06DE270E0AFDE18C084E090E063E01C
:1029300070E0A9DEFF2011F40CE001C00AE010E015
:1029400084E090E063E070E0DADC1F5F1017C0F312
:1029500084E090E060E070E0D2DC1F910F91FF9086
:10296000EF9008950F931F93882319F413E004E068
:1029700002C012E003E084E090E064E170E04AE02D
:1029800050E085DE80E090E060E070E0B8DC84E05C
:1029900090E0612F70E077DE82E090E0602F70E0E1
:1029A000AEDC80E090E0612F70E0A9DC82E090E096
:1029B000602F70E0A4DC84E090E060E070E063DE13
:1029C00082E090E0602F70E09ADC82E090E0602F7F
:1029D00070E095DC82E090E060E070E090DC84E004
:1029E00090E064E170E04AE050E051DE1F910F9109
:1029F0000895FF920F931F93CF93DF93F82E8823B0
:102A000009F458C0662311F404E001C003E084E037
:102A100090E064E170E04AE050E039DE10E0CF2D54
:102A2000D0E0219706C084E090E063E070E067DCCE
:102A30001F5F812F90E08C179D07ACF384E090E03E
:102A400060E070E05CDC84E090E063E070E01BDE5E
:102A500082E090E0602F70E052DC10E006C084E07D
:102A600090E063E070E04BDC1F5F812F90E08C17FB
:102A70009D07ACF384E090E060E070E040DC84E02F
:102A800090E063E070E0FFDD82E090E0602F70E0B6
:102A900036DC82E090E0602F70E031DC82E090E094
:102AA00060E070E02CDC84E090E064E170E04AE0FB
:102AB00050E0EDDDDF91CF911F910F91FF900895D0
:102AC000EF92FF920F931F93F82E062FE42E80E0D3
:102AD00090E063E070E013DC10E006C082E090E07C
:102AE00063E070E00CDC1F5F1F15C0F380E090E036
:102AF00063E070E004DC84E090E068EC70E0C3DD4B
:102B0000EE2071F010E084E090E063E070E0F7DB2D
:102B10001F5F1431C1F780E090E063E070E0EFDB0D
:102B200082E390E07BDB82E063E070E0BFDC06C024
:102B300084E090E063E070E0E2DB01500023C1F745
:102B40001F910F91FF90EF9008951F93182F862FDC
:102B5000D7DD8AE590E0BDDA112369F184E06AE00F
:102B600070E0A4DC80E06AE070E0A0DC6091290104
:102B700070912A0184E090E04AE050E088DD86E030
:102B80006AE070E093DC6091290170912A0184E091
:102B900090E079DD81E090E06AE070E074DD86E04D
:102BA0006AE070E083DC60912B0170912C0184E07D
:102BB00090E069DD03C082E390E08BDA1F91089515
:102BC0009F92AF92BF92CF92DF92EF92FF920F93BC
:102BD0001F93CF93DF93182F962E7A01E901D7DA4E
:102BE0005B016C0180E090E1B7014AE050E04FDD0D
:102BF000183008F017E0812F60E0492D61DF84E094
:102C000090E0BE01EADC802F60E09FDF8CE291E083
:102C100060DABDDA9B01AC012A193B09C901DF91D9
:102C2000CF911F910F91FF90EF90DF90CF90BF90C9
:102C3000AF909F900895CF93DF93EA018823D1F05E
:102C4000CB0147DA80E060E070E04AE050E032DC3F
:102C50008AE090E06DE770E04AE050E018DD81E73F
:102C600092E02ADC81E0C53FD80740F0CE01845FC6
:102C7000914003C0CB0120DCCE012BDADF91CF9154
:102C8000089584E065E070E04FE050E013DC82E0FE
:102C900090E06CE370E04AE050E0F9DC84E065E04D
:102CA00070E04FE050E006DC60913B0170913C0128
:102CB00082E090E04AE050E0EACC5F926F927F922F
:102CC0008F929F92AF92BF92CF92DF92EF92FF923C
:102CD0000F931F93DF93CF93CDB7DEB72C970FB62B
:102CE000F894DEBF0FBECDBF182F6B01042F8139C2
:102CF000B1F1823940F48138F1F0803931F1803816
:102D000009F075C00CC0833909F446C08339B0F1AD
:102D1000843909F450C0853909F069C05BC084E08A
:102D20000E94560A882321F0802F0E947B0BD2C775
:102D30000E94C107CDC785E00E94560A882309F08A
:102D4000C9C7F601848125DAC3C786E00E94560A06
:102D5000882309F0BFC7F601848195810CC48AE0FD
:102D60000E94560A882309F0B5C7F601668177816B
:102D70004085518584819581F8D9AAC789E00E9450
:102D8000560A882309F0A6C7F60165817681478136
:102D900050858481D8D99CC78AE00E94560A88232E
:102DA00009F098C7F60146815781208531858481D5
:102DB0006581ADD98DC78AE00E94560A882309F043
:102DC00089C7F601468157812085318584816581D7
:102DD00082D97EC788E00E94560A882309F07AC704
:102DE000F601668177818481958171D971C780915F
:102DF0000002882309F49FC0173F88F4153F08F0AC
:102E000055C0123F19F1133F20F4113F09F093C050
:102E100013C0133F41F1143F09F08DC036C0183F75
:102E200009F466C0183F08F455C0193F09F400C101
:102E30001A3F09F080C06DC084E0B601402F0E94A7
:102E4000560A882309F046C724DC42C786E0B6014B
:102E5000402F0E94560A882309F03CC7F60184815E
:102E60009581DCD935C78BE0B601402F0E94560A08
:102E7000882309F02FC7F601668177814085518547
:102E8000848195812285C9DB23C78AE0B601402F62
:102E90000E94560A882309F01DC7F60165817681D4
:102EA0004781508584812185CDDA12C78BE0B60138
:102EB000402F0E94560A882309F00CC7153F09F4D9
:102EC00081E0F60126813781008511856481458185
:102ED000E284F2C088E0B601402F0E94560A88239F
:102EE00009F0F8C6F601668177818481958133C641
:102EF0008AE0B601402F0E94560A882309F0EAC6EC
:102F0000F6016681778140855185848195810BDB4F
:102F1000DFC68BE0B601402F0E94560A882309F0D5
:102F2000D9C6F60166817781408551858481958176
:102F30002285C4D9CDC6103FB9F488E0B601402F30
:102F40000E94560A882309F0C5C6F601848195813E
:102F5000A681B7818D559444A247B74F09F0BCC6EE
:102F600081E080930002B4C61B3B09F4B0C21C3B55
:102F700088F5133B09F4A2C0143BC8F4123A09F4D3
:102F800064C0133A50F4103A09F452C0113A08F0F0
:102F9000E8C11F3909F0A0C665C0113B09F4AEC0F5
:102FA000123B08F0BBC0103B09F096C69AC0173B15
:102FB00009F4E4C0183B38F4153B09F4C6C0163BCD
:102FC00008F0CFC0B5C0193B09F47DC11A3B08F029
:102FD00051C21BC1133C09F460C4143C98F41F3B5C
:102FE00009F43DC3103C38F41D3B09F490C21E3B6C
:102FF00008F0C4C27AC2113C09F4B3C3123C08F011
:10300000E5C372C3173C09F490C5183C38F4153C6D
:1030100009F4F8C4163C08F050C5B3C4193C09F4CF
:1030200002C6193C08F49AC51A3C09F055C61EC6DA
:1030300086E0B601402F0E94560A882309F04AC64E
:10304000F6018481958138DA43C686E0B601402FC7
:103050000E94560A882309F03DC6F60184819581B5
:1030600010DE36C68CE0B601402F0E94560A882337
:1030700009F030C6F601F3848481958160E070E048
:103080004F2D50E020E0C9DAF601868160E070E063
:103090004F2D50E020E0D6D981E0F60167814085D0
:1030A00020E030E00F2D10E0EE245ED980E0F60144
:1030B000618542852F2D30E057D90AC68CE0B601D4
:1030C000402F0E94560A882309F004C6F601668143
:1030D000778140855185228533858481958127DBE1
:1030E000F7C586E0B601402F0E94560A882309F0F2
:1030F000F1C5F6018481658128DDEAC589E0B60164
:10310000402F0E94560A882309F0E4C5F601658124
:1031100076814781508584818EDDDAC584E0B601F1
:10312000402F0E94560A882309F0D4C52ADBD0C557
:1031300086E0B601402F0E94560A882309F0CAC5CE
:10314000F6018481658194DBC3C585E0B601402F1B
:103150000E94560A882309F0BDC5F601848102DC6D
:10316000B7C586E0B601402F0E94560A882309F0B1
:10317000B1C5F601848165813CDCAAC585E0B60154
:10318000402F0E94560A882309F0A4C5F601148135
:1031900081E061E06DDB112399F18CE361E029DCD2
:1031A00084E090E064E170E04AE050E070DA86E0AC
:1031B00090E063E070E0A3D886E090E063E070E028
:1031C0009ED886E090E063E070E099D880E090E0DF
:1031D00062E070E094D886E090E063E070E08FD821
:1031E00080E090E062E070E08AD886E090E063E002
:1031F00070E085D880E090E062E070E080D802C0A6
:1032000081E0B0DB81E07CDA63C586E0B601402F67
:103210000E94560A882309F05DC5F60104811581D4
:1032200081E061E025DB84E090E064E170E04AE069
:1032300050E02DDA84E090E060E070E024DA82E093
:1032400090E063E070E05BD882E090E063E070E0E3
:1032500056D882E090E063E070E051D884E090E0DE
:1032600060E070E010DA82E090E063E070E047D860
:1032700086E090E063E070E042D880E090E062E0B9
:1032800070E03DD882E090E060E070E038D884E003
:1032900090E064E170E04AE050E0F9D984E090E029
:1032A00064E170E04AE050E0F2D986E090E063E04B
:1032B00070E025D884E090E062E070E020D880E003
:1032C00090E1B801C8C187E0B601402F0E94560ABC
:1032D000882309F0FFC4F6010481E580F68081E0CF
:1032E00060E0C6DA84E090E064E170E04AE050E03B
:1032F000CED984E090E060E070E0C5D982E090E053
:1033000063E070E00E947F1182E090E063E070E093
:103310000E947F1110E007C084E090E063E070E05D
:103320000E947F111F5F1017B8F384E090E060E007
:1033300070E0A9D982E090E063E070E00E947F1124
:1033400082E090E063E070E00E947F1184E090E012
:1033500064E170E04AE050E09AD980E090E1B70182
:103360007AC18BE0B601402F0E94560A882309F0EB
:10337000B1C4F601B480FCE0FB1510F48CE0B82E6B
:1033800030E020E0BE016F5F7F4FAE014E5F5F4FC8
:1033900013C0F601E30FF11D95813F5FE22FF0E0CE
:1033A000DB01AE0FBF1F892F8F708C93E40FF51FC9
:1033B00092959F7090832E5F2B1558F39924AA2421
:1033C000FF24F3943E010894611C711C42C0F30178
:1033D000EA0DF11D0081FE01EB0DF11D108100339E
:1033E00008F00053103308F010530A3008F000E0E2
:1033F0001A3008F010E08F2D602F40E0E0D96C010A
:103400008F2D612F40E0DBD98C159D0508F4012F2D
:103410008F2D602F41E0D3D97C01009721F483E008
:1034200090E00E946910992029F080E190E060E02E
:1034300070E029D984E090E060E070E024D9EC14D9
:10344000FD0418F0A394992403C0BA94992493948A
:10345000F02EAB1408F4BBCF83E090E00E9469101B
:1034600080E092E063E070E00ED980E092E063E0FB
:1034700070E010C288E0B601402F0E94560A8823EF
:1034800009F028C4F601068117816481758181E005
:1034900090E04AE050E0FBD880E090E065E070E02A
:1034A0000E947F1180E090E065E070E00E947F1153
:1034B00082E090E065E070E00E947F1180E092E0A1
:1034C00063E070E0E0D882E090E0B80144C387E0B8
:1034D000B601402F0E94560A882309F0FBC3F6016B
:1034E000848165814681ECDAF3C38BE0B601402F1D
:1034F0000E94560A882309F0EDC3F60146815781E0
:10350000208531858481658102855ADBE1C38CE0A9
:10351000B601402F0E94560A882309F0DBC3F6014A
:103520005480A580B68067807084818492841385DE
:10353000852D61E0A3019401012F42DB6C017C0128
:103540000DC08091C401882309F0C2C3852D60E0BD
:10355000A3019401012F34DBE80EF91EC7018C0D85
:103560009D1DA816B90668F7EA14FB0408F0B0C35D
:10357000C5018E199F090E946910AAC384E0B60193
:10358000402F0E94560A882309F0A4C382E090E0ED
:1035900063E070E00E947F1182E090E063E070E001
:1035A0000E947F1182E090E063E070E00E947F1152
:1035B00082E090E063E070E00E947F1182E090E0A2
:1035C00063E070E00E947F1182E090E063E070E0D1
:1035D0000E947F1184E090E063E070E00E947F1120
:1035E00084E090E063E070E00E947F1186E090E06C
:1035F00060E070E00E947F1184E090E064E170E0A0
:103600004AE050E044D882E090E063E070E00E943D
:103610007F1182E090E063E070E00E947F1182E021
:1036200090E063E070E00E947F1182E090E063E050
:1036300070E00E947F1182E090E063E070E00E9401
:103640007F1182E090E060E070E00E947F1184E0F2
:1036500090E064E170E04AE050E019D839C384E0BA
:10366000B601402F0E94560A882309F033C310E0A8
:1036700084E090E063E070E00E947F111F5F1D30E6
:10368000B9F784E090E060E070E00E947F1184E090
:1036900090E068E270E04AE050E00E94471386E064
:1036A00090E060E070E00E947F1184E090E068E2CA
:1036B00070E04AE050E00E94471380E090E060E054
:1036C00070E00E947F1184E090E063E070E00E946F
:1036D000431310E084E090E063E070E00E947F110B
:1036E0001F5F1D30B9F76BC085E0B601402F0E9407
:1036F000560A882309F0EEC2F601148184E090E0B6
:103700006CE070E00E94431384E090E068E070E0B9
:103710000E94431386E090E063E070E00E947F1116
:1037200086E090E063E070E00E947F1186E090E028
:1037300063E070E00E947F11112331F086E090E099
:1037400063E070E00E947F1110E084E090E063E0AD
:1037500070E00E947F111F5F1C33B9F784E090E096
:1037600067C084E0B601402F0E94560A882309F002
:10377000B1C210E080E090E063E070E00E947F1151
:103780001F5F1D30B9F780E090E060E070E00E94BC
:103790007F1184E090E06AE070E00E94431384E0CF
:1037A00090E06FE070E00E94431310E084E090E04E
:1037B00063E070E00E947F111F5F1A30B9F784E068
:1037C00090E060E070E00E947F1182C285E0B60167
:1037D000402F0E94560A882309F07CC2F60114810A
:1037E00084E090E06FE070E00E94431384E090E09A
:1037F00065E070E00E944313112331F086E090E011
:1038000063E070E00E947F1186E090E063E070E08A
:103810000E947F1186E090E063E070E00E947F11DB
:1038200086E090E063E070E00E947F1180E090E02D
:1038300060E070E00E947F1184E090E062E070E060
:103840000E94431382E090E063E070E00E947F11E9
:1038500082E090E063E070E00E947F1182E090E0FF
:1038600060E070E00E947F1184E090E063E070E02F
:103870000E94431382E090E063E070E00E947F11B9
:1038800082E090E062E070E00E947F1184E090E0CE
:103890006CE070E00E9443131BC285E0B601402F2C
:1038A0000E94560A882309F015C2F60184818F31DF
:1038B00098F584E090E06FE070E00E94431384E0AC
:1038C00090E065E070E00E94431386E090E063E0E2
:1038D00070E00E947F1186E090E063E070E00E945B
:1038E0007F1186E090E063E070E00E947F1186E047
:1038F00090E063E070E00E947F1180E090E060E083
:1039000070E00E947F1184E090E068E070E00E9427
:10391000431380E090E0CCC084E090E06CE070E085
:103920000E94431384E090E068E070E00E9443133B
:1039300086E090E063E070E00E947F1186E090E016
:1039400063E070E00E947F1186E090E063E070E049
:103950000E947F1180E090E063E070E00E947F11A0
:1039600086E090E063E070E00E947F1180E090E0EC
:1039700060E070E00E947F1184E090E063E070E01E
:103980005FCF84E0B601402F0E94560A882309F0D9
:10399000A1C184E090E06CE070E00E94431384E0F9
:1039A00090E068E070E00E94431386E090E063E0FE
:1039B00070E00E947F1186E090E063E070E00E947A
:1039C0007F1186E090E063E070E00E947F1180E06C
:1039D00090E063E070E00E947F1186E090E063E099
:1039E00070E00E947F1180E090E063E070E00E9450
:1039F0007F1186E090E063E070E00E947F1180E03C
:103A000090E04AC084E0B601402F0E94560A882305
:103A100009F060C184E090E06CE070E00E94431324
:103A200084E090E068E070E00E94431386E090E05C
:103A300063E070E00E947F1186E090E063E070E058
:103A40000E947F1186E090E063E070E00E947F11A9
:103A500080E090E063E070E00E947F1186E090E0FB
:103A600063E070E00E947F1180E090E063E070E02E
:103A70000E947F1186E090E063E070E00E947F1179
:103A80001CE384E090E063E070E00E947F1111503D
:103A90001130B9F784E090E060E070E00E947F119F
:103AA00084E090E062E070E00E94431382E090E0E6
:103AB00063E070E00E947F11C5CE84E0B601402F24
:103AC0000E94560A882309F005C181E06FEF4FEF8D
:103AD00022E330E00E94F61181E06FEF40EA20E03F
:103AE00030E00EEF11E00E94001284E090E06AEAFC
:103AF00070E00E94431384E090E06AEA70E00E9464
:103B0000431384E090E06AEA70E00E94431381E08E
:103B100060E040E822E330E006E811E00E94001295
:103B200082E090E066E871E0C3C086E0B601402F15
:103B30000E94560A882309F0CDC0F601E480F58082
:103B400081E06FEF40E820E030E087010E94001242
:103B500082E090E0B7010E94ED12BAC086E0B601A3
:103B6000402F0E94560A882309F0B4C0F601C48091
:103B7000D580EE24FF2452C081E060E84FEF20E0C2
:103B800030E000E210E00E94001284E090E060E18A
:103B900070E00E94431384E090E060E170E00E94D6
:103BA000431381E06FEF40E820E030E00E94001214
:103BB00084E090E060E170E00E94431384E090E0D4
:103BC00060E170E00E94431381E060E840E020E0A3
:103BD00030E00E94001284E090E060E170E00E941A
:103BE000431384E090E060E170E00E94431381E0C1
:103BF00060E040E820E030E00E94001284E090E0C5
:103C000060E170E00E94431384E090E060E170E0C6
:103C10000E94431380E890E0E80EF91EEC14FD04C6
:103C200008F4AACF55C084E0B601402F0E94560A7E
:103C3000882309F04FC081E06FEF40E924E630E0CF
:103C40000AEF10E00E94001284E090E064E670E069
:103C50000E94431384E090E062E370E00E9443130B
:103C600081E06FEF4FEF22E330E030C084E0B60137
:103C7000402F0E94560A882369F581E060E84FEFE3
:103C80002EE130E00E94F61181E06FEF40E924E080
:103C900031E00E94F61181E060E040E822E330E08C
:103CA00000E911E00E94001282E090E060E971E01A
:103CB0000E94ED1281E060EC40E028E730E00E94D5
:103CC000F61181E06FEF40E028E730E00E94F61146
:103CD0000E94D00981E001C080E02C960FB6F894D4
:103CE000DEBF0FBECDBFCF91DF911F910F91FF902F
:103CF000EF90DF90CF90BF90AF909F908F907F908C
:103D00006F905F900895A1E21A2EAA1BBB1BFD01C4
:103D10000DC0AA1FBB1FEE1FFF1FA217B307E407AA
:103D2000F50720F0A21BB30BE40BF50B661F771F02
:103D3000881F991F1A9469F76095709580959095E2
:103D40009B01AC01BD01CF010895FB01DC0102C064
:103D500005900D9241505040D8F70895FB01DC01C9
:103D600002C001900D9241505040D8F70895F89448
:023D7000FFCF83
:103D7200012003E8037800FA0064007D007701C89F
:103D820000FA007701FA00C40977015F057D00712E
:103D920002500077016E007701F4017701E45714B5
:103DA2000050005A002C012C01FA00FA0001000018
:103DB2000001000000381EE797FE0D000008808019
:043DC20080800000FD
:00000001FF
