:1000000005C3000020C300001EC300001CC3000085
:100010001AC3000018C3000016C3000014C3000078
:1000200012C3000010C3000074C500000CC3000020
:100030000AC3000008C3000006C3000004C3000098
:1000400002C3000000C30000FEC20000FCC20000AA
:10005000FAC20000F8C20000F6C200000C94DF0EE5
:10006000F2C200000C944D0F0C94220FECC2000061
:10007000EAC20000E8C20000E6C20000E4C20000DC
:10008000E2C20000E0C20000DEC20000DCC20000EC
:10009000DAC20000D8C20000D6C20000D4C20000FC
:1000A000D2C20000D0C20000CEC20000000000009A
:1000B00003836BF2F7703BE1F4F350131F979AC779
:1000C0001C14F135E8E7A126EB64CAD4CF58D98ACD
:1000D000CCDBB2783828E26B3BAB8999D0CF434D6B
:1000E000D34C28BF27BF78AC243C135E6FC75E108B
:1000F0006C4435E298B765F19B340E037050C4D759
:1001000073D3AF258720FF3684A394C4A09F879A1A
:10011000A31CEC6857EFBC7B546CD789BF081D5DEE
:10012000BC8B76AF487826BC4BFB4D4EDE8EBD2097
:10013000DD0DD6D229FE86C12A7DED33C11927E710
:10014000C29A4C1536691C0635EA77F411D664AAB2
:1001500012550F58E6A65F4BE52534B90E41FE6DEA
:100160000DC2959FF931C58CFAB2AE7EB149E3302C
:10017000B2CA88C24639D8D145BAB323AEDE79F7C0
:10018000AD5D120559AE42165A2D29E47E113ABAD8
:100190007D9251488961015B8AE26AA96186A07DEE
:1001A0006205CB8F96F69B9C9575F06EBC1D7B41CE
:1001B000BF9E10B34B6D40A048EE2B52A38AE18640
:1001C000A0098A7454FADA675779B1957345A2CBBE
:1001D00070C6C9398435992A87B6F2D86CD2380CE2
:1001E0006F5153FE9BA203ED9821681FD3DA25516E
:1001F000D0594EA324AA1EB027297542CC4DBF96D4
:10020000CFCED4643B3D847738BEEF851C82FCDBC7
:100210001F019729EBF2C73AE871ACC80315661CB9
:1002200000960DEEF4655DFDF7E6360F6293C6614C
:100230006110AD9395E3FD80966096727D045CA697
:100240007E8737548A74674789F70CB5ADCB1FEBAF
:10025000AE4874195ABB240A59384FF8B25C852C41
:10026000B1DFEEDE452CBECD46AFD53F0D549871C3
:100270000ED7F383FA24A390F9A7C86212C302B67B
:1002800011406944E5B33957E63052A5C20C41FB31
:10029000C18F2A09357C7A1A36FF11E8DD9BDB3CD9
:1002A000DE18B0CE2AEBE0DD29688B2F783BF68292
:1002B0007BB89D708F4BCD638CC8A69167AC6C45A5
:1002C000642F07B790DC57A4935F3C56B7632F08A1
:1002D000B4E044FA401314E943907F1BA8F4B5CF6F
:1002E000AB77DE3D5F848E2E5C07E5DC17FCA892C1
:1002F000147FC360E08C9373E30FF881086B325571
:100300000BE859A7FF1B09B4FC986246D8A47118E2
:10031000DB271AEA2FD44AF92C57210BC733EBDF1E
:10032000C4B0802D3043D03E33C0BBCCA6B54BA269
:10033000A536205051C5704352461BB1B922D16534
:10034000BAA1BA974E52EA844DD1817669ED9228CE
:100350006A6EF9DA9E9DA9C99D1EC23B767A08EFA6
:1003600075F9631D810A330E828958FCC97215B272
:10037000CAF17E403E022E533D8145A1D6E58F75E0
:10038000D566E4872195B4942216DF66062ACC3818
:1003900005A9A7CAF15AF7D9F2D99C2B19BD56FF66
:1003A0001A3E3D0DEECD6D1EED4E06ECC4268DC3FE
:1003B000C7A5E6313356B62230D5DDD0DBB1170400
:1003C000D8327CF62CC12CE52F4247170B7E5449BE
:1003D00008FD3FBBFC0E6FA8FF8D045A14E9CE8EBA
:1003E000176AA57CE399F56FE01A9E9DABE1D3D324
:1003F000A862B8215C91E8325F1283C0B4764914D8
:10040000B7F522E6430672F54085190764B90A5923
:10041000673A61AB93C931B8904A5A4A7B2E909E95
:1004200078ADFB6C8C5EAB7F8FDDC08D1AA830E39E
:10043000192B5B11EDD80B02EE5B60F0053FAA248F
:1004400006BCC1D6F24F91C5F1CCFA37D5F0E969B7
:10045000D673829B2280D2882103B97ACA6773AE91
:10046000C9E4185C3D17484F3E9423BD756F6EF389
:1004700076EC0501821F5512819C3EE06AF8F43447
:10048000697B9FC69D88CFD59E0BA427BA37B779C5
:10049000B9B4DC8B4D478C984EC4E76AA5A02DBE3D
:1004A000A623464C52D0165F51537DAD0501090578
:1004B000A1011500250135004501750195100509BB
:1004C00019012910810205012507463B0175049594
:1004D0000165140939814265007503950181011593
:1004E00000250135004501050909117501950181B6
:1004F00002050126FF0046FF0009300931093209D3
:1005000035750895048102750895018103C01201B3
:10051000000200000040D62020A7120101020301C2
:100520000902290001010080FA0904000002030009
:10053000000009211001000122620007058103402B
:10054000000407050103400004040309040E0350DE
:10055000006F0077006500720041000000700350DA
:10056000006F0077006500720041002000410064C8
:1005700000760061006E0074006100670065002075
:100580000057006900720065006400200043006F9E
:10059000006E00740072006F006C006C00650072E9
:1005A00000200066006F00720020004E0069006E9F
:1005B00000740065006E0064006F00200053007737
:1005C000006900740063006800200032000000220F
:1005D0000344003000300030003000300030003084
:1005E000003000300030003000300030003000308B
:1005F0000000005041426F74426173652D5465657F
:100600006E7379322E3000101000000011241FBECE
:10061000CFEFDAE0DEBFCDBF11E0A0E0B1E0EAE16C
:10062000F7E202C005900D92AC32B107D9F719E09C
:10063000ACE2B1E001C01D92A93CB107E1F70E9414
:10064000F5120C948B13DCCC9C014091C9035091A2
:10065000CA034617570718F4F90190E043C0611523
:10066000710511F0AB01F8CF8091E8008E7780938F
:10067000E80040E050E0F0CF8091C203882309F405
:1006800047C0853009F446C08091E80083FD44C02E
:100690008091E80082FD36C08091E80080FF22C092
:1006A0008091F3009091F200782F60E0292F30E0E4
:1006B000262B372B07C081918093F1004150504089
:1006C0002F5F3F4F4115510519F02034310598F344
:1006D00090E02034310509F491E08091E8008E77B4
:1006E0008093E8004115510539F6992329F60AC08F
:1006F0008091C203882361F0853061F08091E80029
:1007000083FD0AC08091E80082FFF2CF80E0089567
:1007100082E0089583E0089581E008959C0140916E
:10072000C9035091CA034617570718F4F90190E01E
:1007300044C06115710511F0AB01F8CF8091E8005C
:100740008E778093E80040E050E0F0CF8091C203C4
:10075000882309F448C0853009F447C08091E80037
:1007600083FD45C08091E80082FD37C08091E8009C
:1007700080FF23C08091F3009091F200782F60E019
:10078000292F30E0262B372B08C084918093F1006D
:100790003196415050402F5F3F4F4115510519F0A0
:1007A0002034310590F390E02034310509F491E0D4
:1007B0008091E8008E778093E8004115510531F66D
:1007C000992321F60AC08091C203882361F0853005
:1007D00061F08091E80083FD0AC08091E80082FF0B
:1007E000F2CF80E0089582E0089583E0089581E0EB
:1007F0000895BF92CF92DF92EF92FF920F931F93D3
:10080000CF93DF93182F092F7B016A01EFD0B82E09
:100810008823B1F5812F902F9C01E901C114D104E7
:1008200039F0F60180819181E81AF90AC80FD91FC1
:1008300000E010E022C08091E80085FD16C08091A4
:10084000E8008B778093E800A0D3C114D10449F06D
:10085000F60180819181800F911F9183808385E0D3
:1008600010C0C4D0882349F00CC08091F100899356
:100870000894E108F1080F5F1F4FE114F104D9F665
:100880008B2DDF91CF911F910F91FF90EF90DF9013
:10089000CF90BF900895BF92CF92DF92EF92FF92D8
:1008A0000F931F93CF93DF93182F092F7B016A01BA
:1008B0009DD0B82E8823B1F5812F902F9C01E9019E
:1008C000C114D10439F0F60180819181E81AF90A46
:1008D000C80FD91F00E010E022C08091E80085FD1C
:1008E00016C08091E8008E778093E8004ED3C11443
:1008F000D10449F0F60180819181800F911F91838D
:10090000808385E010C072D0882349F00CC08991A3
:100910008093F1000894E108F1080F5F1F4FE11484
:10092000F104D9F68B2DDF91CF911F910F91FF909C
:10093000EF90DF90CF90BF900895382F282F2EC0D2
:10094000822F8F708093E900231721F4762F942F44
:1009500050E006C07091EC009091ED005091F000D5
:1009600091FF1BC08091EB008E7F8093EB00809104
:10097000ED008D7F8093ED008091EB00816080938E
:10098000EB007093EC009093ED005093F000809199
:10099000EE0087FD02C080E008952F5F273080F2CF
:1009A0003F703093E90081E008958091C30388236C
:1009B0009CF404C08091C2038823B9F08091E800C0
:1009C00082FFF8CF8091E8008B778093E80008954C
:1009D0008091C203882349F08091E80080FFF8CF1E
:1009E0008091E8008E778093E80008954091E400BC
:1009F0005091E50024E68091EC0080FF24C08091B6
:100A0000E80080FD1EC08091C203882311F482E0BB
:100A10000895853011F483E008958091EB0085FFFF
:100A200002C081E008958091E4009091E500841770
:100A3000950709F3222311F484E008952150AC01B5
:100A4000DACF80E008958091E80082FFDCCFF9CF13
:100A5000EF92FF920F931F934FD056D008ED10E006
:100A6000F80180818F778083808180688083808196
:100A70008F7D808319BC1092C2031092BE03109226
:100A8000C0031092BF0380EEE82EF12CF7018081A5
:100A90008B7F8083F80180818160808380E060E0CB
:100AA00042E34BDFE1EEF0E080818E7F8083E2EE77
:100AB000F0E0808181608083808188608083F7019D
:100AC00080818E7F8083F8018081806180831F9187
:100AD0000F91FF90EF900895E8EDF0E080818F7E18
:100AE0008083E7EDF0E080818160808384E082BFD5
:100AF00081E08093C103ACCFE8EDF0E080818E7F90
:100B000080831092E20008951092DA001092E100C2
:100B100008951F920F920FB60F9211242F933F93B7
:100B20004F935F936F937F938F939F93AF93BF93F5
:100B3000EF93FF938091E10082FF0AC08091E20071
:100B400082FF06C08091E1008B7F8093E1001CD280
:100B50008091DA0080FF1FC08091D80080FF1BC009
:100B60008091DA008E7F8093DA008091D90080FF37
:100B70000DC080E189BD82E189BD09B400FEFDCFD1
:100B800081E08093C2030E94521005C019BC1092EC
:100B9000C2030E944F108091E10080FF18C0809135
:100BA000E20080FF14C08091E2008E7F8093E2001B
:100BB0008091E20080618093E2008091D8008062A1
:100BC0008093D80019BC85E08093C203DDD1809169
:100BD000E10084FF2FC08091E20084FF2BC080E100
:100BE00089BD82E189BD09B400FEFDCF8091D800A6
:100BF0008F7D8093D8008091E1008F7E8093E1000B
:100C00008091E2008F7E8093E2008091E20081601B
:100C10008093E2008091BE03882311F084E007C036
:100C20008091E30087FD02C081E001C083E08093F2
:100C3000C203AAD18091E10083FF22C08091E2002B
:100C400083FF1EC08091E100877F8093E10082E0F6
:100C50008093C2031092BE038091E1008E7F809347
:100C6000E1008091E2008E7F8093E2008091E200BB
:100C700080618093E20080E060E042E35EDE84D148
:100C8000FF91EF91BF91AF919F918F917F916F9164
:100C90005F914F913F912F910F900FBE0F901F903A
:100CA00018951F93DF93CF93CDB7DEB7AC970FB6F0
:100CB000F894DEBF0FBECDBFE3ECF3E08091F1000E
:100CC000819323E0EB3CF207C9F70E94EC0F80917F
:100CD000E80083FF41C18091C3033091C4033530E4
:100CE00009F48DC0363040F43130E1F1313070F02C
:100CF000333009F031C136C0383009F4FEC0393024
:100D000009F40DC1363009F027C19CC0803821F0AC
:100D1000823809F021C108C09091BF038091C003BF
:100D20008823B1F0926014C08091C7038F70873020
:100D300008F012C18093E9008091EB0090E025E07B
:100D4000969587952A95E1F7982F91701092E90072
:100D50008091E800877F8093E8009093F1001092E3
:100D6000F100D6C0882319F0823009F0F5C090E078
:100D70008F719070009721F0029709F0EDC00CC0C0
:100D80008091C503813009F0E7C01092C003333071
:100D900081F58093C0032DC08091C503882349F558
:100DA0002091C7032F70822F8150863008F0D4C065
:100DB0002093E9008091EB0080FF1BC0333021F4C9
:100DC0008091EB00806213C08091EB008061809382
:100DD000EB0081E090E002C0880F991F2A95E2F7AE
:100DE0008093EA001092EA008091EB008860809383
:100DF000EB001092E9008091E800877F8CC0882387
:100E000009F0AAC01091C5031F778091E300807894
:100E1000812B8093E3008091E800877F8093E80036
:100E2000C4DD8091E80080FFFCCF8091E300806802
:100E30008093E300112311F482E001C083E08093EA
:100E4000C2038AC08058823008F086C08091C503F2
:100E50009091C60323E08C3D920709F033C083E0F4
:100E60008C838AE28B837FB7F894DE0115966EE05F
:100E700040E050E011E2E62FF0E01093570084913B
:100E800040FF03C082958F706F5F8F70282F30E016
:100E90008A3018F0C901C79602C0C901C0968D9367
:100EA0009D934F5F5F4F4431510529F77FBF80917C
:100EB000E800877F8093E800CE0103966AE270E045
:100EC000C3DB15C06091C7037091C803AE014F5FCB
:100ED0005F4F0E94A50FBC01009709F43DC08091AF
:100EE000E800877F8093E80089819A8117DC8091F0
:100EF000E8008B778093E8002FC0803869F58091F7
:100F0000E800877F8093E8008091BE038093F10022
:100F10008091E8008E778093E80047DD1DC088232C
:100F2000D9F49091C5039230B8F48091E800877F9E
:100F30008093E8009093BE0338DD8091BE03882340
:100F400031F48091E30087FD02C081E001C084E0BC
:100F50008093C2030E9445108091E80083FF0AC07D
:100F60008091E800877F8093E8008091EB008062A9
:100F70008093EB00AC960FB6F894DEBF0FBECDBFEA
:100F8000CF91DF911F91089508951F938091C2031F
:100F9000882371F01091E9008091EC001092E90033
:100FA0008091E80083FF01C07CDE1F701093E90090
:100FB0001F91089547E050E00E947E139C0180E05D
:100FC000232B09F481E008950F931F93DF93CF93B0
:100FD000CDB7DEB763970FB6F894DEBF0FBECDBFB7
:100FE0008E010F5F1F4F83E1F80111928A95E9F797
:100FF0000E945510C80163E10E9462100E945610C1
:1010000063960FB6F894DEBF0FBECDBFCF91DF91D0
:101010001F910F91089564E00C946210AF92BF92FB
:10102000CF92DF92FF920F931F93DF93CF9300D065
:1010300000D0CDB7DEB78C016B01F42E5E010894B1
:10104000A11CB11C28C0F8016081F60181916F01DB
:10105000682770E0660F771F660F771F64557F4F14
:10106000C50144E050E00E947513F8018081918130
:10107000A281B381892F9A2FAB2FBB2729813A8177
:101080004B815C8182279327A427B5278083918396
:10109000A283B383FA94FF20B1F60F900F900F90C4
:1010A0000F90CF91DF911F910F91FF90DF90CF9024
:1010B000BF90AF900895DF92EF92FF920F931F932E
:1010C0008C017B01D42ECB01642FFCD7C801B70162
:1010D0004D2DA4DF1F910F91FF90EF90DF900895A9
:1010E0000F931F93DF93CF9300D000D0CDB7DEB71F
:1010F0008C01862FF8016081682770E0660F771FEA
:10110000660F771F64557F4FCE01019644E050E093
:101110000E947513F80180819181A281B381892F8A
:101120009A2FAB2FBB2729813A814B815C81822783
:101130009327A427B52780839183A283B3830F903D
:101140000F900F900F90CF91DF911F910F91089505
:101150000F931F93DF93CF9300D0CDB7DEB78C01F1
:101160008FEF9FEFAFEFBFEFF80180839183A283F2
:10117000B3836A5F609569834A83CE01019662E01A
:10118000A1D7C8016981ACDFC8016A81A9DF0F90CE
:101190000F90CF91DF911F910F910895CF92DF9221
:1011A000EF92FF920F931F93DF93CF9300D000D065
:1011B000CDB7DEB78C016B0178D77E010894E11CB6
:1011C000F11CC70168E044E1C3DFC701B80144E096
:1011D00072DFC701B60144E06EDFC7011CDF66D7CE
:1011E0000F900F900F900F90CF91DF911F910F9163
:1011F000FF90EF90DF90CF900895EF92FF920F93C2
:101200001F93DF93CF9300D000D00F92CDB7DEB7FE
:101210007C016D834AD78E010F5F1F4FC80165E0C7
:1012200042E196DFC801B70144E045DFC801BE01D5
:101230006B5F7F4F41E03FDFC801EDDE37D70F9096
:101240000F900F900F900F90CF91DF911F910F9102
:10125000FF90EF900895EF92FF920F931F93DF930B
:10126000CF9300D000D0CDB7DEB77C011ED78E0162
:101270000F5F1F4FC80164E041E16ADFC801B70199
:1012800044E019DFC801C7DE11D70F900F900F900F
:101290000F90CF91DF911F910F91FF90EF900895E4
:1012A000BF92CF92DF92EF92FF920F931F93DF9343
:1012B000CF93CDB7DEB72C970FB6F894DEBF0FBE35
:1012C000CDBFB82E6B0129873A874B875C87EDD657
:1012D000D6010D900020E9F77D010894E108F1089E
:1012E000EC18FD088E010F5F1F4F12C0C8016AE3A2
:1012F00043E22EDFC801B6014AE3DDDEC8018BDE22
:101300008AE390E0C80ED91EA6ECBFEFEA0EFB1EE2
:10131000BBE3EB16F10450F78E010B5F1F4F6E2DF0
:101320006C5FC8014B2D14DFC801BE01675F7F4FA2
:1013300044E0C1DEC801B6014E2DBDDEC8016BDE42
:10134000B5D62C960FB6F894DEBF0FBECDBFCF91A9
:10135000DF911F910F91FF90EF90DF90CF90BF90A2
:101360000895AF92BF92DF92EF92FF920F931F9377
:10137000DF93CF9300D000D0CDB7DEB77C0195D6F8
:10138000D7010D900020E9F78D01015010400E1992
:101390001F095E010894A11CB11C17C00B33110575
:1013A00018F06AE3D62E01C0D02EC5016D2D43E2A0
:1013B000CFDEC501B7014D2D7EDEC5012CDE8D2DA2
:1013C00090E0E80EF91E081B190B0115110531F705
:1013D0006DD60F900F900F900F90CF91DF911F91CE
:1013E0000F91FF90EF90DF90BF90AF900895CF9254
:1013F000DF92FF920F931F93DF93CF9300D000D023
:1014000000D0CDB7DEB7F82E6A018A5F8095898358
:101410006A838FEF9FEFAFEFBFEF8B839C83AD832A
:10142000BE8343D6CE01019662E04CD68E010D5F9D
:101430001F4FC801698154DEC8016A8151DEC601AF
:101440006F2D40D6C801B6014F2DE8DDC80164E01C
:1014500039D62CD626960FB6F894DEBF0FBECDBF78
:10146000CF91DF911F910F91FF90DF90CF90089562
:101470001F93DF93CF93CDB7DEB729970FB6F894BC
:10148000DEBF0FBECDBF482F80912D018823A9F567
:101490008BEC93E061E014D6882319F410922C01B0
:1014A00083C06091CB03662351F480912C0181307D
:1014B00021F080E040E050E09ADF81E01BC08091A5
:1014C0002D018F5F80932D01162F1095812F86504F
:1014D0008E3010F440E014C010922D0180912C0148
:1014E000823039F0198381E061E0AE014F5F5F4FD8
:1014F0007EDF82E080932C0157C01091CB031095C2
:1015000020912D01822F90E0612F621B85539C4F0B
:10151000D7D540912D01480F40932D01411708F474
:1015200043C08FEF9FEFAFEFBFEF8A839B83AC8306
:10153000BD834450CE0102966BEC73E06FDD609189
:101540002D01E62FF0E0E953FC4F208131814281EB
:1015500053812E833F83488759878A819B81AC8141
:10156000BD8182179307A407B50771F010922D0172
:1015700080912C018230C1F0198381E062E0AE01DC
:101580004F5F5F4F34DF10C08BEC93E090D510922B
:101590002C0110922D018091CB0380958650809371
:1015A000CB032BEC33E002C020E030E0C9012996E8
:1015B0000FB6F894DEBF0FBECDBFCF91DF911F9164
:1015C00008959091360180913701981719F440E001
:1015D00050E00FC0892F90E08F7390702DE030E0C5
:1015E000829FA001839F500D929F500D11244E5158
:1015F0005C4FCA0108950F931F93CF93DF93AC0103
:101600009091360180913701981739F41092330187
:10161000109232010FEF1FEF56C0892F90E08F73A9
:1016200090702DE030E0829FE001839FD00D929F6B
:10163000D00D1124C252DC4F8091320190913301C0
:10164000892B31F48C819D819093330180933201F9
:1016500080913201909133018417950738F0841BF3
:10166000950B909333018093320104C010923301A3
:1016700010923201009132011091330101151105D0
:1016800011F51886809136018F5F809336018EE2C6
:1016900091E0BE0113D574D36C837D838E839F83C9
:1016A00080912E0190912F01A0913001B0913101D4
:1016B0000196A11DB11D80932E0190932F01A0933F
:1016C0003001B0933101C801DF91CF911F910F918B
:1016D00008958F929F92AF92BF92CF92DF92EF9236
:1016E000FF920F931F93DF93CF9300D000D0CDB71D
:1016F000DEB79091350180913601981711F420E002
:101700005FC03ED36B017C013091360140E06DE05B
:1017100070E046C0822F90E08F739070869F8001AA
:10172000879F100D969F100D112402521C4FF80137
:101730008085882389F484819581A681B7814601BB
:101740005701881A990AAA0ABB0AD501C401805117
:101750009742A040B04038F44F5F2F5F2093340190
:101760004031F1F422C0321B80912E0190912F0163
:10177000A0913001B0913101831B9109A109B109F8
:1017800089839A83AB83BC83CE010196B80196D43A
:10179000F7D2F801648375838683978321E006C0BE
:1017A00020913401231709F0B5CF20E09091340146
:1017B00080913601981721F480913501809334018E
:1017C000822F0F900F900F900F90CF91DF911F916C
:1017D0000F91FF90EF90DF90CF90BF90AF909F90D0
:1017E0008F900895EF92FF920F931F93DF93CF9303
:1017F00000D000D0CDB7DEB7FC01609136018091FA
:101800003501262F281BE080F18002811381E982B7
:10181000FA820B831C8380912E0190912F01A0915D
:101820003001B09131018E199F09A00BB10B30E04E
:1018300040E050E0281739074A075B0798F18E2DE2
:1018400090E08F7390702DE030E0829FF001839FD5
:10185000F00D929FF00D1124E252FC4F81E0808741
:101860004DE050E01BC0822F90E08F739070849FFA
:10187000F001859FF00D949FF00D1124E252FC4F72
:101880008085882379F080913401821721F42F5FBD
:101890002093340121502F5F209335012091350191
:1018A000261709F70F900F900F900F90CF91DF91AF
:1018B0001F910F91FF90EF900895DC018091370107
:1018C000282F30E080913501A901481B510940348F
:1018D00051051CF0E0E0F0E016C02F7330708DE091
:1018E00090E0289FF001299FF00D389FF00D112402
:1018F0008D919D910D90BC91A02DE252FC4F819352
:101900009193A193B193CF01089580912E0180937B
:101910003501809336018093370180933401CCC325
:101920009091360180913701981729F4C5D3109210
:10193000330110923201809137018F5F809337011C
:101940000895DF92EF92FF920F931F93DF93CF934F
:1019500000D000D00F92CDB7DEB77C01FC01218111
:10196000203478F4A5D3882319F0833009F0A8C077
:10197000F7018081898381E061E0AE014F5F5F4FB5
:1019800027C0FC0182819381A481B5818A839B83D6
:10199000AC83BD832034F1F4EEE1F7E0108275965C
:1019A00089E0EE3BF807D1F78A819B81AC81BD814C
:1019B0000196A11DB11D8093380190933901A09328
:1019C0003A01B0933B0184E061E1AE014E5F5F4FAD
:1019D0000EDD76C02A813B814C815D81809138018A
:1019E00090913901A0913A01B0913B01281B390B2C
:1019F0004A0B5B0B57FF03C0DD24D3941AC021159B
:101A000031054105510511F4DD2413C020323105A3
:101A10004105510510F080E054C0213031054105E9
:101A2000510529F484E065E048E351E0E0DC82E020
:101A3000D82EC7016D2DB8D3482F8A8191E0D916D1
:101A400009F43EC090E08F71907025E130E0829FF4
:101A50008001839F100D929F100D1124025E184F7C
:101A6000423041F4D801F70185E101900D92815097
:101A7000E1F726C0433049F4F7018081898381E092
:101A800061E0AE014F5F5F4FB2DCDD20B1F4F801E1
:101A900010828091380190913901A0913A01B09162
:101AA0003B010196A11DB11D80933801909339012E
:101AB000A0933A01B0933B0103C08FEFF8018083FC
:101AC00081E00F900F900F900F900F90CF91DF91CA
:101AD0001F910F91FF90EF90DF900895CF93DF93C8
:101AE0008091380190E08F71907025E130E0829F05
:101AF000E001839FD00D929FD00D1124C25ED84F7C
:101B000088818F3F39F08823D9F0CE0160E04CD333
:101B10008230B1F018828091380190913901A09102
:101B20003A01B0913B010196A11DB11D809338018E
:101B300090933901A0933A01B0933B0181E001C039
:101B400080E0DF91CF91089593DC009719F0F9DEE2
:101B5000882321F4C3DF882309F4BBCD81E00895F5
:101B6000EF92FF921F93CF93DF93EC017B01142F31
:101B7000AB014E5F5F4F84E060E139DC123011F061
:101B8000113021F4188320E030E011C080913C0135
:101B9000882319F0BADE10923C01C70102968DDE4F
:101BA0009C01009711F482E001C081E08883C901A3
:101BB000DF91CF911F91FF90EF900895FF920F93C7
:101BC0001F93DF93CF9300D000D0CDB7DEB78C0149
:101BD000F62EFC0181818634A1F1873438F48234F9
:101BE000C9F0833429F1813449F40AC08C3409F4F2
:101BF0004FC08F3479F18B3409F43CC080E05DC074
:101C0000F8018081843009F053C08DEF9CE6A4EB8D
:101C1000B8E709C0F8018081843009F049C088E440
:101C200091E7A4EBB8E789839A83AB83BC831BC09D
:101C3000F8018081843009F03BC0C801029664E05D
:101C400007C0F8018081843099F5C801029660E4EC
:101C5000D4DA32C0F8018081843051F52BD2698307
:101C60007A838B839C83C8010296BE016F5F7F4F8E
:101C700095DA22C0F80180818430D1F4C80102963F
:101C8000EADAF2E0FF16B1F0FF20B1F43EDE14C054
:101C9000F8018081843061F4C8010296DCDAF2E058
:101CA000FF1641F0FF2041F481E080933C0105C024
:101CB00083E003C082E001C081E00F900F900F909D
:101CC0000F90CF91DF911F910F91FF900895FC012C
:101CD0008181833018F4813038F407C0843021F0DA
:101CE000813129F080E008956FD981E008958081E5
:101CF000843011F083E00895CF01029673DD81E016
:101D00000895CF92DF92EF92FF920F931F93DF938C
:101D1000CF93CDB7DEB728970FB6F894DEBF0FBECE
:101D2000CDBF7C016B01C1D18E010F5F1F4FC80178
:101D30006CE04AE40DDAC801B70144E0BCD9C8013F
:101D4000B60144E0B8D9B6D16D837E838F8398877E
:101D5000C801BE016B5F7F4F44E0ADD9C8015BD9BC
:101D6000A5D128960FB6F894DEBF0FBECDBFCF9198
:101D7000DF911F910F91FF90EF90DF90CF9008952A
:101D8000F89478946091BE097091BF098091C00960
:101D90009091C1090895F89485B5816085BD16BC00
:101DA000EEE6F0E08081816080831092BE0910929F
:101DB000BF091092C0091092C109789408951F922A
:101DC0000F920FB60F9211248F939F93AF93BF93EF
:101DD0008091BE099091BF09A091C009B091C1093D
:101DE0000296A11DB11D8093BE099093BF09A093D7
:101DF000C009B093C109BF91AF919F918F910F908E
:101E00000FBE0F901F901895F89480E190E090938A
:101E1000CD008093CC0082E08093C80088E9809355
:101E2000C90086E08093CA0010925101809151014F
:101E3000809350011092B3038091B3038093B20357
:101E4000789408951F920F920FB60F9211248F93DA
:101E50009F93EF93FF9390915001809151019817B8
:101E600021F488E98093C9000FC0909151019F5FD0
:101E7000933108F090E0E92FF0E0E35CFE4F8081C1
:101E80008093CE0090935101FF91EF919F918F919C
:101E90000F900FBE0F901F9018951F920F920FB6C4
:101EA0000F9211242F938F939F93EF93FF93209181
:101EB000CE009091B2039F5F8091B303981739F0E1
:101EC000E92FF0E0EE5AFE4F20839093B203FF918A
:101ED000EF919F918F912F910F900FBE0F901F90B8
:101EE0001895DC0128EB15C0909150019F5F93314C
:101EF00008F090E0809151018917E1F3E92FF0E0BB
:101F00008D91E35CFE4F8083909350012093C90034
:101F10006150662349F70895DC0120E012C09091DA
:101F2000B2038091B303981771F08091B3038F5F70
:101F3000E82FF0E0EE5AFE4F90819D938093B3031B
:101F40002F5F261760F3822F0895DA019330B9F0DE
:101F5000943030F4913049F0923009F035C00AC025
:101F6000913241F1923281F52AC0EEE0F5E022E1B2
:101F700030E02EC0E0E2F5E029E230E029C0813017
:101F800059F0813028F0823069F08330E9F40EC0D6
:101F9000E9E4F5E0849103C0EDE4F5E08491282FB5
:101FA00030E016C0EDE5F5E08491F9CFEFECF5E017
:101FB0008491F5CFE2E3F5E029E030E009C0ECEAF6
:101FC000F4E022E630E004C0E0E0F0E020E030E0C1
:101FD000ED93FC93C90108950895DF93CF93CDB796
:101FE000DEB727970FB6F894DEBF0FBECDBF0E94B5
:101FF000C5078091C2038430F1F482E08093E90048
:102000008091E80082FD17C08091E80085FF0AC03A
:10201000CE01019667E070E040E050E00E94F903D5
:10202000882349F48091E8008B778093E8000E9430
:10203000C50781E001C080E027960FB6F894DEBFA7
:102040000FBECDBFCF91DF9108959C018091C20357
:102050008430C9F481E08093E9008091E80080FF3A
:1020600012C0C90168E070E040E050E00E944B04FB
:10207000882349F48091E8008E778093E8000E94DD
:10208000C50781E0089580E0089582E060EC42E3B6
:102090000E949D0481E061EC42E30C949D0487E082
:1020A00091E05FC982E191E05CC9089508950895C7
:1020B0000ECE089565CE08951AC1089522CE0895D2
:1020C0002BCF08950ECF0895BF92CF92DF92EF925B
:1020D000FF920F931F93DF93CF93CDB7DEB729976E
:1020E0000FB6F894DEBF0FBECDBF7C01D62EC72E33
:1020F000B42E8E010E5F1F4F642F6C5FC8014FE13D
:1021000027D8C801B70144E00E945B088D2D9C2DA3
:10211000FC016F017E010894E11CF11C8E010A5F35
:102120001F4F2CC0F60184918983C70161E0CADF8B
:102130006A818981682770E0660F771F660F771FB5
:1021400064557F4FC80144E050E0CFD28A819B8123
:10215000AC81BD81892F9A2FAB2FBB272E813F8168
:102160004885598582279327A427B5278A839B838F
:10217000AC83BD83BA940894C11CD11CBB2091F6DA
:10218000CE0102960E940B0829960FB6F894DEBF86
:102190000FBECDBFCF91DF911F910F91FF90EF90B8
:1021A000DF90CF90BF900895FF920F931F93DF931E
:1021B000CF9300D000D0CDB7DEB78C01F62EFEDC79
:1021C000882309F08AC0F80191819A3450F4983438
:1021D00058F59534B9F0973409F1943409F07DC07D
:1021E00006C0903581F1903909F077C05BC0F801E5
:1021F0008081843009F070C0C801029663EF75E0F9
:1022000043E10AC0F8018081843009F065C0C8014B
:10221000029667E076E044E057DF42C0F801808133
:10222000843009F059C00AC0F8018081883009F073
:1022300053C0F2E0FF1611F482E04FC080E190E15C
:10224000A0E0B0E022C0F8018081843009F044C0F1
:1022500019821A821B821C828091C203843018F476
:10226000823050F404C0843061F0853091F41982DA
:102270001A821B821C820DC081E090E0A0E0B0E0D9
:1022800004C083E090E0A0E0B0E089839A83AB8350
:10229000BC83C8010296BE016F5F7F4F0E94CE08CB
:1022A00081E01BC0F80180818D30B1F48681978177
:1022B000892B91F0CE010196B8014F2D51DC00978A
:1022C00049F0DC01F801369689E001900D928150C9
:1022D000E1F726DB898101C083E00F900F900F901A
:1022E0000F90CF91DF911F910F91FF90089548DDDE
:1022F0006093B8037093B9038093BA039093BB03C0
:102300001092BD031092BC0381E080932B010895CD
:102310000F931F93DF93CF93CDB7DEB728970FB6F8
:10232000F894DEBF0FBECDBF8C01DE011196E2EC4A
:10233000F9E087E001900D928150E1F71886CE0117
:10234000019683DE282F882319F081E080932B01EA
:10235000F80180819181A281B3818093B40390932D
:10236000B503A093B603B093B703822F28960FB698
:10237000F894DEBF0FBECDBFCF91DF911F910F91BB
:1023800008950F931F938091BC039091BD0333D99F
:102390008C01BC0180E090E02DE730E040E050E0AF
:1023A00085D12091B8033091B9034091BA0350917F
:1023B000BB03260F371F481F591F2093B8033093C4
:1023C000B9034093BA035093BB031093BD0300932A
:1023D000BC031F910F910895F4D8009719F420E0E1
:1023E00031E003C09C012E5F3F4FC90108954F9219
:1023F0005F926F927F928F929F92AF92BF92CF9295
:10240000DF92EF92FF920F931F93DF93CF9300D051
:1024100000D0CDB7DEB7B4DC6093B8037093B903D6
:102420008093BA039093BB03645D704380409040F7
:102430006093B4037093B5038093B6039093B7038E
:102440006E010894C11CD11CE4ED4E2EE0E35E2E1B
:10245000612C712C7CE2872E7FEC972E7FEFA72ECC
:102460007FEFB72EBADD80E06FDB8ADC9B01AC0129
:1024700069837A838B839C8380912B01882371F5F8
:10248000C60146DF882371F3E090B803F090B903EA
:102490000091BA031091BB0329813A814B815C8181
:1024A000D801C701821B930BA40BB50BB7FF5FC00C
:1024B0002E193F09400B510B84E26AE171E00E9442
:1024C000500989819A81AB81BC818093B803909334
:1024D000B903A093BA03B093BB0349C08091B8037A
:1024E0009091B903A091BA03B091BB036DE7E62EBA
:1024F000F12C012D112DE81AF90A0A0B1B0BD8013A
:10250000C701820F931FA41FB51FB7FD32C064DF40
:10251000182F092F82EC99E0612F702F0E94DA07A3
:10252000882329F5A2ECB9E0812F902F9C01F901B5
:1025300087E001900D928150E1F710922B0120DC91
:1025400069837A838B839C832091B8033091B9038C
:102550004091BA035091BB03621B730B840B950B24
:1025600097FDEDCFC601D4DE882309F47BCF09DFC8
:1025700079CF06DC9B01AC0169837A838B839C83D2
:102580008091B8039091B903A091BA03B091BB03B5
:1025900083017201E81AF90A0A0B1B0BD801C70163
:1025A000820F931FA41FB51FB7FF5CCF8091B403A8
:1025B0009091B503A091B603B091B7038501740162
:1025C000E81AF90A0A0B1B0BD801C701820F931FE7
:1025D000A41FB51FB7FD46CFC6019ADE43CF88239F
:1025E00011F05E9A08955E980895EF92FF920F930E
:1025F0001F93CF93DF93A2ECB9E0E0E0F1E087E036
:1026000001900D928150E1F784B7877F84BF88E104
:102610000FB6F89480936000109260000FBE80E8BF
:102620008093610010926100569A80E0D8DFB3DB9E
:10263000EBDB0E946C057894C0E0D0E081E0CFDF56
:102640009FDB7B018C0104C080E07EDA0E94C5071D
:1026500097DB6E197F09800B910B685A7146804099
:10266000904090F380E0BBDF8BDB7B018C0104C0EA
:1026700080E06ADA0E94C50783DB6E197F09800B50
:10268000910B685A71468040904090F32196CA3071
:10269000D105A1F680E0A3DFAADE80E090E0DF9123
:1026A000CF911F910F91FF90EF900895629FD001FD
:1026B000739FF001829FE00DF11D649FE00DF11DFD
:1026C000929FF00D839FF00D749FF00D659FF00DAC
:1026D0009927729FB00DE11DF91F639FB00DE11D99
:1026E000F91FBD01CF0111240895FB01DC0102C0D7
:1026F00005900D9241505040D8F70895FB01DC0140
:1027000004C08D910190801921F441505040C8F7C8
:0A271000881B990B0895F894FFCF81
:10271A0000000880808080446973636F6E6E656311
:10272A007400436F6E6E6563740053636865647505
:0C273A006C652044656C617965640001E9
:00000001FF
